:100000003853002045210000E5560000D5200000AF
:10001000D5200000D5200000D5200000D52000000C
:10002000D5200000D5200000D52000005D20000074
:10003000D5200000D520000009200000BD5600009A
:100040001D2100001D2100001D2100001D210000B8
:100050001D2100001D2100001D2100001D210000A8
:100060001D2100001D2100001D2100001D21000098
:100070001D2100001D2100001D2100001D21000088
:100080001D2100001D2100001D2100001D21000078
:100090001D2100001D2100001D2100001D21000068
:1000A0001D2100001D2100001D2100001D21000058
:1000B0001D2100001D2100001D2100001D21000048
:1000C0001D2100001D2100001D2100001D21000038
:1000D0001D2100001D2100001D2100001D21000028
:1000E0001D2100001D2100001D2100001D21000018
:1000F0001D2100001D2100001D2100001D21000008
:100100001D2100001D2100001D2100001D210000F7
:100110001D2100001D2100001D2100001D210000E7
:100120001D2100001D2100001D2100001D210000D7
:100130001D2100001D2100001D2100001D210000C7
:040140001D2100007D
:1001440053B94AB9002908BF00281CBF4FF0FF313A
:100154004FF0FF3000F070B9ADF1080C6DE904CE3A
:1001640000F006F8DDF804E0DDE9022304B070478E
:100174002DE9F04F099E04468946002B40F0838008
:100184008A42154645D9B2FA82F24AB1C2F1200731
:1001940001FA02F39540944020FA07F747EA03096D
:1001A4004FEA154E230C1FFA85F8B9FBFEFC0EFB33
:1001B4001C990CFB08F143EA094399420AD9EB184C
:1001C4002CBF01200020994202D9002800F01D8193
:1001D4000CF1FF3C591AA3B2B1FBFEF00EFB101157
:1001E40000FB08F843EA0144A04505D92C1902D2C2
:1001F400A04500F20E810138A4EB080440EA0C404B
:1002040000271EB1D4400023C6E900433946BDE8A7
:10021400F08F002A51D0B2FA82F2002A40F0AF8067
:10022400491B4FEA154E1FFA85F80127230CB1FB31
:10023400FEFC0EFB1C1108FB0CF043EA0143984240
:100244000AD9EB182CBF01210021984202D90029B8
:1002540000F0D7800CF1FF3C191AA3B2B1FBFEF0F9
:100264000EFB101108FB00F843EA0144A04505D930
:100274002C1902D2A04500F2C1800138A4EB080475
:1002840040EA0C40BDE78B4208D9002E74D0002709
:10029400C6E9000138463946BDE8F08FB3FA83F762
:1002A40067B98B42C0F0A480824240F2A1803846F4
:1002B400002EABD0C6E90049A8E7FFDEC7F1200550
:1002C400BB4002FA07FC01FA07F4EA4020FA05F8F9
:1002D400E94000FA07FE1A4348EA04044FEA1248C8
:1002E400200C1FFA82F9B1FBF8FA08FB1A110AFB79
:1002F40009FB40EA01418B450AD951182CBF01235F
:1003040000238B4502D9002B00F088800AF1FF3AC4
:10031400A1EB0B01A4B2B1FBF8F008FB101100FB38
:1003240009F944EA0141894504D9511801D28945A2
:100334007BD8013840EA0A40A1EB0901A0FB0C89F3
:10034400494544464B4602D306D1C64504D201383A
:10035400B8EB0C0469EB0203002E5DD0BEEB040283
:1003640061EB030101FA05F522FA07F3F9400027CE
:100374001D43C6E9005149E73746304646E7C2F116
:100384002000954001FA02F721FA00F34FEA154ED6
:1003940024FA00F11FFA85F894403943B3FBFEF0C8
:1003A4000F0C0EFB103300FB08FC47EA03439C458B
:1003B40007D9EB182CBF012700279C4500D98FB320
:1003C4000138A3EB0C0389B2B3FBFEF70EFB173322
:1003D40007FB08FC41EA03418C4504D9691801D2A2
:1003E4008C4525D8013FA1EB0C0147EA00471DE7E6
:1003F400841A61EB03030120994659E702382C441F
:100404003CE7ACF1020C2B4426E7ACF1020C2B4484
:10041400E0E602382C44EFE63746F7E6AAF1020A92
:10042400114475E702382B44CBE70238114481E7C5
:10043400023F2944D7E700BF704700BF30B585B0FD
:100444004FF00000032363F302006FF3C500324B47
:10045400324A9B1AC3F3C90363F38F10304904F083
:10046400BEFE00F09BF82F4800F068F8A8B101A880
:1004740000F07CFE10B34FF00000012363F3020090
:100484006FF3C500244B254A9B1AC3F3C90363F3D6
:100494008F10254904F0A3FEFEE7012363F3020055
:1004A4006FF3C5001C4B1D4A9B1AC3F3C90363F3C6
:1004B4008F101C4A1D4904F092FEFEE703254FF0FD
:1004C400000065F302006FF3C500134C134BE41AEC
:1004D400C4F3C90464F38F10039A154904F07FFE32
:1004E4004FF0000065F302006FF3C50064F38F1052
:1004F400104904F074FE01A803F0BCFE4FF00000A4
:10050400012363F302006FF3C50064F38F100A49FB
:1005140004F065FEFEE700BF507D0000487D00004A
:100524009C7D0000B07D0000E07D0000C47D0000E3
:10053400007E00002C7E00004C7E000008B5054BB8
:100544001B6813B1034B186808BD03F09FFC014BF3
:100554001860F7E70800002010B900200860704711
:1005640008B502464FF00000012363F302006FF365
:10057400C500074B07495B1AC3F3C90363F38F1024
:100584000023054904F02BFE6FF0150008BD00BFE1
:10059400507D0000487D00006C7E000008B54FF4DB
:1005A400C051024802F0AEFD08BD00BF0C0000209F
:1005B40002680F4B9A420ED1C2680389D843824223
:1005C4000DD810B4D418012010B18B68A34204D9FB
:1005D4005DF8044B7047002070470020F8E70020C6
:1005E40010B18B68A34200D970470020704700BF48
:1005F4003DB8F3962DE9F843876AD0F85490802FDC
:100604000DD8B9F1800F0AD8836DD3F8088000257E
:100614002C462946AC46AE462A462B4621E04FF0EE
:100624000000022363F302006FF3C5004A4B4B4AF8
:100634009B1AC3F3C90363F38F10494904F0CFFD38
:100644000020BDE8F883466A06EBC10676683344A9
:10065400066D06EBC40676683244013101349A42D1
:1006640041D0B94201D34C455AD29A42EBD09A4276
:100674001CD9466A06EBC10676683344022D02D0C3
:1006840001310125EBE74FF00000022363F3020080
:100694006FF3C500304B314A9B1AC3F3C90363F3AC
:1006A4008F10304904F09BFD0020CAE7066D06EB6D
:1006B400C40676683244012D02D001340225CEE707
:1006C4004FF00000022363F302006FF3C500224BD6
:1006D400224A9B1AC3F3C90363F38F10214904F020
:1006E4007EFD0020ADE79E449444434505D8424531
:1006F40003D800252A462B46B3E74FF00000022317
:1007040063F302006FF3C500134B144A9B1AC3F33F
:10071400C90363F38F10144904F061FD002090E7CE
:10072400B94203D14C4501D1E64512D04FF0000047
:10073400022363F302006FF3C500074B074A9B1AB9
:10074400C3F3C90363F38F10084904F048FD002084
:1007540077E7012075E700BF507D0000487D000069
:10076400547F0000807F0000B47F0000E87F000019
:1007740010B588B004A9022004F0E7F806A9072000
:1007840004F0E3F84FF00000032363F302006FF377
:10079400C5004F4B4F4A9B1AC3F3C90363F38F1031
:1007A4009DF81030012B35D0032B31D04A4B9DF8E6
:1007B40011209DF812109DF81340029401910092AB
:1007C400464A474904F00BFD4FF00000032363F34E
:1007D40002006FF3C5003E4B3E4A9B1AC3F3C903A4
:1007E40063F38F109DF81830012B17D0032B13D00F
:1007F400394B9DF819209DF81A109DF81B4002945E
:1008040001910092374A364904F0E9FC002412E0D1
:10081400354BCCE7354BCAE7334BEAE7334BE8E7D4
:10082400334A00E0334A344904F0D9FC20464DE011
:10083400324AF8E70134032C36D89DF81010304BB7
:1008440013F8240003F0EDFF0028F3D02C4B03EB46
:1008540084039DF81810587803F0E3FF0028E9D0CA
:10086400274B03EB84039B78042B03D09DF81220C1
:100874009342DFD1224B03EB8404E4784FF0000071
:10088400032363F302006FF3C500114B114A9B1A53
:10089400C3F3C90363F38F10002CC3D0012CC7D05A
:1008A400022CBDD0174ABEE74FF00000032363F3C8
:1008B40002006FF3C500064B064A9B1AC3F3C90333
:1008C40063F38F10104904F08AFC002008B010BDB7
:1008D400507D0000487D0000148000005C80000012
:1008E4006C800000A88000002080000018800000B8
:1008F4004C80000028800000B080000030800000A0
:10090400D480000038800000C08000002DE9F04F42
:1009140083B006468A46914603F0ABFF80463146D3
:10092400002003F094FF071E4BDB0024A34625465A
:1009340007E02DB1BBF1000F02D1A34600E0012571
:100944000134BC4214DA9AF8651001230DF1070250
:1009540004FB0181304603F0BBFC002833DB012893
:10096400E7D0002DEBD0BBF1000FE9D02B4600E01F
:100974000023A3B945B3BBF1000F00D05C46144B70
:1009840083FB0423A3EBE4735A1CC9F8002003EB94
:100994004303E41A013489F80440002514E04FF0BD
:1009A4000000012363F302006FF3C500094B0A4AF8
:1009B4009B1AC3F3C90363F38F10084904F00FFCB7
:1009C400D8E7072500E00125284603B0BDE8F08FED
:1009D40056555555507D0000487D0000347F000079
:1009E4002DE9F84F884692461F46DDF828900B9E65
:1009F40000250FE023460F4AE919404604F0EFFCB6
:100A0400A0B923460B4A05EB0901504604F006FD44
:100A140070B92544B54206D2741BB4F5806FE9D988
:100A24004FF48064E6E70020BDE8F88F0120FBE77F
:100A34000120F9E77818002000B587B00020049061
:100A4400039002904FF480730193074B0093134675
:100A54000A46014600F0A6FC034618B9184607B03A
:100A64005DF804FB0323F9E7782800202DE9F04121
:100A740082B005460C461746002003F019FC01A974
:100A8400C0B201F047F928B14FF0FF35284602B053
:100A9400BDE8F0812C2000FB04562146284603F0D3
:100AA40058FC90B3336913F0100F33D1DDF8048090
:100AB40041463046FFF77CFDB0B9F4B94FF0000071
:100AC400012363F302006FF3C500134B134A9B1A0F
:100AD400C3F3C90363F38F10ACB9114A114904F08D
:100AE4007EFB4FF0FF3511E03B4642463146284637
:100AF400FFF7A2FF054648B1DFE7019882680021AD
:100B040004F0BCFCDAE7084AE8E70125019804F0A0
:100B140065FCBBE70125F9E7507D0000487D000036
:100B24001C81000024810000108100002DE9F043A5
:100B34008BB00F4615461C46536A53F830601B6849
:100B4400F61A92F8650003F07CFEAB6A013BB91912
:100B54006A6A52F8333012689B1A994202D9A7EB99
:100B6400000800E0B8462368012B23D000236371FA
:100B740009A9022001F0CEF808A9062001F0CAF85C
:100B840007A9072001F0C6F82379012B18D023798F
:100B9400022B7BD02379032B00F09F80099804F06B
:100BA4001DFC089804F01AFC079804F017FC0BB01D
:100BB400BDE8F083B84501D00123D8E70023D6E788
:100BC40007988268002104F059FC2368012B16D091
:100BD400CDF80480002300933346079A08992846E9
:100BE400FFF7FEFE2146284603F07AFD0223237117
:100BF4000028CCD0664A136801331360C7E7DDF8D8
:100C04001C9003A9062003F0A0FEA17901292BD191
:100C14009DF80F30012B2CD0A168484603F0E5FE67
:100C2400484600F0EFFA6379002BD1D109992846A0
:100C340003F0CEFCDDF8249003A9062003F085FE22
:100C4400A179012919D19DF80F30012B1AD0A1687F
:100C5400484603F0CAFE484600F0D4FA0798826872
:100C6400002104F00BFCB3E70022484603F0ABFE7E
:100C7400CEE7484603F0A0FECEE70022484603F044
:100C8400A2FEE0E7484603F097FEE0E73A46314625
:100C9400089804F0F3FBCDF8048000963346089AD4
:100CA40009992846FFF79CFE2368012B0DD02146A5
:100CB400284603F015FD0323237100283FF46AAF8F
:100CC400334A13680133136064E76379002BEED170
:100CD4000899284603F07CFCE9E73A46314609982E
:100CE40004F0CCFBCDF8048000960023099A079900
:100CF4002846FFF775FE6379CBB9667900236371E3
:100D04002146284603F0ECFC2368013323600123C9
:100D1400237118B11E4A136801331360002E3FF487
:100D24003DAF3A460021079804F0A8FB36E7079840
:100D340003F09FFD95F865305B00019346440096EF
:100D44000346099A07992846FFF74AFE18B1104A44
:100D540013680133136005A9072003F0F6FD9DF81D
:100D64001730012B0BD09DF8151001290BD1A16868
:100D7400099803F03AFE099800F044FABDE709988F
:100D840003F01AFEEFE70022099803F01CFEEEE7D9
:100D94007418002070B584B005460E4600230193F4
:100DA40002930B68012B02D10B79012B0AD006F1B7
:100DB4000801002003F0DEFDB36801930020034620
:100DC40001461BE00268314B9A420BD0EA6A2F4B72
:100DD4009A420CD0029B019A934200D90193019B41
:100DE400B360EBE701AA002103F065FBEEE702AA7A
:100DF4000121284603F05FFBECE70131019A9A4296
:100E040001D8834204D26C6A04EBC10464682344AD
:100E1400824201D8834204D92C6D04EBC104646876
:100E240020449A42E9D88242E7D89842E5D1002486
:100E340002E003990139013400290EDB03AA284694
:100E440003F065FA3368013BA342F2D833462A46DD
:100E540001460398FFF76AFEEBE70D4B1A68002A78
:100E640002DC002004B070BD4FF00000022363F3E5
:100E740002006FF3C500074B07495B1AC3F3C903AC
:100E840063F38F10054904F0AAF9EAE73DB8F39635
:100E940074180020507D0000487D0000E4800000AC
:100EA40038B504460D46FFF775FF0246AB7984F862
:100EB4006430033BDBB2012B0CD9AB79022B13D08A
:100EC400042B11D0032B0FD094F86430FF2B15D0D2
:100ED400104638BD002003F0C7FB02460028ECD0C2
:100EE400FF2384F86430E8E7002003F0AAFB0246FD
:100EF4000028E9D0FF2384F86430E5E74FF00000D0
:100F0400012363F302006FF3C500054B054A9B1AE6
:100F1400C3F3C90363F38F10034904F060F9FEE7D8
:100F2400507D0000487D00009C7E000038B50446DA
:100F34000D4603F05DFA60B90021204603F02FFB53
:100F4400E8B92046FFF756FB78BB012384F86430E8
:100F540014E04FF00000022363F302006FF3C500B6
:100F6400344B354A9B1AC3F3C90363F38F108022B1
:100F7400324904F034F9012384F8643038BD4FF069
:100F84000000022363F302006FF3C500294B2A4AD1
:100F94009B1AC3F3C90363F38F100022284904F09A
:100FA4001EF9012384F86430E8E72946204603F05B
:100FB4003DFA88B92B68012B02D12B79012B21D062
:100FC40029462046FFF76CFF0021204603F0E7FA8C
:100FD400012384F86430D1E74FF00000022363F367
:100FE40002006FF3C500134B134A9B1AC3F3C903E2
:100FF40063F38F100022134904F0F1F8012384F8FD
:101004006430BBE7AB79012B09D02A460121204685
:10101400FFF72CFD50B1052384F86430AEE7294670
:10102400204603F041FB84F86400A7E7AB7984F819
:101034006430A3E7507D0000487D0000A47E0000DA
:10104400E47E00000C7F0000F0B585B004460E4637
:101054006822002104F0E4FB3E4B63623E4B2365AF
:101064003E4BE36500250CE02946002003F020F9FF
:101074002C2101FB05F120312144C0B200F04AFECD
:101084000135012DF0D904F15801072000F042FE8A
:1010940001A92046FFF74AFF94F864308DF80A301E
:1010A400013B042B30D8DFE803F0070303032600D9
:1010B40001A9204603F04DFB94F86430FF2B27D0A0
:1010C400012B05D00021204603F069FA074668B9D0
:1010D400002211462046FFF7C9FC074650BB236A8D
:1010E4005B783371236A5B68B3603460A06D04F08D
:1010F40075F9002529E0002003F0B6FA0028DBD0BA
:10110400FF2384F86430D7E7FF2384F86430D3E7FF
:101114004FF00000012363F302006FF3C500104B8E
:10112400104A9B1AC3F3C90363F38F100E4904F0EA
:1011340056F8FEE70327D9E7C5F101032C2202FB89
:101144000343186A04F04AF90135012DF4D93846ED
:1011540005B0F0BD781C0020782400207820002001
:10116400507D0000487D00009C7E000008B50146CB
:101174000148FFF769FF08BD0C18002008B51022CC
:10118400034904F011FB08B1022008BD0120FCE76B
:101194004881000070B586B00E46184B1B88ADF828
:1011A4000430002407E0306804F018F923E03068C4
:1011B40004F014F90134012C1BD8314606AB234446
:1011C40013F8140C00F0A6FD0546A0B93068816838
:1011D400102302AA103904F002F905460028E2D1CE
:1011E4001022074902A804F0DFFA05460028DED1E0
:1011F40001E04FF0FF35284606B070BD887D000041
:101204004881000008B581681023054A103904F0AC
:1012140005F9034608B9184608BD0123FBE700BFDA
:101224004881000030B585B002A9022003F08DFB8F
:1012340000286DD16946062003F087FB002869D198
:10124400002407E02B79042B28D09DF80A20934230
:1012540024D00134022C47D804EB44035B002E4A0B
:10126400D5189DF80810D05C03F0DBFA0028F0D004
:101274009DF80010687803F0D4FA0028E9D0AB7820
:10128400042B03D09DF80B209342E2D1EB78042B7E
:10129400D8D09DF803209342DBD1D3E74FF0000070
:1012A400032363F302006FF3C5001C4B1C4A9B1A13
:1012B400C3F3C90363F38F106B79022B07D0032B9D
:1012C40010D0042B01D0174A02E0174A00E0174A55
:1012D400174903F084FF6879831EDBB2022B15D90A
:1012E400FF2013E0134AF3E74FF00000032363F3F6
:1012F40002006FF3C500094B094A9B1AC3F3C903E3
:1013040063F38F100C4903F06AFF012005B030BD70
:10131400FF20FBE7FF20F9E758810000507D000023
:10132400487D0000388000007C8100006C81000052
:1013340084810000748100009481000070B5A4B021
:10134400202928D80D4606460024144B1B68A342C6
:101354001CDD09A806F0DFF8002109A801F0FEFF52
:101364000F4B03EBC4025268126853F8341009A8F7
:1013740006F0D7F801A909A806F016F92A4631465D
:1013840001A804F011FA18B10134DEE74FF0FF347C
:10139400204624B070BD4FF0FF34F9E7907E000082
:1013A400947E00002DE9F041D6B017461D465F9C9F
:1013B40004945E9C039406AC02945D9C01945C9C32
:1013C400009403F022FB0646002840F08280609BD4
:1013D40023B1202206A9184604F0FEF90023009345
:1013E400FF232A4639464EA803F0D2FB06460028BE
:1013F4006FD1074680464FF0FF341DE04FF0FF34B5
:101404001AE04FF0FF3417E04FF0FF34012713E0E8
:10141400BDF85231202B60D10EAA5599284603F00D
:10142400DEFF00285CD120220EA906A804F0BCF936
:10143400002857D14FF001080DF251130DF5A97290
:1014440055A94EA803F009FC002840DB38DC9DF8C0
:101454005131102BDCD0012B21D0202BECD1002CCE
:10146400CCDB294B1B68A342CBDDBDF85231B3F56D
:10147400807F3FD10EAA5599284603F0B0FF00287B
:101484003BD1E4B20094BDF852310EAA202106A843
:1014940000F0B0F80028B7D04FF0FF34CCE7BDF827
:1014A4005231202B21D80EAA5599284603F097FFD4
:1014B400F0B99DF852110EA8FFF740FF0446BBE7B0
:1014C400B8F1000F1CD027B94FF0FF3601E04FF000
:1014D400FF36304656B0BDE8F0814FF0FF36F8E7EE
:1014E4000646F6E74FF0FF36F3E74FF0FF36F0E736
:1014F4000646EEE74FF0FF36EBE74FF0FF36E8E73E
:101504004FF0FF36E5E700BF907E000070B5ADF503
:101514001C7D4468B4F5807F55D1202A56D10E46EF
:1015240041AA194601F0D8FE0546002851D19DF87C
:101534000332BC2B50D10DF2E31109A803F0F6FAE3
:101544002B46DE2B07DC41AAD25C09A8C45C6240AE
:10155400C2540133F5E79DF8243003F07F038DF87E
:101564002430BD2D05DC09AB5B5D002B37D1013583
:10157400F7E79DF8E230012B37D181A805F0CBFFC6
:10158400002181A801F0EAFE0822194981A805F08A
:10159400C8FF2022314681A805F0C3FF20220DF1A7
:1015A400E30181A805F0BDFF01A981A805F0FCFFB6
:1015B40020220DF2E31101A804F0F6F8034680B1ED
:1015C4004FF0FF330DE04FF0FF330AE04FF0FF33ED
:1015D40007E04FF0FF3304E04FF0FF3301E04FF03A
:1015E400FF3318460DF51C7D70BD4FF0FF33F8E74F
:1015F400A48100002DE9F041ACB006460F469046A8
:101604001D469DF8C8400022114601A805F03DFF83
:10161400114B53F83420009203EBC4035B681B683E
:101624001A44694601A803F02FFA044610B9029B34
:10163400AB4206D001A805F036FF20462CB0BDE829
:10164400F08143463A46314601A8FFF75FFF04465E
:1016540001A805F028FFF0E7947E000008B50B68A8
:1016640001330B60014B1B68984708BD385B0020B1
:101674002DE9F04F83B08246019115469B46DDF873
:101684003090B9F1000F2CDD4FF001080A26002735
:10169400214C10E0B5FBF4F001993030D04708F14B
:1016A40001080127013EB5FBF4F304FB13551B4B62
:1016B400A3FB0434E408092C16D9002FEAD1AC4268
:1016C400E8D94E45EEDCBBF1020FEBD8BBF1010FBC
:1016D40005D020200199D04708F10108E2E7302025
:1016E400F8E74FF00109CFE7019905F13000D04741
:1016F400BBF1030F02D003B0BDE8F08FA9EB0808DB
:1017040003E001992020D047A04608F1FF34B8F146
:10171400000FF6DCEFE700BF00CA9A3BCDCCCCCC7F
:10172400014B1860704700BF385B002000B583B0E0
:10173400002301930B46024601A9034803F096FBDC
:1017440003B05DF804FB00BF611600004FF02002F7
:10175400EFF3118382F31188BFF36F8F044A0121E1
:10176400C2F8401583F31188BFF36F8F00207047D0
:10177400009003502DE9F04383B080460F4616468F
:10178400114B1B6898478146002400E001340F4B3D
:101794000F4A9B1AB4EB231F12DA0D4800EB041016
:1017A40043685B79002BF1D02301094AD3585D6863
:1017B400002DEBD000963B464A464146A847E5E754
:1017C40003B0BDE8F08300BF3C5B0020887D0000CF
:1017D400787D000008B5044B044A1A604FF40040B9
:1017E40000F008FA08BD00BF3C5B0020DB5100009C
:1017F400054B064A9B1AB1EBD30F02D252F83100C3
:1018040070470020704700BF787D0000487D0000CD
:1018140008B50B4BC31A1B1101334268137143689B
:101824001960436801225A71064B1B781BB1054BA2
:1018340001221A7008BD044802F080FCF7E700BFDB
:10184400787D00002C2B0020205C002038B5134B41
:10185400D3E8EF2F511CC3E8E01F0028F8D1DAB910
:10186400002405E0042200212846FFF7D1FF0134BB
:101874000B4B0C4A9B1AB4EB231F0DDA094D05EBF5
:1018840004152B7B002BF2D02301064AD3585B6945
:10189400002BE7D09847E5E738BD00BF7829002042
:1018A400887D0000787D0000104B1B7803B17047E1
:1018B40010B5FFF7CBFF002400E001340C4B0D4AB8
:1018C4009B1AB4EB231F0CDA0A4800EB041043689C
:1018D4005B79002BF1D02301064AD3581B69984742
:1018E400EBE7024B01221A7010BD00BF2D2B002024
:1018F400887D0000787D00000EB400B582B003AB93
:1019040053F8042B01930146044803F0AFFA002076
:1019140002B05DF804EB03B0704700BFD152000081
:10192400F0B585B011F0440F05D01A4B196831B9E0
:10193400002005B0F0BD1849FFF7DEFFF9E7174BAB
:101944001D68B2FBF5F5B5FBF1F4154AA2FB0432B0
:10195400D20A4FF4616606FB1246124BA3FB0673D0
:101964005B0901FB14544FF47A7505FB04F4B4FBD2
:10197400F1F707FB114405FB04F4B4FBF1F1029108
:101984000197C3EB0314A100711A00910649FFF7F4
:10199400B3FFCEE77C29002080830000802900204B
:1019A400C5B3A291898888888C83000061B108B589
:1019B4002AB1064A52F8232012B9054A00E0044A23
:1019C4000449FFF799FF08BD704700BF0883000072
:1019D400FC8200000483000011F0100F0BD108B545
:1019E40011F0200F03D00449FFF786FF08BD034917
:1019F400FFF782FFFAE770472C850000448300005C
:101A04002DE9F04105460F46164698460699FFF71C
:101A1400E3FF002404E024492846FFF76DFF013466
:101A24004445F8DB002409E01F492846FFF764FF1A
:101A34000BE01E492846FFF75FFF01340F2C0CDC36
:101A4400002C02DD14F0070FEED0B442F1D23A5D5F
:101A540017492846FFF750FFEFE716492846FFF7D6
:101A64004BFF002409E010492846FFF745FF0BE02F
:101A740011492846FFF740FF01340F2C12DC002CDB
:101A840002DD14F0070FEED0B44206D23A5DA2F1A3
:101A940020035E2BECD92E22EAE703492846FFF700
:101AA4002BFFE9E7BDE8F0814083000024830000B8
:101AB4001C830000288300002C830000F8B5044632
:101AC40016461F4649B9002586B10123079A93405B
:101AD40013F0100F16D10C4E09E00C4B079A53F873
:101AE40022200B49FFF708FF0546EDE7064E06994D
:101AF4003846FFF77DFE024631462046FFF7FCFEDE
:101B04002844F8BD034EF2E7308300004C83000004
:101B14003C8300003883000070B584B005461E463F
:101B2400C1F3C203C1F3891011F007040FD1089B5C
:101B340032462946104803F099F994B9304603F027
:101B44006EFB98B10D492846FFF7D6FE0EE00290D1
:101B540001930094134601220999284603F082FB5D
:101B6400E5E722460999284603F070FB284603F06E
:101B7400A0FB04B070BD00BFD15200004883000038
:101B84002DE9F04784B080461D460C9E0D9C0E9FA7
:101B940001F0070AC1F3C203C1F389110291019351
:101BA400CDF800A013460122394603F05BFB8146C1
:101BB4002A460F494046FFF79FFE6CB12546102C7C
:101BC40028BF102500974B462A4631464046FFF76A
:101BD40017FF2E44641BF0E752463946404603F093
:101BE40035FB404603F065FB04B0BDE8F08700BF59
:101BF40004830000074B01221A60074B984205D961
:101C04004008044A13685B001360F6E7034B18604E
:101C1400704700BF8029002040420F007C2900202B
:101C240008B5034802F032F9024B586008BD00BF02
:101C3400C08300008C29002008B5024803F039FB5A
:101C440008BD00BFC88300002DE9F04184B00E46F2
:101C5400174698464FF02003EFF3118583F311885C
:101C6400BFF36F8F0B4C204603F023FB0F2302932B
:101C74000B9B01930A9B009343463A463146204608
:101C8400FFF77EFF85F31188BFF36F8F04B0BDE8C3
:101C9400F08100BFC88300002DE9F04182B00E46F8
:101CA400174698464FF02003EFF3118583F311880C
:101CB400BFF36F8F0A4C204603F0FBFA0F23019306
:101CC400089B009343463A4631462046FFF724FFDB
:101CD40085F31188BFF36F8F02B0BDE8F08100BFB8
:101CE400C883000010B404460022084B1B689342CA
:101CF40008DD130106490968C818CB5CA34202D069
:101D04000132F2E700205DF8044B70477C84000048
:101D1400405B0020084B1B683BB110B50C46FFF735
:101D2400E1FF28B12060002010BD6FF00C00704767
:101D34006FF00100F8E700BF405B002000B58BB0F6
:101D440003AB0093024B03F022FB0BB05DF804FBE2
:101D54005753000010B504460A2807D0074B1868EB
:101D6400E1B243685B689847204610BD034B18688E
:101D740043685B680D219847F0E700BF982900206D
:101D840010B5044C204600F0EFFB2046FFF7C8FCDA
:101D940010BD00BF591D000008B5044802F076F8D4
:101DA400034B1860FFF7ECFF002008BDC083000060
:101DB4009829002008B501214FF4807003F093FBAB
:101DC40018B1094B9B685B7A33B102214FF48270DE
:101DD40003F089FB20B908BD034803F038FCF4E79D
:101DE400024803F034FCF6E7B45B0020C05B00203B
:101DF40020F07F40014BC3F840057047005001506C
:101E0400014BD3F8040570470050015070B50E4BD8
:101E14000022C3F840214FF02003EFF3118683F32F
:101E24001188BFF36F8FFFF7EBFF084D2C68214635
:101E340003F044FC04442C6086F31188BFF36F8FD5
:101E440002F0B0F970BD00BF00500150B429002069
:101E540070B5174802F01AF838B3426812680021C6
:101E64009047144D0024C5F808450126C5F840657F
:101E74004FF48033C5F804330F4B1C600F4B4FF401
:101E84000012C3F8802122463146152000F004F9DF
:101E9400152000F0F1F80A4B1E602E60FFF7B0FF2A
:101EA4003044FFF7A5FF204670BD4FF0FF30FBE73D
:101EB400AC840000005001504051015000E100E0AA
:101EC40008500150F8B5B0F1FF3F2AD0441E234B0F
:101ED4009C4201DC002C26DD204B9C4200DD204C82
:101EE4004FF02003EFF3118683F31188BFF36F8F54
:101EF400FFF786FF07461B4B1D68294603F0DEFBF0
:101F04002044013005443946284603F0D7FB022813
:101F14000BD92846FFF76CFF86F31188BFF36F8F48
:101F2400F8BD0F48D2E70024DAE72846FFF760FF40
:101F3400FFF766FF0146284603F0C0FB421E0A4B2A
:101F44009A4205D9094B4FF40012C3F80021E3E784
:101F54000128E1D1A81CFFF74BFFDDE7FDFFFF00DF
:101F6400FEFFFF00B4290020FEFF7F0000E100E037
:101F740010B54FF02003EFF3118483F31188BFF3FE
:101F84006F8FFFF73DFF044B196803F097FB84F351
:101F94001188BFF36F8F10BDB429002038B54FF0FE
:101FA4002003EFF3118583F31188BFF36F8FFFF7DD
:101FB40027FF054B1C68214603F080FB204485F372
:101FC4001188BFF36F8F38BDB4290020704700BF5C
:101FD400094A9368586609490968996608494B682B
:101FE40043F080534B60002383F31188BFF36F8F5A
:101FF4009368986E704700BF002B0020EC860000A9
:1020040000ED00E012498A684FF028001044EFF315
:10201400098C80E8F01F202080F31188BFF36F8FB4
:102024000C4F4FF00066CA698A603E60506E002310
:10203400536680F3118804B5104603F074FBBDE8C1
:10204400044002F1280090E8F01F8CF309887047DF
:10205400002B002004ED00E01EF0040F0CBFEFF392
:102064000880EFF30980816911F8021C0229FFD06E
:1020740001B503F02FFB01BD43B2002B08DB00F0D8
:102084001F005B09012202FA00F0024A42F8230011
:10209400704700BF00E100E0013143B2002B08DBD0
:1020A4004901C9B203F1604303F5614383F80013A6
:1020B400704700F00F004901C9B2014B1954704731
:1020C40014ED00E0014910220A60704710ED00E0B1
:1020D400EFF30880EFF30981724601B500F0D6F8FA
:1020E40001BD00BF30BFFFF7FDBF00BF08B5084BFF
:1020F40023F07F03074A9360BFF34F8FBFF36F8FC3
:1021040001F0ECFE01F0F6FE00F014F901F022FFFC
:102114000000000000ED00E001B5EFF30580A0F140
:1021240010004FEAC0000449014409C99847BDE8BA
:102134000140024908470000A47A0000D11F0000B2
:1021440003F043F8202080F3118808484FF400611D
:10215400401880F30988EFF314800221084380F3C8
:102164001488BFF36F8FFFF7C1FF000038530020BE
:1021740010B514460F4B9A6A9A6A9B6A13F0020FC1
:102184000BD00C4B5A6B9B6A13F0800F05D021B116
:10219400084A936A23F080039362064B9A6A9A6A08
:1021A4009A6A9A6A42F0FF029A6203F09FFA2070D8
:1021B400002010BD00ED00E010B51446124B9A6AE1
:1021C4009A6A9B6A13F4007F0BD00F4B9A6B9B6A3D
:1021D40013F4004F05D021B10B4A936A23F4004352
:1021E4009362094B9A6A9B6A13F4807F01D1064B70
:1021F4009B6A054A936A43F47F43936203F076FA39
:102204002070002010BD00BF00ED00E0074B9A6A6B
:102214009A6A9A6A9A6A9A6A9A6A9A6A9A6A6FEA45
:1022240002426FEA12429A620020704700ED00E019
:1022340038B500230B70124BDC6A14F002041DD174
:102244000546D86A10F0804019D00A46284628333B
:102254001B7843B90B4B1B784BB90B4B1B889BB2B8
:102264004BB920460BE00121FFF782FF07E0012173
:10227400FFF7A2FF03E0FFF7C9FF00E0002038BD2D
:1022840000ED00E029ED00E02AED00E070B58AB031
:10229400234B5B68C3F30803002585F31188BFF360
:1022A4006F8F02F07F45B5F17F4F17D102F00C0517
:1022B400082D16D012F0080F0DD00C4600250DF194
:1022C40027021946204603F013FA06469DF82730E4
:1022D40053B10AB070BD04460125F0E700252C4631
:1022E400EDE700252C46EAE72022214601A803F069
:1022F40073FA4DB1089BC3F308025AB96FEA53232A
:102304006FEA4323089305E0089B23F4FF7323F04B
:102314000103089301A9304603F0D8F9D9E700BFB7
:1023240000ED00E0024A536943F010035361704723
:1023340000ED00E0002206E002F00F01094B0B441F
:10234400202119760132402A0ADC53B2002BF3DB38
:1023540003F1604303F56143202183F80013F1E79F
:10236400704700BFFCEC00E038B505464FF0200391
:10237400EFF3118483F31188BFF36F8F05F01CFB17
:102384000A4B9B68AB4203D0204605F0A2FA38BD45
:10239400074B5B68C3F308032BB1054A536843F04A
:1023A40080535360F0E72046FFF712FE002B002015
:1023B40000ED00E0014B024A1A63704790ED00E023
:1023C400AAFF440010B40B6823F01F020C7A04F037
:1023D4001F031A43CB6823F01F03640943EA440331
:1023E40043F0010303498860CA600B615DF8044B44
:1023F400704700BF90ED00E010B50F2804D80446E4
:10240400FFF7E0FF204610BD4FF00004012363F303
:1024140002046FF3C504074B074A9B1AC3F3C903AD
:1024240063F38F1402460549204602F0D8FE6FF08C
:102434001504E7E7587D0000487D0000088500008A
:102444002DE9F84380460F4699461546002409E0D5
:102454003146E8B203F07FF9054610F1160F22D099
:1024640001350134BC421EDA58F824607368002B2D
:10247400F7D0B9F1000FEBD0304603F05AF9002839
:10248400E6D1012363F302006FF3C500074B084A4A
:102494009B1AC3F3C90363F38F102246054902F064
:1024A4009EFE6FF015052846BDE8F883587D0000B0
:1024B400487D0000E484000038B50E4B1A781346BA
:1024C4000F2B05DC0C4CA360002525610133F7E7D5
:1024D400002309E003EB8305AC00084D2D59064C9D
:1024E400A560002525610133002BF3DD0123FFF7EF
:1024F400A7FF38BD2F2B002090ED00E0B829002065
:10250400034B05225A60BFF34F8FBFF36F8F7047A1
:1025140090ED00E0BFF35F8F014B00225A607047DB
:1025240090ED00E038B50E4B1D68102D15D8FFF75F
:10253400F1FFFFF73FFF0024A54208D9084B596873
:1025440001EB04112046FFF73DFF0134F4E7054B8E
:102554001D70FFF7D5FF002038BD4FF0FF30FBE7BB
:10256400C48200002F2B0020014B1860704700BF6D
:10257400445B00200023072B3DD8F0B403F5A2727E
:102584001E4C54F8222012F0030F07D00133DBB2A3
:10259400072BF3D96FF01200F0BC704703F140022F
:1025A400920094B2154E03F5A27556F8252022F434
:1025B400473222F4407246F8252056F8257000026E
:1025C40000F4F8500A0402F440321043384346F849
:1025D400250004F1A04202F550420020106056F894
:1025E400252042F0010246F82520012202FA03F3D5
:1025F400C6F80433D0E76FF01200704700D00050E3
:1026040010B4144BD3F80443E4B2002300E00133C4
:10261400072B1BD803F5A2720E4951F82220C2F3EE
:1026240004229042F3D124FA03F212F0010FEED007
:102634000A4603F5A27051F8201021F0010142F876
:102644002010012101FA03F3C2F808335DF8044BAA
:10265400704700BF00D0005070B50D46866803680F
:102664009B681B7901F01F0444EA43142046FFF7DA
:10267400C7FF274A04F1800152F8213023F4403384
:1026840042F82130B368EB4013F0010F3BD0F368FC
:10269400EB4013F0010F38D07369EB4013F0010FD6
:1026A4001AD0B369EB4013F0010F0ED13369EB403C
:1026B40003F00103DAB2F36923FA05F505F0010525
:1026C400EDB2AA4206D0012100E003212046FFF723
:1026D40051FF19E00221F9E73369F269534023FA03
:1026E40005F515F0010F0CD10321094A803452F885
:1026F400243023F4403343EA014342F824300020D9
:1027040002E00221F1E7002070BD0020FCE700BFD9
:10271400002584502DE9F04F83B0846803F470459C
:10272400B5F5804F37D020DDB5F5E04F3FD029DD3A
:10273400B5F5404F3ED0B5F5504F40F0B0804FF066
:10274400070803F44075B5F5807F39D0B5F5007FEF
:1027540033D0002501951E46074603F0010BDA46E7
:10276400012930D0D5B2A94659E0B5F5805F15D01E
:10277400B5F5405F15D0BDB16FF01503184603B031
:10278400BDE8F08FB5F5A04F02D14FF00308D8E7AC
:102794006FF01503F2E74FF00208D2E74FF001089B
:1027A400CFE74FF00408CCE74FF00008C9E74FF03B
:1027B4000508C6E74FF00608C3E701250195CAE7F7
:1027C40003250195C7E74FF01F09002527E0A368FB
:1027D4000122AA4023EA02033DE0636901228A4000
:1027E40023EA02033FE0A36901228A4023EA0203A9
:1027F40041E0236901228A4023EA020343E0E369BA
:10280400012202FA01F123EA0101E1612946384675
:10281400FFF722FF03460028B0D10135EDB2A945E8
:102824003BD33B689B681A79294605F01F0343EAAA
:1028340042134BEA4A02019842EA800242EA082221
:102844008033184840F8232016F0020FBFD0A36845
:102854000122AA401343A36016F0200FBDD0636980
:1028640001228A401343636116F0400FBBD0A36971
:1028740001228A401343A36116F0040FB9D02369DF
:1028840001228A401343236116F0800FB7D0E36915
:10289400012202FA01F11943B7E700236EE76FF052
:1028A40015036BE700258450F0B4856803689E68BF
:1028B400EA68AB6813406A69A9690A4323EA020318
:1028C400012200200FE04FF0020C114F803157F825
:1028D400214024F4403444EA0C4447F8214023EADC
:1028E40002030130520083B11A42FAD0347900F065
:1028F4001F0141EA44112C69EF697C40C44014F083
:10290400010FE0D14FF0030CDFE7F0BC704700BFCC
:1029140000258450F0B4816803689F68CB688A6896
:1029240013404A698869024323EA02033A6810693A
:10293400CA6950400A69504023EA00000122002479
:1029440001E0013452008BB11342FAD03D7904F016
:102954001F0141EA4511064E803156F8215025F4F5
:10296400403546F8215023EA0203EAE7F0BC7047F9
:1029740000258450F0B583B0002301932E4B1C68CE
:102984000CB9002108E02D48FFF7C4FF01902A4B41
:1029940000221A60F5E70131072925D801F1400327
:1029A4009B009AB201238B402548D0F804030342CC
:1029B400F1D002F1A04303F550431B68002BEAD089
:1029C40001F5A2731E4850F82300C0F3042001232C
:1029D40003FA00F0019B0343019302F1A04303F5C2
:1029E400504300221A60D6E7019E16B9FCB903B021
:1029F400F0BD124B9F68396819B10D4649B10D6895
:102A040007E00D4605E085B12B4605B12B68294644
:102A14001D460029EAD08B683340FA681342F2D08D
:102A24004B68324605489847EDE72B46EFE70348E5
:102A3400FFF73AFFDBE700BF7CD10050085C0020C1
:102A440000D0005008B50B4B1B780BB1002008BD1B
:102A5400084B01221A70002205210D20FFF71CFBF0
:102A64000D20FFF709FB044B4FF00042C3F8042389
:102A7400ECE700BF302B002000D00050034BD3F80C
:102A8400003413F0010FF9D0704700BF00900350D9
:102A9400014B197000207047312B0020024B0B6052
:102AA40001231360704700BFEC29002010B504F027
:102AB400A2FE054C206004F09AFE6060034B0122E4
:102AC4001A70002010BD00BFEC290020312B00201B
:102AD40070B50C46154604F08AFE1B4B1B78F3B9FF
:102AE400064604F080FEA0421CD9002C1DDB854262
:102AF4001ED82B1998421ED3B4FBF6F306FB1343DE
:102B0400E3B9B5FBF6F306FB1353D3B9AE4201D9CF
:102B1400002009E02946204602F05DFF04E06FF042
:102B24000C0001E06FF0150070BD6FF01500FBE7BD
:102B34006FF01500F8E76FF01500F5E76FF015007A
:102B4400F2E76FF01500EFE7312B0020154800780D
:102B540008BB70B51D4616460C4604F044FEA04260
:102B640008D9002C0BDB85420BD82B1998420AD3C9
:102B7400012300E000238BB13DB9002070BD002388
:102B8400F9E70023F7E70023F5E72A463146204614
:102B940002F05CFFF2E76FF00C0070476FF0150075
:102BA400ECE700BF312B002003689B681A6847F6E6
:102BB400122399426DD010D9B1F5E13F78D040D9B4
:102BC400B1F5E12F7DD058D8B1F5613F7CD0434BAE
:102BD40099424FD14FF0806357E0B1F5965F5BD0D7
:102BE40018D8B1F5167F59D008D9B1F5966F58D0D9
:102BF400B1F5166F0BD14FF41D2346E0B1F5967F66
:102C040002D14FF4A03340E06FF0150070476FF02D
:102C140015007047B1F5615F46D007D9B1F5964FFD
:102C240044D0B1F5E14F09D12D4B2EE0B1F5165F3B
:102C340001D12C4B29E06FF0150070476FF015009F
:102C440070474DF6C023994235D007D9B1F5614F8D
:102C540034D0B1F5963F0AD1234B16E0B1F5164FA7
:102C640002D14FF41D0310E06FF0150070476FF0B0
:102C7400150070476FF015007047B1F5612F26D02D
:102C84001A4B994226D14FF08053C2F824350020C4
:102C940070474FF40003F8E7154BF6E74FF41C3385
:102CA400F3E74FF49E23F0E7124BEEE7124BECE709
:102CB4004FF0EB73E9E74FF46503E6E74FF46B037A
:102CC400E3E74FF0E863E0E74FF06C73DDE74FF0C4
:102CD4007063DAE76FF01500704700BF90D003000F
:102CE40000C075000050270000903A0140420F00D8
:102CF40000B0130000F03A0000A04E00F8B51646EC
:102D040003689B681C6885680B6801229A40274BFE
:102D14009A600A688032032743F822704A68803236
:102D2400002743F822700A684B68C4F80C25C4F8DD
:102D340014358B68B3F1FF3F18D0CB68B3F1FF3F74
:102D440014D0012202FA03F3184A9360CB6880334B
:102D5400032742F823708B688033002742F82370DE
:102D6400CA688B68C4F80825C4F81035816802F075
:102D7400E2FE0346C0B90822C4F800250022C4F8C4
:102D8400102105F10C02C4F834250122C4F83825B9
:102D940022604EB1AA689268C4F844250022C4F89F
:102DA40048250122A260E2601846F8BD002584503F
:102DB40030B585B005460A4B6C460FCB84E80F004E
:102DC400002201210820FFF767F90820FFF754F9D2
:102DD400012221462846FFF791FF05B030BD00BF10
:102DE4008C7D00000268124B9A4215D1C269A3F18E
:102DF4001023A3F1EF139A4210D18368012B0FD84B
:102E0400C36813B1026993420CD0436963B1826908
:102E140093420BD000207047012070470120704777
:102E2400012070470120704700207047012070473F
:102E340055AA00FF70B5114B9D68C5B12846FFF730
:102E4400D1FF0646A8B9EB6813B10126304670BD20
:102E54002C6901E025462469002CF7D02046FFF7B1
:102E6400C1FF40B9E368AB42F4D00126EEE7012686
:102E7400ECE70126EAE70126E8E700BF142A002070
:102E8400002800F0918038B50446484B1B68002B9D
:102E94006DD0464A9268002A69D0834204D8434AD6
:102EA40052681344834203D8414B1B68012098475E
:102EB400A4F120052846FFF795FF18B13C4B1B6889
:102EC4000120984754F8183C012B03D0384B1B6859
:102ED40001209847002344F8183C54F8143CD3B11B
:102EE4009A68BAB954F81C2C59680A4420325A60BA
:102EF40054F8143C54F8102C1A6154F8144C2369F7
:102F040003B1DC6020220021284602F089FC2B4614
:102F1400254600E000232C691CB3A2680ABB636841
:102F24006A68134420336B6023692B616B69FBB1BE
:102F340013B3AA699A61AB690BB16A695A6163698F
:102F44006B61A269AA61DBB19D61AB6903B15D618B
:102F54002B6903B1DD6020220021204602F060FCD1
:102F6400234683B1114B1B6913F0020F13D138BDF3
:102F7400AA69002ADCD1E2E7AA690C4BDA60DAE735
:102F84000A4BDD60E1E7094BDB68AB6103B15D61CE
:102F9400064BDD60E6E7FFF74DFF0028E7D0044B62
:102FA4001B6801209847E2E7704700BF142A0020FD
:102FB4006C5B002070B54F4BDC681D68002D5AD047
:102FC4009D68002D57D001FB00F6002800F0888092
:102FD400002900F08780B6FBF0F0884240F084803E
:102FE40016F1040F00F2828016F0030F08D026F0C9
:102FF4000305043534B16368AB4203D2A469F9E72D
:103004003546F7E7002C73D0A3681BB13A4B1B6815
:10301400012098476268521B232A2ED905F120010A
:103024006318203A5A6000229A60DC6022691A61AF
:10303400324860503249D96102B1D36062695A6141
:10304400A1699961002A3FD093619A6902B15361E1
:103054000122A2606560236100236361A361254BA3
:103064001B6913F0010F32D104F12005324600210F
:10307400284602F0D5FB284670BD0123A36063698E
:10308400ABB1A2699A61A3690BB162695A61002369
:103094006361A361174B1B6913F0010F0BD104F19A
:1030A400200532460021284602F0BAFBE3E7A26974
:1030B400104BDA60E7E7FFF7BDFE0028EFD00E4BB8
:1030C4001B6801209847EAE70A4AD360BDE7FFF787
:1030D400B1FE0028C8D0084B1B6801209847C3E7FD
:1030E4000025C8E70025C6E70025C4E70025C2E798
:1030F4002546C0E7142A00206C5B002055AA00FF77
:10310400669911EE38B505460C4614220021134881
:1031140002F086FB1249134800F038F8232C1CD91E
:1031240015F0030304D01C44043CC3F104031D4400
:1031340022460021284602F073FB084B1D605C60A8
:103144009D60203C6C609A68074911609A68A1F1FF
:103154001021A1F1EF11D161DA6038BD142A0020E9
:10316400852E0000B92F000055AA00FF08B5024BB8
:103174001B68984708BD00BF685B002008B5024B78
:103184001B68984708BD00BF705B0020024B1860A5
:10319400024B196000207047685B0020705B0020C0
:1031A40008B5034B1B680A460021984708BD00BFB9
:1031B400745B0020F8B504460D46476800F1080624
:1031C400304603F080F9874251D16368B3F5807FBC
:1031D4004FD80021304603F078FB00282ADD002177
:1031E400304603F04AF928B3CDB104F12C0600218E
:1031F400304603F06AFB00281EDD0021304603F050
:103204003CF9C8B104F138060021304603F05DFBF7
:10321400002811DD0021304603F02FF960B10021B0
:1032240004F1140003F051FB002824DD35B9ADB9D5
:103234002846F8BD124DFBE7114DF9E7002104F1D2
:10324400440003F042FB002806DD002104F1500095
:1032540003F03BFB0028EADC094DE9E7002104F117
:103264005C0003F032FB002807DD0025E0E7044D95
:10327400DEE7034DDCE7024DDAE7014DD8E700BF96
:1032840080BFFFFF70B5044600221146FFF792FF8E
:10329400E0B9064604F10805284603F0FEF87F2845
:1032A40016D914340021204603F0E7F860B1204613
:1032B40003F0F3F8012807D92946204603F0BCFAA5
:1032C400002801DA304670BD024EFBE7014EF9E7F3
:1032D400004EF7E700BEFFFFF0B587B005460C4689
:1032E400164600221146FFF765FF98BB03A803F0BA
:1032F40033F86A68214603A803F0EBF8044630B1BA
:1033040003A803F02FF814BB204607B0F0BD05F165
:103314000804214603A803F08FFA002802DB6FF0AB
:103324000304EDE76F6805F168030093234605F194
:10333400140203A9084603F037FE04460028DFD12F
:103344003A46314603A803F0F5F80446D8E7A4F555
:103354008544D9E7004CD7E780BFFFFF0023036013
:1033640043600B46B9B9194A8260194AC260194AC6
:103374000261194A4261194A8261194AC261194AB1
:10338400026202F17452A2F52302A2F69242426250
:10339400836600207047144A8260144AC26002F1B6
:1033A400794202F5740202F501620261104A426137
:1033B400104A826102F1D14202F5C01202F51E6286
:1033C400C2610D4A02620D4A4262E1E767E6096A98
:1033D40085AE67BB72F36E3C3AF54FA57F520E5132
:1033E4008C68059BABD9831FD89E05C107D57C3655
:1033F40039590EF7310BC0FFA78FF964A44FFABEF9
:103404002DE9F04FD1B00790002306E09A1C50F844
:10341400222008AC44F823200133072BF6D90022DC
:103424000F2A11D811F8224001EB820043781B04C3
:1034340043EA0463847843EA0423C078034310A86E
:1034440040F822300132EBE74FF0000E42E10F9BCF
:103454000C9E4FEAF62181EAB61181EA766119449D
:103464000E9C0D9884EA0003334063401944DFF84E
:10347400348758F82E3019440DF1400C5CF82E3086
:103484001944089D4FEA753A8AEAB50A8AEAB55A98
:10349400099F05EA07030A9A45EA070902EA0909A6
:1034A40043EA09039A440B9B01EB030951444FEA95
:1034B400F92383EAB91383EA79631C4486EA000397
:1034C40009EA030343401C440EF1010A58F82A3068
:1034D4001C445CF82A301C444FEA713383EAB1037C
:1034E40083EAB15305EA010A45EA010B07EA0B0B2B
:1034F4004AEA0B0A534422441C444FEAF22383EA67
:10350400B21383EA7263184486EA090313407340D2
:1035140018440EF1020A58F82A3018445CF82A308C
:1035240018444FEA743383EAB40383EAB45301EAD8
:10353400040A41EA040B05EA0B0B4AEA0B0A53445A
:10354400074418444FEAF72383EAB71383EA7763FF
:103554001E4489EA02033B4089EA03031E440EF138
:10356400030A58F82A301E445CF82A301E444FEAF5
:10357400703383EAB00383EAB05304EA000A44EAEE
:10358400000B01EA0B0B4AEA0B0A534435441E4470
:103594004FEAF52383EAB51383EA7563994482EA13
:1035A40007032B40534099440EF1040A58F82A307B
:1035B4004B445CF82A904B444FEA763989EAB609C1
:1035C40089EAB65900EA060A40EA060B04EA0B0B3C
:1035D4004AEA0B0AD14419440F914B440B934FEA26
:1035E400F12989EAB11989EA71694A4487EA050926
:1035F40001EA090987EA090991440EF1050A58F814
:103604002A204A445CF82A904A444FEA733A8AEAE8
:10361400B30A8AEAB35A06EA030946EA030B00EA44
:103624000B0B49EA0B09CA4404EB0209CDF83890A4
:1036340052440A924FEAF92484EAB91484EA796478
:10364400274485EA010409EA04046C403C440EF171
:10365400060A58F82A703C445CF82A703C444FEA45
:10366400723787EAB20787EAB25703EA020A43EAE3
:10367400020B06EA0B0B4AEA0B0A574420440D904E
:103684003C4409944FEAF02787EAB01787EA706749
:103694003D4481EA090900EA090981EA090129444A
:1036A4000EF1070058F8205029445CF8200001442A
:1036B4004FEA743080EAB40080EAB45002EA0405A8
:1036C400224313402B4303440E440C960B440893AB
:1036D4000EF1080EBEF10F0F7FF6B9AE10263F2E85
:1036E40000F24D820F9A0C9B4FEAF32787EAB31737
:1036F40087EA73673A440E980D9D80EA05071F40D8
:1037040047403A44DFF89CB45BF826701744B31E74
:103714001A4610AB049253F822204FEAF24484EA8A
:10372400724484EA9224F21F53F822201444A6F12E
:103734000F0A53F82AC04FEABC4282EAFC1282EA1A
:10374400DC021444A6F1100253F82220224443F868
:1037540026203A4408994FEA713C8CEAB10C8CEA71
:10376400B15E099F3C460C400A990091089941EAD0
:10377400070C009901EA0C0C44EA0C0CF4440B9C71
:10378400144462444FEAF42888EAB41888EA746856
:1037940080440C9981EA050904EA090985EA0909C2
:1037A400C844711C5BF821008044701E059053F8D6
:1037B40020004FEAF04C8CEA704C8CEA902CB01F3D
:1037C40053F820008444A6F10E0E53F82E904FEACD
:1037D400B94080EAF91080EAD900604453F82A908D
:1037E4004844029143F8210008EB00094FEA72387B
:1037F40088EAB20888EAB258089901EA020041EA64
:10380400020C019707EA0C0C40EA0C0CC444009823
:1038140000EB0908E1444FEAF82080EAB81080EA96
:10382400786005440C9981EA040008EA00004840E5
:103834000544B01C01465BF82000054453F82600FB
:103844004FEAF04C8CEA704C8CEA902C701F53F8C1
:1038540020008444A6F10D0A53F82A004FEAB04030
:1038640053F82A7080EAF71080EAD700604453F8CE
:103874002EC06044039143F8210005444FEA793C8B
:103884008CEAB90C8CEAB95C02EA090042EA090E36
:10389400089901EA0E0E40EA0E008444019F07EBEA
:1038A400050E05EB0C0700974FEAFE2080EABE10D8
:1038B40080EA7E600C990D1884EA08010EEA010181
:1038C40061406818F71C5BF827100144029D53F807
:1038D40025004FEAF04585EA704585EA9025301FBA
:1038E40053F8200005440195A6F10C0C53F82C0064
:1038F4004FEAB04053F82C5080EAF51080EAD50026
:10390400019D284453F82A502844069743F8270079
:10391400014400984FEA7035074685EAB00585EA08
:10392400B05509EA000049EA070A02EA0A0A40EA2D
:103934000A000544089800EB010A294401914FEA62
:10394400FA2585EABA1585EA7A652C4488EA0E05D3
:103954000AEA050588EA05052544341D02945BF846
:1039640024000544039953F821404FEAF44080EAC7
:10397400744080EA9420F41E53F824402044A6F1B5
:103984000B0753F827104FEAB14484EAF11484EA90
:10399400D104044453F82C002044029943F8210034
:1039A400054401994FEA713C8CEAB10C8CEAB15C94
:1039B400009804460C4001460198084309EA0000B7
:1039C400204360442A440F9228440B904FEAF22C7F
:1039D4008CEAB21C8CEA726CC4448EEA0A08039224
:1039E40002EA08088EEA0808C444741D21465BF8FC
:1039F4002440A444069D53F825504FEAF54484EA34
:103A0400754484EA9524049A53F822502C44A6F170
:103A14000A0853F828204FEAB24585EAF21585EAE8
:103A2400D205254453F827402C44049143F82140FF
:103A340064444FEA703787EAB00787EAB0570199C0
:103A440001EA000541EA000C009901EA0C0C45EA80
:103A54000C052F4409EB040CCDF838C03C440A94FF
:103A64004FEAFC2787EABC1787EA7C677744039D03
:103A74008AEA050E0CEA0E0E8AEA0E0E774406F167
:103A840006095BF829502F44029D53F825504FEA4C
:103A9400F54E8EEA754E8EEA952E059A53F822500D
:103AA400AE44A6F10902029253F8225029464FEA85
:103AB400B54585EAF11585EAD105754453F828E042
:103AC400754443F829502F444FEA743585EAB40508
:103AD40085EAB45500EA040940EA040E019A02EAB0
:103AE4000E0E49EA0E09A9440099CD190D954F44CB
:103AF40009974FEAF52E8EEAB51E8EEA756ED64406
:103B0400039A82EA0C0C05EA0C0C82EA0C02724459
:103B140006F107085BF8285002EB050E049953F8E8
:103B240021504FEAF54282EA754282EA952253F81F
:103B340026100A44A6F1080553F825C04FEABC45EF
:103B440085EAFC1585EADC052A44029D53F82550D4
:103B54002A4443F8282072444FEA773383EAB703B0
:103B640083EAB75304EA0705274338402843184437
:103B7400019911440C91104408900836AFE50023D4
:103B8400079809E008AA52F82340991C50F821200C
:103B9400224440F821200133072BF3D9002051B0EF
:103BA400BDE8F08FD8850000034B1B68092B01D0BA
:103BB40000207047012070473001FF00064B1B684E
:103BC400064A1268092B01D000207047012A01D04F
:103BD40000207047012070473001FF003401FF00CE
:103BE400064B1B68064A1268092B01D00020704757
:103BF400012A01D001207047002070473001FF00E6
:103C04003401FF00064B1B68064A1268092B01D0D9
:103C140000207047012A01D000207047012070471E
:103C24003001FF003401FF00034B1B68092B01D056
:103C340000207047012070473001FF00044B1B6ACD
:103C4400B3F1FF3F01D0002070470120704700BF4F
:103C54000080FF00044BDB6913F0010F01D1002049
:103C640070470120704700BF0080FF00014B024AEB
:103C74001A607047785B00200090D00308B5FFF706
:103C840093FF30B14FF050230022C3F81421C3F83E
:103C94001821FFF793FF30B10123474A1360A2F6BE
:103CA4003822C2F87835FFF79BFF18B1434B012245
:103CB400C3F87825FFF7A6FF10B1414B0E221A6016
:103CC400FFF7B2FF28B13F4B00221A6004330122F0
:103CD4001A600022FF2A15D802F160034FF47F0115
:103CE40051F83330B3F1FF3F0CD002F160034FF4CD
:103CF4007F0151F83310DB0003F57F035B680B6031
:103D04000132E7E7FFF7A6FFB0B9FFF797FF98B9CD
:103D14002D4BD3F88C2042F44062C3F88C20D3F8A6
:103D2400882042F47002C3F88820BFF34F8FBFF39A
:103D34006F8FFFF79BFF08BD244BD3F80034012B92
:103D4400FAD1224B0122C3F80425204BD3F80034C6
:103D5400012BFAD1FFF77EFF48B11D4AD36923F046
:103D64000103D361194BD3F80034012BFAD1FFF7C7
:103D740065FF58B1164A136A23F0FF0343F020038A
:103D84001362124BD3F80034012BFAD10F4B0022EB
:103D9400C3F804250D4BD3F80034012BFAD1BFF33B
:103DA4004F8F0949CA6802F4E0620A4B1343CB609F
:103DB400BFF34F8F00BFFDE7384A0050004000506A
:103DC400E4AE03500C47005000ED00E000900350B7
:103DD4000080FF000400FA05024B0022C3F804250A
:103DE400704700BF00900350024B0122C3F8042522
:103DF400704700BF00900350024B0222C3F8042511
:103E0400704700BF00900350044BD3F8083413F0FC
:103E1400010FF9D00160BFF35F8F7047009003502A
:103E240010B5044603F06EFC08B9084810BDFFF74E
:103E3400E3FF4FF0FF332360054BD3F8003413F056
:103E4400010FF9D0FFF7C8FF0248EFE70A00AD0BF6
:103E5400009003500000AD0B38B505460A4B53F8EB
:103E6400204000E00C346B1C074A52F82330A34274
:103E740008D923685B68204698470028F2D00023BD
:103E84006360EFE738BD00BFD886000038B5114C39
:103E940000E00C34104B9C4208D06368002BF8D02F
:103EA40023681B688342F4D1204638BD0546094C7B
:103EB40000E00C34084B9C420AD06368002BF8D015
:103EC40023681968284601F065FC0028F1D1EBE766
:103ED4000024E9E7845B0020205C002008B5034847
:103EE400034A121A002101F09BFC08BD00000020C7
:103EF400342B002008B50648064A121A064901F078
:103F04006BFC064A0649074801F066FC08BD00BF81
:103F1400385B0020445C00203C8700000000000067
:103F24003C8700000000002008B50220FFF794FF42
:103F3400064801F03BF90320FFF78EFFFCF77EFAF9
:103F4400034A137B23F00103137308BDF0860000BA
:103F5400942A002008B5FDF73DFC164B83F308882E
:103F6400154CE02384F822300025E5772576657624
:103F7400A576636A43F4E0236362FEF7D3F9FEF7A0
:103F8400A1F84FF0FF33A362E3622846FFF764FF12
:103F94000120FFF761FF2A4629462846FFF7C4FFA0
:103FA4004FF02002EFF3118382F31188BFF36F8F78
:103FB400FEE700BF385B002000ED00E010B5054CC3
:103FC400054B9C4204D2204603F037FC1C34F7E72F
:103FD400002010BD205C0020205C00200A4B83429E
:103FE40008D04A680B6813604A685A6000230B6063
:103FF4004B607047203B9B688B42F2D14B7B13F0A4
:104004001F0FEED0F5E700BF202B002010B50446AB
:104014000C4803F06CFC034670B184B90A4A9268F8
:10402400517B11F01F0F0AD1996941B907498A429E
:1040340005D0054BDA6104E0034BDB68EDE7024A87
:10404400D36110BD202B0020002B0020282A002043
:1040540070B5054600234FF02002EFF3118682F37A
:104064001188BFF36F8F1CE063686B602C6063681A
:104074001D60656009E0002419E0164B03F120027D
:104084002A605A6A6A6015605D626B7B43F0400384
:104094006B730020FFF7BAFF86F31188BFF36F8FAD
:1040A4000123B3B90B4B53F8204F9C42E3D0002CAF
:1040B400E3D02146284603F0D0FB0028D4D1002CBD
:1040C400DBD0044B5B6A9C42D7D02468002CEED131
:1040D400D3E770BD002B002038B5044600234FF011
:1040E4002002EFF3118582F31188BFF36F8F14E080
:1040F40021460D48FFF772FF637B23F0400363738F
:104104000A4B9868A04214BF00200120FFF77EFFED
:1041140085F31188BFF36F8F012323B9637B13F0F9
:10412400400FEDD0E4E738BD202B0020002B002009
:10413400014B9868704700BF002B002010B54FF06A
:104144002003EFF3118483F31188BFF36F8F03F01F
:1041540010FC2146014803F0A9FB10BD282B0020C8
:10416400034B1868984200D070470020FCE700BF5A
:104174007C5B002030B1044A5268904201D0006850
:1041840070470020704700BF7C5B002008B5044BDB
:104194001B680BB1002008BDFDF7EAFEFBE700BF7A
:1041A400282B00202DE978484FF02003EFF31185E8
:1041B40083F31188BFF36F8F244B1860FFF7D0FF90
:1041C400044628B38268214B1B689A4220DC204EA7
:1041D400D6E9000110EB020B41EBE27CC6E900BC1E
:1041E4009B1A1A4A13600023A360204603F00BFCB9
:1041F40085F31188BFF36F8FE368204698474FF02B
:104204002003EFF3118583F31188BFF36F8FD5E794
:1042140024B1A3680D4A12689B1AA3600C480B4989
:104224000C68D0E9002312EB040B43EBE47CC0E9F7
:1042340000BC00240C6003F0F8FB2146FDF742FEAD
:1042440085F31188BFF36F8FBDE87888282B002091
:104254000000002010B5054C054B9C4204D22046BA
:1042640003F010FC1C34F7E7002010BD205C002094
:10427400205C002070B582B0054601A90079FCF7E6
:104284006BF9AC68019B1C442B681D8966194FF0BF
:104294002002EFF3118382F31188BFF36F8F01F0D3
:1042A4000CFA635983F308887368984702B070BDA9
:1042B400012905D0022905D031B16FF015007047EE
:1042C400062070470720704702207047FF20704780
:1042D40038B515461C4601F082F858B9014600234A
:1042E400A34205D2EA5CFF2A06D10133DBB2F7E729
:1042F400012101E04FF0FF31084638BD013802FBCF
:1043040000F000EB4000013902FB0100704730B4BB
:104314000446836D9D680020002909DB636A03EB72
:10432400C1035B6803449D4202D301391846F3E795
:104334000131116030BC704738B50446006A01F0A1
:10434400CBF80546A06D01F0C7F8854200D3284696
:1043540038BDF0B583B007460C460020FFF7A8FF30
:1043640001A9C0B2FDF7D6FCD0B906460198FFF703
:10437400ADFF0546019801F031F82C2000FB0470D4
:104384000023032B05D8C25C954207D10133DBB26D
:10439400F7E701233BB1304603B0F0BD0023F9E752
:1043A4004FF0FF36F7E74FF0FF36F4E710B582B071
:1043B40080230193022907D0062913D0072915D198
:1043C400C26D00F1600402E0426A00F1280408466C
:1043D40001A9FDF7B3FC034608B9019A2260184607
:1043E40002B010BD026D00F15404F0E70123F6E7BA
:1043F40038B505460221FFF7D9FF10B10124204644
:1044040038BD06212846FFF7D1FF08B10124F6E79D
:1044140007212846FFF7CAFF044608B10124EEE746
:104424002846FFF789FF85F86500E8E770B582B094
:1044340006460D460C220021284601F0F1F901231D
:104444002B602B71AB713046FCF792F9012807D031
:104454000446022805D000B10724204602B070BDEE
:10446400072401A9E0B2FDF755FC08B10124F4E7E3
:104474002A4631460198FCF749FA044618B10198D6
:1044840000F0ACFFE9E7019800F0FCF901230DF11D
:10449400030201460198FFF71BFF012806D09DF88F
:1044A400033003F00F03AB710446E8E701238DF8F2
:1044B40003302046F3E72DE9F04182B007460E466B
:1044C40015460020FFF7F4FE01A9C0B2FDF722FC57
:1044D40040B14FF00108019800F080FF404602B05F
:1044E400BDE8F0812C2303FB06731C89DB681C44A4
:1044F40004236A462146019800F071FF804640BBC0
:104504002C2000FB06704689BDF8002046F60813EF
:104514009A420CD006BBBDF8002046F607139A4217
:104524001DD13444BDF802301C442C60D3E7BDF8DF
:1045340002108E4202D04FF00308CCE704236A46EF
:104544002144019800F04BFF0028E4D04FF001080B
:10455400C1E74FF00108BEE74FF00308BBE74FF097
:104564000308B8E710B582B014460020FFF7A0FE98
:1045740001A9C0B2FDF7CEFB30B10124019800F0CF
:104584002DFF204602B010BD2023224600210198B1
:1045940000F025FF04460028F0D00124EEE770B5B2
:1045A40005460E460024012C0FDC2C2202FB04528B
:1045B40021462846FFF7D6FF034608B90134F2E73F
:1045C400002C03DD16B9002300E00023184670BD5B
:1045D4002DE9F04706460F4600210846FFF768FE1E
:1045E400044601210020FFF763FE3B789C4224D05F
:1045F400984224D1012399462C2202FB03639C6A2E
:10460400013C96F8650000F01CF9804600252C2337
:1046140003FB09635B6A03EBC402D2F804A053F8FA
:1046240034101B685246C91A384600F027FF013C73
:104634005544A845EBD8BDE8F0870023DBE701200B
:10464400F9E710B582B001A90220FDF763FB18B1A8
:104654000124204602B010BD019800F0A6F90446DA
:10466400019800F0BBFEF4E710B584B003A9022062
:10467400FDF750FB18B10124204604B010BD01A978
:10468400039800F002F9044660B99DF80730032B43
:1046940003D0039800F0A2FEEEE7039800F08CF933
:1046A4000446F6E70124F4E770B505460E460020FB
:1046B400FCF7B8FD0446022805D0042803D00328DB
:1046C40001D0204670BD324601212846FCF7CEF9C0
:1046D400012803D00028F4D00524F2E70446F0E7CB
:1046E40070B584B006460C464B795BB1072003A92C
:1046F400FDF710FB40B10124039800F06FFE204643
:1047040004B070BD0220F2E7039800F0B2F8054649
:1047140096F8652021792068FFF7F0FD0544039899
:1047240000F0DAFE06460398FFF7D0FD08220146A2
:1047340001A801F075F823798DF80430334601AAF5
:104744002946039800F06AFE04460028D4D00124C8
:10475400D2E738B50546FCF71DFB024695F86440E0
:10476400E31EDBB2012B0FD9022C03D0042C01D0A1
:10477400032C07D10020FFF764FF024610B1FF238A
:1047840085F86430104638BD0020FFF76DFF0246FF
:104794000028E9D0FF2485F86440E7E7012800D128
:1047A40070470220FCE72DE9F04383B006460F462C
:1047B40090461C4600F090FE082C21D80546082897
:1047C40002D94FF0FF331DE03046FFF77FFD8146ED
:1047D400A54200D2254622464146684600F0FCFF29
:1047E4002A1B49460DEB040001F01AF82B466A46D1
:1047F4003946304600F012FE034618B1012301E0A9
:104804004FF0FF33184603B0BDE8F08300B583B022
:104814008DF80420012301AAFFF7C5FF03B05DF85A
:1048240004FB04280BD0052804D111F1FF3018BF74
:1048340001207047884214BF0020012070470120E6
:10484400704700EB4000C30103F1300070470B7860
:10485400072B09D0022B09D0062B02D14FF4C070CC
:1048640070474FF0FF307047032070474FF4C0701B
:10487400704710B5044600F02FFEFFF7E2FFA3686F
:10488400181A10BD80682838704730B587B00546BF
:104894000C468168102302AA1039FFF719FD00287D
:1048A4004ADB01283CD1032323702846FFF7EAFFA3
:1048B40001230DF1070201462846FFF709FD0028F0
:1048C4003DDB9DF8073003F00F0262701B09237172
:1048D400012801D0042A03D9012363700023237122
:1048E400A9680123A21C20392846FFF7F1FC0028FF
:1048F40027DB012819D0A078FFF750FFA070A96822
:104904000123E21C18392846FFF7E2FC00281ADBD1
:1049140001280DD0E078FFF741FFE07000200CE0A3
:1049240002A8FCF72BFC2070BFE70323A370E6E783
:104934000323E370002000E0012007B030BD012014
:10494400FBE70120F9E70120F7E710B582B00C4638
:1049540001A9C0B2FDF7DEF918B10124204602B066
:1049640010BD21460198FFF790FF0446019800F01E
:1049740035FDF3E730B583B00D4601A9FCF70AFC19
:10498400044610B1204603B030BD019C2046FFF719
:1049940079FF04232A46A0F10801204600F01FFDF8
:1049A4000446019800F01AFDECE708B5816801227D
:1049B4002039FFF72BFF08BD08B58168012218399B
:1049C400FFF724FF08BD10B582B0044641EA021285
:1049D4008DF80720FFF756FF01230DF1070201466A
:1049E4002046FFF7E0FE02B010BD10B582B00446C9
:1049F4000191FFF747FF04230DEB0302A0F1080127
:104A04002046FFF7D0FE02B010BD2DE9F0439DB063
:104A140015469946249FDDF89480279C01A802F04E
:104A24007AFD002101A8FEF799FC14B1289B002B04
:104A340006DC2B89EE6833446E891E44002513E09E
:104A44001A46214601A802F06CFDF2E723463A46D5
:104A54002946484600F0C3FC034688B92246394635
:104A640001A802F05EFD2544B54204D2741B4445FE
:104A7400ECD94446EAE7269901A802F095FD002303
:104A840018461DB0BDE8F0832DE9F04184B004461A
:104A94000E461546302303AA2946304601F0F2F9A2
:104AA400A8BB3368039A1344AB4233D104F108071B
:104AB4003A462946304601F0F8F928BB04F11408B7
:104AC40042462946304601F0F0F9E8B9384601F08B
:104AD400FAFC60603368AB421FD1CDF80480002239
:104AE400009213463946204602F090FCC0B9204695
:104AF400FEF7C8FB0546B0B9384601F0E4FC606037
:104B0400284604B0BDE8F0816FF00205F8E74FF0E5
:104B1400FF35F5E76FF00105F2E76FF00305EFE706
:104B24006FF00405ECE76FF00505E9E7F0B5A5B013
:104B340006460F4600230893DF2407E025462A464D
:104B44006946304600F048FE2E44641B002C1DDDEF
:104B540009A802F0E0FC002109A8FEF7FFFB2022CF
:104B6400394609A802F0DDFC042208A909A802F0CC
:104B7400D8FC694609A802F017FD9DF823300133DB
:104B84008DF823301F2CD9DD2025D8E725B0F0BDC2
:104B94002DE9F04383B000284AD0054600294AD0C5
:104BA400002A4BD0994617460C460E89CB681E4402
:104BB40004230DEB03023146384600F010FC804616
:104BC40000283ED1BDF8042046F608139A421ED0B0
:104BD4006389002B3BD1BDF8042046F607139A42A3
:104BE40038D12C606F6085F808909DF828306B727E
:104BF40063893344EB6063893344BDF8062013446E
:104C04006B6104362E61404603B0BDE8F0836389CE
:104C1400BDF806108B4217D104230DEB0302314477
:104C2400384600F0DCFB0028D5D04FF0FF38EAE727
:104C34004FF0FF38E7E74FF0FF38E4E74FF0FF3875
:104C4400E1E74FF0FF38DEE74FF0FF38DBE74FF0E6
:104C5400FF38D8E74FF0FF38D5E700284BD0F0B540
:104C640083B004460068002849D01D4616460F4606
:104C74006368FBB94FF0FF3138E004230DEB030206
:104C84002169606800F0ABFB014600283AD1637AE1
:104C94001BB12269E3689A4237D2237AFF2B17D0DB
:104CA4009DF80420934213D0BDF8060023691844EC
:104CB400043020612069636998421AD223685B89B1
:104CC400002BDAD0E3688342D7D104302061D4E7E3
:104CD40015B19DF804302B70236904333B60BDF893
:104CE400063033802269134404332361084603B039
:104CF400F0BD0121FAE74FF0FF31084670474FF04D
:104D0400FF31F3E74FF0FF31F0E70121EEE70068F0
:104D140001FB02007047F8B50446B0F808C04068CB
:104D240000FB0CFC27686744FF23E37200220AE0BF
:104D3400E3685F511F3117D4491107EB81078008DD
:104D440020F003000132A37A93420FDDBCFBF0F1A3
:104D5400E36802EB4206B5002B441E1D5E609E60B4
:104D64002029E5D8E272EAE71F31E5E700250CE0E7
:104D74002A4661682046FFF7CAFFE3681A1D0260ED
:104D84009A6842601060986001352389AB42EFDC79
:104D9400F8BD0020704738B504460D464520A047AD
:104DA40029465220A04729465220A04738BD2DE964
:104DB400F04F83B08146009190461E469DF830B076
:104DC40000254FF0100A2F46402407E009282AD96D
:104DD400572300991844C84701350127032C33DDB4
:104DE400043CC4F12002A4F1200328FA04F006FADA
:104DF40002F2104326FA03F3184310F00F00E5D132
:104E0400002FE3D1002CE1D00AF1FF3301930D9B75
:104E14009A4516DCBBF1010F07D0BBF1020F0AD093
:104E2400DDF804A0DAE73023D3E700993020C8473F
:104E3400DDF804A0D2E700992020C847DDF804A0DB
:104E4400CCE7DDF804A0C9E7BBF1030F02D003B03F
:104E5400BDE8F08F0D9BC5EB430503E000992020CE
:104E6400C84725466C1E002DF8DCF0E72DE9F04F0D
:104E740087B007460E46144605934FF000084FF0DE
:104E8400FF39C246454602E03146B847013420782E
:104E9400002800F0888145B92528F5D14FF0000895
:104EA4004FF0FF39C2460125F0E70246A0F1250381
:104EB400552B00F26A81DFE813F063016801680191
:104EC400680168016801680168017001680168018E
:104ED40056005D005D005D005D005D005D005D00ED
:104EE4005D005D006801680168016801680168018E
:104EF4006801680168016801680168016801680166
:104F04006801680168016801680168016801680155
:104F14006801680168016801680168016801680145
:104F24000D01680168016801680168016801680190
:104F34006801680168015B018B0068016801680110
:104F440071008B00680168017100680168016801E3
:104F54000301680168013B016801D0006801680130
:104F64000D0168017100B9F1000F03DABAF1000F05
:104F740000F01681B9F1000F0DDB09EB89034FEA4C
:104F840043099144A9F13009BAF1000F7FF47EAFCF
:104F94004FF0020A7AE7A2F13009F5E768280CD04D
:104FA4006C2810D0B8F1000F0BD031462520B8473B
:104FB40031462078B847002568E7B8F1680FEFD18B
:104FC4004820804662E7B8F16C0FEBD14C20F8E73B
:104FD400B8F17A0F0AD0B8F16C0F17D0B8F14C0FB2
:104FE40019D0059B1A1D05921D6803E0059B1A1D27
:104FF40005921D68002D29DBCDF8009053462A4602
:1050040031463846FCF734FB00253FE7059B1A1D63
:1050140005921D68EEE7059B073323F0070303F1B0
:10502400080205921D685B6815F10042029243F183
:1050340000030393DDE90223012B08BF002AD9D31F
:1050440031463846FFF7A7FE00251FE731462D20DD
:10505400B8476D4209F1FF39CEE7B8F17A0F0AD0AB
:10506400B8F16C0F14D0B8F14C0F16D0059B1A1D73
:1050740005921A6803E0059B1A1D05921A68CDF87B
:105084000090534631463846FCF7F2FA0025FDE617
:10509400059B1A1D05921A68F1E7059B073323F057
:1050A400070303F108020592D3E90023012B08BF8B
:1050B400002AE4D331463846FFF76DFE0025E5E6C5
:1050C40031463020B84731467820B8474FF00809B8
:1050D4004FF0010A2378702B0BD0B8F16C0F17D066
:1050E400B8F14C0F1AD0059B1A1D05921A680023BB
:1050F40004E0059B1A1D05921A680023CDF804905C
:10510400CDF800A031463846FFF751FE0025BDE634
:10511400059B1A1D05921A680023EFE7059B0733C8
:1051240023F0070303F1080205921A685B68E5E7B8
:10513400059B1A1D0592D3F800B05D4602E00135C7
:105144003146B84728780028F9D1BAF1030F01D0C5
:1051540000259BE6A5EB0B03A9EB030303E0314613
:105164002020B8472B465D1E002BF8DC00258DE679
:10517400059B1A1D059231461868B847002585E637
:1051840031462520B847002580E631462520B8471A
:1051940031462078B847002578E64FF0030A75E6D3
:1051A4004FF0010A72E607B0BDE8F08F0FB400B506
:1051B40083B004A951F8040B0191FCF7B7FA03B0CA
:1051C4005DF804EB04B07047704708B5FEF756FD70
:1051D40008BD0020704708B5FCF7E0FE08BD0EB41A
:1051E40000B582B003AA52F8041B0192FCF7C2FA7C
:1051F40002B05DF804EB03B0704708B5FCF726FB7A
:10520400002008BDF8B507460D4614461E46324632
:1052140021462846B8470544241AF8D1F8BD00228F
:10522400037813B101301A46FAE70A2A14BF0020A2
:105234000120704708B513460122FCF7B7FB08BDEF
:1052440008B513460022FCF7B1FB08BD38B5054686
:105254000C4601F00101FFF7F3FF21462846FCF755
:10526400BBFB38BD2DE9F04383B0044690469DF85E
:10527400285001F00109C1F3C00711F0020613D14F
:105284002A4649462046FFF7D5FF0195BDF8303040
:1052940000939DF82C30424639462046FCF70EFC1C
:1052A400304403B0BDE8F0831A46FCF739FB0646E8
:1052B400E6E710B5044642685368126881680068DE
:1052C400FFF7A0FF636800221A6010BD08B58A6862
:1052D4004B681B68D0544A681368013313604B68E9
:1052E4001A68CB689A4201D0002008BD0846FFF72F
:1052F400E0FFF9E7F8B507460E4615460024B44228
:1053040006D2395D6B685B68284698470134F6E736
:105314003046F8BD00684B6898420CD310B48C68D2
:10532400234498420AD208694B6998420AD2002061
:105334005DF8044B70470120107070470023137010
:105344000120F5E76FF00B038B610023137001203C
:10535400EEE770B582B006460C46CD680DF1070243
:10536400FFF7D8FF80B93368616822695B1A45F892
:105374003230236905EBC30573686B60236901331D
:105384002361012002B070BD9DF80700FAE7F8B56B
:105394000D4616461F46069C2060FCF7A3FCB8B1D8
:1053A400426862608268A260E66000222261296825
:1053B4006161A261C068FEF769FD60B122463946A9
:1053C40000F075FBA3690BB923692B60A069F8BDD4
:1053D4006FF01500FBE76FF01200F8E77047F8B5BF
:1053E40084688C4204D35D18AC4212D2002400E0DD
:1053F400002484B11E4617460D460446C068FEF7D5
:1054040045FD6168294443681C6833463A46A04711
:10541400F8BD0124EDE76FF01500F9E72DE9F84335
:1054240084688C4204D35D18AC4222D2002400E08C
:10543400002404B31F4690460D460446C068FEF798
:1054440025FD06464368DB6800219847814668B914
:105454006168294473685C683B4642463046A0470D
:1054640081467368DB680121304698474846BDE8A9
:10547400F8830124DDE76FF01509F7E72DE9F04122
:1054840083688B4204D35418A34220D2002300E043
:105494000023F3B117460E460446C068FEF7F6FC37
:1054A40005464368DB6800219847804660B9616817
:1054B40031446B689B683A462846984780466B6837
:1054C400DB680121284698474046BDE8F081012366
:1054D400DFE76FF01508F7E708B5C068FEF7D6FCFC
:1054E4004368187D08BD00F1502213683BB14FF0AA
:1054F4005023D3F80433194207D0012300E00023DA
:1055040018460BB10023136070470023F8E7836843
:105514005A7A2AB993F90830002B03DC012070472A
:10552400022070470020704770B503689E68846845
:105534004FF02003EFF3118583F31188BFF36F8FCE
:1055440094F90830013B5BB22372B3B92360636002
:1055540073680BB1984748B1F37A03F150230122E1
:105564001A60338903F1502300221A60002060720C
:1055740085F31188BFF36F8F70BD002B01DB002012
:10558400F6E7002323726FF04400F1E703688B42CF
:1055940005D033B11B68002BF9D1002070470120DE
:1055A400704700207047F8B50646154603689F68A3
:1055B40084684FF02003EFF3118283F31188BFF363
:1055C4006F8F94F9083001335BB2237282F3118830
:1055D400BFF36F8F627A2AB145B36B68A9689847A5
:1055E4000020F8BD012B0DD015B329462046FFF746
:1055F400CDFFF8B900232B606368A3B11D6065601B
:105604000020EEE73B680BB1984728B1BB7A03F161
:10561400502301221A60E7E7002DE5D06B68A968E2
:1056240030469847E0E765602560DAE70020D8E770
:105634000020D6E76FF04400D3E708B50022FFF757
:10564400B2FF08BD8368002018605860704738B501
:1056540005468468236823B11A68226061688B4216
:1056640002D00122627202E06260FAE762605BB11A
:105674005A6899682846904723682BB11A682260B3
:1056840061689942F3D1F1E738BD10B504460022B0
:1056940001210520FCF700FD0520FCF7EDFC4FF08F
:1056A40050230222C3F818250322C3F80423A36855
:1056B40000201860586010BD70477047401A20F0F1
:1056C4007F40704708B5FCF703FD08BD08B502F03C
:1056D400A6F808BD08B501460068FFF7F7FF08BD46
:1056E40008B5FCF7FFFCFCF771FC08BD002070470F
:1056F40008B5002313700339032912D8DFE801F039
:1057040002060A0E1146FCF793FD08BD0021FCF7C2
:105714002FFDFAE70021FCF74FFDF6E7FCF776FDD5
:10572400F3E70020F1E708B50021684600F02EF801
:1057340008BD43681F2B0AD913F01F0F01D00020A6
:105744007047036813F01F0F03D000207047002038
:1057540070470120704730B585B00B6800934C68E2
:105764000D899DF8082065F30402897A61F34712D4
:105774008DF8082023F01F032344013B23F01F036B
:1057840003936946FCF738FE05B030BD08B5FCF755
:1057940093FE08BD03780A78934203D113B1013014
:1057A4000131F7E7981A704782B1531E10D010B434
:1057B40004780A78944203D101300131013BF7D1D6
:1057C40000780B78C01A5DF8044B704700207047CE
:1057D40000780B78C01A704710B480EA010313F004
:1057E400030F07D00346C2B111F8014B03F8014B74
:1057F400013AF8E7034613F0030F0BD06AB111F82E
:10580400014B03F8014B013AF5E751F8044B43F817
:10581400044B043A032AF8D8E5E75DF8044B7047D3
:1058240010B4CCB2034613F0030F04D0A2B103F8B2
:10583400014B013AF7E7C9B241EA012141EA0141CA
:1058440002E043F8041B043A032AFAD802E003F8FE
:10585400014B013A002AFAD15DF8044B70474FF02E
:10586400FF30704710B40468A46824688068012974
:1058740011D0003318BF0123C169D14001F00101E7
:10588400C9B28B420BD0012303FA02F2A2600020BA
:105894005DF8044B7047C26953406360F7E7012326
:1058A40003FA02F2E260F2E7F0B40468A468246840
:1058B4008668676925696068684038406840F469AB
:1058C4006040012906D0D04000F00100186000209B
:1058D400F0BC70471860FAE730B480680368D3B14D
:1058E4000D460024B3B19D4202D01C461B68F9E763
:1058F4003CB10B6823604368994209D000230B60D4
:1059040009E00B6803604468A142F7D14360F5E7FE
:105914004460F3E752B162B103680B60016043680D
:105924000BB1002006E04160002003E06FF0150099
:1059340000E0002030BC70472DE9F041064698464F
:105944008568012903D0D4B22746002310E01F271D
:105954000024FAE7EB680122A24023EA0203EB6089
:1059640021463046FCF778FE034658B90134E4B2C8
:10597400A74207D3B8F1000FECD0EB680122A24094
:105984001343ECE71846BDE8F08108B50123FFF79F
:10599400D3FF08BD08B50023FFF7CEFF08BD4B6851
:1059A40003444B600B6803440B608B681B1A8B60C9
:1059B400704738B5044601F01AFF05466068FEF7E3
:1059C4002FFAA3685B1BA36062682A446260002B01
:1059D400F4D1002038BD00B585B0002301930290B6
:1059E400039101A8FFF7E5FF05B05DF804FB38B5A6
:1059F4000446406810F003030DD0C3F10403A56806
:105A04009D4200D31D462A46216801F0B7FE214677
:105A14002846FFF7C4FFA268032A09D92368196836
:105A2400606801F09FFE21460420FFF7B8FFF2E70B
:105A34001AB9FDF723F8002038BD2168606801F029
:105A44009DFE2146A068FFF7AAFFF2E700B585B0E6
:105A540001910290039201A8FFF7C9FF05B05DF818
:105A640004FB70B50C4616461D4601F0BCFEA04270
:105A740008D9002C0BDB85420BD82B1998420AD38A
:105A8400012300E000237BB13DB9002070BD002359
:105A9400F9E70023F7E70023F5E72A4621463046D5
:105AA400FFF79AFE0020F1E76FF01500EEE72DE90D
:105AB400F04786B08946904643681B6901AA05A948
:105AC400984700242646A246019B534516D9059FB4
:105AD40007EBCA077B68039300253B68AB420AD9EE
