:10000000385000205526000031650000852600008C
:100010008526000085260000852600008526000034
:100020000000000000000000000000000D2500009E
:100030008526000000000000C52400008164000047
:100040002D2600002D2600002D2600002D26000064
:100050002D2600002D2600002D2600002D26000054
:100060002D2600002D2600002D2600002D26000044
:100070002D2600002D2600002D2600002D26000034
:100080002D2600002D2600002D2600002D26000024
:100090002D2600002D2600002D2600002D26000014
:1000A0002D2600002D2600002D2600002D26000004
:1000B0002D2600002D2600002D2600002D260000F4
:1000C0002D2600002D2600002D2600002D260000E4
:1000D0002D2600002D2600002D2600002D260000D4
:1000E0002D2600002D2600002D2600002D260000C4
:1000F0002D2600002D2600002D2600002D260000B4
:100100002D2600002D2600002D2600002D260000A3
:100110002D2600002D2600002D2600002D26000093
:100120002D2600002D2600002D2600002D26000083
:100130002D2600002D2600002D2600002D26000073
:040140002D26000068
:1001440053B94AB9002908BF00281CBF4FF0FF313A
:100154004FF0FF3000F070B9ADF1080C6DE904CE3A
:1001640000F006F8DDF804E0DDE9022304B070478E
:100174002DE9F04F099E04468946002B40F0838008
:100184008A42154645D9B2FA82F24AB1C2F1200731
:1001940001FA02F39540944020FA07F747EA03096D
:1001A4004FEA154E230C1FFA85F8B9FBFEFC0EFB33
:1001B4001C990CFB08F143EA094399420AD9EB184C
:1001C4002CBF01200020994202D9002800F01D8193
:1001D4000CF1FF3C591AA3B2B1FBFEF00EFB101157
:1001E40000FB08F843EA0144A04505D92C1902D2C2
:1001F400A04500F20E810138A4EB080440EA0C404B
:1002040000271EB1D4400023C6E900433946BDE8A7
:10021400F08F002A51D0B2FA82F2002A40F0AF8067
:10022400491B4FEA154E1FFA85F80127230CB1FB31
:10023400FEFC0EFB1C1108FB0CF043EA0143984240
:100244000AD9EB182CBF01210021984202D90029B8
:1002540000F0D7800CF1FF3C191AA3B2B1FBFEF0F9
:100264000EFB101108FB00F843EA0144A04505D930
:100274002C1902D2A04500F2C1800138A4EB080475
:1002840040EA0C40BDE78B4208D9002E74D0002709
:10029400C6E9000138463946BDE8F08FB3FA83F762
:1002A40067B98B42C0F0A480824240F2A1803846F4
:1002B400002EABD0C6E90049A8E7FFDEC7F1200550
:1002C400BB4002FA07FC01FA07F4EA4020FA05F8F9
:1002D400E94000FA07FE1A4348EA04044FEA1248C8
:1002E400200C1FFA82F9B1FBF8FA08FB1A110AFB79
:1002F40009FB40EA01418B450AD951182CBF01235F
:1003040000238B4502D9002B00F088800AF1FF3AC4
:10031400A1EB0B01A4B2B1FBF8F008FB101100FB38
:1003240009F944EA0141894504D9511801D28945A2
:100334007BD8013840EA0A40A1EB0901A0FB0C89F3
:10034400494544464B4602D306D1C64504D201383A
:10035400B8EB0C0469EB0203002E5DD0BEEB040283
:1003640061EB030101FA05F522FA07F3F9400027CE
:100374001D43C6E9005149E73746304646E7C2F116
:100384002000954001FA02F721FA00F34FEA154ED6
:1003940024FA00F11FFA85F894403943B3FBFEF0C8
:1003A4000F0C0EFB103300FB08FC47EA03439C458B
:1003B40007D9EB182CBF012700279C4500D98FB320
:1003C4000138A3EB0C0389B2B3FBFEF70EFB173322
:1003D40007FB08FC41EA03418C4504D9691801D2A2
:1003E4008C4525D8013FA1EB0C0147EA00471DE7E6
:1003F400841A61EB03030120994659E702382C441F
:100404003CE7ACF1020C2B4426E7ACF1020C2B4484
:10041400E0E602382C44EFE63746F7E6AAF1020A92
:10042400114475E702382B44CBE70238114481E7C5
:10043400023F2944D7E700BF704700BF30B585B0FD
:100444004FF00000032363F302006FF3C5003E4B3B
:100454003E4A9B1AC3F3C90363F38F103C4905F06A
:10046400CAFD00F0B5F83B4800F082F8A8B101A835
:1004740000F0CEFD10B34FF00000012363F302003F
:100484006FF3C500304B314A9B1AC3F3C90363F3BE
:100494008F10314905F0AFFDFEE7012363F302003D
:1004A4006FF3C500284B294A9B1AC3F3C90363F3AE
:1004B4008F10284A294905F09EFDFEE703254FF0D9
:1004C400000065F302006FF3C5001F4C1F4BE41AD4
:1004D400C4F3C90464F38F10039A214905F08BFD1A
:1004E4004FF0000065F302006FF3C50064F38F1052
:1004F4001C4905F080FD4FF48031002002F06AFFB2
:1005040060B14FF00000012363F302006FF3C500F4
:1005140064F38F10144905F06EFDFEE701A804F0A2
:10052400D7FB4FF00000012363F302006FF3C50013
:10053400054B064A9B1AC3F3C90363F38F100B4997
:1005440005F059FDFEE700BFA88A0000A08A00005C
:10055400088B00001C8B00004C8B0000308B0000CB
:100564006C8B0000988B0000B88B0000E88B0000B7
:1005740008B5054B1B6813B1034B186808BD04F09C
:10058400C9F8014B1860F7E78001002010B900207A
:100594000860704708B502464FF00000012363F37A
:1005A40002006FF3C500074B07495B1AC3F3C90385
:1005B40063F38F100023054905F01DFD6FF015004E
:1005C40008BD00BFA88A0000A08A0000088C0000B3
:1005D40008B54FF4C051024803F006FB08BD00BF44
:1005E4008401002070B5A4B0202928D80D46064601
:1005F4000024144B1B68A3421CDD09A807F00CFF60
:10060400002109A803F01EFC0F4B03EBC40252683F
:10061400126853F8341009A807F004FF01A909A8C7
:1006240007F043FF2A46314601A805F0E7FF18B159
:100634000134DEE74FF0FF34204624B070BD4FF0A4
:10064400FF34F9E72C8C0000308C00002DE9F041D8
:10065400D6B017461D465F9C04945E9C039406AC7A
:1006640002945D9C01945C9C009404F078FB064623
:10067400002840F08280609B23B1202206A91846FE
:1006840005F0D3FF002300934FF6FF732A46394643
:100694004EA804F0A3FB064600286ED10746804608
:1006A4004FF0FF341DE04FF0FF341AE04FF0FF34F9
:1006B40017E04FF0FF34012713E0BDF85231202B2F
:1006C4005FD10EAA5599284605F07EFD00285BD11E
:1006D40020220EA906A805F091FF002856D14FF05C
:1006E400010854AB0DF5A97255A94EA804F0DBFB23
:1006F400002840DB38DCBDF85031102BDDD0012B55
:1007040021D0202BEDD1002CCDDB294B1B68A3423B
:10071400CCDDBDF85231B3F5807F3FD10EAA559997
:10072400284605F051FD00283BD1E4B20094BDF801
:1007340052310EAA202106A800F0B0F80028B8D043
:100744004FF0FF34CDE7BDF85231202B21D80EAA4B
:100754005599284605F038FDF0B99DF852110EA8B8
:10076400FFF740FF0446BCE7B8F1000F1CD027B9DF
:100774004FF0FF3601E04FF0FF36304656B0BDE88B
:10078400F0814FF0FF36F8E70646F6E74FF0FF3604
:10079400F3E74FF0FF36F0E70646EEE74FF0FF369B
:1007A400EBE74FF0FF36E8E74FF0FF36E5E700BF31
:1007B4002C8C000070B5ADF51C7D4468B4F5807FC9
:1007C40055D1202A56D10E4641AA194603F0F8FA0B
:1007D4000546002851D19DF80332BC2B50D10DF2AF
:1007E400E31109A804F00DFC2B46DE2B07DC41AA1B
:1007F400D25C09A8C45C6240C2540133F5E79DF899
:10080400243003F07F038DF82430BD2D05DC09ABC3
:100814005B5D002B37D10135F7E79DF8E230012B02
:1008240037D181A807F0F8FD002181A803F00AFB65
:100834000822194981A807F0F5FD2022314681A834
:1008440007F0F0FD20220DF1E30181A807F0EAFD95
:1008540001A981A807F029FE20220DF2E31101A8C5
:1008640005F0CCFE034680B14FF0FF330DE04FF0AE
:10087400FF330AE04FF0FF3307E04FF0FF3304E0AB
:100884004FF0FF3301E04FF0FF3318460DF51C7DA8
:1008940070BD4FF0FF33F8E7388C00002DE9F041CC
:1008A400ACB006460F4690461D469DF8C84000224F
:1008B400114601A807F06AFD114B53F83420009249
:1008C40003EBC4035B681B681A44694601A804F07F
:1008D40046FB044610B9029BAB4206D001A807F0C0
:1008E40063FD20462CB0BDE8F08143463A463146CC
:1008F40001A8FFF75FFF044601A807F055FDF0E7E4
:10090400308C000008B51022034905F077FE08B1C9
:10091400022008BD0120FCE7408C000070B586B0C1
:100924000E460024ADF8044003238DF8043007E09C
:10093400306805F048FC23E0306805F044FC0134DD
:10094400012C1BD8314606AB234413F8140C01F0D8
:10095400F3FA0546A0B930688168102302AA103959
:1009640005F032FC05460028E2D11022064902A80F
:1009740005F044FE05460028DED101E04FF0FF35C6
:10098400284606B070BD00BF408C000008B58168E1
:100994001023054A103905F036FC034608B91846F9
:1009A40008BD0123FBE700BF408C000030B585B0D3
:1009B40002A9032004F02DFC00286DD1694607200C
:1009C40004F027FC002869D1002407E02B79042BCC
:1009D40028D09DF80A20934224D00134022C47D811
:1009E40004EB44035B002E4AD5189DF80810D05C34
:1009F40004F07CFB0028F0D09DF80010687804F027
:100A040075FB0028E9D0AB78042B03D09DF80B20AC
:100A14009342E2D1EB78042BD8D09DF80320934283
:100A2400DBD1D3E74FF00000032363F302006FF33D
:100A3400C5001C4B1C4A9B1AC3F3C90363F38F10F4
:100A44006B79022B07D0032B10D0042B01D0174A4B
:100A540002E0174A00E0174A174905F0CCFA687912
:100A6400831EDBB2022B15D9FF2013E0134AF3E7F0
:100A74004FF00000032363F302006FF3C500094B3A
:100A8400094A9B1AC3F3C90363F38F100C4905F099
:100A9400B2FA012005B030BDFF20FBE7FF20F9E7E3
:100AA400508C0000A88A0000A08A0000748C00000A
:100AB400888C0000648C0000908C00006C8C00001A
:100AC400A08C000002680E4B9A420DD1C2680389C3
:100AD400D84382420CD810B4D418012010B18B68CA
:100AE400A34203D910BC7047002070470020F9E7E7
:100AF400002010B18B68A34200D9704700207047D2
:100B04003DB8F39600B587B000200490039002909E
:100B14004FF480730193074B009313460A46014632
:100B2400FFF794FD034618B9184607B05DF804FBB7
:100B34000323F9E7E42500202DE9F04182B00546BE
:100B44000C461746002004F0E8F801A9C0B201F0F1
:100B5400F3F928B14FF0FF35284602B0BDE8F08123
:100B64002C2000FB04562146284604F00EFC00B35A
:100B7400336913F0100F1CD1DDF804804146304670
:100B8400FFF7A0FF00BB4CBB4FF00000012363F351
:100B940002006FF3C500154B154A9B1AC3F3C90332
:100BA40063F38F1004BB134A134905F024FA01259B
:100BB40001E024B90125019805F005FBCCE7019972
:100BC400284604F0EFFCF5E73B464246314628460A
:100BD400FFF798FF05460028EDD0D4E70198826816
:100BE400002105F040FBCFE7044ADDE7A88A0000B6
:100BF400A08A0000808D0000888D0000748D0000A4
:100C040030B583B005460C46002300930193084693
:100C140004F05BFC30B32A681F4B9A4216D0EA6A90
:100C24001D4B9A4218D0019B009A934200D900931D
:100C3400009BA360009A2146284600F0AFFC174BA6
:100C44001A68002A16DC002003B030BD6A46002171
:100C5400284604F043FBE2E701AA0121284604F0F8
:100C64003DFBE0E704F10801002004F0E7FAA36883
:100C74000093DFE74FF00000022363F302006FF3F9
:100C8400C500074B07495B1AC3F3C90363F38F100D
:100C9400054905F0B0F9D6E73DB8F396E4260020FF
:100CA400A88A0000A08A0000488D000038B50446D8
:100CB4000D46FFF7A5FF0246EB7984F85830033B55
:100CC400DBB2012B0CD9EB79022B13D0042B11D0FE
:100CD400032B0FD094F85830FF2B15D0104638BD95
:100CE400002004F005FD02460028ECD0FF2384F820
:100CF4005830E8E7002004F0E8FC02460028E9D078
:100D0400FF2384F85830E5E74FF00000012363F334
:100D140002006FF3C500054B054A9B1AC3F3C903D0
:100D240063F38F10034905F066F9FEE7A88A000013
:100D3400A08A0000B08C000038B504460D4604F0CB
:100D44006DFB68B900221146204604F07DFBE8B92A
:100D5400204600F0DDFA78BB012384F8583014E013
:100D64004FF00000022363F302006FF3C500474B0A
:100D7400474A9B1AC3F3C90363F38F108022454982
:100D840005F039F9012384F8583038BD4FF00000DC
:100D9400022363F302006FF3C5003C4B3C4A9B1AE9
:100DA400C3F3C90363F38F1000223B4905F023F911
:100DB400012384F85830E8E7284604F07CFB2946F0
:100DC400204604F049FCE8B9284604F07EFB80F094
:100DD40001012A46C9B2204604F036FB40BB28462E
:100DE40004F073FB002839D0EB79012B43D02A4659
:100DF40001212046FFF7A0FE002843D0052384F8F4
:100E04005830C2E74FF00000022363F302006FF38F
:100E1400C5001E4B1E4A9B1AC3F3C90363F38F100C
:100E240000221E4905F0E7F8012384F85830ACE7A6
:100E34004FF00000022363F302006FF3C500134B6D
:100E4400134A9B1AC3F3C90363F38F100022124998
:100E540005F0D1F8012384F8583096E72946204656
:100E6400FFF724FF2A460021204604F0EDFA01236F
:100E740084F8583089E72946204604F000FB84F8BA
:100E8400580082E7EB7984F858307EE7A88A00009E
:100E9400A08A0000B88C0000F88C0000208D0000AF
:100EA4002DE9F84F884692461F46DDF828900B9EA0
:100EB40000250FE023460F4AE919404605F084F95E
:100EC400A0B923460B4A05EB0901504605F09BF9EE
:100ED40070B92544B54206D2741BB4F5806FE9D9C4
:100EE4004FF48064E6E70020BDE8F88F0120FBE7BB
:100EF4000120F9E7E4190020F0B585B004460E4658
:100F04006022002105F0B4FB3C4B63623C4B23653B
:100F140000250CE02946002003F0FFFE2C2101FBF4
:100F240005F120312144C0B201F006F80135012D4C
:100F3400F0D969462046FFF7FFFE94F858308DF843
:100F44000730013B042B33D8DFE803F00703030326
:100F540029006946204604F0C9FA94F85830FF2B5A
:100F64002AD0012B06D06A460021204604F06CFAF0
:100F7400074690B9002211462046FFF7DDFD0746DB
:100F840060BB10220021684605F072FB236A5B787F
:100F94003371236A5B68B3603460002529E0002064
:100FA40004F0A6FB0028D8D0FF2384F85830D4E7F7
:100FB400FF2384F85830D0E74FF00000012363F397
:100FC40002006FF3C5000F4B0F4A9B1AC3F3C9030A
:100FD40063F38F100D4905F00EF8FEE70327DCE7F5
:100FE400C5F101032C2202FB0343186A05F0EBF858
:100FF4000135012DF4D9384605B0F0BDE41D0020BB
:10100400E4210020A88A0000A08A0000B08C00001F
:1010140008B501460148FFF76FFF08BD8419002099
:101024002DE9F04182B0884616461C46536A53F8AF
:1010340030501A68AD1A013853F83070BF1A23685B
:10104400012B1CD042462946089804F0A7FACDF893
:10105400048000953B46089A11463046FFF720FF6E
:101064002146304604F067FA23680133236018B13F
:101074000C4A13680133136002B0BDE8F081E368E1
:10108400022B04D10999304604F08CFADAE7089966
:10109400304604F087FA22460899304604F0BAFA3A
:1010A400F0E700BFE42600202DE9F04383B0884632
:1010B40015461C46526A52F830701368FF1A0138FC
:1010C40052F83060F61A2A6D52F830101368A1EB0A
:1010D40003092379012B05D02379022B1DD003B0FA
:1010E400BDE8F083424631460A9804F057FACDF839
:1010F400048000964B460A9A0B992846FFF7D0FEC7
:101104002146284604F017FA022323710028E3D06D
:10111400114A136801331360DEE7424649460B98CF
:1011240004F03CFACDF80480CDF800903B460B9ACD
:101134000A992846FFF7B4FE2146284604F0FBF935
:10114400236801332360012323710028C7D0024A96
:10115400136801331360C2E7E426002070B582B03F
:1011640016461C46002B36D0436A5D686379012B12
:1011740011D0022B17D00025002003F0CEFD01A9C9
:10118400C0B200F0D9FE68B30125019805F01BF840
:10119400284602B070BD01BB22681C4B1B689A42F2
:1011A400EAD80025E8E72368012B07D9174A126813
:1011B400934203D899B900250121DDE7012B01D021
:1011C4000025D9E701B100250129D5D12379022BC6
:1011D400D2D10021D0E70025CEE70025CCE70025B9
:1011E4002946C9E7202332462946019804F0ECFF3A
:1011F400054640B9002CC8D03268054B9A42C4D089
:101204004FF0FF35C1E70125BFE700BF0000002014
:101214003DB8F3962DE9F04F85B006460D46019290
:101224000146002003F07BFF041E62DBD5F85CA0BE
:10123400304603F082FF81464FF0000B01274FF048
:10124400FF3805E0874201D00BF1010B2C4607461D
:10125400002C13DD651E5FFA8AF101230DF10F02E4
:1012640005FB0191304603F064FD002843DB0128AF
:10127400E8D0B8F1FF3FE9D1A046E7E7BBF1010FA1
:101284000EDCB8F1FF3F3AD0B8F17F0F1ADC01232E
:1012940001994B7108EB03020A600B7100202BE0EB
:1012A4004FF00000012363F302006FF3C500154BF8
:1012B400154A9B1AC3F3C90363F38F10134904F04F
:1012C4009AFEDEE70223019A5371A8F1800808EB25
:1012D400D8735B1001331360B8F1000F08F00108F4
:1012E400B8BFC8F1000808F1010882F804800020A2
:1012F40002E0072000E0012005B0BDE8F08F0020E7
:10130400FAE700BFA88A0000A08A0000448E00000B
:1013140070B5866A456DAE4202D06B1CB34210D1E3
:10132400802E21D800231946AB4243D2416ADC0007
:1013340021444968026D224452688A4227D101330C
:10134400F2E74FF00000022363F302006FF3C500DD
:10135400284B294A9B1AC3F3C90363F38F10274907
:1013640004F049FE002024E04FF00000022363F360
:1013740002006FF3C5001F4B1F4A9B1AC3F3C90336
:1013840063F38F101E4904F036FE002011E04FF085
:101394000000022363F302006FF3C500154B164AE5
:1013A4009B1AC3F3C90363F38F10164904F023FE99
:1013B400002070BDAE421AD9426A02EBC3035B68D7
:1013C400994201D10120F4E74FF00000022363F3B6
:1013D40002006FF3C500074B074A9B1AC3F3C90306
:1013E40063F38F10074904F006FE0020E1E70120B3
:1013F400DFE700BFA88A0000A08A0000AC8D0000CF
:10140400E08D00000C8E000010B586B004A9032006
:1014140003F0FFFE4FF00000032363F302006FF3B9
:10142400C500264B264A9B1AC3F3C90363F38F10E6
:101434009DF81030012B2DD0032B29D0214B9DF882
:1014440011209DF812109DF813400294019100920E
:101454001D4A1E4904F0CFFD9DF81030012B03D125
:101464009DF81230032B17D04FF00000032363F3D1
:1014740002006FF3C500114B114A9B1AC3F3C90351
:1014840063F38F10124904F0B6FD002006B010BDBE
:10149400104BD4E7104BD2E74FF0000063F3020087
:1014A4006FF3C500054B064A9B1AC3F3C90363F3E4
:1014B4008F100A4904F09FFD0220E7E7A88A000084
:1014C400A08A0000908E0000A48E0000B48E00005C
:1014D4000C8F00009C8E0000948E0000F08E0000A3
:1014E400F0B587B04C6804F0FF24244DAC4202D11F
:1014F4000C68012C01D007B0F0BD16460C46054619
:1015040004A9184603F085FE4FF00000032363F39B
:1015140002006FF3C5001A4B1A4A9B1AC3F3C9039E
:1015240063F38F109DF81030012B24D0032B20D0AF
:10153400154B9DF811209DF812109DF81370029719
:1015440001910092114A124904F055FD9DF81030A2
:10155400032BD0D13146284604F024F8304603F05A
:101564008FFEA168304603F0A4FE3046FFF70EFA62
:10157400C1E7084BDDE7084BDBE700BF00010004CF
:10158400A88A0000A08A0000908E0000348E00001B
:10159400B48E00009C8E0000948E0000F0B585B0DF
:1015A40007460D4600213E4B1960436A5E6831448C
:1015B4003B480368013303609142F8D3284603F0A3
:1015C40084FF70B1F86D03F0A5FDBA6A013A0023F7
:1015D4003344984201D9013AFAE7314B1B689342EC
:1015E40014D203A9032000F0A7FC02A9072000F0ED
:1015F400A3FC0723029A29463846FFF771FF6B794B
:10160400012B17D002236B71012438E04FF0000046
:10161400022363F302006FF3C500224B224A9B1A94
:10162400C3F3C90363F38F10204904F0E4FC0123DE
:10163400EB7132E01A4B1C6800E0013C8CB12A6863
:10164400174B1B689B1A01339C42F6D8029B0193EB
:10165400039B00932B463A4631462046FFF7E0FCB5
:10166400EBE701232B60CDE7029B0193039B0093DF
:101674002B463A4631462046FFF716FD0134084B07
:101684001B68A34203D32B68A342F7D8ECE7039863
:1016940004F099FD029804F096FD05B0F0BD00BF7A
:1016A40000000020A88A0000A08A0000648E0000C8
:1016B400BFF36F8F72B600230F2B09D803F12001FB
:1016C4000A4A4FF0FF3042F821000133DBB2F3E75E
:1016D40000230F2B09D803F16001044A4FF0FF30B7
:1016E40042F821000133DBB2F3E7704700E100E088
:1016F40008B50122104B1A6010494FF0FF33C1F8AE
:101704004833C1F8083301F5805104310A600C4AAA
:10171400C2F84833C2F80833A2F550420021C2F897
:101724000015C2F8083302F58052C2F80015C2F859
:10173400083304F016F808BD04400150004001507D
:10174400005001502DE9F04F89B00546009116462E
:101754001F46DDF848B09DF84CA09DF85030019329
:10176400142456EA070317D04FEAEB795A464B463E
:1017740030463946FEF7E4FC1F4B9A5C08AB234421
:1017840003F8182C5A464B4630463946FEF7D8FC27
:1017940006460F46013CE4E7142C07D00134159E9D
:1017A4002644152E08D0153E57460CE0302208ABCF
:1017B400234403F8182CF2E70026574603E0009967
:1017C4000198A847013E002E09DD002FF7D106E05D
:1017D40008AB2344009913F8180CA8470134142CBF
:1017E400F6D9002E04DD00990198A847013EF8E7D8
:1017F40009B0BDE8F08F00BF3490000008B50B6855
:1018040001330B60014B1B68984708BD040000209E
:10181400014B1860704700BF0400002000B583B07E
:10182400002301930B46024601A9034803F0FEFF7F
:1018340003B05DF804FB00BF011800002DE9F0437C
:1018440083B0044608461546238B13F0080F05D1D0
:1018540003F0070600230093019369E0012909D0EE
:1018640043F02003238385F31188BFF36F8F03B004
:10187400BDE8F08343F010032383F4E7204604F02B
:101884008EF957E0D4F814904A466946204604F08D
:101894009FF900275AE023691F680621204604F0B7
:1018A40057F94FF0000951E023695F68042120468D
:1018B40004F04EF94FF0000948E023699F680521C0
:1018C400204604F045F94FF000093FE0002246E0CD
:1018D400002244E043F00803238385F31188BFF317
:1018E4006F8F002944D1009B2BB14B464246694679
:1018F400204604F0E6F917B125492046B8474FF0D1
:101904002003EFF3118583F31188BFF36F8F238BCB
:1019140023F008032383238B13F0100F2ED023F01E
:10192400100323830120268B06F0070600289AD093
:101934000228A3D0002896D00128A3D00328AAD037
:101944000428B1D00528B8D00027B946238B03F06A
:101954000708B045BAD0A268002AB9D001221146BE
:10196400002AB7D1009A002AB4D1002FB2D1D2E70D
:101974004A464146204604F0F3F8B4E713F0200F3A
:1019840004D023F0200323830220CCE70020CAE7FD
:10199400F15C00004FF02002EFF3118382F3118811
:1019A400BFF36F8F044A0121C2F8401583F31188F5
:1019B400BFF36F8F002070470090035030B108B51B
:1019C4008001034B43F00103984708BD704700BFF3
:1019D400008B00002DE9F04385B080460F46154684
:1019E400114B1B6898478146002400E001340F4BDB
:1019F4000F4A9B1AB4EB231F13DA0D4800EB0410B3
:101A040043685B79002BF1D003952301084AD3582E
:101A14005E68002EEAD000953B464A464146B047F0
:101A2400E4E705B0BDE8F08308000020E08A000088
:101A3400D08A000008B5044B044A1A604FF40040F1
:101A440000F008FA08BD00BF08000020F35F0000A2
:101A5400054B064A9B1AB1EBD30F02D252F8310060
:101A640070470020704700BFD08A0000A08A0000A1
:101A740008B50B4BC31A1B11013342681371436839
:101A84001960436801225A71064B1B781BB1054B40
:101A940001221A7008BD044803F062F8F7E700BF9A
:101AA400D08A00002C280020E400002038B5134B15
:101AB400D3E8EF2F511CC3E8E01F0028F8D1DAB9AE
:101AC400002405E0042200212846FFF7D1FF013459
:101AD4000B4B0C4A9B1AB4EB231F0DDA094D05EB93
:101AE40004152B7B002BF2D02301064AD3585B69E3
:101AF400002BE7D09847E5E738BD00BFE826002073
:101B0400E08A0000D08A0000104B1B7803B17047B4
:101B140010B5FFF7CBFF002400E001340C4B0D4A55
:101B24009B1AB4EB231F0CDA0A4800EB0410436839
:101B34005B79002BF1D02301064AD3581B699847DF
:101B4400EBE7024B01221A7010BD00BF2D280020C4
:101B5400E08A0000D08A00000EB400B582B003AB66
:101B640053F8042B01930146044803F05FFE002060
:101B740002B05DF804EB03B0704700BF23600000BF
:101B8400F0B585B011F0440F05D01A4B196831B97E
:101B9400002005B0F0BD1849FFF7DEFFF9E7174B49
:101BA4001D68B2FBF5F5B5FBF1F4154AA2FB04324E
:101BB400D20A4FF4616606FB1246124BA3FB06736E
:101BC4005B0901FB14544FF47A7505FB04F4B4FB70
:101BD400F1F707FB114405FB04F4B4FBF1F10291A6
:101BE4000197C3EB0314A100711A00910649FFF792
:101BF400B3FFCEE7EC260020D0900000F0260020B2
:101C0400C5B3A29189888888DC90000061B108B5C9
:101C14002AB1064A52F8232012B9054A00E0044AC0
:101C24000449FFF799FF08BD704700BF58900000B2
:101C34004C9000005490000011F0100F0BD108B527
:101C440011F0200F03D00449FFF786FF08BD0349B4
:101C5400FFF782FFFAE77047AC920000949000000F
:101C64002DE9F04105460F46164698460699FFF7BA
:101C7400E3FF002404E024492846FFF76DFF013404
:101C84004445F8DB002409E01F492846FFF764FFB8
:101C94000BE01E492846FFF75FFF01340F2C0CDCD4
:101CA400002C02DD14F0070FEED0B442F1D23A5DFD
:101CB40017492846FFF750FFEFE716492846FFF774
:101CC4004BFF002409E010492846FFF745FF0BE0CD
:101CD40011492846FFF740FF01340F2C12DC002C79
:101CE40002DD14F0070FEED0B44206D23A5DA2F141
:101CF40020035E2BECD92E22EAE703492846FFF79E
:101D04002BFFE9E7BDE8F08190900000749000009B
:101D14006C900000789000007C900000F8B50446B8
:101D240016461F4649B9002586B10123079A9340F8
:101D340013F0100F16D10C4E09E00C4B079A53F810
:101D440022200B49FFF708FF0546EDE7064E0699EA
:101D54003846FFF77DFE024631462046FFF7FCFE7B
:101D64002844F8BD034EF2E7809000009C900000E8
:101D74008C9000008890000070B584B005461E4623
:101D8400C1F3C203C1F3891011F007040FD1089BFA
:101D940032462946104803F049FD94B9304604F010
:101DA40058F998B10D492846FFF7D6FE0EE0029087
:101DB40001930094134601220999284604F06CF912
:101DC400E5E722460999284604F05AF9284604F022
:101DD4008AF904B070BD00BF236000009890000031
:101DE4002DE9F04784B080461D460C9E0D9C0E9F45
:101DF40001F0070AC1F3C203C1F3891102910193EF
:101E0400CDF800A013460122394604F045F9814675
:101E14002A460F494046FFF79FFE6CB12546102C19
:101E240028BF102500974B462A4631464046FFF707
:101E340017FF2E44641BF0E752463946404604F02F
:101E44001FF9404604F04FF904B0BDE8F08700BF25
:101E540054900000074B01221A60074B984205D9A1
:101E64004008044A13685B001360F6E7034B1860EC
:101E7400704700BFF026002040420F00EC260020EF
:101E840070B506460D460024AC4207D2044B1868D0
:101E9400315D83685B6898470134F5E7284670BD77
:101EA4000827002008B5034802F034FC024B1860F0
:101EB40008BD00BF109100000827002008B50248A3
:101EC40004F011F908BD00BF1891000000B585B0F9
:101ED4000F20029007980190069800900248FFF79F
:101EE4007FFF05B05DF804FB1891000000B583B0D6
:101EF4000F200190049800900248FFF73DFF03B0C3
:101F04005DF804FB1891000010B404460022084B4D
:101F14001B68934208DD130106490968C818CB5CA5
:101F2400A34202D00132F2E7002010BC704700BF88
:101F3400CC9100000C000020084B1B683BB110B58D
:101F44000C46FFF7E1FF28B12060002010BD6FF0C0
:101F54000C0070476FF00100F8E700BF0C00002090
:101F640000B58BB003AB0093024B04F005F90BB042
:101F74005DF804FB4161000010B504460A2807D04F
:101F8400074B1868E1B283685B689847204610BD28
:101F9400034B186883685B680D219847F0E700BF1E
:101FA4000C27002010B5044C204600F02DFE2046DE
:101FB400FFF72EFC10BD00BF7D1F000008B50448CC
:101FC40002F0A8FB034B1860FFF7ECFF002008BDEC
:101FD400109100000C270020004870476027002063
:101FE400034BC01A8010034B03FB00F0704700BF83
:101FF40020270020B76DDBB638B505460C46FFF741
:10200400EFFF40220146034804F0DDF9014628466B
:10201400A04738BD8000002030B585B005460C4689
:1020240000230193084B02930391FFF7D9FF402348
:1020340001AA0146054804F0E0F9011E01DB05B0E0
:1020440030BD2846A047FAE749640000800000201C
:1020540008B510B101280DD008BD0021084804F0CE
:1020640039F9836813F0070FF6D10021044804F00E
:1020740098F9F1E70121024804F093F9ECE700BF75
:102084008000002010B54FF02003EFF3118483F398
:102094001188BFF36F8F134A136843F00203136070
:1020A40013F0010F08D1002384F31188BFF36F8F5D
:1020B4009BB904F0DEF910BD4FF05023D3F80C2483
:1020C400D3F80C3412F0010F01D10023ECE7FFF731
:1020D40083FF04F053F90123E6E70021024804F0EA
:1020E40060F9E8E7702700208000002008B5084B5D
:1020F400D3E8EF2F22F00201C3E8E01F0028F7D154
:1021040012F0010F00D008BD04F0A9F9FBE700BFED
:102114007027002070B5054600220121052000F03B
:1021240021FA052000F000FA114801F087FA114B5A
:10213400984219D104F096FD0024012C12D82146AE
:10214400284604F0C7F806462146284604F0CFF88E
:10215400094903F0D9FD002805DB0123B3601C44C1
:10216400E4B2EAE7002070BD6FF00400FBE700BFB3
:10217400552000000000AD0B24920000012807D177
:102184004FF05023D3F81C3403F00303022B64D024
:1021940070B5054606F0DDFA20B9304B1B789BB1CB
:1021A400002300E001231C4683B14FF02003EFF32A
:1021B400118683F31188BFF36F8FA4B94FF05023B6
:1021C4000222C3F808230EE00123ECE70026F4E71B
:1021D4000CB3304600F0F8F94FF05023D3F818351B
:1021E400DBB2012B1CD04FF05022D2F8183403F08C
:1021F4000303D2F8182412F4803F26D10022002AC7
:10220400E6D0022B01D0012DE2D104B386F311886C
:10221400BFF36F8F70BD2120002102F06FFCDBE75C
:102224000F4B1B68002BDED00D4B00221A601B687D
:102234004FF050230222C3F818250A4B2022C3F87A
:102244008021094B01221A60CDE70122D7E74FF024
:1022540050230222C3F80423DCE77047312800200E
:102264000451005000E100E00850005010B504464D
:102274000E4B0121D3E8EF2FC3E8E01F0028F9D16A
:102284001AB1631E012B0CD910BD094804F02FF8B4
:10229400084900234B60CB6001238B6003F050FDA1
:1022A400EFE72046FFF76AFFEEE700BF7427002040
:1022B400800000201027002020F07F40014BC3F84D
:1022C4004005704700500150014BD3F8400570475A
:1022D40000500150024B00221A601B68704700BF77
:1022E40040510150024B4FF48032C3F844237047ED
:1022F40000500150024B4FF48032C3F8082370475A
:1023040000500150024B4FF48032C3F8042370474D
:1023140000500150014BD3F80405704700500150A0
:1023240038B5FFF7D7FFFFF7CFFF054D2C682146DF
:1023340004F0A6F804442C6002F056FC38BD00BF3B
:102344007827002038B5FFF7E5FF0446FFF7BCFF08
:102354000546FFF7BFFF2046FFF7AEFFFFF7C2FFBA
:102364002146284604F08CF8012805D0054B4FF48B
:102374000012C3F8802138BD0F2006F0F0F9FFF7F2
:10238400A9FFF3E700E100E038B50F4D0024C5F8DC
:102394000845FFF79FFF0D4B4FF40012C3F880214F
:1023A400FFF7B0FF22460121152000F0DBF81520CD
:1023B40000F0BAF80123064A13602B600220FFF7ED
:1023C40055FF204638BD00BF0050015000E100E039
:1023D4000850015038B5B0F1FF3F1ED0441E114BD8
:1023E4009C4201DC002C1BDD0E4B9C4200DD0E4C9C
:1023F400FFF790FF0D4B1D68294604F041F8B0F536
:10240400000F00D3002420440130B0F5000F00D3A6
:102414000548284404F06AF838BD00F50000DDE7FB
:102424000024E5E7FEFF7F00FFFF7F007827002000
:1024340010B54FF02003EFF3118483F31188BFF339
:102444006F8FFFF767FF044B196804F019F884F3E2
:102454001188BFF36F8F10BD7827002038B54FF077
:102464002003EFF3118583F31188BFF36F8FFFF718
:1024740051FF054B1C68214604F002F8204485F303
:102484001188BFF36F8F38BD78270020094A9368FD
:10249400986709490968D96708494B6843F080532C
:1024A4004B60002383F31188BFF36F8F9368D86F59
:1024B400704700BF00280020C894000000ED00E031
:1024C4000F498A684FF038001044EFF3098C80E814
:1024D400F01F202080F31188BFF36F8F094F4FF056
:1024E4000066CA698A603E60906F0023936780F338
:1024F400118802F1380090E8F01F8CF309887047C6
:102504000028002004ED00E01EF0040F0CBFEFF3E0
:102514000880EFF30980816911F8021C0229FFD0B9
:1025240001B503F0FDFF01BD43B2002B08DB00F051
:102534001F005B09012202FA00F0024A42F823005C
:10254400704700BF00E100E04209054B53F8222028
:1025540000F01F00012303FA00F01040704700BF91
:1025640000E100E0013143B2002B08DB4901C9B2AC
:1025740003F1604303F5614383F80013704700F0EF
:102584000F004901C9B2014B1954704714ED00E022
:1025940080B504460F4616461D4603F0B9FF38467B
:1025A40031462A46044B202583F30988A04785F346
:1025B4001188BFF36F8FFEE73850002001491022C5
:1025C4000A60704710ED00E072B6494081F311884B
:1025D40020BF80F3118862B6704700BF30BFFFF799
:1025E400FDBF00BF08B50E4B0E4A22F07F029A6071
:1025F400BFF34F8FBFF36F8FD3F8882022F470029C
:10260400C3F88820EFF3148323F0040383F31488BE
:1026140002F0AAF802F0B4F800F020F902F0ECF8A5
:1026240000ED00E00000000001B5EFF30580A0F12B
:1026340010004FEAC0000449014409C99847BDE8A5
:102644000140024908470000988800005D28000006
:1026540003F0C7FC202080F3118808484FF4006180
:10266400401880F30988EFF314800221084380F3B3
:102674001488BFF36F8FFFF7B5FF000038500020B8
:10268400EFF30880EFF3098101B5724600F090F88A
:1026940001BD00BF10B514460F4B9A6A9A6A9B6A33
:1026A40013F0020F0BD00C4B5A6B9B6A13F0800F84
:1026B40005D021B1084A936A23F080039362064B44
:1026C4009A6A9A6A9A6A9A6A42F0FF029A6203F0D4
:1026D40033FF2070002010BD00ED00E010B514465B
:1026E400124B9A6A9A6A9B6A13F4007F0BD00F4BC1
:1026F4009A6B9B6A13F4004F05D021B10B4A936A7D
:1027040023F400439362094B9A6A9B6A13F4807F13
:1027140001D1064B9B6A054A936A43F47F43936253
:1027240003F00AFF2070002010BD00BF00ED00E0A0
:10273400074B9A6A9A6A9A6A9A6A9A6A9A6A9A6A27
:102744009A6A6FEA02426FEA12429A620020704764
:1027540000ED00E038B500230B70124BDC6A14F076
:1027640002041DD10546D86A10F0804019D00A46EB
:10277400284628331B7843B90B4B1B784BB90B4BBA
:102784001B889BB24BB920460BE00121FFF782FF67
:1027940007E00121FFF7A2FF03E0FFF7C9FF00E014
:1027A400002038BD00ED00E029ED00E02AED00E056
:1027B40070B58AB0234B5B68C3F30803002585F327
:1027C4001188BFF36F8F02F07F45B5F17F4F17D1AA
:1027D40002F00C05082D16D012F0080F0DD00C468F
:1027E40000250DF127021946204603F0A7FE0646F0
:1027F4009DF8273053B10AB070BD04460125F0E7B7
:1028040000252C46EDE700252C46EAE72022214648
:1028140001A803F00AFF4DB1089BC3F308025AB99B
:102824006FEA53236FEA4323089305E0089B23F4DC
:10283400FF7323F00103089301A9304603F06CFEF3
:10284400D9E700BF00ED00E0024A536943F01003EA
:102854005361704700ED00E0704700BF002206E0BE
:1028640002F00F01094B0B44202119760132402A52
:102874000ADC53B2002BF3DB03F1604303F561433D
:10288400202183F80013F1E7704700BFFCEC00E05F
:1028940010B5044602F0C2F8114B9B68A3420AD05B
:1028A4004FF02003EFF3118083F31188BFF36F8F90
:1028B40005F0E9FE10BDEFF305832BB1094A536817
:1028C40043F080535360EBE74FF02003EFF31180A4
:1028D40083F31188BFF36F8FFFF7D8FDE0E700BFE4
:1028E4000028002000ED00E000B585B0094B0193FD
:1028F400094B02930623ADF80C300121ADF80E10FC
:1029040001AB0093054B064A684603F05FFE05B031
:102914005DF804FB0000002000000000000001201E
:1029240000000020014B024A1A63704790ED00E05A
:10293400AAFF440010B40B6823F01F020C7A04F0C1
:102944001F031A43CB6823F01F03640943EA4403BB
:1029540043F0010302498860CA600B6110BC7047F0
:1029640090ED00E010B50F2804D80446FFF7E2FF0D
:10297400204610BD4FF00004012363F302046FF3FB
:10298400C504074B074A9B1AC3F3C90363F38F14A7
:1029940002460549204603F02EFB6FF01504E7E7D5
:1029A400B08A0000A08A0000889200002DE9F04F50
:1029B40087B080468B4601931446002560E00123CE
:1029C40063F302006FF3C5006B4B6C4A9B1AC3F3AD
:1029D400C90363F38F102A46694903F00CFB6FF0B7
:1029E400150416E06FF0150667E04FF000000123B0
:1029F40063F302006FF3C5005F4B604A9B1AC3F395
:102A0400C90363F38F1032465E4903F0F4FA6FF0A2
:102A14001504204607B0BDE8F08FBA4566D1F0B280
:102A240003F0B9FD2BE0584AC2F808C0D36803F09C
:102A34001F0320F01F001843D06058F80910E0B2BB
:102A440003F0A9FD044610F1160FE2D0013416E09C
:102A5400013B4D49C1F808C00A6902F01F0223F086
:102A64001F0313430B6158F80910E0B203F093FD00
:102A7400044610F1160FCCD0013400E001340135C6
:102A84005D45C6DA4FEA850958F825607768002F56
:102A9400F5D0019B23B1304603F06BFD00288ED0A6
:102AA400D6F800A0504603F095FD064607EB0A0051
:102AB400013803F08FFD864294D116F1160F94D09D
:102AC400631EB34291DBB4462F4B9E60DA6822F05A
:102AD4001F029E601F6947F01F0758F809100B6812
:102AE4004868184400F1FF3A934296D093429AD032
:102AF400BA45ADD0013B24496646C1F808C00A690D
:102B040002F01F0223F01F0313430B6158F809104E
:102B1400E0B203F040FD044610F1160F3FF479AF24
:102B24000130194B9E60D9689DF8102061F30402AE
:102B34008DF810201B69C3F34203D2B263F347122A
:102B44008DF8102058F80920116854682144029126
:102B54001368234423F01F03A7EB0A071F44013F14
:102B640027F01F07059702A9C0B2FFF7FBFE044632
:102B740010F1160F82D14CE7B08A0000A08A000041
:102B8400409200006492000090ED00E010B5034C08
:102B940001232278FFF70AFF207010BD2F280020A0
:102BA400034B05225A60BFF34F8FBFF36F8F7047FB
:102BB40090ED00E0BFF35F8F014B00225A60704735
:102BC40090ED00E038B50E4B1D68102D15D8FFF7B9
:102BD400F1FFFFF7A7FE0024A54208D9084B596866
:102BE40001EB04112046FFF7A5FE0134F4E7054B81
:102BF4001D70FFF7D5FF002038BD4FF0FF30FBE715
:102C0400B09200002F280020014B1860704700BFCD
:102C14001000002070B443685E68304B1340B3F575
:102C2400801F23D012D9B3F5800F27D016D92C4892
:102C3400834225D0B3F5A00F4DD1032012F0100F1D
:102C440020D112F0200F3DD001241CE0022B0FD024
:102C5400062B0FD083B16FF0150031E02148834279
:102C640001D10720EAE76FF0150029E00120E5E72C
:102C74000420E3E70620E1E70020DFE70220DDE7A8
:102C84000520DBE70324C2F3402312F4807F0CBF4A
:102C94000125002512F4007F05D012F4006F13D033
:102CA40001228A40B26001F01F0143EA450343EA6E
:102CB400840343EA002380310B4A42F82130002088
:102CC40070BC70470024DEE712F4806FEBD0012261
:102CD4008A40F260E7E76FF01500F1E70600F000C4
:102CE400020040000600100000258450F0B4C568BE
:102CF4004668E9686A69AB69134321EA0301012262
:102D0400002011E04FF0020C03F01F030F4F80333B
:102D140057F8234024F4403444EA0C4447F8234051
:102D240021EA02010130520071B10A42FAD0347A28
:102D340000F01F0343EA44132C69C44014F0010F4C
:102D4400E0D14FF0030CDFE7F0BC7047002584505E
:102D540070B4C3684068DA6859699C69214322EAFF
:102D64000102416809691869484022EA0000012308
:102D7400002401E001345B0072B11A42FAD004F07D
:102D84001F01064E803156F8215025F4403546F88F
:102D9400215022EA0302EDE770BC704700258450FD
:102DA40070B582B0002301932D4B1C680CB900212F
:102DB40009E02C48FFF7CCFF0190294B00221A6050
:102DC4001B68F4E70131072926D801F140039B0071
:102DD4009AB201238B402448D0F804030342F1D073
:102DE40002F1A04303F550431B68002BEAD001F520
:102DF400A2731D4850F82300C0F30420012303FAF2
:102E040000F0019B0343019302F1A04303F55043F7
:102E140000221A601B68D5E7019E16B9DCB902B01E
:102E240070BD124B596819B10D4649B10D6807E0E0
:102E34000D4605E06DB12B4605B12B6829461D46AC
:102E44000029EBD08A683240F4D04B680548984793
:102E5400F0E72B46F2E70348FFF748FFDFE700BF40
:102E64007CD10050C000002000D000507C270020FE
:102E740030B4174BD3F80453EDB2002300E0013310
:102E8400072B22D803F5A272114C54F82220C2F366
:102E940004229142F3D125FA03F212F0010FEED08D
:102EA40001229A40D143D0E8EF4F0C40C0E8E54FEF
:102EB400002DF8D1064903F5A27351F8230020F040
:102EC400010041F82300C1F8082330BC704700BF5B
:102ED40000D000500023072B42D870B401249C403A
:102EE400D0E8EF5F45EA0406C0E8EC6FBCF1000FE0
:102EF400F6D1DD4015F0010F07D00133DBB2072B0B
:102F0400ECD96FF0120070BC704703F140008000F0
:102F140080B2154D03F5A27355F8236026F44736A5
:102F240026F4407645F8236055F82360090201F43D
:102F3400F851120402F440321143314345F823108E
:102F440000F1A04202F5504200201060126855F8CA
:102F5400232042F0010245F82320C5F80443D2E7B8
:102F64006FF01200704700BF00D0005070B50D46DE
:102F7400C66843681B7A01F01F0444EA43142146DF
:102F84002148FFF775FF04F01F02204902F1800079
:102F940051F8203023F4403341F82030F368EB40FB
:102FA40013F0010F2ED07369EB4013F0010F14D00E
:102FB400B369EB4013F0010F07D1336923FA05F528
:102FC40015F0010F07D0012200E0032221460E482C
:102FD400FFF780FF17E00222F8E7336923FA05F5CB
:102FE40015F0010F0CD103200849803251F822302A
:102FF40023F4403343EA004341F82230002002E046
:103004000220F1E7002070BD98270020002584509D
:1030140070B5C46845682E7A01F01F0545EA461567
:10302400B2F5A03F25D0B2F5005F2ED0E5680126A9
:103034008E403543E560B2F5A03F2CD0626901258E
:103044008D4022EA05026261B3F5C02F28D0A2693F
:1030540001258D4022EA0502A261B3F5802F24D018
:10306400236901228A4023EA02032361FFF77EFFDA
:1030740070BD05F01F0580350E4E56F8255015F02D
:10308400010FD0D06FF02200F2E7E56801268E40F0
:1030940025EA0605CEE7626901258D402A43D2E779
:1030A400A26901258D402A43D6E7236901228A407B
:1030B4001343DAE70025845008B50B4B1B780BB19A
:1030C400002008BD084B01221A70002205210D20A2
:1030D400FFF748FA0D20FFF727FA044B4FF00042A0
:1030E400C3F80423ECE700BF3028002000D00050D0
:1030F400034BD3F8003413F0010FF9D0704700BF2D
:1031040000900350024B0B6001231360704700BF13
:103114009C270020004870473893000010B503F046
:10312400DAFD034C206003F0D2FD6060002010BD86
:103134009C27002043681A6847F6122399426DD0F1
:1031440010D9B1F5E13F78D040D9B1F5E12F7DD068
:1031540058D8B1F5613F7CD0424B99424FD14FF0E2
:10316400806357E0B1F5965F5BD018D8B1F5167F50
:1031740059D008D9B1F5966F58D0B1F5166F0BD167
:103184004FF41D2346E0B1F5967F02D14FF4A033EE
:1031940040E06FF0150070476FF015007047B1F50F
:1031A400615F46D007D9B1F5964F44D0B1F5E14FF0
:1031B40009D12D4B2EE0B1F5165F01D12B4B29E03F
:1031C4006FF0150070476FF0150070474DF6C0237F
:1031D400994235D007D9B1F5614F34D0B1F5963F56
:1031E4000AD1234B16E0B1F5164F02D14FF41D035B
:1031F40010E06FF0150070476FF0150070476FF026
:1032040015007047B1F5612F26D01A4B994226D18B
:103214004FF08053C2F82435002070474FF4000368
:10322400F8E7154BF6E74FF41C33F3E74FF49E230E
:10323400F0E7124BEEE7124BECE74FF0EB73E9E7E4
:103244004FF46503E6E74FF46B03E3E74FF0E863FD
:10325400E0E74FF06C73DDE74FF07063DAE76FF08F
:103264001500704790D0030000C07500005027007F
:1032740000903A0140420F0000B0130000F03A0001
:1032840000A04E00F8B50C46174643681D68C66892
:103294000023C5F8003530600B6803F01F020123DA
:1032A4009340314A93600B6803F01F03803303217A
:1032B40042F823106368B3F1FF3F05D003F01F0306
:1032C4008033002142F8231022686368C5F80C2576
:1032D400C5F81435A368B3F1FF3F06D003F01F030C
:1032E4008033214A002142F82310E368B3F1FF3F01
:1032F4000DD003F01F03012202FA03F31A4A93606C
:10330400E36803F01F038033032142F82310E268CB
:10331400A368C5F80825C5F81035C168043103F061
:1033240038FB0346F0B90822C5F800256268B2F1FB
:10333400FF3F0CD00022C5F81021D5F8102106F16A
:103344001402C5F834250122C5F838252A604FB186
:10335400F2689268C5F844250022C5F84825012280
:10336400AA60EA601846F8BD0025845030B585B0DF
:1033740005460A4B6C460FCB84E80F00002201215E
:103384000820FFF7EFF80820FFF7CEF801222146C6
:103394002846FFF777FF05B030BD00BFE08A000084
:1033A40030B585B005466C46094B0FCB84E80F0059
:1033B400002201210920FFF7D5F80920FFF7B4F80E
:1033C400012221462846FFF75DFF05B030BD00BF4E
:1033D400F08A0000C0F30E03BBB9C1F30E02BAB900
:1033E400B2EBD13F17D230B402EBD033DBB203F5EA
:1033F400C0730A4C40F2151544F823500132B2EB65
:10340400D13FF1D3002030BC70476FF015007047F6
:103414006FF0150070470020704700BF0030005067
:10342400034B1B68092B01D0002070470120704713
:103434003001FF00064B1B68064A1268092B01D0B5
:1034440000207047012A01D00020704701207047F6
:103454003001FF003401FF00064B1B68064A126866
:10346400092B01D000207047012A01D001207047A8
:10347400002070473001FF003401FF00064B1B6839
:10348400064A1268092B01D000207047012A01D096
:1034940000207047012070473001FF003401FF0015
:1034A400034B1B68092B01D0002070470120704793
:1034B4003001FF00044B1B6AB3F1FF3F01D0002031
:1034C40070470120704700BF0080FF00044BDB6998
:1034D40013F0010F01D1002070470120704700BF95
:1034E4000080FF00014B024A1A607047640000200C
:1034F4000090D00308B5FFF793FF30B14FF050238D
:103504000022C3F81421C3F81821FFF793FF30B148
:103514000123424A1360A2F63822C2F87835FFF735
:103524009BFF18B13E4B0122C3F87825FFF7A6FF95
:1035340010B13C4B0E221A60FFF7B2FF28B13A4B90
:1035440000221A60043301221A600022FF2A15D8CF
:1035540002F160034FF47F0151F83330B3F1FF3FC0
:103564000CD002F160034FF47F0151F83310DB00FB
:1035740003F57F035B680B600132E7E7FFF7A6FF03
:1035840060B9FFF797FF48B9284AD2F88C3043F462
:103594004063C2F88C30FFF7A5FF08BD244BD3F875
:1035A4000034012BFAD1224B0122C3F80425204B0D
:1035B400D3F80034012BFAD1FFF788FF48B11D4A34
:1035C400D36923F00103D361194BD3F80034012BE1
:1035D400FAD1FFF76FFF58B1164A136A23F0FF03BD
:1035E40043F020031362124BD3F80034012BFAD1B9
:1035F4000F4B0022C3F804250D4BD3F80034012BE4
:10360400FAD1BFF34F8F0949CA6802F4E0620A4B4A
:103614001343CB60BFF34F8F00BFFDE7384A005020
:1036240000400050E4AE03500C47005000ED00E0B1
:10363400009003500080FF000400FA05054B1B793D
:103644002BB9044B186001221A71034870470348D0
:10365400704700BFE42700200000AD0B0C00AD0B49
:1036640010B1012825D070474FF05022D2F81834F9
:1036740003F00303D2F8182412F4803F11D14FF061
:1036840050230122C3F818250F4B00221A601B682F
:103694004FF050230222C3F80423083301221A6096
:1036A4007047022BEBD14FF050230222C3F81825A8
:1036B400EAE7064B00221A601B684FF050230122F0
:1036C400C3F804231A60704704510050005100509D
:1036D40070B5044610B1012812D070BD4FF05023CC
:1036E4000222C3F8082303F5827300221A601B68C0
:1036F400334B01221A60012C0FD042F210754BE0BB
:1037040001234FF05022C2F8083302F580720021E1
:10371400116012682B4A1360EDE7254642F21076D9
:1037240014E04FF05023D3F8185405F00305D3F8F0
:10373400183413F4803F1CD10023002BCDD0012D6D
:10374400CBD1012003F08AFA013EC6D0002CE8D088
:10375400012C01D00023F0E74FF05023D3F80C5490
:1037640005F00105D3F80C3413F4803F03D1002392
:10377400E3E70123E1E70123DFE74FF05023D3F828
:10378400183413F4803F16D10023002BA5D0012058
:1037940003F064FA013DA0D0002CEED0012C01D03E
:1037A4000023F2E74FF05023D3F80C3413F4803F96
:1037B40003D10023E9E70123E7E70123E5E700BF9D
:1037C4000C5000500450005008B5194B1B685BB1F5
:1037D400174B002018601B684FF050230122C3F8D8
:1037E4000823144B1B689847134B1B68B3B1124B47
:1037F40000221A601B684FF05022D2F8183403F0EC
:103804000303D2F81824012B09D04FF050230222CD
:10381400C3F80823074B1B680120984708BD4FF0E5
:1038240050230222C3F81825083301221A60F5E751
:1038340000510050E427002004510050034B0022A3
:10384400C3F88425C3F80425704700BF00900350D3
:10385400034B0122C3F88425C3F80425704700BF35
:1038640000900350034B0222C3F88425C3F80425B7
:10387400704700BF00900350044BD3F8083413F092
:10388400010FF9D00160BFF35F8F704700900350C0
:1038940010B5044603F0FFF908B9084810BDFFF756
:1038A400E1FF4FF0FF332360054BD3F8003413F0EE
:1038B400010FF9D0FFF7C2FF0248EFE70A00AD0B92
:1038C400009003500000AD0B0268124B9A4215D1D0
:1038D400C269A3F11023A3F1EF139A4210D18368B4
:1038E400012B0FD8C36813B1026993420CD043690A
:1038F40063B1826993420BD0002070470120704766
:103904000120704701207047012070470020704754
:103914000120704755AA00FF70B5114B9D68C5B1D1
:103924002846FFF7D1FF0646A8B9EB6813B1012674
:10393400304670BD2C6901E025462469002CF7D07F
:103944002046FFF7C1FF40B9E368AB42F4D001263B
:10395400EEE70126ECE70126EAE70126E8E700BFE7
:10396400EC270020002800F0918038B50446484B2D
:103974001B68002B6DD0464A9268002A69D08342A6
:1039840004D8434A52681344834203D8414B1B680A
:1039940001209847A4F120052846FFF795FF18B1A8
:1039A4003C4B1B680120984754F8183C012B03D06A
:1039B400384B1B6801209847002344F8183C54F8FE
:1039C400143CD3B19A68BAB954F81C2C59680A4407
:1039D40020325A6054F8143C54F8102C1A6154F8EC
:1039E400144C236903B1DC6020220021284602F034
:1039F4003FFE2B46254600E000232C691CB3A26839
:103A04000ABB63686A68134420336B6023692B61C3
:103A14006B69FBB113B3AA699A61AB690BB16A69AB
:103A24005A6163696B61A269AA61DBB19D61AB698B
:103A340003B15D612B6903B1DD60202200212046C2
:103A440002F016FE234683B1114B1B6913F0020FDB
:103A540013D138BDAA69002ADCD1E2E7AA690C4B6C
:103A6400DA60DAE70A4BDD60E1E7094BDB68AB615A
:103A740003B15D61064BDD60E6E7FFF74DFF00280B
:103A8400E7D0044B1B6801209847E2E7704700BF6A
:103A9400EC2700206C00002070B54F4BDC681D68DB
:103AA400002D5AD09D68002D57D001FB00F6002848
:103AB40000F08880002900F08780B6FBF0F088428F
:103AC40040F0848016F1040F00F2828016F0030F98
:103AD40008D026F00305043534B16368AB4203D241
:103AE400A469F9E73546F7E7002C73D0A3681BB146
:103AF4003A4B1B68012098476268521B232A2ED92F
:103B040005F120016318203A5A6000229A60DC60B3
:103B140022691A61324860503249D96102B1D360D6
:103B240062695A61A1699961002A3FD093619A69D7
:103B340002B153610122A2606560236100236361C5
:103B4400A361254B1B6913F0010F32D104F1200549
:103B540032460021284602F08BFD284670BD012321
:103B6400A3606369ABB1A2699A61A3690BB162698D
:103B74005A6100236361A361174B1B6913F0010FA2
:103B84000BD104F1200532460021284602F070FDD5
:103B9400E3E7A269104BDA60E7E7FFF7BDFE002810
:103BA400EFD00E4B1B6801209847EAE70A4AD3601E
:103BB400BDE7FFF7B1FE0028C8D0084B1B68012001
:103BC4009847C3E70025C8E70025C6E70025C4E7F2
:103BD4000025C2E72546C0E7EC2700206C00002042
:103BE40055AA00FF669911EE38B505460C46142215
:103BF4000021134802F03CFD1249134800F038F844
:103C0400232C1CD915F0030304D01C44043CC3F139
:103C140004031D4422460021284602F029FD084BD6
:103C24001D605C609D60203C6C609A68074911606F
:103C34009A68A1F11021A1F1EF11D161DA6038BDC8
:103C4400EC270020693900009D3A000055AA00FFC6
:103C540008B5024B1B68984708BD00BF68000020E8
:103C640008B5024B1B68984708BD00BF70000020D0
:103C7400024B1860024B1960002070476800002056
:103C84007000002031B108B50A46034B1B680021BF
:103C9400984708BD704700BF74000020F8B504467B
:103CA4000D46476800F10806304603F012FC8742CF
:103CB40051D16368B3F5807F4FD80021304603F0BB
:103CC4008DFD00282ADD0021304603F0DCFB28B3FB
:103CD400CDB104F12C060021304603F07FFD00280D
:103CE4001EDD0021304603F0CEFBC8B104F13806D6
:103CF4000021304603F072FD002811DD002130461A
:103D040003F0C1FB60B1002104F1140003F066FD6F
:103D1400002824DD35B9ADB92846F8BD124DFBE7BE
:103D2400114DF9E7002104F1440003F057FD002888
:103D340006DD002104F1500003F050FD0028EADC08
:103D4400094DE9E7002104F15C0003F047FD002878
:103D540007DD0025E0E7044DDEE7034DDCE7024D17
:103D6400DAE7014DD8E700BF80BFFFFF70B5044616
:103D740000221146FFF792FFE0B9064604F1080558
:103D8400284603F090FB7F2816D9143400212046DE
:103D940003F079FB60B1204603F085FB012807D9C5
:103DA4002946204603F0D1FC002801DA304670BDD4
:103DB400024EFBE7014EF9E7004EF7E700BEFFFFB6
:103DC400F0B587B005460C46164600221146FFF7AB
:103DD40065FF98BB03A803F0C5FA6A68214603A8E7
:103DE40003F07DFB044630B103A803F0C1FA14BB11
:103DF400204607B0F0BD05F10804214603A803F0EE
:103E0400A4FC002802DB6FF00304EDE76F6805F102
:103E140068030093234605F1140203A9084604F03D
:103E24005EF804460028DFD13A46314603A803F081
:103E340087FB0446D8E7A4F58544D9E7004CD7E7C7
:103E440080BFFFFF0023036043600B46B9B9194AE2
:103E54008260194AC260194A0261194A4261194AC8
:103E64008261194AC261194A026202F17452A2F5CE
:103E74002302A2F692424262836600207047144AEB
:103E84008260144AC26002F1794202F5740202F5BA
:103E940001620261104A4261104A826102F1D14218
:103EA40002F5C01202F51E62C2610D4A02620D4A99
:103EB4004262E1E767E6096A85AE67BB72F36E3C6E
:103EC4003AF54FA57F520E518C68059BABD9831FE1
:103ED400D89E05C107D57C3639590EF7310BC0FF82
:103EE400A78FF964A44FFABE2DE9F04FD1B0079023
:103EF400002306E09A1C50F8222008AC44F8232042
:103F04000133072BF6D900220F2A11D811F82240C9
:103F140001EB820043781B0443EA0463847843EA98
:103F24000423C078034310A840F822300132EBE7A1
:103F34004FF0000E42E10F9B0C9E4FEAF62181EAFE
:103F4400B61181EA766119440E9C0D9884EA000347
:103F5400334063401944DFF8348758F82E3019444D
:103F64000DF1400C5CF82E301944089D4FEA753A67
:103F74008AEAB50A8AEAB55A099F05EA07030A9A42
:103F840045EA070902EA090943EA09039A440B9B33
:103F940001EB030951444FEAF92383EAB91383EA95
:103FA40079631C4486EA000309EA030343401C4482
:103FB4000EF1010A58F82A301C445CF82A301C44DB
:103FC4004FEA713383EAB10383EAB15305EA010A84
:103FD40045EA010B07EA0B0B4AEA0B0A5344224455
:103FE4001C444FEAF22383EAB21383EA726318444F
:103FF40086EA09031340734018440EF1020A58F884
:104004002A3018445CF82A3018444FEA743383EA9F
:10401400B40383EAB45301EA040A41EA040B05EA4F
:104024000B0B4AEA0B0A5344074418444FEAF7239C
:1040340083EAB71383EA77631E4489EA02033B40A9
:1040440089EA03031E440EF1030A58F82A301E4479
:104054005CF82A301E444FEA703383EAB00383EAE3
:10406400B05304EA000A44EA000B01EA0B0B4AEAE3
:104074000B0A534435441E444FEAF52383EAB5132F
:1040840083EA7563994482EA07032B4053409944B9
:104094000EF1040A58F82A304B445CF82A904B4439
:1040A4004FEA763989EAB60989EAB65900EA060A76
:1040B40040EA060B04EA0B0B4AEA0B0AD144194402
:1040C4000F914B440B934FEAF12989EAB11989EA1C
:1040D40071694A4487EA050901EA090987EA090975
:1040E40091440EF1050A58F82A204A445CF82A90B3
:1040F4004A444FEA733A8AEAB30A8AEAB35A06EAA6
:10410400030946EA030B00EA0B0B49EA0B09CA440C
:1041140004EB0209CDF8389052440A924FEAF9248C
:1041240084EAB91484EA7964274485EA010409EA33
:1041340004046C403C440EF1060A58F82A703C44CE
:104144005CF82A703C444FEA723787EAB20787EA80
:10415400B25703EA020A43EA020B06EA0B0B4AEAE5
:104164000B0A574420440D903C4409944FEAF0272D
:1041740087EAB01787EA70673D4481EA090900EAD3
:10418400090981EA090129440EF1070058F8205071
:1041940029445CF8200001444FEA743080EAB400FA
:1041A40080EAB45002EA0405224313402B4303443B
:1041B4000E440C960B4408930EF1080EBEF10F0F3B
:1041C4007FF6B9AE10263F2E00F24D820F9A0C9B5B
:1041D4004FEAF32787EAB31787EA73673A440E98DE
:1041E4000D9D80EA05071F4047403A44DFF89CB420
:1041F4005BF826701744B31E1A4610AB049253F8AA
:1042040022204FEAF24484EA724484EA9224F21FA0
:1042140053F822201444A6F10F0A53F82AC04FEA97
:10422400BC4282EAFC1282EADC021444A6F11002C7
:1042340053F82220224443F826203A4408994FEAAE
:10424400713C8CEAB10C8CEAB15E099F3C460C408F
:104254000A990091089941EA070C009901EA0C0CAB
:1042640044EA0C0CF4440B9C144462444FEAF428D2
:1042740088EAB41888EA746880440C9981EA0509CC
:1042840004EA090985EA0909C844711C5BF821009C
:104294008044701E059053F820004FEAF04C8CEADD
:1042A400704C8CEA902CB01F53F820008444A6F183
:1042B4000E0E53F82E904FEAB94080EAF91080EAC6
:1042C400D900604453F82A904844029143F82100ED
:1042D40008EB00094FEA723888EAB20888EAB25853
:1042E400089901EA020041EA020C019707EA0C0C62
:1042F40040EA0C0CC444009800EB0908E1444FEA7E
:10430400F82080EAB81080EA786005440C9981EAC4
:10431400040008EA000048400544B01C01465BF86C
:104324002000054453F826004FEAF04C8CEA704C08
:104334008CEA902C701F53F820008444A6F10D0AD7
:1043440053F82A004FEAB04053F82A7080EAF71075
:1043540080EAD700604453F82EC06044039143F8C8
:10436400210005444FEA793C8CEAB90C8CEAB95C2B
:1043740002EA090042EA090E089901EA0E0E40EA2F
:104384000E008444019F07EB050E05EB0C07009714
:104394004FEAFE2080EABE1080EA7E600C990D1878
:1043A40084EA08010EEA010161406818F71C5BF811
:1043B40027100144029D53F825004FEAF04585EA91
:1043C400704585EA9025301F53F820000544019577
:1043D400A6F10C0C53F82C004FEAB04053F82C50C3
:1043E40080EAF51080EAD500019D284453F82A504C
:1043F4002844069743F82700014400984FEA703593
:10440400074685EAB00585EAB05509EA000049EA9D
:10441400070A02EA0A0A40EA0A000544089800EB7F
:10442400010A294401914FEAFA2585EABA1585EA79
:104434007A652C4488EA0E050AEA050588EA05052A
:104444002544341D02945BF824000544039953F871
:1044540021404FEAF44080EA744080EA9420F41E3C
:1044640053F824402044A6F10B0753F827104FEAD1
:10447400B14484EAF11484EAD104044453F82C00CE
:104484002044029943F82100054401994FEA713C04
:104494008CEAB10C8CEAB15C009804460C400146ED
:1044A4000198084309EA0000204360442A440F921B
:1044B40028440B904FEAF22C8CEAB21C8CEA726C02
:1044C400C4448EEA0A08039202EA08088EEA08083D
:1044D400C444741D21465BF82440A444069D53F84B
:1044E40025504FEAF54484EA754484EA9524049AF5
:1044F40053F822502C44A6F10A0853F828204FEA16
:10450400B24585EAF21585EAD205254453F82740D9
:104514002C44049143F8214064444FEA703787EAFD
:10452400B00787EAB057019901EA000541EA000C97
:10453400009901EA0C0C45EA0C052F4409EB040C24
:10454400CDF838C03C440A944FEAFC2787EABC17EC
:1045540087EA7C677744039D8AEA050E0CEA0E0E0F
:104564008AEA0E0E774406F106095BF829502F44B7
:10457400029D53F825504FEAF54E8EEA754E8EEAA9
:10458400952E059A53F82250AE44A6F109020292E0
:1045940053F8225029464FEAB54585EAF11585EAD4
:1045A400D105754453F828E0754443F829502F4445
:1045B4004FEA743585EAB40585EAB45500EA04097E
:1045C40040EA040E019A02EA0E0E49EA0E09A944D1
:1045D4000099CD190D954F4409974FEAF52E8EEAAF
:1045E400B51E8EEA756ED644039A82EA0C0C05EA6F
:1045F4000C0C82EA0C02724406F107085BF828509E
:1046040002EB050E049953F821504FEAF54282EA71
:10461400754282EA952253F826100A44A6F1080549
:1046240053F825C04FEABC4585EAFC1585EADC054C
:104634002A44029D53F825502A4443F82820724402
:104644004FEA773383EAB70383EAB75304EA0705EB
:104654002743384028431844019911440C911044CD
:1046640008900836AFE50023079809E008AA52F835
:104674002340991C50F82120224440F82120013382
:10468400072BF3D9002051B0BDE8F08FB49300009C
:1046940070B50646114B53F8205000E00835731CE2
:1046A4000E4A52F82330AB4217D96C682B68204667
:1046B40098470028F2D0002CF0D00949094BE41A9D
:1046C4002411600904F01F0451F82030012202FA79
:1046D40004F41C4341F82040E0E770BDB4940000AA
:1046E400E000002080000020084BC01A001142099D
:1046F40000F01F00064B53F82220012303FA00F0B8
:1047040002420CBF18460020704700BF8000002002
:10471400E000002038B50546114C00E01034114B80
:104724009C4208D02046FFF7DFFF0028F6D023681C
:10473400AB42F3D112E00A4C00E01034094B9C4226
:104744000BD02046FFF7D0FF0028F6D0216828467A
:1047540001F04AFF0028F0D100E00024204638BDD3
:1047640080000020E000002008B50348034A121A24
:10477400002101F07DFF08BDF8000020342800204E
:1047840008B50648064A121A064901F04EFF064AC1
:104794000649074801F049FF08BD00BF000000209A
:1047A400F40000201C950000000000001C9500008F
:1047B4000000002008B50B4B01221A700220FFF7FD
:1047C40067FF094A09490A4801F0B4F90320FFF7D1
:1047D4005FFFFBF733FE074A137B23F001031373D8
:1047E40008BD00BF3128002084900000CC94000054
:1047F400F0940000F800002008B5FDF71BF9124BF7
:1048040083F30888114CE02384F822300025E577EF
:1048140025766576A576636A43F4E0236362FEF742
:1048240013F8FDF7CBFE4FF0FF33A362E362284693
:10483400FFF72EFF0120FFF72BFF2B462A462946C0
:104844000348FDF7A5FE00BF3858002000ED00E046
:10485400B947000010B5064C0020064B9C4206D216
:10486400204603F0EBFE002801DB1C34F5E710BD05
:10487400E4000020E4000020084681B908B5EFF305
:1048840005833BB9084BDA699B689A4202D0FDF76D
:10489400FDFD03E080F31188BFF36F8F08BD81F342
:1048A4001188BFF36F8F7047002800200A4B8342A2
:1048B40008D04A680B6813604A685A6000230B608A
:1048C4004B607047203B9B688B42F2D14B7B13F0CB
:1048D4001F0FEED0F5E700BF2028002038B50546AD
:1048E4000E4C04F1200003F0DCFEA268537B13F0AD
:1048F400200F02D043F00803537348B15DB9537BD2
:1049040013F01F0F07D183692BB9044BDA6104E05C
:10491400024BD868F2E7014BD86138BD002800206B
:1049240038B5437B13F01F0F05D183690BB1002306
:1049340002E0012300E0002313B30546154B53F8AE
:10494400204F9C4224D064B12146284603F091FEB6
:10495400B8B934B10F4B5B6A9C4202D02468002C76
:10496400F1D10C4B03F120022A605A6A6A60156087
:104974005D626B7B63F07F036B730020FFF7AEFF18
:1049840038BD63686B602C6063681D606560F0E728
:104994000024D8E70028002038B50446183003F076
:1049A40019FF00234FF02002EFF3118582F31188E1
:1049B400BFF36F8F10E0637B43F010036373154BF9
:1049C4009868A04214BF00200120FFF787FF85F3F9
:1049D4001188BFF36F8F012363B994F90D30002B55
:1049E400E9DA21460C48FFF761FF637B03F07F039C
:1049F4006373E0E7074B9B68A34200D038BD4FF0D8
:104A04002003EFF3118083F31188BFF36F8F03F05A
:104A14003AFEF3E7002800202028002070B5054660
:104A2400036E03B1984705F1180003F0D3FE002389
:104A34004FF02002EFF3118682F31188BFF36F8FDA
:104A44003AE0012241E029462A48FFF72FFF6B7B19
:104A540003F07F036B733EE013F0020F43D028464C
:104A640003F003FE2946FFF721FF6B7B23F00203CB
:104A74006B730023AB6036E004F1180003F0AAFE68
:104A8400204603F0F2FD2146FFF710FF637B23F07D
:104A9400020363730023A360E3672046FFF740FF2C
:104AA40005F130032C6BA34201D0002CE4D186F332
:104AB4001188BFF36F8F01231A46CBB96B7B13F0B8
:104AC4001F0F02D1A9690029BBD012F0010FC3D076
:104AD40013F0800FB7D1084B9868A84214BF002088
:104AE4000120FFF7FBFE6B7B43F008036B73D7E7F2
:104AF40070BD00BF202800200028002038B5B1F187
:104B0400FF3F08BFB0F1FF3F1AD003F0B0FD0446E9
:104B1400C5176901430141EAD0621B1A62EB050221
:104B2400910041EA937198000A46031945EB020289
:104B3400D00040EA5370D900CB0B43EA404038BD63
:104B4400034B9868FFF728FF4FF0FF30F7E700BFEB
:104B540000280020014B9868704700BF00280020FF
:104B640038B504464FF02003EFF3118583F3118821
:104B7400BFF36F8F03F0B2FD40B10022C26703F0B0
:104B840097FD29460648FFF777FE38BDA368E2681B
:104B9400934203D001221344A360F2E70022FAE710
:104BA40028280020034B1868984200D07047002042
:104BB400FCE700BF7800002030B1044A52689042FC
:104BC40001D0006870470020704700BF78000020C3
:104BD40008B5044B1B680BB1002008BDFDF728FC89
:104BE400FBE700BF282800202DE9F0484FF0200300
:104BF400EFF3118583F31188BFF36F8F294B18608E
:104C0400FFF7D0FF044658B3D0E90467254B1B686F
:104C1400D917B34271EB070222DB234AD2E9000120
:104C240010EB060B41EBE67CC2E900BC9B1B1D4A62
:104C3400136000220023C4E90423204603F093FDFB
:104C440085F31188BFF36F8FA368204698474FF010
:104C54002003EFF3118583F31188BFF36F8FCFE740
:104C640044B1104B1968D4E90423561A63EBE17775
:104C7400C4E904670C480B490C68D0E900231619F1
:104C840043EBE477C0E9006700240C6003F083FD84
:104C94002146FDF79FFB85F31188BFF36F8FBDE8B5
:104CA400F08800BF282800207801002010B5064CA9
:104CB400064B9C4206D2A2686168204603F0A8FD18
:104CC4001434F5E7002010BDE4000020E4000020C7
:104CD40070B582B0054601A90079FBF757FCAC68B2
:104CE400019B1C442B681D8966194FF02002EFF3C9
:104CF400118382F31188BFF36F8F01F0C0FBFCF7BF
:104D0400F7FCFCF7D5FC635983F30888002383F38D
:104D140014887368984702B070BD21B1012904D08A
:104D24006FF0150070470320704707207047FF207D
:104D3400704738B515461C4601F046FA58B9014685
:104D44000023A34205D2EA5CFF2A06D10133DBB279
:104D5400F7E7012101E04FF0FF31084638BD2DE9A6
:104D6400F0439DB015469946249FDDF89480279C16
:104D740001A803F051FB002101A8FFF763F814B167
:104D8400289B002B06DC2B89EE6833446E891E4475
:104D9400002513E01A46214601A803F043FBF2E77D
:104DA40023463A462946484601F00EFA034688B996
:104DB4002246394601A803F035FB2544B54204D206
:104DC400741B4445ECD94446EAE7269901A803F04C
:104DD4006CFB002318461DB0BDE8F0832DE9F043B9
:104DE40083B000284AD0054600294AD0002A4BD077
:104DF400994617460C460E89CB681E4404230DEBD6
:104E040003023146384601F0DFF9804600283ED1DE
:104E1400BDF8042046F608139A421ED06389002B7D
:104E24003BD1BDF8042046F607139A4238D12C60D2
:104E34006F60A5F808909DF82830AB7263893344FD
:104E4400EB6063893344BDF8062013446B61043678
:104E54002E61404603B0BDE8F0836389BDF80610B7
:104E64008B4217D104230DEB03023144384601F081
:104E7400ABF90028D5D04FF0FF38EAE74FF0FF3800
:104E8400E7E74FF0FF38E4E74FF0FF38E1E74FF092
:104E9400FF38DEE74FF0FF38DBE74FF0FF38D8E7A5
:104EA4004FF0FF38D5E700284DD0F0B583B0044665
:104EB400006800284BD01D4616460F4663680BBB9E
:104EC4004FF0FF313AE004230DEB030221696068DF
:104ED40001F07AF9014600283CD1A37A1BB122697A
:104EE400E3689A4239D223894FF6FF72934217D06E
:104EF400BDF80420934213D0BDF80600236918447A
:104F0400043020612069636998421AD223685B895E
:104F1400002BD8D0E3688342D5D104302061D2E796
:104F240015B1BDF804302B80236904333B60BDF810
:104F3400063033802269134404332361084603B0E6
:104F4400F0BD0121FAE74FF0FF31084670474FF0FA
:104F5400FF31F3E74FF0FF31F0E70121EEE72DE9F0
:104F6400F04184B004460E461546302303AA294670
:104F7400304601F01BFFA8BB3368039A1344AB42CD
:104F840033D104F108073A462946304601F021FF9F
:104F940028BB04F1140842462946304601F019FFA3
:104FA400E8B9384602F095FA60603368AB421FD125
:104FB400CDF804800022009213463946204603F0BF
:104FC400A6F9C0B92046FEF7D1FE0546B0B9384669
:104FD40002F07FFA6060284604B0BDE8F0816FF00B
:104FE4000205F8E74FF0FF35F5E76FF00105F2E74A
:104FF4006FF00305EFE76FF00405ECE76FF00505CC
:10500400E9E7F0B5A5B006460F4600230893DF2470
:1050140007E025462A466946304601F006FB2E4441
:10502400641B002C1DDD09A803F0F6F9002109A872
:10503400FEF708FF2022394609A803F0F3F90422F9
:1050440008A909A803F0EEF9694609A803F02DFAA6
:105054009DF8233001338DF823301F2CD9DD202512
:10506400D8E725B0F0BD012800D170470220FCE745
:105074002DE9F04383B006460F4690461C4601F0E6
:1050840020F9082C21D80546082802D94FF0FF330F
:105094001DE03046FFF74BFE8146A54200D225466F
:1050A40022464146684601F0C0FA2A1B49460DEBE8
:1050B400040001F0DDFA2B466A463946304601F019
:1050C400A2F8034618B1012301E04FF0FF3318465C
:1050D40003B0BDE8F08300B583B08DF8042001234C
:1050E40001AAFFF7C5FF03B05DF804FB04280BD049
:1050F400052804D111F1FF3018BF01207047884200
:1051040014BF0020012070470120704700EB4003CA
:10511400D801704708B5FFF7F9FF303008BD0B78A8
:10512400032B07D0072B02D14FF4C07070474FF008
:10513400FF3070474FF4C070704710B5044601F05B
:10514400C0F8FFF7E7FFA368181A10BD8068283875
:10515400704730B587B005460C468168102302AA13
:105164001039FFF7E6FD00284ADB01283CD1032370
:1051740023702846FFF7EAFF01230DF107020146D9
:105184002846FFF7D6FD00283DDB9DF8073003F0E5
:105194000F0262701B092371012801D0042A03D96C
:1051A4000123637000232371A9680123A21C203901
:1051B4002846FFF7BEFD002827DB012819D0A07878
:1051C400FFF751FFA070A9680123E21C1839284693
:1051D400FFF7AFFD00281ADB01280DD0E078FFF7B8
:1051E40042FFE07000200CE002A8FBF78BFB20706C
:1051F400BFE70323A370E6E70323E370002000E086
:10520400012007B030BD0120FBE70120F9E70120B0
:10521400F7E710B582B00C4601A9C0B2FCF78CFECA
:1052240018B10124204602B010BD21460198FFF7B1
:1052340090FF0446019800F0C6FFF3E730B583B051
:105244000D4601A9FBF76AFB044610B1204603B0E2
:1052540030BD019C2046FFF779FF04232A46A0F1C4
:105264000801204600F0B0FF0446019800F0ABFFAF
:10527400ECE708B5816801222039FFF72CFF08BD4F
:1052840008B5816801221839FFF725FF08BD10B55C
:1052940082B0044641EA02128DF80720FFF756FF58
:1052A40001230DF1070201462046FFF7E1FE02B09B
:1052B40010BD10B582B004460191FFF747FF0423E7
:1052C4000DEB0302A0F108012046FFF7D1FE02B066
:1052D40010BD08B5006A00F0F4FF08BD2DE9F041E7
:1052E40082B007460E4615460020FFF716FD01A9B9
:1052F400C0B2FCF721FE40B14FF00108019800F064
:1053040062FF404602B0BDE8F0812C2303FB067324
:105314001C89DB681C4404236A462146019800F07A
:1053240053FF804640BB2C2000FB06704689BDF825
:10533400002046F608139A420CD006BBBDF80020A4
:1053440046F607139A421DD13444BDF802301C447A
:105354002C60D3E7BDF802108E4202D04FF0030850
:10536400CCE704236A462144019800F02DFF00286D
:10537400E4D04FF00108C1E74FF00108BEE74FF059
:105384000308BBE74FF00308B8E7F0B583B007465E
:105394000C460020FFF7C1FC01A9C0B2FCF7CCFD0C
:1053A400D0B906460198FFF7C2FC0546019800F003
:1053B4000AFF2C2000FB04700023032B05D8C25CD9
:1053C400954207D10133DBB2F7E701233BB1304605
:1053D40003B0F0BD0023F9E74FF0FF36F7E74FF0D5
:1053E400FF36F4E710B582B080230193032905D07A
:1053F400072911D1026D00F1540402E0426A00F160
:105404002804084601A9FCF7ABFD034608B9019A34
:105414002260184602B010BD0123FAE738B50546EC
:105424000321FFF7DFFF10B10124204638BD072117
:105434002846FFF7D7FF044608B10124F5E72846BC
:10544400FFF747FFE865F0E7F8B505460F4616464F
:105454000024012C10DC33462C2202FB045221468A
:105464002846FBF77BFE034608B90134F1E7002C1C
:1054740003DD17B9002300E000231846F8BD70B51A
:1054840005460E460020FBF791FA0446022805D093
:10549400042803D0032801D0204670BD32460121E0
:1054A4002846FBF749FB012803D00028F4D0052443
:1054B400F2E70446F0E7002383718360C3600123AD
:1054C400437103600371C37170474379012B01D0A9
:1054D400002070470368012B01D000207047037936
:1054E400012B01D0002070470120704738B50546D4
:1054F400FBF786FB024695F85840E31EDBB2012B0E
:105504000FD9022C03D0042C01D0032C07D1002086
:1055140000F0DBF8024610B1FF2385F8583010463E
:1055240038BD002000F0E4F802460028E9D0FF244A
:1055340085F85840E7E770B584B006460C4603A9E1
:105544000320FCF7F9FC30B10124039800F03BFE82
:10555400204604B070BD0398FFF7EFFD0546F16DDA
:10556400204600F0E5F80544039800F0AAFE06463C
:105574000398FFF7DCFB0822014601A801F078F844
:1055840023798DF80430334601AA2946039800F0A4
:105594003AFE04460028D8D00124D6E708B500F026
:1055A40062FE08BD2DE9F04706460F460021084675
:1055B400FFF7B3FB044601210020FFF7AEFB3B7865
:1055C4009C4223D0984223D1012399462C2202FBEA
:1055D40003639C6A013CF06DFFF79CFD8046002547
:1055E4002C2303FB09635B6A03EBC402D2F804A017
:1055F40053F834101B685246C91A3846FFF7CEFFD9
:10560400013C5544A845EBD8BDE8F0870023DCE70E
:105614000120F9E730B583B00C46154669460720EA
:10562400FFF7F7FDE97901290DD19DF80330012B2E
:105634000ED0A9682046FFF73CFE2046FBF7A6F9EA
:10564400002003B030BD00222046FFF720FEECE727
:105654002046FFF715FEECE770B582B006460D460E
:10566400FBF7D2FE0446E86060B3022829D101A901
:105674000320FCF761FC08B1012423E02A463146EB
:105684000198FBF7C7FD044618B1019800F09BFD93
:1056940018E00198FFF75AFD01230DF103020146BA
:1056A4000198FFF746FB012806D09DF8033003F06C
:1056B4000F03EB710446E8E701238DF8033020461D
:1056C400F3E70724204602B070BD10B582B001A9EB
:1056D4000320FCF731FC18B10124204602B010BDB0
:1056E4000198FFF7C6FD0446019800F06CFDF4E74D
:1056F40010B584B003A90320FCF71EFC18B10124E3
:10570400204604B010BD01A90398FFF722FD04460A
:1057140060B99DF80730032B03D0039800F053FDC4
:10572400EEE70398FFF7ACFD0446F6E70124F4E73F
:1057340030B44379012B10D0022201FB02F4012B77
:105744000DD0CD010379013B0268013A02FB04F25A
:1057540001FB0323581930BC70470122EDE70025F3
:10576400F0E74FF050234FF0FF32C3F8082370479F
:10577400024658B1436803F00303012B03D0032B03
:1057840007D1036843B10020906070476FF01500A3
:1057940070476FF0150070476FF0150070470346AF
:1057A400426802F003028160032A03D100680022E8
:1057B4005A6070470020FAE70020704770B584B043
:1057C40014461D469DF82030DA1E18BF0122012B15
:1057D4000CD02023099E0396029301921023009378
:1057E40022462B46FBF7AEFF04B070BD3023F1E731
:1057F40070B584B014461D469DF82030DA1E18BFDB
:105804000122012B0CD02023099E039602930192BE
:105814000A23009322462B46FBF794FF04B070BD85
:105824003023F1E701207047C80F70472DE9F04F8E
:1058340087B0064689461446059300274FF0FF3A81
:10584400BB463D4602E04946B04701342078002873
:1058540000F06D813DB92528F5D100274FF0FF3ABE
:10586400BB460125F1E70246A0F12503552B00F2C2
:105874004E81DFE813F047014C014C014C014C010F
:105884004C014C014C0154014C014C0156005D008B
:105894005D005D005D005D005D005D005D005D001C
:1058A4004C014C014C014C014C014C014C014C018C
:1058B4004C014C014C014C014C014C014C014C017C
:1058C4004C014C014C014C014C014C014C014C016C
:1058D4004C014C014C014C014C014C01F2004C01B7
:1058E4004C014C014C014C014C014C014C014C014C
:1058F4004C013F0187004C014C014C0171008700B1
:105904004C014C0171004C014C014C01E8004C016C
:105914004C011E014C0187004C014C01F2004C016A
:105924007100BAF1000F03DABBF1000F00F0FA8046
:10593400BAF1000F0DDB0AEB8A034FEA430A9244E3
:10594400AAF1300ABBF1000F7FF47FAF4FF0020BD6
:105954007BE7A2F1300AF5E768280AD06C280DD05D
:1059640057B149462520B04749462078B04700251D
:105974006BE7682FF2D14820074666E76C2FEFD11A
:105984004C20F9E77A2F0ED06C2F34D04C2F3BD01B
:1059940075284FD0059B1A1D05921B681946DA1706
:1059A400CDE9021207E0059B1A1D05921B681946F2
:1059B400DA17CDE902122378752B10D0DDE9020144
:1059C400FFF732FF58B149462D20B047DDE90223E5
:1059D400524263EB4303CDE902230AF1FF3ACDF8C7
:1059E40004A0CDF800B0DDE9022349463046FFF7B4
:1059F400FFFE002529E7059B1A1D05921B68194621
:105A0400DA17CDE90212D6E7059B073323F0070323
:105A140003F108020592D3F800805D6842462B46E4
:105A240049463046FFF7FEFE00287ED0CDF80880B8
:105A34000395C0E7059B1A1D05921B6819460022B1
:105A4400CDE90212B7E749463020B04749467820ED
:105A5400B0474FF0080A4FF0010B2378702B09D0A0
:105A64006C2F16D04C2F1AD0059B1A1D05921A685C
:105A7400002304E0059B1A1D05921A680023CDF843
:105A840004A0CDF800B049463046FFF797FE002544
:105A9400DBE6059B1A1D05921A680023EFE7059BB8
:105AA400073323F0070303F1080205921A685B68C1
:105AB400E5E7059B1A1D05921D68A84698F80000A5
:105AC40020B108F101084946B047F7E7BBF1030FDD
:105AD40001D00025B9E6A8EB0503AAEB030303E014
