:020000040000FA
:10000000E80B0020411100003B400000711100008E
:1000100071110000711100007111000071110000D8
:10002000000000000000000000000000850F00003C
:1000300071110000000000003D0F0000353F00007E
:100040000111000001110000011100000111000068
:100050000111000001110000011100000111000058
:100060000111000001110000011100000111000048
:100070000111000001110000011100000111000038
:100080000111000001110000011100000111000028
:100090000111000001110000011100000111000018
:1000A0000111000001110000011100000111000008
:1000B00001110000011100000111000001110000F8
:1000C00001110000011100000111000001110000E8
:1000D00001110000011100000111000001110000D8
:1000E00001110000011100000111000001110000C8
:1000F00001110000011100000111000001110000B8
:1001000001110000011100000111000001110000A7
:100110000111000001110000011100000111000097
:100120000111000001110000011100000111000087
:100130000111000001110000011100000111000077
:10014000011100000000000000000000000000009D
:10015000000000000000000000000000000000009F
:10016000000000000000000000000000000000008F
:10017000000000000000000000000000000000007F
:10018000000000000000000000000000000000006F
:10019000000000000000000000000000000000005F
:1001A000000000000000000000000000000000004F
:1001B000000000000000000000000000000000003F
:1001C000000000000000000000000000000000002F
:1001D000000000000000000000000000000000001F
:1001E000000000000000000000000000000000000F
:1001F00000000000000000000000000000000000FF
:10020000DEE61E284CBBCE8F025B00003C000000E7
:10021000008000000100000000000000000000005D
:10022000FFFF02910000000000000000000000003D
:1002300000000000000000000000000053B94AB9AF
:10024000002908BF00281CBF4FF0FF314FF0FF30DE
:1002500000F070B9ADF1080C6DE904CE00F006F8BD
:10026000DDF804E0DDE9022304B070472DE9F04F2A
:10027000099E04468946002B40F083808A42154639
:1002800045D9B2FA82F24AB1C2F1200701FA02F36B
:100290009540944020FA07F747EA03094FEA154EC4
:1002A000230C1FFA85F8B9FBFEFC0EFB1C990CFB16
:1002B00008F143EA094399420AD9EB182CBF0120FF
:1002C0000020994202D9002800F01D810CF1FF3C6A
:1002D000591AA3B2B1FBFEF00EFB101100FB08F897
:1002E00043EA0144A04505D92C1902D2A04500F2E9
:1002F0000E810138A4EB080440EA0C4000271EB12F
:10030000D4400023C6E900433946BDE8F08F002AF7
:1003100051D0B2FA82F2002A40F0AF80491B4FEA76
:10032000154E1FFA85F80127230CB1FBFEFC0EFBCE
:100330001C1108FB0CF043EA014398420AD9EB1860
:100340002CBF01210021984202D9002900F0D7805A
:100350000CF1FF3C191AA3B2B1FBFEF00EFB101119
:1003600008FB00F843EA0144A04505D92C1902D244
:10037000A04500F2C1800138A4EB080440EA0C401B
:10038000BDE78B4208D9002E74D00027C6E90001D2
:1003900038463946BDE8F08FB3FA83F767B98B4228
:1003A000C0F0A480824240F2A1803846002EABD03B
:1003B000C6E90049A8E7FFDEC7F12005BB4002FA05
:1003C00007FC01FA07F4EA4020FA05F8E94000FAD0
:1003D00007FE1A4348EA04044FEA1248200C1FFAA9
:1003E00082F9B1FBF8FA08FB1A110AFB09FB40EA93
:1003F00001418B450AD951182CBF012300238B459D
:1004000002D9002B00F088800AF1FF3AA1EB0B0122
:10041000A4B2B1FBF8F008FB101100FB09F944EAA3
:100420000141894504D9511801D289457BD8013849
:1004300040EA0A40A1EB0901A0FB0C89494544466A
:100440004B4602D306D1C64504D20138B8EB0C04A2
:1004500069EB0203002E5DD0BEEB040261EB0301E9
:1004600001FA05F522FA07F3F94000271D43C6E912
:10047000005149E73746304646E7C2F12000954033
:1004800001FA02F721FA00F34FEA154E24FA00F1BF
:100490001FFA85F894403943B3FBFEF00F0C0EFBB6
:1004A000103300FB08FC47EA03439C4507D9EB18CF
:1004B0002CBF012700279C4500D98FB30138A3EB3F
:1004C0000C0389B2B3FBFEF70EFB173307FB08FCE6
:1004D00041EA03418C4504D9691801D28C4525D8DD
:1004E000013FA1EB0C0147EA00471DE7841A61EBCD
:1004F00003030120994659E702382C443CE7ACF14C
:10050000020C2B4426E7ACF1020C2B44E0E6023847
:100510002C44EFE63746F7E6AAF1020A114475E7E4
:1005200002382B44CBE70238114481E7023F2944CB
:10053000D7E700BF704700BF2DE9E04F2746A04630
:10054000A146A246A346A4462DED108B4FF0000510
:1005500045EC185B45EC195A45EC1A5A45EC1B5A08
:1005600045EC1C5A45EC1D5A45EC1E5A45EC1F5AE9
:10057000F1EE105A4FF66076C0F6FF763540E1EEA8
:10058000105A84F3008825462646A447BDEC108BFC
:10059000BDE8E08F0B6801330B60014B1B68184707
:1005A000000000202DE9F04F85B00E9C9B46012CE9
:1005B000B8BF0124012B0CBF3023202316468246EE
:1005C000884601250A270022DFF86C900293B6FBCB
:1005D000F9F301930AB9B1451CD8019B414603F1D7
:1005E0003000D04701220135019B013F09FB136612
:1005F0000A23012FB9FBF3F9E9D1414606F1300096
:10060000D047BBF1030F02D1641B002C0EDC05B0F8
:10061000BDE8F08FBC42E7DBBBF1020FE4D84146F6
:10062000029803920135D047039ADDE74146202026
:10063000D047013CE9E700BF00CA9A3B014B186074
:10064000704700BF00000020002307B50246019359
:1006500003480B4601A903F080F903B05DF804FBE1
:10066000950500004FF02002EFF3118382F311880B
:10067000BFF36F8F0121044AC2F8401583F311883C
:10068000BFF36F8F002070470090035020B1034BE1
:10069000800143F001031847704700BFF047000096
:1006A00010B5074801F006FB064C074B18602046C2
:1006B00001F0A0F82046FFF7C1FF002010BD00BFE9
:1006C000784A0000CD060000500100200A2838B505
:1006D0000446074D04D1286883680D215B6898475C
:1006E00028688368E1B25B689847204638BD00BF40
:1006F00050010020F8B50C24114D0646EB6804FBB0
:100700000034012363724FF02003EFF3118183F370
:100710001188BFF36F8F23682BB160681A6883421A
:10072000226008BF626081F31188BFF36F8F03B945
:10073000F8BDD3E9017231462846B847E3E700BF68
:100740009400002008B5114B1A686AB14FF050228E
:10075000D2F80423D10707D500221A600C4BDB68BE
:10076000587A08B9FFF7C6FF0A4B1A6862B14FF012
:100770005022D2F80423920706D5002201201A60E5
:10078000BDE80840FFF7B6BF08BD00BF00510050EC
:100790009400002004510050821C084B22F07F423C
:1007A000C3F84025D3F80425904200D17047D3F810
:1007B0000405821C22F07F42F2E700BF0050015086
:1007C0000022064B1A60064AD3F800041368C01AC8
:1007D00020F07F400344136002F03CB940510150C7
:1007E0006C01002038B5144801F064FA00B3836846
:1007F00000241B68012198474FF400120F4D104B45
:10080000C5F808451C600F4B0121C3F880214FF447
:1008100080332246C5F80433152000F0D3FB1520A1
:1008200000F0C0FB01232046074A13602B6038BD4F
:100830004FF0FF30FBE700BF3F4C0000005001507D
:100840004051015000E100E008500150F8B52C4B38
:100850002C4CD3F804252C4BB0F1FF3F08BF2046A9
:100860001968521A22F07F43120236D4013820EA66
:10087000E070A042A8BF204601331844A04294BFB4
:100880000C180C194FF4803000271D4B1F4EC3F875
:100890000803D3F80415D3F8402521F07F45521AF8
:1008A00022F07F42012A3760C3F84055C3F8440361
:1008B0001D4603D10F2003F0EFFD37604FF4001207
:1008C000134BC3F88021D5F80405231A23F07F4386
:1008D000012B04D1FFF760FF0BE00020CCE724F0F0
:1008E0007F43C5F84035D5F80405241A023C23029D
:1008F000F0D44FF48032024BC3F80423F8BD00BF9C
:1009000000500150FFFF7F006C010020405101505A
:1009100000E100E04FF02002EFF3118382F3118831
:10092000BFF36F8F064AD2F80405064A1268801A90
:1009300020F07F4083F31188BFF36F8F704700BFB3
:10094000005001506C010020F7B500281C460D46F0
:1009500014BF4FF400534FF40043204E954232D35E
:1009600002FB03F0013A00904B431D4803F065F988
:100970001C4B14F0100F1C491C4808BF194603F00B
:100980005CF914F0040F14BF72212D21184803F0F4
:1009900054F914F0020F14BF77212D21144803F0ED
:1009A0004CF914F0010F0CBF2D217821104803F0F1
:1009B00044F96C210E4803F040F90E4803B0BDE83D
:1009C000F04003F03AB928B105F5E07746F8274042
:1009D0000135C3E705F5C077F8E700BF00300050E8
:1009E0009E4A0000924A0000894A0000A84B00007D
:1009F000B84A0000F34D000008B543B2002B0CDBF1
:100A0000012200F01F018A405B091049203341F8A0
:100A10002320BFF34F8FBFF36F8F830003F1A043F9
:100A200003F540533128D3F8002806D0002A07DA0E
:100A300002F00302023A012A02D8054AC3F800284C
:100A4000002103F0C9FA002008BD00BF00E100E06A
:100A50000001008030B54FF440444CF2040585B0ED
:100A60004FF440412C4803F0E8F821682B4803F08C
:100A7000E4F829682A4803F0E0F8102200216846CB
:100A800003F06AFB236868460093029400F03CFE82
:100A9000012000F069FE002000F052FE002000F06E
:100AA00077FE0121002000F091FE00F085FE2C6809
:100AB0001C4803F0C2F80820FFF79EFF24F0010451
:100AC000BFF34F8FBFF36F8F640864002046214649
:100AD00022462346B7EE000AF7EE000AB7EE001AE8
:100AE000F7EE001AB7EE002AF7EE002AB7EE003A4A
:100AF000F7EE003AB7EE004AF7EE004AB7EE005ABA
:100B0000F7EE005AB7EE006AF7EE006AB7EE007A29
:100B1000F7EE007AFFF710FDBF4B0000D64B000048
:100B2000EB4B0000094C00002DE9F8433B4803F073
:100B300084F8002140F2171308460122FFF704FF52
:100B400040F20713202201210020FFF7FDFE344868
:100B500003F073F8334B344AC3F3C431C3F30E03C9
:100B6000C3F50043C3F34313C2F80015C2F80435BC
:100B7000D2F80015D2F804252C48520103F05DF894
:100B8000274803F05AF803F0D7F9014610B1284876
:100B900003F053F80024274803F04FF840F21713EE
:100BA000082200210120FFF7CFFE1F4D40F207135E
:100BB000202208210120FFF7C7FE194803F03DF865
:100BC000C5F880441C4803F038F81C4FC5F8C044F1
:100BD000DFF87C801A4DDFF87C906E792A68002E51
:100BE00014BF3B4643462146484603F026F866B903
:100BF0001448013403F021F81A2C05F10805ECD152
:100C00000748BDE8F84303F018B82879FFF7F4FE69
:100C100008B10D48EDE70D48EBE700BFC64A0000FC
:100C2000F34D0000E07F000000300050EA4A000071
:100C3000304B0000604B0000824B0000BB4A0000BC
:100C40000C480000AB4B0000B24B0000BA4B000058
:100C5000964A00009E4B000010B500284BD0002A99
:100C600049D0264B99423CD9541803F61D239C4287
:100C70003AD803F047FA0020BDE8104071467246AA
:100C80007346B7EE000AF7EE000AB7EE001AF7EE69
:100C9000001AB7EE002AF7EE002AB7EE003AF7EE98
:100CA000003AB7EE004AF7EE004AB7EE005AF7EE08
:100CB000005AB7EE006AF7EE006AB7EE007AF7EE78
:100CC000007A8EF3008C10B4F1EE10CA4FF6607407
:100CD000C0F6FF740CEA040CE1EE10CA10BCF44636
:100CE0007447074B994203D9064B54189C42C0D90C
:100CF0004FF0FF30C0E76FF01500BDE70302FF00C3
:100D00002F01FF003801FF002DE9F04F834685B029
:100D10008946002951D00027DFF8B0A0DFF8B08065
:100D200001AE5AF8044B98E807005C4486E80700D7
:100D30000C223146204603F0BEF9054608B9002CC6
:100D40003ED10137052FECD16FF00D05284605B0D7
:100D5000B7EE000AF7EE000AB7EE001AF7EE001A37
:100D6000B7EE002AF7EE002AB7EE003AF7EE003AA7
:100D7000B7EE004AF7EE004AB7EE005AF7EE005A17
:100D8000B7EE006AF7EE006AB7EE007ABDE8F04F02
:100D9000714672467346F7EE007A8EF3008C10B4FB
:100DA000F1EE10CA4FF66074C0F6FF740CEA040C42
:100DB000E1EE10CA10BCF44674476FF01505C5E7A4
:100DC0003C222146484603F09DF9BFE7DC4800007D
:100DD000A0470000014802F0C7B800BFF04800007B
:100DE00008B530B143683BB1006801F065F90020F7
:100DF00008BD6FF4E040FBE70048F9E7EA8FFFFF2A
:100E000038B5044618B90B4B0B485B6898476568C2
:100E100055B115F00205206807D10146074801F0D9
:100E2000A9F825600023636038BD1422002103F077
:100E300093F9F7E768000020304D000070010020B2
:100E400010B5044618B9144B14485B68984763689A
:100E5000CBB92368BBB94FF0FF324FF0FF332146C7
:100E60000F4801F055F808B923681BB90A4B0D4823
:100E70005B68984714220021206803F06DF96368CD
:100E800043F002036360206803F031FA636843F0C3
:100E90000103636010BD00BF68000020304D0000FA
:100EA00070010020564D000008B568B1436873B169
:100EB00000684FF0FF334FF0FF3201F085F8054B2B
:100EC000002818BF184608BD6FF4E040FBE7024851
:100ED000F9E700BFE98FFFFFEA8FFFFF08B506497A
:100EE00040231422054803F0E7F9BDE8084004490F
:100EF000044802F071B800BF8C010020700100208E
:100F000008490000F8480000094A0A49936809683E
:100F1000D866196708494B6843F080534B6000233B
:100F200083F31188BFF36F8F9368186F704700BF0A
:100F3000880700207C49000000ED00E00F498A6826
:100F40004FF030001044EFF3098C80E8F01F2020B0
:100F500080F31188BFF36F8F094F4FF000664A6A24
:100F60008A603E60D06E0023D36680F3118802F160
:100F7000300090E8F01F8CF3098870478807002044
:100F800004ED00E01EF0040F0CBFEFF30880EFF358
:100F90000980816911F8021C0229FFD001B503F014
:100FA00048F801BD43B2002B08DB012200F01F000E
:100FB00002FA00F0024A5B0942F82300704700BFC2
:100FC00000E100E043B2002B01F10101A8BF03F1F1
:100FD00060434FEA4111B8BF054BC9B2ABBF03F53F
:100FE000614300F00F0083F800131954704700BFED
:100FF00014ED00E0C0E918120A44203A22F007027A
:101000001360009B07495360019B21F0010193602D
:10101000029B9161D3604FF08073D361002302651E
:10102000C3667047553C0000F8B51D4606460C46A1
:1010300017460023E1EE103A00F0F4F9084B3C4467
:1010400024F007049E60284684F30988002163B6D3
:1010500081F31188BFF36F8F0022002302F0FAFDA5
:1010600088070020014910220A60704710ED00E057
:1010700072B6404080F31188BFF36F8FBFF34F8F7C
:1010800030BF62B6BFF36F8F704700BF30BFFFF74E
:10109000FDBF00BF174A08B5174B22F07F029A60C8
:1010A000BFF34F8FBFF36F8FD3F8882022F4700205
:1010B000C3F88820D3F8882042F4A002C3F888201F
:1010C0000E4A536823F040435360BFF34F8FBFF382
:1010D0006F8F0023E1EE103AEFF3148323F0040343
:1010E00083F3148800F024FE00F02CFE00F068F971
:1010F00000F066FE0000000000ED00E030EF00E0D0
:1011000001B572B60B4A106A00281EBF0021116299
:1011100003F0D0F862B6EFF30580A0F110004FEABB
:10112000C0000549014409C99847BDE80140034989
:101130000847000088070020984500008113000040
:1011400002F03EFE202080F3118808484FF4006131
:10115000401880F30988EFF314800221084380F3DC
:101160001488BFF36F8FFFF795FF0000280D002054
:10117000EFF30880EFF30981724601B500F06CF8D7
:1011800001BD00BF0C4B9A6A9A6A9A6A920708D509
:101190005A6B9A6A120604D518B19A6A22F0800234
:1011A0009A620020044B9A6A9A6A9A6A9A6A42F092
:1011B000FF029A620870704700ED00E00D4B9A6ADA
:1011C0009A6A9A6A920508D59A6B9A6A120404D5AB
:1011D00018B19A6A22F400429A620020054B9A6A7A
:1011E0009A6AD20558BF9A6A9A6A42F47F429A6212
:1011F0000870704700ED00E0074B00209A6A9A6A79
:101200009A6A9A6A9A6A9A6A9A6A9A6A6FEA024229
:101210006FEA12429A62704700ED00E00D4B9A6946
:101220005A695A69D0070FD45A6991070CD45A6980
:10123000520709D45A69100706D45A69D10603D453
:101240005A69920658BF5A695A6942F0FF025A61B8
:10125000704700BFD0ED00E0F0B5414B8BB05B684C
:101260000025C3F3080385F31188BFF36F8F02F0E5
:101270007F44B4F17F4F1ED112F001041AD05606FC
:1012800002F0080467D482F00402C2F3800564B15E
:10129000EFF389860022033B8DF80720042B4BD8FF
:1012A000DFE803F00B4C50414800EFF38886F1E78C
:1012B0000E46EFE725462E46ECE7294BDA6A920701
:1012C0003AD4DC6A14F0804408D028331B78EBB1A0
:1012D00001200DF10701FFF755FF04469DF8073087
:1012E00093B92022314602A802F00CFF099B6DB38E
:1012F000C3F3080222B96FEA53236FEA4323099329
:1013000002A9204602F093FE0BB0F0BD154B1B78EE
:101310002BB101200DF10701FFF750FFDDE7124B64
:101320001F88BFB217B1FFF767FFD6E70F4B5C69A5
:10133000002CD3D0FFF772FF0024CFE70DF1070197
:101340000020C8E70DF107010020E5E723F4FF7353
:1013500023F00103D3E7002CAAD10646012599E723
:1013600000ED00E029ED00E02AED00E0D0ED00E026
:10137000024A536943F010035361704700ED00E0E7
:10138000044B9968586A884203D003494FF0805251
:101390000A6070478807002004ED00E0BFF34F8F1C
:1013A0000549064BCA6802F4E0621343CB60BFF301
:1013B0004F8F00BFFDE700BF00ED00E00400FA051D
:1013C000002320210348C2180133412B82F8001367
:1013D000F9D1704700E100E038B505464FF0200331
:1013E000EFF3118483F31188BFF36F8F01F052F88C
:1013F0000A4B9B68AB420BD1094B5A68C2F30802F7
:1014000012B92046FFF780FD5A6842F080525A60B8
:101410002046BDE8384002F07CBF00BF88070020AE
:1014200000ED00E010B50E4B88B002930D4B0E4C52
:1014300003930E4B0E4A049302AB019301A823467B
:10144000012100F003F9002307930A4B0121E41A5C
:1014500005A80593069400F003F908B010BD00BF7D
:101460000000002000000000000001200600010034
:10147000000000204801002010B50B680C7A23F012
:101480001F0204F01F031A43CB68640923F01F03F3
:10149000044943EA440343F001038860CA600B61D6
:1014A00010BD00BF90ED00E02DE9F04F8046894669
:1014B00014460027484D85B04F4507DA58F82730C5
:1014C0005E68C6B31F2E05D86FF01504204605B020
:1014D000BDE8F08FF206F7D1D3F800A01AF01F0F85
:1014E000F2D1504602F0D2FD834606EB0A000138E5
:1014F00002F0CCFD8345E7D11BF1160FE4D0631E4B
:101500005B45E1DBC5F808B0E86858F82710C5F876
:1015100008B02E6920F01F00D1E900321A44984229
:1015200046F01F0602F1FF3A18D1564505D15FFA81
:101530008BF002F089FD0137BEE7C5F808B0EB6813
:1015400022F01F0203F01F031A43EA60E0B202F028
:101550007BFD10F1160FB7D0441CECE7C5F808B0BE
:101560002A69013B23F01F0302F01F021343564573
:10157000E0B22B61EBD002F067FD10F1160FA3D0A3
:10158000C5F808B0EA689DF80830013E62F304032C
:101590008DF808302B699DF808205B0863F347122B
:1015A0008DF8082058F827200130D2E90032134482
:1015B000009323F01F031E44A6EB0A06C4B226F0D4
:1015C0001F060F2C03963FF67FAF20466946FFF7B4
:1015D00053FF0134AFE700BF90ED00E00522034B5D
:1015E0005A60BFF34F8FBFF36F8F704790ED00E0ED
:1015F000BFF35F8F0022014B5A60704790ED00E00F
:1016000070B50E4D2E68102E15D80024FFF7F0FF90
:101610000B4B0C4A1A63A64205D10B4B1E70FFF709
:10162000DDFF002070BD6968204601EB0411FFF763
:1016300023FF0134EFE74FF0FF30F3E71C490000D0
:1016400090ED00E0AAFF4400E407002010B5034C31
:101650002278FFF729FF207010BD00BFE4070020AB
:101660002DE9F74F254C8A4680460027A1464FF0CA
:10167000140B234D57451ADAD8F804300193002B88
:1016800036D0D8F800100846009102F0FFFCDDE9E2
:10169000001306465818013802F0F8FC8642194A31
:1016A00008D014235F436FF0150349F8073003B0E7
:1016B000BDE8F08F16F1160F2660F8D01378B3420C
:1016C000F5DD0BFB0793AE60AE60E868197B60F355
:1016D000040119732969187B490861F347101873CD
:1016E000EB6823F01F0363602B6923F01F03236162
:1016F0000137143408F10C08BCE700BF8C06002049
:1017000090ED00E0E407002082680C4B9A600368CB
:1017100083F38888436883F38988027B02F00101A0
:10172000EFF3948323F00303920748BF43F00203CF
:1017300009B143F0010383F39488704700ED02E0A0
:10174000084AD36848B123F400531B041B0C43F030
:10175000BF6343F40033D36070479BB243F400533C
:10176000F5E700BF00ED00E0084AD36840B19BB246
:1017700043F4804343F0BF6343F40033D3607047C6
:1017800023F480431B041B0CF4E700BF00ED00E0D2
:10179000084AD36840B19BB243F0080343F0BF63EB
:1017A00043F40033D360704723F008031B041B0C81
:1017B000F4E700BF00ED00E0034AD2F88C3043F4B8
:1017C0004063C2F88C30704700ED00E0084B1A68A7
:1017D00018B142F001021A60704722F001021A604B
:1017E0001A6811B142F00202F5E722F00202F2E7B4
:1017F000D0ED00E0014B1860704700BF24000020CE
:10180000F0B54B79012B27D0032B22D110268B79F1
:10181000032B1ED1CC7924B1012C1AD143681B793A
:10182000BBB10A7912B1022A13D10E2247F6122750
:101830000B684568BB422D6862D029D8B3F5965F26
:1018400061D014D8B3F5167F5FD007D8B3F5967F73
:101850005ED06FF0220052E00026D8E7B3F5966F15
:1018600059D0B3F5166FF4D14FF41D233CE0B3F516
:10187000615F53D004D8B3F5165FEAD1324B33E041
:10188000B3F5964F4CD0B3F5E14FE2D12F4B2BE09F
:10189000B3F5E13F46D012D84DF6C027BB4244D045
:1018A00005D8B3F5164FD4D14FF41D031CE0B3F5A2
:1018B000614F3DD0B3F5963FCBD1254B14E0B3F546
:1018C000E12F38D008D8B3F5613F37D0214FBB4264
:1018D000BFD14FF0806307E0B3F5612F31D01E4FC9
:1018E000BB42B6D14FF08053C5F824353443C368AA
:1018F000224303C9C5F86C2583E803000020F0BD2E
:101900004FF40003F0E7154BEEE74FF41C33EBE721
:101910004FF4A033E8E74FF49E23E5E7104BE3E7ED
:10192000104BE1E74FF0EB73DEE74FF46503DBE7C5
:101930004FF46B03D8E74FF0E863D5E74FF06C73D3
:10194000D2E74FF07063CFE70050270000C075006A
:1019500000903A0190D0030040420F0000B0130005
:1019600000F03A0000A04E000122F8B503270D4612
:10197000436809681C68214B8A40C6689A6001F177
:10198000800243F822706A68571C1EBF4FF0000C9B
:1019900002F1800743F827C0C4F80C15A968C4F801
:1019A00014254A1C15D0EA68571C12D001274FF0A5
:1019B000030C97409F6002F1800743F827C04FF067
:1019C000000C01F1800743F827C0C4F80825C4F8CB
:1019D00010153146FFF714FF70B90823C4F800351D
:1019E0006B68013308D001230C36C4F81001C4F829
:1019F0003465C4F838352360F8BD00BF0025845035
:101A000030B585B005466C46044B0FCB84E80F001B
:101A100021462846FFF7A8FF05B030BDAC470000BF
:101A200030B585B005466C46044B0FCB84E80F00FB
:101A300021462846FFF798FF05B030BDBC4700009F
:101A40002DE9F0430025214C214E54F8048CDFF899
:101A5000889085B0A84503D8002005B0BDE8F08384
:101A6000636A96E807001F6801AB83E807000C2251
:101A70001946384602F01FFB90B98FB1636A21699D
:101A80001B681A6991420BD19A69A169914207D8E2
:101A9000E169914204D962695B6932EA03030AD0C1
:101AA000276A67B10B4802F0C8F8404080F31188FC
:101AB0004FF0040002DFE36801351C44CAE74846E2
:101AC00002F0BBF8636A1F60F5E700BF3C0200004C
:101AD000CC470000994D0000C24D0000064B18682D
:101AE000043B1B68092B05D1013801288CBF00205D
:101AF00001207047002070473401FF00054B186833
:101B0000043B1B68092B03D1431E584258417047C0
:101B1000002070473401FF004E4A08B5136843F0B7
:101B200002031360FFF7DAFF30B14FF050230022B9
:101B3000C3F81421C3F81821FFF7E0FF30B10123E7
:101B4000454A1360A2F63822C2F87835434B1B6829
:101B5000092B07D1424B1B68022B02BF0122414BCC
:101B6000C3F87825FFF7CAFF10B10E223E4B1A606A
:101B7000FFF7B4FF20B100223C4B1A6001225A60EB
:101B80000022D30003F57F03D3F80013013108D0FE
:101B9000D3F800130132D3F80433B2F5807F0B6021
:101BA000EFD1334BDA69D1073BD5324B1946D3F825
:101BB0000024012AFBD1C3F80425D1F80034012BFD
:101BC000FBD12B4BDA69D20708D5DA69294922F013
:101BD0000102DA61D1F80024012AFBD11A6A01322C
:101BE0000AD11A6A22F0FF0242F020021A62214A48
:101BF000D2F80034012BFBD100221E4BC3F8042580
:101C0000D3F80024012AFBD1BFF34F8F1A491B4B95
:101C1000CA6802F4E0621343CB60BFF34F8F00BF8A
:101C2000FDE71B6A0133C0D0134BD3F88C2042F47C
:101C30004062C3F88C20D3F8882042F47002C3F8C5
:101C40008820BFF34F8FBFF36F8F0D4B0D4A1A6083
:101C500008BD00BFD0ED00E0384A00503001FF0061
:101C60003401FF0000400050E4AE03500C47005028
:101C70000080FF000090035000ED00E00400FA0532
:101C8000480000200090D003F8B50027084B53F817
:101C90002040013053F82060A64200D8F8BDD4E9B6
:101CA00000352846984708B105B1AF600834F3E71E
:101CB000684900000F4B70B505461E460E4C9C420D
:101CC00004D10D4CB44208D1002410E0A26812B136
:101CD0002268AA420BD01034F1E7A3680BB9103484
:101CE000F0E72168284602F0DAF90028F7D120460B
:101CF00070BD00BFE40000209400002008B50B4D2B
:101D00004FF02002EFF3118382F31188BFF36F8F3E
:101D100002F0DAFB012104460228D8BF084602F08F
:101D2000E3FB2C62FFF7A4F9EAE700BF8807002075
:101D30000248034A0021121A02F00EBA480100209C
:101D4000E807002008B50648064A0749121A02F0BB
:101D5000D9F9BDE80840054A0549064802F0D2B95C
:101D60000000002048010020444E00000000000058
:101D7000444E000000000020012208B50B4B022059
:101D80001A70FFF781FF0A4A0A490B4801F055FF14
:101D90000320FFF779FF00F045FD01F0C7FD074A7A
:101DA000137B23F00103137308BD00BFE507002078
:101DB000914A0000004E0000144E0000140700205D
:101DC0002DE98048DFF8F890A5B089F30888002451
:101DD000E023344D4FF0010B85F82230EC772C7660
:101DE0006C76AC76EC766B6A2F4E43F4E0236B6234
:101DF0006B6ADFF8D0A043F400236B62AC63FFF79B
:101E0000B7FAFFF72FF94FF0FF33AB62EB6240F206
:101E10000113264DADF8283007ABAB602046CDE965
:101E20001F44FFF731FF0120FFF72EFFDFF89880F6
:101E300000F054FC1E4B6E624FF4806241460593E5
:101E400030465346CDE9034BCDE90144009400F000
:101E5000C3FC737B304623F00403737302F075FAFE
:101E60000F23144FCDE902434FF4A072124B1349D4
:101E70003846CDE904B4CDE9004400F0ADFC7B7BED
:101E8000EF6023F004037B7305F11803C5E9063303
:101E90002C75C5F8049053464FF480624146304695
:101EA000FFF7C2F800ED00E01407002088070020CB
:101EB0003B4E0000A0060020FD1C0000E80B0020A7
:101EC00028150020791D0000E807002070B50E4B92
:101ED0000E4CA34201D3002070BDD3E9030141EAB7
:101EE000000212F003020BD19D685A61AA4201D18F
:101EF0001C33EEE75E6901320E6059610144F5E77B
:101F00006FF01500E8E700BFE4000020E4000020C7
:101F1000D3B50C4616461F464FF02003EFF3118150
:101F200083F31188BFF36F8F43695BB123601B6834
:101F30004361836901338361002081F31188BFF31A
:101F40006F8F11E056EA070203D123606FF00B0098
:101F5000F3E70246CDE90067044800F067FB18B9D3
:101F6000034B9B685B69236002B0D0BDE60700208D
:101F70008807002070B504460D464FF02003EFF3AC
:101F8000118683F31188BFF36F8F02F052FA58B1B4
:101F900000212A680167426102F0D7F93146BDE8A5
:101FA0007040084802F0AAB92B6862691A602B6871
:101FB0006361A369013BA36186F31188BFF36F8F4F
:101FC00070BD00BFE60700202DE9F3410446164628
:101FD0001F464FF02003EFF3118883F31188BFF3FE
:101FE0006F8FC368324A6BB180689168884219D09C
:101FF00056EA070318D188F31188BFF36F8F6FF08B
:102000000F000CE0916891F90E100133E3609368C2
:102010002161A36088F31188BFF36F8F002002B0A5
:10202000BDE8F0812169F0E790F90E3091F90E10CA
:102030009942A8BF194621EAE17199422CDA00F0D1
:1020400009FB0546CDE9006722464146194800F0E4
:10205000EDFA0028E3D04FF02003EFF3118683F36D
:102060001188BFF36F8F236821699C4207D033B179
:1020700093F90E309942A8BF194621EAE171A06890
:1020800090F90E30994209D16DB13146094802F0FC
:1020900035F96FF00A00C2E70025D3E700F0DAFA5D
:1020A0000028F2D1F0E786F31188BFF36F8FF0E7D5
:1020B00088070020E607002038B583680446002B17
:1020C00036D01E4A9268934235D1DA7B013ADA73F0
:1020D000C368012B05D0013BC36000F0C3F80020AA
:1020E00038BD4FF02003EFF3118583F31188BFF360
:1020F0006F8F0169806890F90E30994201D000F02D
:10210000A9FA204602F095F9A06058B190F90E2086
:1021100022610022026702F018F92946084802F0FD
:10212000EDF8DAE7E06085F31188BFF36F8FD4E74D
:102130006FF01500D4E74FF0FF30D1E7880700209B
:10214000E607002010B5084C23685BB1FEF7E2FB00
:102150002368064A184410610021BDE81040184663
:1021600002F0C2B910BD00BFC007002088070020E0
:10217000F8B50D464FF02003EFF3118483F3118877
:10218000BFF36F8F4FF4004140F2E7360027002283
:10219000E1FB0067094B30461A6139464FF47A7209
:1021A0000023FEF74BF8064B1860064B1D60FFF747
:1021B000C9FF84F31188BFF36F8FF8BD8807002033
:1021C000C0070020BC0700204FF02003EFF311816F
:1021D00083F31188BFF36F8F044B9A68D37B013B65
:1021E000D37381F31188BFF36F8F70478807002086
:1021F000094B03F12802824205D19B688B4202D130
:102200004B7BDB0606D1D1E9003213605A60002314
:10221000C1E90033704700BF8807002070B5104C3B
:10222000064604F1280002F08AF80546A368597BA7
:10223000880644BF41F00801597305B9E5684EB9F5
:102240005A7BD20606D1AA6922B9DA897F2A01D936
:10225000636270BDAB4201D0FFF774FF6562F8E7BF
:102260008807002010B54FF02003EFF3118483F3AB
:102270001188BFF36F8F084B00209A68D37B01331E
:10228000D373FFF7CBFF84F31188BFF36F8FBDE8E3
:10229000104002F04AB800BF8807002070B4437BAA
:1022A000DB0627D183692BBB134A02F12801D2E94F
:1022B0000A348B4218D0BBB190F90E5093F90E60DE
:1022C000AE420CDD5A68C0E9003210605860437BB2
:1022D00063F07F03437370BC0020FFF79FBF9C42F5
:1022E00002D01B68002BE9D1C0E90014D36A186042
:1022F000D062ECE770BC70478807002010B54FF043
:102300002003EFF3118483F31188BFF36F8F437BB6
:10231000590704D484F31188BFF36F8F10BD23F0E5
:1023200004034373FFF7BAFF2146BDE8104001489C
:1023300001F0E4BFE6070020F8B504464FF02003A3
:10234000EFF3118583F31188BFF36F8F90F90D3090
:10235000002B03DA01461848FFF74AFF174A02F13B
:102360002801D2E90A308B421FD0F3B194F90E60F4
:1023700093F90E70B74213DD5968C4E900310C605F
:102380005C60637B906863F07F036373031B584258
:102390005841FFF743FF85F31188BFF36F8FF8BDF6
:1023A000984202D01B68002BE2D1C4E90010D36A26
:1023B0001C60D462E5E700BFB0070020880700205A
:1023C000154A164938B50C689368A342144603D1E0
:1023D000BDE83840FFF7B6BE00250D60104909681A
:1023E000B9B1D9897F2914D80E4993F90E500968DB
:1023F0008D420EDB0C498B420BD0996949B91169AA
:10240000814203DC1846FFF797FFE1E7091A1161E3
:1024100038BD00232361FBE788070020B8070020B0
:10242000C0070020BC070020A006002070B50446AD
:10243000183002F033F84FF02003EFF3118683F3E6
:102440001188BFF36F8F94F90D30002B07DA214606
:102450000E48FFF7CDFE637B03F07F0363730C4DE3
:10246000637BA86843F010036373031B5842584111
:10247000FFF7D4FE86F31188BFF36F8FAB68A342DA
:1024800003D1BDE8704001F050BF70BDB00700201F
:1024900088070020836D2DE9F041044603B1984779
:1024A00004F1180001F0FAFF4FF02003EFF311865A
:1024B00083F31188BFF36F8F637BD80623D1A269A2
:1024C0000ABB190607D521461E48FFF791FE637B1C
:1024D00003F07F0363731C4B9868021B504250410A
:1024E000FFF79CFE0027637B04F1280843F00803F4
:1024F0006373A56A454500D095B986F31188BFF38B
:102500006F8FBDE8F0819B07ECD52146A068FFF7EF
:102510006FFE637B23F0020363730023A360E1E794
:1025200005F1180001F0BAFFA8682946FFF760FE20
:102530006B7BAF6023F002036B732F672846FFF7B6
:10254000ADFED6E7B00700208807002010B590F94F
:102550000D300446002B07DA01460848FFF748FE15
:10256000637B03F07F036373054B9868031B58423A
:102570005841BDE81040FFF751BE00BFB007002032
:1025800088070020F8B5064601F0C8FF34184FF060
:102590002003EFF3118783F31188BFF36F8F0D4D85
:1025A0000D4BA868186001F00CFFA8680B49324673
:1025B000F317183000F0D4F9AA683846537B43F07B
:1025C00010035373FEF7A0FC01F0A8FF201A20EAC5
:1025D000E070F8BD88070020B80700206B430000BA
:1025E0002DE9F041064614461D464FF02003EFF357
:1025F000118783F31188BFF36F8F01F0F2FE87F329
:102600001188BFF36F8F6B1C08BFB4F1FF3F08D078
:1026100022462B4606F118000349BDE8F04100F0C0
:102620009FB9BDE8F08100BF6B43000010B50C46B8
:10263000064B11469868064B1860DDE90223FFF748
:10264000CFFF2046BDE81040FEF75EBC88070020A3
:10265000B80700202DE9F04104464FF02003EFF3C6
:10266000118883F31188BFF36F8F437B4EB2DB0673
:102670002ED1836963BB184D014605F12807384602
:10268000FFF7B6FDAB6AA673BB422A4619D0C3B1A9
:10269000E96A93F90E00B0420EDD5A68C4E90032CF
:1026A00014605C600120FFF7B9FD012088F31188F8
:1026B000BFF36F8FBDE8F081994202D01B68002BF9
:1026C000E7D1D36A27606360D36A1C60D462E9E70C
:1026D000A6730020EAE700BF880700200021044B12
:1026E000084603F12802C3E90A22FFF741BD00BFF3
:1026F00088070020F8B5234C234BA2689A4229D0C2
:102700004FF02003EFF3118683F31188BFF36F8F2F
:1027100004F12805A1682846FFF76AFDA26AA368AC
:10272000AA4228D03AB3E06A93F90E1092F90E70DB
:102730008F421BDD5168C3E900210B6053605A7B57
:10274000012062F07F025A73FFF768FD86F311885B
:10275000BFF36F8F4FF02003EFF3118083F31188E5
:10276000BFF36F8FBDE8F840FEF7CEBB824202D0C8
:102770001268002ADAD1E26A1D605A60E26A1360C8
:10278000E362DCE788070020A0060020013108BFD3
:10279000B0F1FF3F10B506D10B4B9868FFF746FE2E
:1027A0004FF0FF3010BD044648B9FFF7A3FF4FF4C8
:1027B0007A7084FB0034D80B40EA4440F2E7FFF71C
:1027C000E1FE0446F3E700BF88070020014B98684C
:1027D000704700BF88070020F0B500F12805C0E968
:1027E0000A55042545730025044687B0DDE90F67C7
:1027F0008673CDE903670E9E077302960D9EC5731F
:1028000001960C9EC0E906550096FEF7F3FB044BBB
:10281000C4E915559B6803B19B6EA36607B0F0BD74
:10282000880700202DE9F04FDFF8BC902C4DC846FA
:1028300089B04D4505F130040FD3FFF7C5FC4FF4C7
:10284000004940F2E73A4FF0000B254C444521D3B4
:1028500009B0BDE8F04FFFF705BD54F8043C0593FF
:1028600054F8103C049354F8143C039354F8183C67
:10287000029354F81C3C019354F8203C009354E913
:102880000A2354E90C01FFF7A7FF54F8303C5D65BB
:102890002546CEE7616A4B1C17D056465F4621EAB3
:1028A000E171C9FB01674FF47A7200233046394663
:1028B000FDF7C4FC002306900793DDE906231343CC
:1028C000256804D12846FFF719FD3034BEE7DDE95D
:1028D0000623044905F1180000F042F8F5E700BFAF
:1028E000E40000206B430000E4000020034B1B6861
:1028F0000BB9FEF70FB80020704700BFC4070020D7
:10290000036840B1074A5268904204D01BB19A68EC
:1029100081680A449A60426813605A600023C0E9E3
:10292000003370474C0000200B4B10B51C689C42D4
:1029300008BF0024FFF7DAFF54B1A368181A20EA91
:10294000E070064B1B6913B19842A8BF184610BD32
:102950006FF00040F5E700BF4C0000208807002022
:102960002DE9F74F0191591C08BFB2F1FF3F824694
:1029700061D0541C43F100056FF001034FF0FF3BA1
:10298000B3EB04086BEB0509B8F1000F79F1000314
:102990000FDBFFF7ABFF6FF001032C4AD2E9001CFD
:1029A0005B1A6BEB0C021E1B62EB0507341A67EB1C
:1029B000E075019BCAF80C304FF02003EFF311864D
:1029C00083F31188BFF36F8FFFF790FF012C75F130
:1029D0000003B8BF01241E4B04441A68CAF808401B
:1029E0009A4201D05C6852B95A68CAF80030CAF8F5
:1029F00004205A68C2F800A0C3F804A00DE0906853
:102A0000DAF80810884219DD411A91605168CAE964
:102A10000021C1F800A0C2F804A01A689A4206D0AA
:102A2000924504D1FFF780FF0021FDF70FFF86F3E9
:102A30001188BFF36F8F03B0BDE8F08F091A94427D
:102A4000CAF80810D0D01268CDE700BF48010020B6
:102A50004C0000202DE9F04B0446FFF7B1FC4FF08D
:102A60002003EFF3118583F31188BFF36F8F214F9C
:102A7000214EB846DFF884903460D9F800403268BF
:102A80004C45D7E900BC05D024B1A368934214DDBE
:102A90009B1AA36000241BEB02004CEBE271C8E917
:102AA00000013460FFF740FF2146FDF7CFFE85F3BC
:102AB0001188BFF36F8FBDE8F08B1BEB03004CEB6D
:102AC000E371D31A33600023C7E90001A3602046F5
:102AD000FFF716FF85F31188BFF36F8FE368984700
:102AE0004FF02003EFF3118583F31188BFF36F8F4D
:102AF000C3E700BF48010020C40700204C000020AD
:102B00002DE918484FF02003EFF3118483F3118867
:102B1000BFF36F8FFDF7FEFE074BD3E9002312EBE7
:102B2000000B43F1000C5846614684F31188BFF353
:102B30006F8FBDE8188800BF4801002038B5064CEB
:102B4000064DAC4201D3002038BDD4E90112204625
:102B500001F0E8FC1434F4E7E4000020E400002075
:102B600001F0B9BA0A46002101F0F6BA10B51148D1
:102B700000F048F800B110BD0F4800F043F80028FD
:102B8000F9D10E4C204600F03DF80028F3D10C4B53
:102B90000C481C6000F036F801460028EBD100F02C
:102BA0002DF8044608B1204610BD00F051F820462B
:102BB000FAE700BF60000020540000205C00002005
:102BC000640000205800002008B5084800F024F8F0
:102BD000074800F021F8074800F01EF8064800F00A
:102BE0001BF8BDE8084000F00BB800BF60000020F3
:102BF000540000205C000020580000200020704796
:102C0000704700BF08B5034B02681B6810689847FF
:102C1000002008BD7000002008B5034B02685B6807
:102C200010689847002008BD700000200268024B21
:102C300010689B68184700BF7000002008B5034B60
:102C40000268DB6810689847002008BD700000200B
:102C500070B5094C094D2069AB68984718B1084B0D
:102C600008485B6898470021074AEB6811602069B3
:102C7000BDE87040184700BF8000002070000020B1
:102C80006800002080490000C8070020F8B51A4CF1
:102C90001A4D0746AB6820699847E8B9184E336863
:102CA0007FB93BB90120174A1749C2F800050A68E5
:102CB000002AFCD101333360EB682069984700207B
:102CC000F8BD002BF8D0012B08D0013B3360206900
:102CD000EB6898470020F3E70C48F8BD0A4A1368F0
:102CE000002BFCD1074A6FF07E40C2F8003500F09F
:102CF00021F83368E9E700BF800000207000002061
:102D0000C80700200000845010198450E98FFFFF8D
:102D10000020704700207047430503D54FF0FF3275
:102D2000024B1A60024B1860704700BF08118450B4
:102D3000081A8450014B1860704700BF041A845071
:102D400008B100F003B84FF4750070470246074819
:102D500003681342FCD021B1054B06481B680B6089
:102D60000360054B00201A60704700BF001A8450B2
:102D70000411845008118450081A845000F0A0B83F
:102D800030B129B100230144037001308142FBD1ED
:102D9000704700BF2DE9F041ADF51A7D0F46059251
:102DA0000021144612A84FF408721E4601F0D4F90F
:102DB000002308A819462822069301F0CDF9002F18
:102DC0003CD0002E3AD0002C38D0042106A8FFF7C2
:102DD000C9FE08A82821FFF7C5FE08A800F032F8B0
:102DE00078B14FF0FF3512A84FF40871FFF7C8FF14
:102DF00006A80421FFF7C4FF28460DF51A7DBDE89B
:102E0000F08112AB0DF11C080390CDE9016302467D
:102E100005AB08A9CDF8008006A800F0E9FC002861
:102E2000DFD13368A342DCD3D8F80010054608315F
:102E300038462246FFF794FE3460D4E74FF0FF3562
:102E4000DAE700BF1C2330B583B002A941F8043D86
:102E5000044600F0B1F90546D8B9019B1C2B1BD1E3
:102E6000D4E9003201210033E16118BF01230AB126
:102E700043F00203A26832B9E268AAB9C4E9083291
:102E80003BB90D4D09E0E26843F0040362B9C4E9BF
:102E90000832284603B030BD084D20461C21FFF7FC
:102EA00061FE284603B030BD0022284643F00803E7
:102EB000C4E9083203B030BD0E0CF000370CF0004E
:102EC00010B50C4C236813B10B4B1B686BB900F0A9
:102ED00031F938B10138062896BF084B084853F835
:102EE000200010BD0122044B1A6001230020236042
:102EF00010BD00BFCC070020D0070020A049000073
:102F0000FE8FFFFF10B5094C23681BB10123002081
:102F1000236010BD00F07CF80028F7D001380628A7
:102F200096BF034B034853F8200010BDCC07002088
:102F3000A0490000FE8FFFFFBFF34F8F0549064BEE
:102F4000CA6802F4E0621343CB60BFF34F8F00BF47
:102F5000FDE700BF00ED00E00400FA05014B5B68EF
:102F6000184700BF68000020024BD0E90012C3E9F7
:102F70000012704768000020704700BF10B504467B
:102F800020B1BFF35F8F0020206010BD0348FFF722
:102F9000E5FFBFF35F8F0020206010BDE049000017
:102FA00010B5044610B10023236010BD0248FFF79E
:102FB000D5FF0023236010BDBC49000050B10122A1
:102FC000D0E8EF3FC0E8E12F0029F9D1012BF7D07D
:102FD000BFF35F8F0020704770B40B4B0668C26868
:102FE000D0E90154C3E90242C3E90065D1E9030213
:102FF0000E68064BD1E90154C3E90065C3E90240FC
:103000001A6170BC704700BF700000208000002073
:1030100010B5FFF77DFE70B9FFF7A8FD80B9FFF787
:1030200035FE80B9114B1B681B0EF02B0DD006240A
:10303000FFF770FE00E00324FFF7C6FD204610BD39
:103040000424204610BD0024F2E7094A094B126807
:103050009A4201D00724EBE70120FFF717FE002872
:10306000F1D1054B04461860E8E700BF28198450E9
:10307000241A84500000E0200C1A845030B5ADF5BD
:10308000157D4FF4087200210CA801F065F80023AB
:1030900002A819462822019301F05EF802A8FFF762
:1030A000D1FE18B105200DF5157D30BD1C4D4FF03A
:1030B000FF312868FFF7BAFD0446F0B90020FFF79A
:1030C000E5FDB0B90CAA02A901A800F0D5FB0446A1
:1030D0000120FFF7DBFDF0B92868FFF7AFFD10B165
:1030E0001048FFF73BFF2046002CDBD10DF5157D86
:1030F00030BD0D48FFF732FFE4E70C48FFF72EFF25
:10310000012CDBD12868FFF799FD0028CAD00548BB
:10311000FFF724FFC6E70648FFF720FFDCE700BF04
:1031200064000020184A0000304A0000004A0000F5
:10313000504A000008B5FFF7EBFD18B1FFF744FD5A
:10314000032008BDFFF712FD68B9FFF79FFD60B9C6
:10315000154B1B681B0EF02B12D0FFF7DBFDFFF7A2
:1031600033FD062008BD042008BDFFF7D3FDFFF79F
:103170002BFDFFF783FF00280CBF0020052008BDB2
:103180000A4A0B4B12689A4205D0FFF7C3FDFFF7BE
:103190001BFD072008BD0120FFF778FD0028E4D1C2
:1031A000044B1860E5E700BF28198450241A8450A6
:1031B0000000E0200C1A845018B111B10B681C2BD0
:1031C00001D0012070474FF47F033A4AD3F8101C16
:1031D00091425AD0D3F8102C013256D0D3F8102C8B
:1031E0004FF47F030260D3F8141C334A91425ED03F
:1031F000D3F8142C01325AD0D3F8142C4FF47F0397
:103200004260D3F8182C12F5947F4DD0D3F8182CC7
:10321000013249D0D3F8182C4FF47F038260D3F8E1
:103220001C1C264A91423CD0D3F81C2C013238D0C9
:10323000D3F81C2C4FF47F03C260D3F8002C7032FB
:103240002DD0D3F8002C013229D0D3F8002C4FF424
:103250007F030261D3F8042CAF321ED0D3F8042CC4
:1032600001321AD0D3F8042C4FF47F034261D3F813
:10327000081C134A91420BD0D3F8082C013207D016
:10328000D3F8083C83610020704740F6FC02A7E7B2
:1032900040F237338361002070475122E4E79022E7
:1032A000D5E742F60412C5E740F6D862B4E742F229
:1032B000D002A3E7FCF8FFFFD020FFFF0429FFFFA7
:1032C00037F3FFFFA8B32DE9F0414C1EB4F5047F9E
:1032D0002CD25BB352B34FF0000CC900E6466546F2
:1032E00064464F1E03F1FF380CE0AB4216D08E450A
:1032F00001D10CF1010CA84516D00134BC4205F1F6
:10330000010518D8610950F8211004F01F06F1409A
:103310001F2E18BF01F00101002CE6D10025A845A1
:103320008E464FF0010CE8D16245E6D20348BDE875
:10333000F081024870470020BDE8F081370CF100B1
:103340002DE9F04F8FB00D46DDE919418346002984
:1033500057D12969039100211C60189B1960002A2C
:1033600000F02281814A824B11686A6A1B689A4286
:1033700057D10A2955D19BF80330069303990423AA
:1033800008467C4A0293A2FB00029208CB0002EBA3
:10339000420204F10800A1EB4202013BDFF8D091A8
:1033A000DFF800A2049000920593189B039C1C6018
:1033B000002C00F0CC800026049F00F0A9FA002326
:1033C0000793069BBBF1000F3AD0002D34D053BBBE
:1033D0005B000693BBF1000F36D0002D34D0E3B173
:1033E00006A9284600F084FA002800F07D81624B8F
:1033F000984212D0009000F08BFA00980FB0BDE810
:10340000F08F4FF47F01D1F80C0C01300CBF4FF45A
:103410000471D1F80C1C03919DE72B6A73B95648CF
:10342000E8E75648E6E706A9284600F061FA68B1E1
:10343000534B9842DED0069B082BC9D15148D9E79F
:10344000082BFBD05B0006934F48D3E7294606982C
:1034500000F030FA0028EBD1069B082B00F00E811B
:10346000042B00F03181A3F10203B3FA83F35B096B
:10347000019301231946454A136042F8843C434BAB
:1034800019606B6AC9F80030D9F800206B6A9A425B
:10349000F5D14FF000084FF0FF30CAF80080FFF779
:1034A0003BFC3B4A3B4B40461A60FFF743FC0A2279
:1034B000019839492D4B08601A602A69A8F15538DE
:1034C000A8FB02126B6A120903EB4303DB0303FB45
:1034D00002F3324A9B0913600123CAF800300699AF
:1034E000DBF800200B0243EA016322F07F42134322
:1034F000CBF8003007A800F0CDF9002898D1284B70
:10350000A8FB04281A681433089253F8102CB6EB61
:10351000980F099253F80C2C0A9253F8082C0B922E
:1035200053F8042C0C921B680D9301D1009B9BB99E
:103530003846182208A9FFF713FB183C1837013644
:10354000002C7FF43AAF049B002B40F09A800023BC
:10355000189A1360069B6FE71A46384608A9E41AC2
:10356000FFF7FEFA009B1F44E9E700BF38118450C3
:1035700030118450ABAAAAAA310CF100300CF10032
:10358000020CF100320CF100350CF100C411845032
:10359000FEFFFF0F001184500C118450D81184508D
:1035A000141184502C118450BBF1000F3FF44CAF28
:1035B000002D3FF449AF01230EA941F8203DCBF87F
:1035C0000020284600F094F900287FF413AF294624
:1035D000069800F06FF900287FF40CAF069F082FC3
:1035E00000F0EB80042F00F0EA80A7F10207B7FAA1
:1035F00087F77F0901221646734B74491A601846F3
:103600000A60943B06606A6A1A6019686A6A9142A5
:10361000F8D14FF000086E4B4FF0FF30C3F8008038
:10362000FFF77AFB6B4B6C4A40461A60FFF782FB50
:103630000A226A496A4B0F601A601A992B6901299C
:103640006A6A00F0B1806749A1FB03131B090121DD
:1036500002EB4202D20303FB02F3634A9B091360AD
:103660005B4B19600699DBF800200B0243EA01630B
:1036700022F07F421343CBF800307FE6032301930F
:10368000F7E6039BB3F5047F3FF661AFDDE9047C09
:10369000204623466E6904E0012001336345144649
:1036A00015D85A0957F8222003F01F01CA401F29D4
:1036B00018BF02F00102002BEED0A242ECD1013083
:1036C0008642EAD149480BE002230193D1E64FF448
:1036D0008063DDE90310AA69FFF7F4FD00285DD0DF
:1036E0000023189A1360A3E62946069800F0E2F832
:1036F00000287FF47CAE069C082C51D0042C51D0BD
:10370000A4F10204B4FA84F4640901231E461946A4
:103710002D4A136042F8843C2B4B19606B6AC9F840
:103720000030D9F800206B6A9A42F5D100274FF09B
:10373000FF30CAF80070FFF7EFFA264B264A3846EA
:103740001A60FFF7F7FA0A222449254B0C601A6029
:103750002A6924496B6AA1FB021203EB4303120995
:10376000DB0303FB02F3204A9B091360CAF80060E5
:10377000069BDBF800101A0242EA036321F07F4245
:103780001A43130A03F47F03134323F07F43CBF858
:103790000030029B013B02937FF407AE002029E634
:1037A0000324B2E70224B0E74FF47F03D3F80C1CE4
:1037B000013106D0D3F80C3C45E703271AE702276E
:1037C00018E7162343E700BFC4118450401184500A
:1037D0002C11845000118450FEFFFF0F0C118450F7
:1037E00038118450ABAAAAAAD8118450360CF10023
:1037F0002DE9F0431B4C85B00746DDE90D568846A0
:1038000020684FF0FF319146FFF710FA28BB0020E7
:10381000FFF73CFAE8B90023CDE9005602934A4687
:10382000414638460C9BFFF78BFD05460120FFF70C
:103830002DFA50B92068FFF701FA10B10A48FFF7D6
:103840008DFB284605B0BDE8F0830848FFF786FBEE
:10385000F0E70748FFF782FBDDE70648FFF77EFB4E
:10386000D5E700BF64000020184A0000504A00005D
:10387000304A0000004A000010B5012486B005ABB4
:10388000CDE901240093002204ABFFF759FD06B0F7
:1038900010BD00BF08B501464FF48060FFF750FA35
:1038A00000230249024A0B60136008BDC81184500E
:1038B0002C1184500138072815D8DFE800F0100CCF
:1038C000140814141404CB6800204B6270478B68F2
:1038D00000204B6270474B6800204B6270470B68BA
:1038E00000204B6270470148704700BF310CF10067
:1038F0000B6802E0082B0B6006D8026A13424FEAFD
:103900004303F7D00020704700487047310CF100A6
:1039100000230449044A0B604FF480601360FFF7F2
:10392000FBB900BF2C118450C411845008B5FDF7B9
:10393000FBF8BDE80840FDF78DB80020704770B572
:103940000D4604464520A04729465220A047294657
:103950002346BDE87040522018472DE9F04F4FF044
:10396000000806460F464FF0FF3AC1468BB01C4692
:10397000531E0293002505E06DB9252800F04F8104
:103980003946B047029B13F8010F02930028F3D188
:103990000BB0BDE8F08F64286ED01AD839280AD849
:1039A000312860D22D2800F0408130284CD02528C5
:1039B00007D139460BE0582800F0BB80632800F09F
:1039C0002A8139462520B0473946029B1878B047EE
:1039D000D0E7702800F0A38011D869284CD06C285B
:1039E00005D1B8F16C0F2AD14FF04C08CAE768280E
:1039F000E7D1B8F1680F22D14FF04808C2E7752827
:103A000071D018D87328DCD154F8045BAB465B4600
:103A10001BF8010B002840F0FB80B9F1030F40F0C8
:103A20000A815D1BAAEB0505002DA3DD3946202088
:103A3000B047013DF8E778287BD07A28C1D1B8F1AA
:103A4000000FBED180469DE7BAF1000F0EDAB9F142
:103A5000000F00F0ED80A0F1300AB9F1000F08BFAF
:103A60004FF002098EE7BAF1000FF4DB0A2303FBE3
:103A70000A0AAAF1300AF0E7B8F17A0F02D154F835
:103A8000045B1FE0B8F16C0FF9D0B8F14C0FF6D120
:103A9000073424F00704F4E8022312F100410691F0
:103AA00043F1000107910021DDE906BC4FF0FF3032
:103AB000614508BF584504D239463046FFF73FFFFD
:103AC00058E71546002D05DA39462D20B0476D42DE
:103AD0000AF1FF3A4B462A46CDF800A03946304657
:103AE000FCF760FD46E7B8F17A0F02D154F8042BD9
:103AF00011E0B8F16C0FF9D0B8F14C0FF6D10021FC
:103B00004FF0FF30073424F00704F4E80223994211
:103B100008BF9042D0D3CDF800A04B46DEE739462F
:103B20003020B04739467820B0474FF0080A4FF0B0
:103B30000109029B1B78702B04D154F8043B0493B9
:103B400000230DE0B8F16C0FF7D0B8F14C0FF4D1B1
:103B5000073424F007031C4654F8082B5B680492D2
:103B6000002110224FF0400B03910591ABF1040BA3
:103B70000498CBF1200CABF1200120FA0BF003FAF2
:103B80000CFC40EA0C0023FA01F1084310F00F008E
:103B900006D1059911B9BBF1000F22D1302103E004
:103BA00009288CBF57213021084440B23946089378
:103BB0000592B047039B059A01330393089BBBF121
:103BC000000F23D1B9F1030F7FF4D4AE039BC3EBF5
:103BD0004A05002D7FF7CEAE39462020B047013D83
:103BE000F7E7511E9245089107DBB9F1010F06D1A5
:103BF000394630200993B047099B089AB6E7B9F1D6
:103C0000020FFAD1099339462020F4E70595ADE774
:103C10003946B047FBE6394654F8040BD7E6A846C8
:103C2000A9464FF0FF3A0125ACE64FF00309A9E69B
:103C30004FF00109A6E60546A4E60FB407B504A9AE
:103C400051F8040B0191FCF7FFFC03B05DF804EBA5
:103C500004B07047044608B5084611461A46A04706
:103C6000FEF7B4FDFDF7B8FB036803EBC101836801
:103C7000B3F5004F2CBF51F8220031F81200704705
:103C800010B50468806804EBC101B0F5004F2CBF8B
:103C900041F8223021F8123010BD2DE9F0410446E0
:103CA00000220D46FFF7E0FFE3681840A368B0FA72
:103CB00080F2B3F5004F34BF002001206368C0F1EB
:103CC0001F00801A03EBC0014A68561C4E60A2B95F
:103CD000012202FA00F162690A436261294643F84F
:103CE000305002222B462046FFF7CAFF0322294606
:103CF0002046BDE8F041FFF7C3BF53F83060022211
:103D000031462046FFF7B0FF074603460222294608
:103D10002046FFF7B5FF3346032229462046FFF72A
:103D2000AFFF032239462B462046FFF7A9FF0222A8
:103D30003146DDE7F8B5CC1D114447F6FF7224F09B
:103D4000070421F00701091BB1F5802F4FEAD103C9
:103D50002CBF6FF000411146046000209342E160E7
:103D600094BF00210121B3FA83F617468446C1F1BE
:103D7000200104F11805891B21F06041C4E90153B9
:103D80000331246060612161A268BA4294BF0022BD
:103D90000122C2F11F02921B90420ADD5B1A2046EB
:103DA0000022FFF76DFF21692046BDE8F840FFF7CC
:103DB00074BFC5F804C0013045F808CBE4E770478C
:103DC000FDF7AABE0C22C368C9B202FB01314B7ACF
:103DD00023B9087AB0FA80F0400970470220704792
:103DE00070B5C9B24468C5684FF02003EFF311867F
:103DF00083F31188BFF36F8F0C224A43AB18187AF4
:103E000090B10138C0B2187288B904EB8104012165
:103E1000A850E278586002F150221160587286F37F
:103E20001188BFF36F8F70BD6FF04400F7E700207B
:103E3000F5E72DE9F8434668CFB2D0F80CE04AB177
:103E40000C237B435EF803309A4252D013B11B68B7
:103E5000002BF9D14FF02003EFF3118C83F311887D
:103E6000BFF36F8F0C257D430EEB05031C7A0134E5
:103E7000E4B21C728CF31188BFF36F8F5AB34FF00A
:103E8000502C4FF00308CCF8088393F809C0BCF11C
:103E9000000F15D14FF02008EFF3118988F3118836
:103EA000BFF36F8FC2F800C0D3F80480B8F1000FE1
:103EB0001BD15A604EF8052089F31188BFF36F8F2C
:103EC0004FF050230325C3F80453BCF1000F02D078
:103ED000D2E901329847012C05D106EB8706B37869
:103EE00003F150231C60002005E0C8F800205A6050
:103EF000E2E76FF00F00BDE8F8830022FFF799BFFB
:103F000010B50022044601210520FDF75BF80520CD
:103F1000FDF748F84FF050230222C3F8182503227A
:103F20000020C3F80423E368C3E90000E368C3E9A1
:103F3000030010BD70477047002307B501A88DF836
:103F40000430FEF71BFF03B05DF804FB902908B5B1
:103F5000134639D10A4601460020FEF71BFFBDE893
:103F60000840714672467346B7EE000AF7EE000A43
:103F7000B7EE001AF7EE001AB7EE002AF7EE002AA5
:103F8000B7EE003AF7EE003AB7EE004AF7EE004A15
:103F9000B7EE005AF7EE005AB7EE006AF7EE006A85
:103FA000B7EE007AF7EE007A8EF3008C10B4F1EEE3
:103FB00010CA4FF66074C0F6FF740CEA040CE1EE10
:103FC00010CA10BCF44674476FF01500C7E7FEE74F
:103FD0000021012000F02BB843B2A9B1002B12DB65
:103FE00001215B099B0003F1604303F56143D3F8B2
:103FF000802200F01F0001FA00F022EA0002C3F85C
:104000008022D3F880327047002BFCDB01225B0951
:104010009B0003F1604303F56143D3F8801200F085
:104020001F0002FA00F00843C3F88002E9E700F03D
:1040300026B90146006800F022B908B5FDF726F858
:10404000BDE80840FDF79CB930B50B6885B04C68F9
:104050009DF808200D89013C0093498923F01F0336
:10406000234465F3040261F3471223F01F030F2872
:104070008DF808200393044605D86946FDF7FCF93E
:10408000204605B030BD6FF01504F9E740E800F3B5
:1040900013F4803FD8B208BF6FF0150070470138A5
:1040A000013910F8013F11F8012F934201D1002B83
:1040B000F7D1981A704710B55AB10139841810F821
:1040C000012B11F8013FA04201D09A42F7D0D01A3B
:1040D00010BD1046FCE7431A934210B500EB0203F3
:1040E00008D3024601399A420BD011F8014F02F869
:1040F000014BF8E70A4412F8014D8A4203F8014DDA
:10410000F9D110BDF0B581EA0004A50703460BD034
:10411000013B0A4491421AD1F0BD002AFCD011F8AB
:10412000014B013A03F8014B9C07F6D19508AC000E
:104130001E1F0F19B94205D16FF00306234406FB79
:104140000522E5E751F804CB46F804CFF2E711F871
:10415000014B03F8014FDDE7034670B5C9B29C0778
:1041600010D141EA012444EA0445940803EB840693
:10417000B3420DD16FF0030505FB04241C44A34298
:1041800009D170BD002AFCD003F8011B013AE6E713
:1041900043F8045BECE703F8011BF0E74FF0FF3056
:1041A00070470B46C26892E8030083E803000020D2
:1041B000704743681B68D3F88004C3F880047047D5
:1041C0004368C2681B68D3F8100138B1127B002025
:1041D0000A700122C3F810011A6070474FF0FF30D7
:1041E00070472DE9F34143688DF807101C68C668D5
:1041F00000F04CF9C0B964254FF0010806F108073A
:10420000D7E8EF3F002B03D1C7E8E28F002AF7D1B0
:104210000CD021200021013DFEF7B8FA15F0FF0572
:10422000EED102B0BDE8F0810123B3600023C4F8F1
:1042300020310DF10703C4F8443501234FF47A759A
:10424000C4F84835A360D4F8203123B9012000F028
:1042500014F8013DF7D10123E3600023B360E0E7E8
:1042600008B50020FDF79AF808B5FCF7B3FDFCF798
:1042700035FEBDE80840FEF745BE00F00DB9F8B5C3
:1042800006460F464FF02003EFF3118583F31188A4
:10429000BFF36F8FFEF79AFA394604463046FFF7B0
:1042A000DFFF85F31188BFF36F8F2046BDE8F8402C
:1042B000FDF792B8FFF73FBE30B50024846141EAB4
:1042C000020414F00304C0E9023201610CD144611C
:1042D000A34203D1C0E90000002030BD456901348C
:1042E0000D6041611144F3E76FF01500F5E70346F7
:1042F0000020C3E90033C3E90200704721B9EFF39E
:10430000058008B9FCF700BE81F31188BFF36F8FF9
:104310007047034620B9EFF305820AB9FCF7F4BDF4
:1043200083F31188BFF36F8F70474FF02003EFF3D3
:10433000118083F31188BFF36F8FFFF7EABF036823
:10434000984214BF18460020704710B54FF0200364
:10435000EFF3118483F31188BFF36F8FFDF79EFF96
:1043600084F31188BFF36F8F10BD50F8103C70B507
:104370000446A0F11805CBB14FF02003EFF31186EE
:1043800083F31188BFF36F8F294650F8100CFDF7A7
:104390002FFF14F80B3C23F0020304F80B3C00231E
:1043A00044F8103C86F31188BFF36F8F14F80B3C70
:1043B000284623F0140304F80B3CBDE87040FFF7D7
:1043C000C4BF10B54FF02003EFF3118483F31188BD
:1043D000BFF36F8FFEF7BAF884F31188BFF36F8FC6
:1043E00010BD38B504460D46FEF7B0F8637B43F0C8
:1043F000020363737DB12B68A5609D4212D08BB11F
:1044000094F90E2093F90E10914205DD5A68C4E923
:10441000003214605C6038BD69688B4202D01B6852
:10442000002BEFD16B68256063606B681C606C606B
:10443000F1E738B54FF02003EFF3118283F31188D1
:10444000BFF36F8FFFF77BFF044682F31188BFF342
:104450006F8FC8B14FF02003EFF3118583F31188FC
:10446000BFF36F8F01468068FDF7C2FE637B23F0C8
:10447000020363730023A36085F31188BFF36F8F7A
:1044800004F1180000F00AF8204638BDEFF305806B
:10449000003018BF01207047FCF7F8B810B54FF096
:1044A0002002EFF3118482F31188BFF36F8F03684A
:1044B0003BB1FEF725FA002084F31188BFF36F8F1C
:1044C00010BD6FF01500F7E710B54FF02003EFF3C4
:1044D000118483F31188BFF36F8FFEF725FA84F3FD
:1044E0001188BFF36F8F10BD70B504460E464FF0B4
:1044F0002003EFF3118583F31188BFF36F8FFEF76D
:1045000013FA012805DDA04203DD31462046FCF701
:104510009DF985F31188BFF36F8F70BD08B5FEF765
:10452000EFFA08BD10B400F10C04C0E903445DF8D3
:10453000044BFFF7FFBB704734BDFF7F0100000055
:104540006506000000000000CD1E00000000000015
:104550003D2B0000000000000116000000000000DC
:10456000013F000094000020211A0000A400002058
:10457000011A0000B4000020A106000000000000A5
:10458000E5070000C400002069420000D4000020BC
:10459000411A00000000000000000000D13F0000B0
:1045A00000000000D13F000000000000D13F0000EB
:1045B00000000000D13F000000000000D13F0000DB
:1045C000000000004507000000000000D13F00008F
:1045D00000000000D13F000000000000D13F0000BB
:1045E00000000000D13F000000000000D13F0000AB
:1045F00000000000D13F000000000000D13F00009B
:1046000000000000D13F000000000000D13F00008A
:1046100000000000D13F000000000000D13F00007A
:1046200000000000D13F000000000000D13F00006A
:1046300000000000D13F000000000000D13F00005A
:1046400000000000C107000000000000D13F000092
:1046500000000000D13F000000000000D13F00003A
:1046600000000000D13F000000000000D13F00002A
:1046700000000000D13F000000000000D13F00001A
:1046800000000000D13F000000000000D13F00000A
:1046900000000000D13F000000000000D13F0000FA
:1046A00000000000D13F000000000000D13F0000EA
:1046B00000000000D13F000000000000D13F0000DA
:1046C00000000000D13F000000000000D13F0000CA
:1046D00000000000D13F000000000000D13F0000BA
:1046E00000000000D13F000000000000D13F0000AA
:1046F00000000000D13F000000000000D13F00009A
:1047000000000000D13F000000000000D13F000089
:1047100000000000D13F000000000000D13F000079
:1047200000000000D13F000000000000D13F000069
:1047300000000000D13F000000000000D13F000059
:1047400000000000D13F000000000000D13F000049
:1047500000000000D13F000000000000D13F000039
:1047600000000000D13F000000000000D13F000029
:1047700000000000D13F000000000000D13F000019
:1047800000000000D13F000000000000D13F000009
:1047900000000000D13F000000000000D13F0000F9
:1047A000DEE61E284CBBCE8F025B00001D00000021
:1047B0001C0000001A0000001B00000001000000A7
:1047C000000000000F0000000E000000DEE61E28C2
:1047D000EAAC45B8025B0000DEE61E284CBBCE8F7B
:1047E000025B00000000000000000000000000006C
:1047F0000338FDD870470000FB3E0000E13D00009B
:10480000333E000000000000C53D0000344C0000B5
:10481000420100003B4C000005010000454C000037
:10482000140100004E4C000015010000574C000020
:1048300039010000604C0000090100006B4C0000D1
:104840000A000000764C00000A010000804C0000C5
:104850000B0100008A4C00000F010000954C000085
:1048600010010000A04C000011010000AB4C000042
:104870000E010000B54C000021010000BE4C0000FC
:1048800022010000C74C000023010000D04C0000B2
:1048900024010000D94C000018010000E14C000088
:1048A0002A010000E94C00003A010000F14C000030
:1048B0002C010000F94C00001C010000024D00001A
:1048C0001D0100000B4D000017010000154D0000F8
:1048D00031010000214D0000040100000000000033
:1048E00000020000000400000008000000100000AA
:1048F00000000000CF3F0000410E0000010E00004C
:10490000A90E0000E10D00001C00002004000020A2
:1049100014000020000000000C0000200200000035
:104920002449000000000000834D00000600000044
:10493000E0FF0F00000000208B4D00002100000070
:10494000E0FF0020C1410000E3410000B34100004E
:1049500001180000A3410000008000500100000089
:10496000009000500100000040450000804500001C
:10497000884500009845000098450000F5FFFFFFBE
:10498000436F756C64206E6F74206C6F636B207066
:104990006F7765722073617665206D757465780038
:1049A000FF8FFFFFFF8FFFFFFE8FFFFFFE8FFFFFD9
:1049B000FD8FFFFFFC8FFFFFFC8FFFFF43616E2722
:1049C0007420696E697469616C697A65206D7574AB
:1049D00065782C20776173204E554C4C0D0A0000F1
:1049E00043616E277420756E6C6F636B206D7574F8
:1049F00065782C20776173204E554C4C0D0A0000D1
:104A00004661696C20746F206163717569726520FD
:104A10006D757465780A00004661696C20746F20BA
:104A200072656C65617365206D757465780A000048
:104A30004661696C20746F20696E6372656173658D
:104A400020504D20636F756E7465720A000000007F
:104A50004661696C20746F2064656372656173657B
:104A600020504D20636F756E7465720A000000005F
:104A7000000100040401080C554152545F300073DA
:104A800079735F636C6F636B00536563757265095F
:104A900009004E6F6E2D53656375726509002530F0
:104AA0003275202530327520307825303578203029
:104AB00078253035782009002563004E6F6E2D5320
:104AC000656375726500466C61736820726567691D
:104AD0006F6E730909446F6D61696E0909506572E3
:104AE0006D697373696F6E730A004E6F6E2D736517
:104AF000637572652063616C6C61626C65207265C0
:104B000067696F6E203020706C6163656420696E28
:104B100020666C61736820726567696F6E2025641A
:104B200020776974682073697A652025642E0A00ED
:104B3000436F756C64206E6F7420696E697469616F
:104B40006C697A652073656375726520736572762A
:104B5000696365732028657272202564292E0A0016
:104B60005352414D20726567696F6E0909446F6D3C
:104B700061696E09095065726D697373696F6E734F
:104B80000A005065726970686572616C0909446F4A
:104B90006D61696E09095374617475730A0025307B
:104BA000327520252D32317325730009534B49503E
:104BB0000A00094552524F520A00094F4B0A00534E
:104BC000504D3A204E5320696D6167652061742015
:104BD000307825780A0053504D3A204E53204D53DB
:104BE0005020617420307825780A0053504D3A20C7
:104BF0004E5320726573657420766563746F7220FE
:104C0000617420307825780A0053504D3A20707234
:104C1000657061726520746F206A756D7020746FA5
:104C2000204E6F6E2D53656375726520696D6167E7
:104C3000652E0A004E52465F5030004E52465F438A
:104C40004C4F434B004E52465F52544330004E523D
:104C5000465F52544331004E52465F4E564D43001C
:104C60004E52465F554152544531004E52465F55B3
:104C70004152544532004E52465F5457494D32001E
:104C80004E52465F5350494D33004E52465F544991
:104C90004D455230004E52465F54494D4552310009
:104CA0004E52465F54494D455232004E52465F5374
:104CB00041414443004E52465F50574D30004E52E2
:104CC000465F50574D31004E52465F50574D3200AF
:104CD0004E52465F50574D33004E52465F57445434
:104CE000004E52465F495043004E52465F564D4378
:104CF000004E52465F465055004E52465F4547555E
:104D000031004E52465F45475532004E52465F4491
:104D100050504943004E52465F4750494F54453129
:104D2000004E52465F524547554C41544F52530036
:104D30006D757465785F696E69742063616C6C650C
:104D4000642077697468204E554C4C207061726104
:104D50006D6574657200436F756C64206E6F7420AE
:104D6000616C6C6F63617465206D75746578206229
:104D700065666F726520696E697469616C697A69CC
:104D80006E6700464C4153485F30005352414D5FBF
:104D90003000554152545F31004552524F523A2033
:104DA00043616E6E6F742066756C66696C6C20452D
:104DB00058545F41504920726571756573742E0DAA
:104DC0000A005741524E494E473A204F7074696F5E
:104DD0006E616C204558545F415049207265717571
:104DE000657374206E6F742066756C66696C6C6593
:104DF000642E0D0A0048575F43433331305F300063
:104E000076322E332E302D7263312D6E6373312D39
:104E1000726331002A2A2A20426F6F74696E6720FC
:104E20005A6570687972204F53206275696C6420EE
:104E30002573202573202A2A2A0A006D61696E00D5
:104E4000000000003B390000F800002001000000D5
:104E50000C010020010000002001002001000000E2
:104E600034010020010000009D41000000C201004B
:104E700000010300000000000000000000C201006B
:104E80000001030000000000000000000090D003BB
:104E90004C0000204C0000208400002090000020E6
:104EA00088000020800000205C000020000000003E
:104EB000392F0000A12F0000792F0000BD2F000026
:104EC0007D2F0000E0070020D4070020DC07002031
:104ED00000000000D80700203F4C0000704A00008E
:104EE000F847000054010020924D00006049000086
:104EF0004449000038000020784A0000584900006A
:104F000044490000280000207F4A00000000000003
:104F10000000000000000000F54D0000000000004F
:104F20000000000000000000E4000020E400002079
:104F300000000000000000000F000000F80000204A
:104F4000F800002000000000000000000F0000003A
:104F50000C0100200C0100200000000000000000F7
:104F60000F000000200100202001002000000000B0
:104F7000000000000F000000340100203401002078
:104F800000000000000000000F000000FFFFFFFF16
:104F9000FFFFFFFFFFFFFFFFFFFFFFFFFFFFFFFF21
:104FA0000000000000000000000000000000000001
:104FB00000000000000000000000000000000000F1
:104FC00000000000000000000000000000000000E1
:107FE0007FE97FE9F8F738BE7FE97FE9F8F78CBED3
:107FF0007FE97FE9FBF7AABF000000000000000056
:10C00000904C022065DC000097A6010095DC000042
:10C0100095DC000095DC000095DC000095DC00005C
:10C0200000000000000000000000000085DA0000B1
:10C0300095DC000000000000E1D900007FA60100AF
:10C0400025DC000025DC000025DC000025DC0000EC
:10C0500025DC000025DC000025DC000025DC0000DC
:10C0600025DC000025DC000025DC000025DC0000CC
:10C0700025DC000025DC000025DC000025DC0000BC
:10C0800025DC000025DC000025DC000025DC0000AC
:10C0900025DC000025DC000025DC000025DC00009C
:10C0A00025DC000025DC000025DC000025DC00008C
:10C0B000A5F20000CBAD010025DC000025DC00006E
:10C0C00025DC000025DC000025DC000025DC00006C
:10C0D00025DC000025DC000025DC000025DC00005C
:10C0E00025DC000025DC0000E9AD010025DC0000B6
:10C0F00025DC000025DC000025DC000025DC00003C
:10C1000025DC000025DC000025DC000025DC00002B
:10C1100025DC000025DC000025DC000025DC00001B
:10C1200025DC000025DC000025DC000025DC00000B
:10C1300025DC000025DC000025DC000025DC0000FB
:10C1400025DC0000000000000000000000000000EE
:10C1500000000000000000000000000000000000DF
:10C1600000000000000000000000000000000000CF
:10C1700000000000000000000000000000000000BF
:10C1800000000000000000000000000000000000AF
:10C19000000000000000000000000000000000009F
:10C1A000000000000000000000000000000000008F
:10C1B000000000000000000000000000000000007F
:10C1C000000000000000000000000000000000006F
:10C1D000000000000000000000000000000000005F
:10C1E000000000000000000000000000000000004F
:10C1F000000000000000000000000000000000003F
:10C20000DEE61E284CBBCE8F025B00003C00000027
:10C21000781301000100000000C0000000C0000011
:10C22000FFFF02910000000000000000000000007D
:10C23000000000000000000000000000FFFFFFFF02
:10C2400081F0004102E000BF83F0004330B54FEAC7
:10C2500041044FEA430594EA050F08BF90EA020F34
:10C260001FBF54EA000C55EA020C7FEA645C7FEAC7
:10C27000655C00F0E2804FEA5454D4EB5555B8BFEA
:10C280006D420CDD2C4480EA020281EA030382EA5B
:10C29000000083EA010180EA020281EA0303362DED
:10C2A00088BF30BD11F0004F4FEA01314FF4801CC0
:10C2B0004CEA113102D0404261EB410113F0004FD2
:10C2C0004FEA03334CEA133302D0524263EB430389
:10C2D00094EA050F00F0A780A4F10104D5F1200E27
:10C2E0000DDB02FA0EFC22FA05F2801841F1000182
:10C2F00003FA0EF2801843FA05F359410EE0A5F156
:10C3000020050EF1200E012A03FA0EFC28BF4CF086
:10C31000020C43FA05F3C01851EBE37101F000453C
:10C3200007D54FF0000EDCF1000C7EEB00006EEB49
:10C330000101B1F5801F1BD3B1F5001F0CD34908D3
:10C340005FEA30004FEA3C0C04F101044FEA44522A
:10C3500012F5800F80F09A80BCF1004F08BF5FEAB1
:10C36000500C50F1000041EB045141EA050130BD91
:10C370005FEA4C0C404141EB010111F4801FA4F134
:10C380000104E9D191F0000F04BF01460020B1FA89
:10C3900081F308BF2033A3F10B03B3F120020CDAC1
:10C3A0000C3208DD02F1140CC2F10C0201FA0CF09F
:10C3B00021FA02F10CE002F11402D8BFC2F1200C04
:10C3C00001FA02F120FA0CFCDCBF41EA0C019040BA
:10C3D000E41AA2BF01EB0451294330BD6FEA040403
:10C3E0001F3C1CDA0C340EDC04F11404C4F12002EE
:10C3F00020FA04F001FA02F340EA030021FA04F300
:10C4000045EA030130BDC4F10C04C4F1200220FA56
:10C4100002F001FA04F340EA0300294630BD21FA94
:10C4200004F0294630BD94F0000F83F4801306BF5A
:10C4300081F480110134013D4EE77FEA645C18BF4E
:10C440007FEA655C29D094EA050F08BF90EA020FE5
:10C4500005D054EA000C04BF1946104630BD91EADD
:10C46000030F1EBF0021002030BD5FEA545C05D1E0
:10C470004000494128BF41F0004130BD14F580041F
:10C480003CBF01F5801130BD01F0004545F0FE4193
:10C4900041F470014FF0000030BD7FEA645C1ABFC8
:10C4A000194610467FEA655C1CBF0B46024650EAFF
:10C4B000013406BF52EA033591EA030F41F400212B
:10C4C00030BD00BF90F0000F04BF0021704730B5B1
:10C4D0004FF4806404F132044FF000054FF0000186
:10C4E00050E700BF90F0000F04BF0021704730B547
:10C4F0004FF4806404F1320410F0004548BF40421C
:10C500004FF000013EE700BF42004FEAE2014FEA70
:10C5100031014FEA02701FBF12F07F4393F07F4F4B
:10C5200081F06051704732F07F4208BF704793F04E
:10C530007F4F04BF41F40021704730B54FF4607461
:10C5400001F0004521F000411CE700BF50EA010264
:10C5500008BF704730B54FF000050AE050EA01020D
:10C5600008BF704730B511F0004502D5404261EB7D
:10C5700041014FF4806404F132045FEA915C3FF4BE
:10C58000D8AE4FF003025FEADC0C18BF03325FEA5B
:10C59000DC0C18BF033202EBDC02C2F1200300FA0C
:10C5A00003FC20FA02F001FA03FE40EA0E0021FA31
:10C5B00002F11444BDE600BF70B54FF0FF0C4CF41F
:10C5C000E06C1CEA11541DBF1CEA135594EA0C0FD1
:10C5D00095EA0C0F00F0DEF82C4481EA030621EA0C
:10C5E0004C5123EA4C5350EA013518BF52EA033547
:10C5F00041F4801143F4801338D0A0FB02CE4FF0F9
:10C600000005E1FB02E506F00042E0FB03E54FF028
:10C610000006E1FB03569CF0000F18BF4EF0010E20
:10C62000A4F1FF04B6F5007F64F5407404D25FEA1C
:10C630004E0E6D4146EB060642EAC62141EA5551CF
:10C640004FEAC52040EA5E504FEACE2EB4F1FD0C11
:10C6500088BFBCF5E06F1ED8BEF1004F08BF5FEA8F
:10C66000500E50F1000041EB045170BD06F0004641
:10C6700046EA010140EA020081EA0301B4EB5C04EE
:10C68000C2BFD4EB0C0541EA045170BD41F48011E6
:10C690004FF0000E013C00F3AB8014F1360FDEBF0B
:10C6A000002001F0004170BDC4F10004203C35DAE7
:10C6B0000C341BDC04F11404C4F1200500FA05F36A
:10C6C00020FA04F001FA05F240EA020001F000420B
:10C6D00021F0004110EBD37021FA04F642EB060181
:10C6E0005EEA430E08BF20EAD37070BDC4F10C04AB
:10C6F000C4F1200500FA04F320FA05F001FA04F26F
:10C7000040EA020001F0004110EBD37041F100015A
:10C710005EEA430E08BF20EAD37070BDC4F1200565
:10C7200000FA05F24EEA020E20FA04F301FA05F2CD
:10C7300043EA020321FA04F001F0004121FA04F275
:10C7400020EA020000EBD3705EEA430E08BF20EA45
:10C75000D37070BD94F0000F0FD101F0004640007F
:10C7600041EB010111F4801F08BF013CF7D041EA01
:10C77000060195F0000F18BF704703F00046520005
:10C7800043EB030313F4801F08BF013DF7D043EAD6
:10C790000603704794EA0C0F0CEA135518BF95EA8C
:10C7A0000C0F0CD050EA410618BF52EA4306D1D113
:10C7B00081EA030101F000414FF0000070BD50EA32
:10C7C000410606BF1046194652EA430619D094EABC
:10C7D0000C0F02D150EA013613D195EA0C0F05D1A6
:10C7E00052EA03361CBF104619460AD181EA0301FA
:10C7F00001F0004141F0FE4141F470014FF00000B2
:10C8000070BD41F0FE4141F4780170BD70B54FF04C
:10C81000FF0C4CF4E06C1CEA11541DBF1CEA1355CC
:10C8200094EA0C0F95EA0C0F00F0A7F8A4EB0504AE
:10C8300081EA030E52EA03354FEA013100F08880A5
:10C840004FEA03334FF0805545EA131343EA12636E
:10C850004FEA022245EA111545EA10654FEA002623
:10C860000EF000419D4208BF964244F1FD0404F5DC
:10C87000407402D25B084FEA3202B61A65EB030538
:10C880005B084FEA32024FF480104FF4002CB6EBF5
:10C89000020E75EB030E22BFB61A754640EA0C0075
:10C8A0005B084FEA3202B6EB020E75EB030E22BFB5
:10C8B000B61A754640EA5C005B084FEA3202B6EBF6
:10C8C000020E75EB030E22BFB61A754640EA9C00B5
:10C8D0005B084FEA3202B6EB020E75EB030E22BF85
:10C8E000B61A754640EADC0055EA060E18D04FEA43
:10C8F000051545EA16754FEA06164FEAC30343EAE3
:10C9000052734FEAC2025FEA1C1CC0D111F4801FAF
:10C910000BD141EA00014FF000004FF0004CB6E7A8
:10C9200011F4801F04BF01430020B4F1FD0C88BF47
:10C93000BCF5E06F3FF6AFAEB5EB030C04BFB6EB52
:10C94000020C5FEA500C50F1000041EB045170BD45
:10C950000EF0004E4EEA113114EB5C04C2BFD4EB72
:10C960000C0541EA045170BD41F480114FF0000EF6
:10C97000013C90E645EA060E8DE60CEA135594EA72
:10C980000C0F08BF95EA0C0F3FF43BAF94EA0C0F75
:10C990000AD150EA01347FF434AF95EA0C0F7FF4EA
:10C9A00025AF104619462CE795EA0C0F06D152EA3E
:10C9B00003353FF4FDAE1046194622E750EA410622
:10C9C00018BF52EA43067FF4C5AE50EA41047FF433
:10C9D0000DAF52EA43057FF4EBAE12E74FEA410296
:10C9E000B2F1E04324BFB3F5001CDCF1FE5C0DD9CD
:10C9F00001F0004C4FEAC0024CEA5070B2F1004F17
:10CA000040EB830008BF20F00100704711F0804F19
:10CA100021D113F13872BCBF01F00040704741F4DE
:10CA200080114FEA5252C2F11802C2F1200C10FAE2
:10CA30000CF320FA02F018BF40F001004FEAC123C6
:10CA40004FEAD32303FA0CFC40EA0C0023FA02F36A
:10CA50004FEA4303CCE77FEA625307D150EA013340
:10CA60001EBF4FF0FE4040F44000704701F0004010
:10CA700040F0FE4040F40000704700BF53B94AB98F
:10CA8000002908BF00281CBF4FF0FF314FF0FF30D6
:10CA900000F070B9ADF1080C6DE904CE00F006F8B5
:10CAA000DDF804E0DDE9022304B070472DE9F04F22
:10CAB000099E04468946002B40F083808A42154631
:10CAC00045D9B2FA82F24AB1C2F1200701FA02F363
:10CAD0009540944020FA07F747EA03094FEA154EBC
:10CAE000230C1FFA85F8B9FBFEFC0EFB1C990CFB0E
