:020000040000FA
:10C20000900A0020D5D40000F1FD000015D40000F4
:10C2100015D4000015D4000015D4000015D400007A
:10C2200015D4000015D4000015D40000F1D2000090
:10C2300015D4000015D400009DD20000EFFC0000D2
:10C2400095D4000095D4000095D4000095D400004A
:10C2500095D4000095D4000095D4000095D400003A
:10C2600095D4000095D4000095D4000095D400002A
:10C2700095D4000095D4000095D4000095D400001A
:10C2800095D4000095D4000095D4000095D400000A
:10C2900095D4000095D4000095D4000095D40000FA
:10C2A00095D4000095D4000095D4000095D40000EA
:10C2B00095D4000095D4000095D4000095D40000DA
:10C2C00095D4000095D4000095D4000095D40000CA
:10C2D00095D4000095D4000095D4000095D40000BA
:10C2E00095D4000095D4000095D4000095D40000AA
:10C2F00095D4000095D4000095D4000095D400009A
:10C3000095D4000095D4000095D4000095D4000089
:10C3100095D4000095D4000095D4000095D4000079
:10C3200095D4000095D4000095D4000095D4000069
:10C3300095D4000095D4000095D4000095D4000059
:10C3400095D4000000000000000000000000000084
:10C3500000000000000000000000000000000000DD
:10C3600000000000000000000000000000000000CD
:10C3700000000000000000000000000000000000BD
:10C3800000000000000000000000000000000000AD
:10C39000000000000000000000000000000000009D
:10C3A000000000000000000000000000000000008D
:10C3B000000000000000000000000000000000007D
:10C3C000000000000000000000000000000000006D
:10C3D000000000000000000000000000000000005D
:10C3E000000000000000000000000000000000004D
:10C3F000000000000000000000000000000000003D
:10C40000DEE61E284CBBCE8F015B000000BE0000A4
:10C410000100000000C20000D01300203DDC00003D
:10C420007BB972B90029BEBF00204FF0004106E081
:10C4300008BF00281CBF6FF000414FF0FF3000F034
:10C44000A3B9ADF1080C6DE904CE002909DB002B7E
:10C450001ADB00F035F8DDF804E0DDE9022304B072
:10C460007047404261EB4101002B1BDB00F028F8D4
:10C47000DDF804E0DDE9022304B0404261EB410154
:10C48000524263EB43037047524263EB430300F0B5
:10C4900017F8DDF804E0DDE9022304B0404261EB67
:10C4A00041017047524263EB430300F009F8DDF8A5
:10C4B00004E0DDE9022304B0524263EB430370471A
:10C4C0002DE9F04F099E04468946002B40F08380F9
:10C4D0008A42154645D9B2FA82F24AB1C2F1200722
:10C4E00001FA02F39540944020FA07F747EA03095E
:10C4F0004FEA154E230C1FFA85F8B9FBFEFC0EFB24
:10C500001C990CFB08F143EA094399420AD9EB183C
:10C510002CBF01200020994202D9002800F01D8183
:10C520000CF1FF3C591AA3B2B1FBFEF00EFB101147
:10C5300000FB08F843EA0144A04505D92C1902D2B2
:10C54000A04500F20E810138A4EB080440EA0C403B
:10C5500000271EB1D4400023C6E900433946BDE898
:10C56000F08F002A51D0B2FA82F2002A40F0AF8058
:10C57000491B4FEA154E1FFA85F80127230CB1FB22
:10C58000FEFC0EFB1C1108FB0CF043EA0143984231
:10C590000AD9EB182CBF01210021984202D90029A9
:10C5A00000F0D7800CF1FF3C191AA3B2B1FBFEF0EA
:10C5B0000EFB101108FB00F843EA0144A04505D921
:10C5C0002C1902D2A04500F2C1800138A4EB080466
:10C5D00040EA0C40BDE78B4208D9002E74D00027FA
:10C5E000C6E9000138463946BDE8F08FB3FA83F753
:10C5F00067B98B42C0F0A480824240F2A1803846E5
:10C60000002EABD0C6E90049A8E7FFDEC7F1200540
:10C61000BB4002FA07FC01FA07F4EA4020FA05F8E9
:10C62000E94000FA07FE1A4348EA04044FEA1248B8
:10C63000200C1FFA82F9B1FBF8FA08FB1A110AFB69
:10C6400009FB40EA01418B450AD951182CBF01234F
:10C6500000238B4502D9002B00F088800AF1FF3AB5
:10C66000A1EB0B01A4B2B1FBF8F008FB101100FB29
:10C6700009F944EA0141894504D9511801D2894593
:10C680007BD8013840EA0A40A1EB0901A0FB0C89E4
:10C69000494544464B4602D306D1C64504D201382B
:10C6A000B8EB0C0469EB0203002E5DD0BEEB040274
:10C6B00061EB030101FA05F522FA07F3F9400027BF
:10C6C0001D43C6E9005149E73746304646E7C2F107
:10C6D0002000954001FA02F721FA00F34FEA154EC7
:10C6E00024FA00F11FFA85F894403943B3FBFEF0B9
:10C6F0000F0C0EFB103300FB08FC47EA03439C457C
:10C7000007D9EB182CBF012700279C4500D98FB310
:10C710000138A3EB0C0389B2B3FBFEF70EFB173312
:10C7200007FB08FC41EA03418C4504D9691801D292
:10C730008C4525D8013FA1EB0C0147EA00471DE7D6
:10C74000841A61EB03030120994659E702382C440F
:10C750003CE7ACF1020C2B4426E7ACF1020C2B4475
:10C76000E0E602382C44EFE63746F7E6AAF1020A83
:10C77000114475E702382B44CBE70238114481E7B6
:10C78000023F2944D7E700BF704700BF2DE9E04FC3
:10C790002746A046A146A246A346A4462DED108BEF
:10C7A0004FF0000545EC185B45EC195A45EC1A5A58
:10C7B00045EC1B5A45EC1C5A45EC1D5A45EC1E5ADB
:10C7C00045EC1F5AF1EE105A4FF66076C0F6FF7630
:10C7D0003540E1EE105A84F3008825462646A447EA
:10C7E000BDEC108BBDE8E08F82680C4B9A6003684B
:10C7F00083F38888436883F38988027B02F0010110
:10C80000EFF3948323F00303920748BF43F002033E
:10C8100009B143F0010383F39488704700ED02E00F
:10C82000084AD36848B123F400531B041B0C43F09F
:10C83000BF6343F40033D36070479BB243F40053AB
:10C84000F5E700BF00ED00E0084AD36840B19BB2B5
:10C8500043F4804343F0BF6343F40033D360704735
:10C8600023F480431B041B0CF4E700BF00ED00E041
:10C87000084AD36840B19BB243F0080343F0BF635A
:10C8800043F40033D360704723F008031B041B0CF0
:10C89000F4E700BF00ED00E0034AD2F88C3043F427
:10C8A0004063C2F88C30704700ED00E0084B1A6816
:10C8B00018B142F001021A60704722F001021A60BA
:10C8C0001A6811B142F00202F5E722F00202F2E723
:10C8D000D0ED00E00B6801330B60014B1B6818477B
:10C8E000D41300202DE9F04F85B00E9C9B46012CFF
:10C8F000B8BF0124012B0CBF3023202316468246EB
:10C90000884601250A270022DFF86C900293B6FBC7
:10C91000F9F301930AB9B1451CD8019B414603F1D3
:10C920003000D04701220135019B013F09FB13660E
:10C930000A23012FB9FBF3F9E9D1414606F1300092
:10C94000D047BBF1030F02D1641B002C0EDC05B0F5
:10C95000BDE8F08FBC42E7DBBBF1020FE4D84146F3
:10C96000029803920135D047039ADDE74146202023
:10C97000D047013CE9E700BF00CA9A3B014B186071
:10C98000704700BFD4130020002307B5024601936F
:10C9900003480B4601A902F069FF03B05DF804FBF0
:10C9A000D5C800004FF02002EFF3118382F3118805
:10C9B000BFF36F8F0121044AC2F8401583F3118839
:10C9C000BFF36F8F00207047009003500A2838B5DE
:10C9D0000446074D04D1286843680D215B689847D9
:10C9E00028684368E1B25B689847204638BD00BFBD
:10C9F0000800002010B5044C204601F027F820461E
:10CA0000BDE81040FFF7BABFCDC9000008B5044823
:10CA100001F006FA034B1860FFF7ECFF002008BD99
:10CA2000870801000800002008B5114B1A686AB198
:10CA30004FF05022D2F80823D10707D500220D4825
:10CA40001A6083685B7A0BB903F034F90A4B1A68F1
:10CA500062B14FF05022D2F80823920706D5002287
:10CA600006481A60BDE8084003F024B908BD00BFBD
:10CA700000510050841400200451005090140020F4
:10CA800000220D4BC3F840214FF02002EFF311813B
:10CA900082F31188BFF36F8F084AD3F80405136837
:10CAA000C01A20F07F400344136081F31188BFF364
:10CAB0006F8F01F029BF00BF0050015024000020FB
:10CAC00070B5184801F0ACF948B3436800211B6801
:10CAD0009847012600244FF480334FF40012124D82
:10CAE0003146C5F80845C5F84065C5F804330F4B15
:10CAF00015201C600E4BC3F88021224600F018FC64
:10CB0000152000F005FC20460A4B1E602E60D5F86B
:10CB10000435334423F07F43C5F8403570BD4FF0F2
:10CB2000FF30FBE78E0801000050015040510150DA
:10CB300000E100E00850015070B5214EB0F1FF3F18
:10CB400008BF30464FF02003EFF3118483F31188C0
:10CB5000BFF36F8F1B491C4BD1F804251D680138AA
:10CB6000531B23F07F4301352B4420EAE070B04291
:10CB7000D4BF18189819821A22F07F4220F07F4300
:10CB8000022AC1F8403504D984F31188BFF36F8FAE
:10CB900070BDD1F804350D4AC31A23F07F435D1EE2
:10CBA000954205D94FF40012094BC3F80021EBE779
:10CBB000012B02BF023020F07F40C1F84005E3E7BF
:10CBC000FEFFFF000050015024000020FEFF7F0008
:10CBD00000E100E04FF02002EFF3118382F31188AF
:10CBE000BFF36F8F064AD2F80405064A1268801A0E
:10CBF00020F07F4083F31188BFF36F8F704700BF31
:10CC0000005001502400002008B543B2002B0CDB7B
:10CC1000012200F01F018A405B091049203341F8CE
:10CC20002320BFF34F8FBFF36F8F830003F1A04327
:10CC300003F540533128D3F8002806D0002A07DA3C
:10CC400002F00302023A012A02D8054AC3F800287A
:10CC5000002103F09CF8002008BD00BF00E100E0C7
:10CC60000001008030B54FF4C13485B02E4D4FF433
:10CC7000C1312E4802F06AFF21682D4802F066FF9C
:10CC800029682C4802F062FF10220021684603F058
:10CC90002DF92368684600930294FFF7A5FD012053
:10CCA000FFF7D2FD0020FFF7BBFD0020FFF7E0FDFE
:10CCB00001210020FFF7FAFDFFF7EEFD2C681E486A
:10CCC00002F044FF0820FFF79FFF24F00104BFF3A8
:10CCD0004F8FBFF36F8F64086400204621462246C1
:10CCE0002346B7EE000AF7EE000AB7EE001AF7EE99
:10CCF000001AB7EE002AF7EE002AB7EE003AF7EE78
:10CD0000003AB7EE004AF7EE004AB7EE005AF7EEE7
:10CD1000005AB7EE006AF7EE006AB7EE007AF7EE57
:10CD2000007AFFF733FD00BF04820100F009010023
:10CD3000070A01001C0A01003A0A01002DE9F84324
:10CD4000714802F003FF0021704EDFF8DC91DFF83C
:10CD500004826F4D56F8044BCA0301F5C07349F8BD
:10CD60002340404602F500434F1C02F0EFFE694BA2
:10CD700014F0100F6849694808BF194602F0E6FE32
:10CD800014F0040F14BF72212D21284602F0DEFE9C
:10CD900014F0020F14BF77212D21284602F0D6FE91
:10CDA00014F0010F14BF78212D21284602F0CEFE89
:10CDB00014F4807F14BF6C212D21284602F0C6FE9A
:10CDC000574802F0C3FE202F3946C3D1554B564A6F
:10CDD000C3F3C431C3F30E03C3F50043C3F34313DA
:10CDE000C2F80015C2F80435D2F80015D2F80425AF
:10CDF0004E48520102F0AAFE494802F0A7FE02F096
:10CE000078FF014610B14A4802F0A0FE444802F003
:10CE10009DFE484802F09AFE0021474EDFF8089137
:10CE2000DFF834813A4D56F8044B4A0301F5E073BC
:10CE300049F82340404602F500534F1C02F086FE9D
:10CE4000344B14F0100F3449344808BF194602F02F
:10CE50007DFE14F0040F14BF72212D21284602F02C
:10CE600075FE14F0020F14BF77212D21284602F021
:10CE70006DFE14F0010F14BF78212D21284602F019
:10CE800065FE14F4807F14BF6C212D21284602F02A
:10CE90005DFE234802F05AFE202F3946C3D12048B8
:10CEA00002F054FE4FF6FF7300241F4D2348C5F8CF
:10CEB000803402F04BFE224FC5F8C044DFF89C805E
:10CEC000204DDFF89C906E792A68002E14BF3B46F7
:10CED00043462146484602F039FE66B91A480134F5
:10CEE00002F034FE192C05F10805ECD10C48BDE820
:10CEF000F84302F02BBE2879FFF786FE08B11348ED
:10CF0000EDE71348EBE700BFCC0801005405010032
:10CF100004090100B5080100AC080100D9090100AD
:10CF2000FB0B0100E07F0100003000500709010009
:10CF30004D0901007D0901009C060100B3090100B3
:10CF4000C1080100D4050100DC090100E30901006A
:10CF5000EB090100EF0801009F090100B908010079
:10CF6000CF09010010B5002850D0002A4ED0B1F5ED
:10CF7000404F48D35318B3F5424F06D9254CA14230
:10CF80003BD904F61D24A3423AD802F085FF0020C5
:10CF9000BDE81040714672467346B7EE000AF7EEE0
:10CFA000000AB7EE001AF7EE001AB7EE002AF7EE05
:10CFB000002AB7EE003AF7EE003AB7EE004AF7EE75
:10CFC000004AB7EE005AF7EE005AB7EE006AF7EEE5
:10CFD000006AB7EE007AF7EE007A8EF3008C10B498
:10CFE000F1EE10CA4FF66074C0F6FF740CEA040C40
:10CFF000E1EE10CA10BCF4467447074CA14202D9B6
:10D00000064CA342C1D94FF0FF30C1E76FF01500C5
:10D01000BEE700BF0302FF002F01FF003801FF0041
:10D020002DE9F04F864685B00F4600296DD00025CA
:10D0300045F6013ADFF8DCC0354EDFF8DC80DFF87A
:10D04000DC9001AC5CF804BB96E807000EEB0B0328
:10D0500084E807009A070FD15EF80B20424505D1FE
:10D060005A684A4502D19A68524512D00135032DBB
:10D07000E8D16FF00D0012E02146002211F8010BFB
:10D0800013F802B08345F1D101320C2AF6D1002BFE
:10D09000ECD020221946384602F0FEFE002005B0F2
:10D0A000B7EE000AF7EE000AB7EE001AF7EE001A24
:10D0B000B7EE002AF7EE002AB7EE003AF7EE003A94
:10D0C000B7EE004AF7EE004AB7EE005AF7EE005A04
:10D0D000B7EE006AF7EE006AB7EE007ABDE8F04FEF
:10D0E000714672467346F7EE007A8EF3008C10B4E8
:10D0F000F1EE10CA4FF66074C0F6FF740CEA040C2F
:10D10000E1EE10CA10BCF44674476FF01500C6E794
:10D11000F40401001C070100DEE61E284CBBCE8F84
:10D12000014801F051BE00BF2807010008B530B129
:10D1300043683BB1006801F05FF8002008BD6FF460
:10D14000E040FBE70048F9E7EA8FFFFF38B5044607
:10D1500018B90B4B0B485B689847656855B115F0DB
:10D160000205206807D10146074800F0A5FF2560A9
:10D170000023636038BD1422002102F0B7FEF7E7F8
:10D1800028140020580B01002800002010B5044688
:10D1900018B9134B13485B6898476368BBB9236899
:10D1A000ABB94FF0FF3221460F4800F059FF08B9E4
:10D1B00023681BB90A4B0D485B689847142200216D
:10D1C000206802F093FE636843F002036360206806
:10D1D00002F026FF636843F00103636010BD00BFE7
:10D1E00028140020580B0100280000207E0B0100AD
:10D1F00008B558B1436863B100684FF0FF3100F0E3
:10D2000089FF054B002818BF184608BD6FF4E040A1
:10D21000FBE70248F9E700BFE98FFFFFEA8FFFFF56
:10D2200008B5064940230648142202F0E7FEBDE88F
:10D2300008400449044801F0FFBD00BF440000203D
:10D2400028000020400701003007010004488168E1
:10D25000406A884203D003494FF080520A60704709
:10D260003006002004ED00E0094A0A499368096885
:10D270005866996608494B6843F080534B60002319
:10D2800083F31188BFF36F8F9368986E704700BF68
:10D29000300600208407010000ED00E012498A6892
:10D2A0004FF028001044EFF3098C80E8F01F202095
:10D2B00080F31188BFF36F8F0C4F4FF000664A6AFE
:10D2C0008A603E60506E0023536680F3118804B577
:10D2D000104602F094FDBDE8044002F1280090E8F9
:10D2E000F01F8CF3098870473006002004ED00E041
:10D2F0001EF0040F0CBFEFF30880EFF30980816983
:10D3000011F8021C0229FFD001B502F06DFD01BD2C
:10D3100043B2002B08DB012200F01F0002FA00F0EC
:10D32000024A5B0942F82300704700BF00E100E0B9
:10D3300043B2002B01F10101A8BF03F160434FEAA2
:10D340004111B8BF054BC9B2ABBF03F5614300F053
:10D350000F0083F800131954704700BF14ED00E06C
:10D360002DE9F0418C18884617461E4604220A9B78
:10D370000999054602F031FF00220D49A4F120036E
:10D3800023F0070321F00101C5E91322C5E916873F
:10D39000996106991E605960079999600899D9604A
:10D3A0004FF08071D961AB646A66BDE8F08100BF5F
:10D3B00039F80000F8B51E4605460C46174600230E
:10D3C000E1EE103A00F0B0F90B4B3C4428469D606A
:10D3D00024F0070402F013FD304684F3098863B695
:10D3E0004FF0000181F31188BFF36F8F00210022FD
:10D3F000002302F021FA00BF30060020014910226C
:10D400000A60704710ED00E0404080F3118830BFA3
:10D41000704700BF404080F311884FF00400714610
:10D42000014202D0EFF3098001D1EFF30880714689
:10D4300001B500F0D1F801BD30BFFFF7FDBF00BF5F
:10D44000114A08B5114B22F07F029A60BFF34F8F4B
:10D45000BFF36F8FD3F8882042F4A002C3F888206E
:10D460000B4A536823F040435360BFF34F8FBFF321
:10D470006F8F0023E1EE103A00F012FD00F01AFD6C
:10D4800000F020F900F048FD00C2000000ED00E0CF
:10D4900030EF00E001B572B60B4A106A00281EBFDB
:10D4A0000021116202F0A8FD62B6EFF30580A0F141
:10D4B00010004FEAC0000549014409C99847BDE87A
:10D4C00001400349084700003006002074020100B3
:10D4D0004DD2000002F048FB202080F3118808485C
:10D4E0004FF40061401880F30988EFF314800221A3
:10D4F000084380F31488BFF36F8FFFF7A1FF00008C
:10D50000D00B00200C4B9A6A9A6A9A6A920708D547
:10D510005A6B9A6A120604D518B19A6A22F08002F0
:10D520009A620020044B9A6A9A6A9A6A9A6A42F04E
:10D53000FF029A620870704700ED00E00D4B9A6A96
:10D540009A6A9A6A920508D59A6B9A6A120404D567
:10D5500018B19A6A22F400429A620020054B9A6A36
:10D560009A6AD20558BF9A6A9A6A42F47F429A62CE
:10D570000870704700ED00E0074B00209A6A9A6A35
:10D580009A6A9A6A9A6A9A6A9A6A9A6A6FEA0242E6
:10D590006FEA12429A62704700ED00E00D4B9A6903
:10D5A0005A695A69D0070FD45A6991070CD45A693D
:10D5B000520709D45A69100706D45A69D10603D410
:10D5C0005A69920658BF5A695A6942F0FF025A6175
:10D5D000704700BFD0ED00E037B50446314A01F096
:10D5E0007F40B0F17F4F536859D111F001000AD04C
:10D5F000480611D411F0080009D0EFF3898450686F
:10D6000010F4006008D1214602F0ECFB25E0EFF3B6
:10D61000888452681105F6D40022C3F30803033B43
:10D620008DF80720042B30D8DFE803F003313526CE
:10D630002D001C4BDA6A920727D4D86A10F080407C
:10D6400007D028331B7853B101200DF10701FFF7F4
:10D6500059FF9DF80730002BD5D003B030BD124BD9
:10D660001B782BB101200DF10701FFF767FFF0E7F1
:10D670000E4B1D88ADB215B1FFF77EFFE9E70C4BED
:10D6800058690028E5D0FFF789FF0020E1E70DF198
:10D6900007010020DBE70DF107010020E5E700208E
:10D6A000B1E700BF00ED00E029ED00E02AED00E069
:10D6B000D0ED00E0024A536943F010035361704714
:10D6C00000ED00E0002320210348C2180133412B64
:10D6D00082F80013F9D1704700E100E038B5054643
:10D6E0004FF02003EFF3118483F31188BFF36F8FA2
:10D6F00002F054FD0A4B9B68AB420BD1094B5A68B0
:10D70000C2F3080212B92046FFF7AEFD5A6842F094
:10D7100080525A602046BDE8384002F0B8BC00BFD5
:10D720003006002000ED00E010B50E4B88B00293EB
:10D730000D4B0E4C03930E4B0E4A049302AB019318
:10D7400001A82346012100F003F9002307930A4BA7
:10D750000121E41A05A80593069400F003F908B026
:10D7600010BD00BF000000200000000000000120EC
:10D7700006000100000000200000002010B50B682A
:10D780000C7A23F01F0204F01F031A43CB686409CC
:10D7900023F01F03044943EA440343F00103886074
:10D7A000CA600B6110BD00BF90ED00E02DE9F04FA5
:10D7B0008046894614460027484D85B04F4507DA14
:10D7C00058F827305E68C6B31F2E05D86FF01504D1
:10D7D000204605B0BDE8F08FF206F7D1D3F800A0DF
:10D7E0001AF01F0FF2D1504601F0D7FF834606EB27
:10D7F0000A00013801F0D1FF8345E7D11BF1160F74
:10D80000E4D0631E5B45E1DBC5F808B0E86858F872
:10D810002710C5F808B02E6920F01F00D1E90032AA
:10D820001A44984246F01F0602F1FF3A18D15645B5
:10D8300005D15FFA8BF002F0EAFA0137BEE7C5F8CE
:10D8400008B0EB6822F01F0203F01F031A43EA60DE
:10D85000E0B202F0DCFA10F1160FB7D0441CECE78E
:10D86000C5F808B02A69013B23F01F0302F01F022C
:10D8700013435645E0B22B61EBD002F0C8FA10F129
:10D88000160FA3D0C5F808B0EA689DF80830013E2D
:10D8900062F304038DF808302B699DF808205B08BB
:10D8A00063F347128DF8082058F827200130D2E999
:10D8B00000321344009323F01F031E44A6EB0A0614
:10D8C000C4B226F01F060F2C03963FF67FAF20460A
:10D8D0006946FFF753FF0134AFE700BF90ED00E06A
:10D8E0000522034B5A60BFF34F8FBFF36F8F704712
:10D8F00090ED00E0BFF35F8F0022014B5A6070474C
:10D9000090ED00E070B50E4D2E68102E15D8002455
:10D91000FFF7F0FF0B4B0C4A1A63A64205D10B4BE5
:10D920001E70FFF7DDFF002070BD6968204601EB27
:10D930000411FFF723FF0134EFE74FF0FF30F3E767
:10D940000005010090ED00E0AAFF44008C060020D5
:10D9500010B5034C2278FFF729FF207010BD00BFDF
:10D960008C0600202DE9F74F254C8A46804600277B
:10D97000A1464FF0140B234D57451ADAD8F804305E
:10D980000193002B36D0D8F800100846009101F022
:10D9900004FFDDE9001306465818013801F0FDFECA
:10D9A0008642194A08D014235F436FF0150349F8E3
:10D9B000073003B0BDE8F08F16F1160F2660F8D0DF
:10D9C0001378B342F5DD0BFB0793AE60AE60E868F9
:10D9D000197B60F3040119732969187B490861F305
:10D9E00047101873EB6823F01F0363602B6923F063
:10D9F0001F0323610137143408F10C08BCE700BF92
:10DA00004405002090ED00E08C06002070B50C4B22
:10DA10000E461C780546234600210A4A0F2B0BDDD3
:10DA2000094951F8040BFFF7A9FE22463146284662
:10DA3000BDE87040FFF7BABE936011610133EDE7B6
:10DA40008C06002090ED00E044050020014B18609A
:10DA5000704700BFF8130020F0B54B79012B29D097
:10DA6000032B24D101268B79032B20D1CD792DB125
:10DA7000012D1CD103689B681B79C3B10A7912B1CF
:10DA8000022A14D10E2247F6122704680B68A468F4
:10DA9000BB42246868D029D8B3F5965F67D014D804
:10DAA000B3F5167F65D007D8B3F5967F64D06FF0D5
:10DAB000220058E00026D6E7B3F5966F5FD0B3F5A5
:10DAC000166FF4D14FF41D233CE0B3F5615F59D0DC
:10DAD00004D8B3F5165FEAD1354B33E0B3F5964F72
:10DAE00052D0B3F5E14FE2D1324B2BE0B3F5E13F39
:10DAF0004CD012D84DF6C027BB424AD005D8B3F55A
:10DB0000164FD4D14FF41D031CE0B3F5614F43D041
:10DB1000B3F5963FCBD1284B14E0B3F5E12F3ED0BF
:10DB200008D8B3F5613F3DD0244FBB42BFD14FF081
:10DB3000806307E0B3F5612F37D0214FBB42B6D1E8
:10DB40004FF080532A43C4F82435C4F86C252EB115
:10DB5000D4F86C3543F01003C4F86C35836803C9FE
:10DB600083E803000020F0BD4FF40003EAE7154B03
:10DB7000E8E74FF41C33E5E74FF4A033E2E74FF456
:10DB80009E23DFE7104BDDE7104BDBE74FF0EB7335
:10DB9000D8E74FF46503D5E74FF46B03D2E74FF0B6
:10DBA000E863CFE74FF06C73CCE74FF07063C9E7E1
:10DBB0000050270000C0750000903A0190D003008B
:10DBC00040420F0000B0130000F03A0000A04E00E9
:10DBD000026870B59268184B14684FF0005285685F
:10DBE00003219A601D260022C3F87412C3F8702224
:10DBF000C4F80C651C26C4F814654FF000669E60DE
:10DC0000C3F86C12C3F868221B23C4F808351A2322
:10DC10002946C4F81035FFF71FFF58B90823C4F888
:10DC200000351D440123C4F81001C4F83455C4F86C
:10DC30003835236070BD00BF00258450F0B5DAB1DF
:10DC400000231C460E4D0F4FBB4206D3002C14BFC1
:10DC50006FF008006FF0010009E055F8046BD6F88A
:10DC60000CC0604506D14C1E11B908461660F0BDC7
:10DC7000214601240133E7E76FF00D00F7E700BF0D
:10DC8000080C0100000000004F4A136843F0020333
:10DC900013600022D30003F57F03D3F80013013192
:10DCA00008D0D3F800130132D3F80433B2F5807FE3
:10DCB0000B60EFD1454AD36913F001033BD0444BCD
:10DCC0001946D3F80024012AFBD1C3F80425D1F862
:10DCD0000034012BFBD13D4BDA69D20708D5DA6954
:10DCE0003B4922F00102DA61D1F80024012AFBD17C
:10DCF0001A6A01320AD11A6A22F0FF0242F02002A7
:10DD00001A62334AD2F80034012BFBD10022304B87
:10DD1000C3F80425D3F80024012AFBD1BFF34F8FA9
:10DD20002C492D4BCA6802F4E0621343CB60BFF369
:10DD30004F8F00BFFDE7126A0132C0D0274A126838
:10DD4000092A11D1264A11680139012921D91368FC
:10DD5000012B25D1234A1360A2F63822C2F8783568
:10DD60001E4B1B68092B1BD01A4BD3F88C2042F496
:10DD70004062C3F88C20D3F8882042F47002C3F8C4
:10DD80008820BFF34F8FBFF36F8F174B174A1A606E
:10DD900070474FF05021C1F81431C1F81831D6E75F
:10DDA0000F4B1B68022BDFD100220E4B1A600122A1
:10DDB000A3F63823C3F87825084B1B68092BD3D169
:10DDC0000C220B4B1A60CFE7D0ED00E00080FF0083
:10DDD0000090035000ED00E00400FA053001FF0060
:10DDE0003401FF00384A0050081400200090D0038E
:10DDF000E4AE035070B50026084B53F820400130C4
:10DE000053F82050A54200D870BD236820465B68B7
:10DE1000984700B166600C34F4E700BF700701005A
:10DE2000104B70B505461E460F4C9C4204D10E4C5B
:10DE3000B44209D1002412E062681AB12268126863
:10DE4000AA420CD00C34F0E763680BB90C34EFE74E
:10DE500023682846196801F0FCFF0028F6D1204607
:10DE600070BD00BFCC1400205414002008B50B4D29
:10DE70004FF02002EFF3118382F31188BFF36F8F0D
:10DE800002F0C9F9012104460228D8BF084602F071
:10DE9000D2F92C62FFF7B8FAEAE700BF300600209B
:10DEA0000248034A0021121A02F020B800000020A4
:10DEB0009006002008B50648064A0749121A01F0E4
:10DEC000EBFFBDE80840054A0549064801F0E4BFFC
:10DED000D413002030150020080C010000000000C1
:10DEE000080C01000000002008B50220FFF782FFA7
:10DEF000074801F02BFE0320FFF77CFF00F02EFC0B
:10DF000001F044FC034A137B23F00103137308BDA3
:10DF1000B60B0100C405002080B5374BA2B083F3D7
:10DF200008880025E023354C012784F82230E57766
:10DF300025766576A576E576636A314E43F4E0236F
:10DF40006362636A43F400236362A563FFF7B2FB75
:10DF5000FFF754FA4FF0FF33A362E36207AB6C2282
:10DF60002946184601F0C2FF264C8DF82970A060A2
:10DF70002846FFF73FFF3846FFF73CFF00F0A0FBC5
:10DF8000214B66624FF48062CDE90473CDE90255FE
:10DF90001E4BCDE900551E49304600F0C7FB737B90
:10DFA00023F0040213F01B0F727304D1B36913B989
:10DFB000304600F019FA174B012205930F23CDE9E3
:10DFC00003320023144DCDE9013300934FF4A072C6
:10DFD000124B1349284600F0A9FB6B7BE56023F048
:10DFE00004036B730F4B4FF48062C4E90633084996
:10DFF000064B0348FFF7DEF9D013002000ED00E0E8
:10E00000C405002030060020FD0B0100E9DE000001
:10E0100090060020020C0100580500206DDE000073
:10E02000900A00204806002070B500240A4B0B48D7
:10E03000834201D3002070BD00211A699D685C6194
:10E04000A94201D11C33F3E75E6901311660DE6835
:10E050005A613244F4E700BFCC140020CC140020F5
:10E0600010B513460C464FF02002EFF3118182F3F6
:10E070001188BFF36F8F42695AB122601368436100
:10E08000836901338361002081F31188BFF36F8FAF
:10E090000DE01BB923606FF00B00F5E70246044862
:10E0A00000F0B8FA18B9034B9B685B69236010BD98
:10E0B0008D0600203006002070B504460D464FF056
:10E0C0002003EFF3118683F31188BFF36F8F02F003
:10E0D0002FF880B100212A6881664261427BD20616
:10E0E00003D183690BB900F07FF93146BDE8704078
:10E0F000074801F0BDBF2B6862691A602B68636135
:10E10000A369013BA36186F31188BFF36F8F70BDD4
:10E110008D060020F8B504460F464FF02003EFF3BC
:10E12000118583F31188BFF36F8FC26830495AB1EC
:10E1300080688E68B04215D0B7B985F31188BFF3F7
:10E140006F8F6FF00F000CE08B6893F90E30236136
:10E150008B680132E260A36085F31188BFF36F8F93
:10E160000020F8BD2369F2E790F90E3096F90E1001
:10E170009942A8BF194621EAE17199422BDA00F0D1
:10E180005DFA06463B46224629461A4800F042FA06
:10E190000028E6D04FF02003EFF3118583F31188B8
:10E1A000BFF36F8F236821699C4207D033B193F985
:10E1B0000E309942A8BF194621EAE171A06890F992
:10E1C0000E30994209D16EB129460A4801F050FF3C
:10E1D0006FF00A00C5E70026D4E700F02FFA002808
:10E1E000F2D1F0E785F31188BFF36F8FF0E700BF3E
:10E1F000300600208D0600201E4B70B59A6804463C
:10E20000D37B013BD373C368012B05D0013BC360B3
:10E21000BDE8704000F0CCB84FF02003EFF311865A
:10E2200083F31188BFF36F8F0169806890F90E3016
:10E23000994201D000F002FA204601F079FF05462C
:10E24000A06080B1437BDB0603D183690BB900F08A
:10E25000CBF886F31188BFF36F8F0023AB6695F977
:10E260000E302361D4E7E06086F31188BFF36F8F2F
:10E27000CEE700BF30060020EFF305800D2809D857
:10E2800028B1054B586880F40060C0F3C02080F0CE
:10E29000010070470120FAE700ED00E010B5084CDE
:10E2A00023685BB1FEF796FC2368064A18441061A8
:10E2B0000021BDE81040184601F0BDBF10BD00BFF1
:10E2C0006806002030060020F8B50D464FF0200308
:10E2D000EFF3118483F31188BFF36F8F4FF4004184
:10E2E00040F2E73600270022C1FB0067094B3046A9
:10E2F0001A6139464FF47A720023FEF791F8064B03
:10E300001860064B1D60FFF7C9FF84F31188BFF347
:10E310006F8FF8BD300600206806002064060020DC
:10E320004FF02003EFF3118183F31188BFF36F8F58
:10E33000044B9A68D37B013BD37381F31188BFF3FD
:10E340006F8F704730060020094B03F1280282428C
:10E3500005D19B688B4202D14B7BDB0606D1D1E90C
:10E36000003213605A600023C1E90033704700BFD8
:10E370003006002038B50D4C024604F1280001F0AB
:10E38000A0FE054600B9E568A3684AB95A7BD206E3
:10E3900006D1AA6922B9DA897F2A01D9636238BD18
:10E3A0009D4201D0FFF77AFF6562F8E73006002052
:10E3B00010B54FF02003EFF3118483F31188BFF3FE
:10E3C0006F8F084B00209A68D37B0133D373FFF71C
:10E3D000D1FF84F31188BFF36F8FBDE8104001F0C7
:10E3E00066BE00BF30060020F8B54FF02003EFF303
:10E3F000118483F31188BFF36F8F154A114651F8CA
:10E40000283F8B421DD0E3B1D66A90F90E5093F9A4
:10E410000E70AF4210DD5A68C0E9003210605860DB
:10E42000437B43F0400343730020FFF7A3FF84F3D3
:10E430001188BFF36F8FF8BDB34202D01B68002B69
:10E44000E5D1D36A01604360D36A1860D062E7E720
:10E4500030060020F8B504464FF02003EFF3118595
:10E4600083F31188BFF36F8F437B5A0603D50146B0
:10E470001748FFF769FF174A02F12801D2E90A306D
:10E480008B421FD0F3B194F90E6093F90E70B7422E
:10E4900013DD5968C4E900310C605C60637B9068EF
:10E4A00043F040036373031B58425841FFF762FF78
:10E4B00085F31188BFF36F8FF8BD984202D01B68B7
:10E4C000002BE2D1C4E90010D36A1C60D462E5E7F6
:10E4D0005806002030060020154A164938B50C6849
:10E4E0009368A342144603D1BDE83840FFF7D6BE77
:10E4F00000250D6010490968B9B1D9897F2914D860
:10E500000E4993F90E5009688D420EDB0C498B427F
:10E510000BD0996949B91169814203DC1846FFF7AC
:10E5200099FFE1E7091A116138BD00232361FBE778
:10E5300030060020600600206806002064060020E7
:10E540005805002038B504464FF02003EFF311853D
:10E5500083F31188BFF36F8F437B5A0607D50146BB
:10E560000948FFF7F1FE637B23F040036373074B19
:10E570009868031B58425841FFF7FCFE85F3118849
:10E58000BFF36F8F38BD00BF580600203006002053
:10E5900070B504460D461646FFF7D4FF637B43F083
:10E5A000020363737DB12B68A5609D4227D033B30E
:10E5B00094F90E2093F90E1091421ADD5A68C4E9BD
:10E5C000003214605C60731C20D04FF4004540F2B0
:10E5D000E73000214FF47A72C5FB06010023FDF7F6
:10E5E0001FFF0B49421C04F11800BDE8704000F009
:10E5F00049B969688B4202D01B68002BDAD16B687D
:10E60000256063606B681C606C60DCE770BD00BFF8
:10E61000CF00010010B50C461146064A9068064A24
:10E6200010601A46FFF7B4FF2046BDE81040FEF721
:10E630001BBE00BF30060020600600202DE9F84315
:10E6400004464FF02003EFF3118983F31188BFF3E1
:10E650006F8F01F0EBFC4EB2804660B3174D214640
:10E6600005F128073846FFF76FFEAB6AA673BB4279
:10E670002A4619D0C3B1E96A93F90E00B0420EDD03
:10E680005A68C4E9003214605C600120FFF772FE32
:10E6900089F31188BFF36F8F4046BDE8F883994234
:10E6A00002D01B68002BE7D1D36A27606360D36A6E
:10E6B0001C60D462E9E7A673EAE700BF30060020D9
:10E6C0000021044B084603F12802C3E90A22FFF7A0
:10E6D000FBBD00BF30060020014B9868704700BFAB
:10E6E0003006002010B502464FF02003EFF31184EE
:10E6F00083F31188BFF36F8F437B590704D484F3EE
:10E700001188BFF36F8F10BD23F00403437301F032
:10E710003CFD10B11046FFF767FE2146BDE81040F2
:10E72000014801F0A5BC00BF8D06002030B587B0C0
:10E730000E9D044604950D9D03950C9D02950B9D21
:10E7400001950A9D0095FEF70BFE034B9B6803B1F4
:10E750001B6E236607B030BD300600202DE9F04F58
:10E76000284E294DB04687B0B54205F1300410D38C
:10E77000FFF7D6FD4FF4004940F2E7360027224C60
:10E78000DFF888A0444521D307B0BDE8F04FFFF77C
:10E790000FBE54F8043C059354F8103C049354F80D
:10E7A000143C039354F8183C029354F81C3C019316
:10E7B00054F8203C009354E90A2354E90C01FFF774
:10E7C000B5FF54F8303CDD642546CDE7616A4B1C4B
:10E7D00004D0256821B92846FFF784FF3034D1E7FB
:10E7E000B346BC46C9FB01BC4FF47A7200235846BD
:10E7F0006146FDF715FE5146421C05F1180000F078
:10E8000041F8EBE7CC140020CC140020CF0001002D
:10E81000034B1B680BB9FEF7DDB90020704700BF42
:10E820006C060020036840B1074A5268904204D049
:10E830001BB19A6881680A449A60426813605A6002
:10E840000023C0E9003370470C1400200B4B10B5B7
:10E850001C689C4208BF0024FFF7DAFF54B1A3688C
:10E86000181A20EAE070064B1B6913B19842A8BF42
:10E87000184610BD6FF00040F5E700BF0C140020F3
:10E880003006002070B504461646C1604FF02003E4
:10E89000EFF3118583F31188BFF36F8FFFF7B8FF94
:10E8A000012EACBF80190130164BA0601A689A4245
:10E8B00001D05E6832B95A68236062605A68146099
:10E8C0005C600AE09068A168884215DD411A916099
:10E8D0005168C4E900210C6054601A689A4206D05D
:10E8E000944204D1FFF7B2FF0021FEF725F985F32A
:10E8F0001188BFF36F8F70BD091A9642A160DAD0FC
:10E900001268D7E70C1400202DE9F04B0446FFF7FE
:10E91000E3FD4FF02003EFF3118583F31188BFF37C
:10E920006F8F214F214EB846DFF884903460D9F8BC
:10E93000004032684C45D7E900BC05D024B1A3683B
:10E94000934214DD9B1AA36000241BEB02004CEBE6
:10E95000E271C8E900013460FFF778FF2146FEF755
:10E96000EBF885F31188BFF36F8FBDE8F08B1BEBDD
:10E9700003004CEBE371D31A33600023C7E90001B5
:10E98000A3602046FFF74EFF85F31188BFF36F8F1A
:10E99000E36898474FF02003EFF3118583F3118864
:10E9A000BFF36F8FC3E700BF000000206C0600209C
:10E9B0000C14002038B5074C074DAC4201D30020A1
:10E9C00038BD04F114032046C4E9053300F0EEFE1F
:10E9D0001C34F2E7CC140020CC14002001F045BA1E
:10E9E0000A46002101F082BA10B5114800F048F83B
:10E9F00000B110BD0F4800F043F80028F9D10E4CCB
:10EA0000204600F03DF80028F3D10C4B0C481C6068
:10EA100000F036F801460028EBD100F02DF804464E
:10EA200008B1204610BD00F051F82046FAE700BFBB
:10EA300020140020141400201C1400202414002092
:10EA40001814002008B5084800F024F8074800F022
:10EA500021F8074800F01EF8064800F01BF8BDE852
:10EA6000084000F00BB800BF201400201414002050
:10EA70001C1400201814002000207047704700BFAD
:10EA800008B5034B02681B6810689847002008BD52
:10EA90003014002008B5034B02685B681068984783
:10EAA000002008BD301400200268024B10689B68EB
:10EAB000184700BF3014002008B5034B0268DB681C
:10EAC00010689847002008BD3014002070B5094C2C
:10EAD000094D2069AB68984718B1084B08485B6836
:10EAE00098470021074AEB6811602069BDE8704033
:10EAF000184700BF401400203014002028140020C4
:10EB0000880701007006002070B5144C144D0646AD
:10EB1000AB6820699847F0B9124A13685EB91BB90F
:10EB200001201149C1F8000501331360EB68206929
:10EB30009847002070BD002BF8D0012B08BF0A4970
:10EB400003F1FF3308BFC1F8000520691360EB68CB
:10EB500098470020EEE7054870BD00BF4014002034
:10EB6000301400207006002000008450E98FFFFF61
:10EB70000020704700207047430503D54FF0FF3257
:10EB8000024B1A60024B1860704700BF0811845096
:10EB9000081A8450014B1860704700BF041A845053
:10EBA00008B100F003B84FF47500704702460748FB
:10EBB00003681342FCD021B1054B06481B680B606B
:10EBC0000360054B00201A60704700BF001A845094
:10EBD0000411845008118450081A845000F0A0B821
:10EBE00030B129B100230144037001308142FBD1CF
:10EBF000704700BF2DE9F041ADF51A7D0F46059233
:10EC00000021144612A84FF408721E4601F06EF956
:10EC1000002308A819462822069301F067F9002F5F
:10EC20003CD0002E3AD0002C38D0042106A8FFF7A3
:10EC3000D7FE08A82821FFF7D3FE08A800F032F875
:10EC400078B14FF0FF3512A84FF40871FFF7C8FFF5
:10EC500006A80421FFF7C4FF28460DF51A7DBDE87C
:10EC6000F08112AB0DF11C080390CDE9016302465F
:10EC700005AB08A9CDF8008006A800F0E9FC002843
:10EC8000DFD13368A342DCD3D8F800100546083141
:10EC900038462246FFF7A2FE3460D4E74FF0FF3536
:10ECA000DAE700BF1C2330B583B002A941F8043D68
:10ECB000044600F0B1F90546D8B9019B1C2B1BD1C5
:10ECC000D4E9003201210033E16118BF01230AB108
:10ECD00043F00203A26832B9E268AAB9C4E9083273
:10ECE0003BB90D4D09E0E26843F0040362B9C4E9A1
:10ECF0000832284603B030BD084D20461C21FFF7DE
:10ED00006FFE284603B030BD0022284643F00803BA
:10ED1000C4E9083203B030BD0E0CF000370CF0002F
:10ED200010B50C4C236813B10B4B1B686BB900F08A
:10ED300031F938B10138062896BF084B084853F816
:10ED4000200010BD0122044B1A6001230020236023
:10ED500010BD00BF7406002078060020A80701003F
:10ED6000FE8FFFFF10B5094C23681BB10123002063
:10ED7000236010BD00F07CF80028F7D00138062889
:10ED800096BF034B034853F8200010BD74060020C3
:10ED9000A8070100FE8FFFFFBFF34F8F0549064B09
:10EDA000CA6802F4E0621343CB60BFF34F8F00BF29
:10EDB000FDE700BF00ED00E00400FA05014B5B68D1
:10EDC000184700BF28140020024BD0E90012C3E905
:10EDD0000012704728140020704700BF10B5044689
:10EDE00020B1BFF35F8F0020206010BD0348FFF704
:10EDF000E5FFBFF35F8F0020206010BDE807010032
:10EE000010B5044610B10023236010BD0248FFF77F
:10EE1000D5FF0023236010BDC407010050B10122BB
:10EE2000D0E8EF3FC0E8E12F0029F9D1012BF7D05E
:10EE3000BFF35F8F0020704770B40B4B0668C26849
:10EE4000D0E90154C3E90242C3E90065D1E90302F4
:10EE50000E68064BD1E90154C3E90065C3E90240DD
:10EE60001A6170BC704700BF3014002040140020AD
:10EE700010B5FFF77DFE70B9FFF7B6FD80B9FFF75B
:10EE800043FE80B9114B1B681B0EF02B0DD00624DE
:10EE9000FFF770FE00E00324FFF7D4FD204610BD0D
:10EEA0000424204610BD0024F2E7094A094B1268E9
:10EEB0009A4201D00724EBE70120FFF725FE002846
:10EEC000F1D1054B04461860E8E700BF28198450CB
:10EED000241A84500000E0200C1A845030B5ADF59F
:10EEE000157D4FF4087200210CA800F0FFFF0023ED
:10EEF00002A819462822019300F0F8FF02A8FFF7A4
:10EF0000D1FE18B105200DF5157D30BD1C4D4FF01B
:10EF1000FF312868FFF7C8FD0446F0B90020FFF76D
:10EF2000F3FDB0B90CAA02A901A800F0D5FB044674
:10EF30000120FFF7E9FDF0B92868FFF7BDFD10B12A
:10EF40001048FFF73BFF2046002CDBD10DF5157D67
:10EF500030BD0D48FFF732FFE4E70C48FFF72EFF06
:10EF6000012CDBD12868FFF7A7FD0028CAD005488F
:10EF7000FFF724FFC6E70648FFF720FFDCE700BFE6
:10EF800024140020200801003808010008080100AE
:10EF90005808010008B5FFF7EBFD18B1FFF752FD67
:10EFA000032008BDFFF720FD68B9FFF7ADFD60B98C
:10EFB000154B1B681B0EF02B12D0FFF7DBFDFFF784
:10EFC00041FD062008BD042008BDFFF7D3FDFFF773
:10EFD00039FDFFF783FF00280CBF0020052008BD86
:10EFE0000A4A0B4B12689A4205D0FFF7C3FDFFF7A0
:10EFF00029FD072008BD0120FFF786FD0028E4D188
:10F00000044B1860E5E700BF28198450241A845087
:10F010000000E0200C1A845018B111B10B681C2BB1
:10F0200001D0012070474FF47F033A4AD3F8101CF7
:10F0300091425AD0D3F8102C013256D0D3F8102C6C
:10F040004FF47F030260D3F8141C334A91425ED020
:10F05000D3F8142C01325AD0D3F8142C4FF47F0378
:10F060004260D3F8182C12F5947F4DD0D3F8182CA9
:10F07000013249D0D3F8182C4FF47F038260D3F8C3
:10F080001C1C264A91423CD0D3F81C2C013238D0AB
:10F09000D3F81C2C4FF47F03C260D3F8002C7032DD
:10F0A0002DD0D3F8002C013229D0D3F8002C4FF406
:10F0B0007F030261D3F8042CAF321ED0D3F8042CA6
:10F0C00001321AD0D3F8042C4FF47F034261D3F8F5
:10F0D000081C134A91420BD0D3F8082C013207D0F8
:10F0E000D3F8083C83610020704740F6FC02A7E794
:10F0F00040F237338361002070475122E4E79022C9
:10F10000D5E742F60412C5E740F6D862B4E742F20A
:10F11000D002A3E7FCF8FFFFD020FFFF0429FFFF88
:10F1200037F3FFFFA8B32DE9F0414C1EB4F5047F7F
:10F130002CD25BB352B34FF0000CC900E6466546D3
:10F1400064464F1E03F1FF380CE0AB4216D08E45EB
:10F1500001D10CF1010CA84516D00134BC4205F1D7
:10F16000010518D8610950F8211004F01F06F1407C
:10F170001F2E18BF01F00101002CE6D10025A84583
:10F180008E464FF0010CE8D16245E6D20348BDE857
:10F19000F081024870470020BDE8F081370CF10093
:10F1A0002DE9F04F8FB00D46DDE919418346002966
:10F1B00057D12969039100211C60189B1960002A0E
:10F1C00000F02281814A824B11686A6A1B689A4268
:10F1D00057D10A2955D19BF803300693039904238C
:10F1E00008467C4A0293A2FB00029208CB0002EB85
:10F1F000420204F10800A1EB4202013BDFF8D0918A
:10F20000DFF800A2049000920593189B039C1C60F9
:10F21000002C00F0CC800026049F00F0A9FA002307
:10F220000793069BBBF1000F3AD0002D34D053BB9F
:10F230005B000693BBF1000F36D0002D34D0E3B154
:10F2400006A9284600F084FA002800F07D81624B70
:10F25000984212D0009000F08BFA00980FB0BDE8F1
:10F26000F08F4FF47F01D1F80C0C01300CBF4FF43C
:10F270000471D1F80C1C03919DE72B6A73B95648B1
:10F28000E8E75648E6E706A9284600F061FA68B1C3
:10F29000534B9842DED0069B082BC9D15148D9E781
:10F2A000082BFBD05B0006934F48D3E7294606980E
:10F2B00000F030FA0028EBD1069B082B00F00E81FD
:10F2C000042B00F03181A3F10203B3FA83F35B094D
:10F2D000019301231946454A136042F8843C434B8D
:10F2E00019606B6AC9F80030D9F800206B6A9A423D
:10F2F000F5D14FF000084FF0FF30CAF80080FFF75B
:10F300003BFC3B4A3B4B40461A60FFF743FC0A225A
:10F31000019839492D4B08601A602A69A8F15538BF
:10F32000A8FB02126B6A120903EB4303DB0303FB26
:10F3300002F3324A9B0913600123CAF80030069990
:10F34000DBF800200B0243EA016322F07F42134303
:10F35000CBF8003007A800F0CDF9002898D1284B51
:10F36000A8FB04281A681433089253F8102CB6EB43
:10F37000980F099253F80C2C0A9253F8082C0B9210
:10F3800053F8042C0C921B680D9301D1009B9BB980
:10F390003846182208A9FFF721FB183C1837013618
:10F3A000002C7FF43AAF049B002B40F09A8000239E
:10F3B000189A1360069B6FE71A46384608A9E41AA4
:10F3C000FFF70CFB009B1F44E9E700BF3811845096
:10F3D00030118450ABAAAAAA310CF100300CF10014
:10F3E000020CF100320CF100350CF100C411845014
:10F3F000FEFFFF0F001184500C118450D81184506F
:10F40000141184502C118450BBF1000F3FF44CAF09
:10F41000002D3FF449AF01230EA941F8203DCBF860
:10F420000020284600F094F900287FF413AF294605
:10F43000069800F06FF900287FF40CAF069F082FA4
:10F4400000F0EB80042F00F0EA80A7F10207B7FA82
:10F4500087F77F0901221646734B74491A601846D4
:10F460000A60943B06606A6A1A6019686A6A914287
:10F47000F8D14FF000086E4B4FF0FF30C3F800801A
:10F48000FFF77AFB6B4B6C4A40461A60FFF782FB32
:10F490000A226A496A4B0F601A601A992B6901297E
:10F4A0006A6A00F0B1806749A1FB03131B090121BF
:10F4B00002EB4202D20303FB02F3634A9B0913608F
:10F4C0005B4B19600699DBF800200B0243EA0163ED
:10F4D00022F07F421343CBF800307FE603230193F1
:10F4E000F7E6039BB3F5047F3FF661AFDDE9047CEB
:10F4F000204623466E6904E001200133634514462B
:10F5000015D85A0957F8222003F01F01CA401F29B5
:10F5100018BF02F00102002BEED0A242ECD1013064
:10F520008642EAD149480BE002230193D1E64FF429
:10F530008063DDE90310AA69FFF7F4FD00285DD0C0
:10F540000023189A1360A3E62946069800F0E2F813
:10F5500000287FF47CAE069C082C51D0042C51D09E
:10F56000A4F10204B4FA84F4640901231E46194686
:10F570002D4A136042F8843C2B4B19606B6AC9F822
:10F580000030D9F800206B6A9A42F5D100274FF07D
:10F59000FF30CAF80070FFF7EFFA264B264A3846CC
:10F5A0001A60FFF7F7FA0A222449254B0C601A600B
:10F5B0002A6924496B6AA1FB021203EB4303120977
:10F5C000DB0303FB02F3204A9B091360CAF80060C7
:10F5D000069BDBF800101A0242EA036321F07F4227
:10F5E0001A43130A03F47F03134323F07F43CBF83A
:10F5F0000030029B013B02937FF407AE002029E616
:10F600000324B2E70224B0E74FF47F03D3F80C1CC5
:10F61000013106D0D3F80C3C45E703271AE702274F
:10F6200018E7162343E700BFC411845040118450EB
:10F630002C11845000118450FEFFFF0F0C118450D8
:10F6400038118450ABAAAAAAD8118450360CF10004
:10F650002DE9F0431B4C85B00746DDE90D56884681
:10F6600020684FF0FF319146FFF71EFA28BB0020BB
:10F67000FFF74AFAE8B90023CDE9005602934A465B
:10F68000414638460C9BFFF78BFD05460120FFF7EE
:10F690003BFA50B92068FFF70FFA10B10A48FFF79C
:10F6A0008DFB284605B0BDE8F0830848FFF786FBD0
:10F6B000F0E70748FFF782FBDDE70648FFF77EFB30
:10F6C000D5E700BF241400202008010058080100DD
:10F6D000380801000808010010B5012486B005AB08
:10F6E000CDE901240093002204ABFFF759FD06B0D9
:10F6F00010BD00BF08B501464FF48060FFF750FA17
:10F7000000230249024A0B60136008BDC8118450EF
:10F710002C1184500138072815D8DFE800F0100CB0
:10F72000140814141404CB6800204B6270478B68D3
:10F7300000204B6270474B6800204B6270470B689B
:10F7400000204B6270470148704700BF310CF10048
:10F750000B6802E0082B0B6006D8026A13424FEADE
:10F760004303F7D00020704700487047310CF10088
:10F7700000230449044A0B604FF480601360FFF7D4
:10F78000FBB900BF2C118450C411845008B5FDF79B
:10F79000D5FABDE80840FDF765BA40E800F313F478
:10F7A000803FD8B208BF6FF015007047FF232DE9E6
:10F7B000F04F4668C372324600234FF00C090789A8
:10F7C000016806FB07FC90F80A806144984505DC57
:10F7D000002319468F4220DCBDE8F08FBCFBF2F518
:10F7E00009FB03FED0F80CA0202D0AEB0E0404F157
:10F7F000040BC4E901BB05D8C372920822F00302CE
:10F800000133E3E715F11F0448BF05F13E0464111D
:10F810004AF80E1001EB8401EFE7C268056802F1B7
:10F82000040CEC1845F803C09568013165609568D3
:10F8300033442C609460CDE7044608B50846114671
:10F840001A46A047FEF748FFFDF748FF0020704723
:10F8500070B50D4604464520A04729465220A047D2
:10F8600029462346BDE87040522018472DE9F04F45
:10F870004FF0000806460F464FF0FF3AC1468BB0E6
:10F880001C46531E0293002505E06DB9252800F0A3
:10F890004F813946B047029B13F8010F02930028AD
:10F8A000F3D10BB0BDE8F08F64286ED01AD8392898
:10F8B0000AD8312860D22D2800F0408130284CD061
:10F8C000252807D139460BE0582800F0BB80632873
:10F8D00000F02A8139462520B0473946029B187826
:10F8E000B047D0E7702800F0A38011D869284CD029
:10F8F0006C2805D1B8F16C0F2AD14FF04C08CAE73B
:10F900006828E7D1B8F1680F22D14FF04808C2E764
:10F91000752871D018D87328DCD154F8045BAB4635
:10F920005B461BF8010B002840F0FB80B9F1030F88
:10F9300040F00A815D1BAAEB0505002DA3DD3946C9
:10F940002020B047013DF8E778287BD07A28C1D144
:10F95000B8F1000FBED180469DE7BAF1000F0EDA74
:10F96000B9F1000F00F0ED80A0F1300AB9F1000FFD
:10F9700008BF4FF002098EE7BAF1000FF4DB0A234B
:10F9800003FB0A0AAAF1300AF0E7B8F17A0F02D1B4
:10F9900054F8045B1FE0B8F16C0FF9D0B8F14C0FCC
:10F9A000F6D1073424F00704F4E8022312F10041F1
:10F9B000069143F1000107910021DDE906BC4FF0FB
:10F9C000FF30614508BF584504D239463046FFF73D
:10F9D0003FFF58E71546002D05DA39462D20B04780
:10F9E0006D420AF1FF3A4B462A46CDF800A039464F
:10F9F0003046FCF777FF46E7B8F17A0F02D154F8AA
:10FA0000042B11E0B8F16C0FF9D0B8F14C0FF6D11E
:10FA100000214FF0FF30073424F00704F4E80223FC
:10FA2000994208BF9042D0D3CDF800A04B46DEE704
:10FA300039463020B04739467820B0474FF0080AA1
:10FA40004FF00109029B1B78702B04D154F8043B42
:10FA5000049300230DE0B8F16C0FF7D0B8F14C0F10
:10FA6000F4D1073424F007031C4654F8082B5B68D4
:10FA70000492002110224FF0400B03910591ABF14D
:10FA8000040B0498CBF1200CABF1200120FA0BF011
:10FA900003FA0CFC40EA0C0023FA01F1084310F0D1
:10FAA0000F0006D1059911B9BBF1000F22D1302109
:10FAB00003E009288CBF57213021084440B2394661
:10FAC00008930592B047039B059A01330393089B63
:10FAD000BBF1000F23D1B9F1030F7FF4D4AE039B28
:10FAE000C3EB4A05002D7FF7CEAE39462020B04744
:10FAF000013DF7E7511E9245089107DBB9F1010F6F
:10FB000006D1394630200993B047099B089AB6E7D9
:10FB1000B9F1020FFAD1099339462020F4E705958F
:10FB2000ADE73946B047FBE6394654F8040BD7E653
:10FB3000A846A9464FF0FF3A0125ACE64FF003096D
:10FB4000A9E64FF00109A6E60546A4E60FB407B5FD
:10FB500004A951F8040B0191FCF716FF03B05DF8FE
:10FB600004EB04B070477047FEF78EB883685A7A8A
:10FB700032B993F908000028CCBF0020012070475B
:10FB800002207047026870B5956884684FF02003C2
:10FB9000EFF3118683F31188BFF36F8F237A013B54
:10FBA0005BB2002B237218D1C4E900336B6883B9B0
:10FBB0000122EB7A03F150231A6000222B8903F112
:10FBC00050231A600020607286F31188BFF36F8F94
:10FBD00070BD98470028EBD1F4E74FF00000BCBFA0
:10FBE00020726FF04400EFE7F8B50368064614464C
:10FBF0009F6885684FF02003EFF3118283F311882B
:10FC0000BFF36F8F2B7A01335BB22B7282F31188B3
:10FC1000BFF36F8F6A7A32B10CB90020F8BDD4E916
:10FC200001319847F9E7012B06D13B6833B901222E
:10FC3000BB7A03F150231A604CB9EEE798470028CD
:10FC4000F5D1002CE9D0D4E90131304698472B6832
:10FC50009C420DD013B11B68002BF9D1002020600D
:10FC60006B6813B9C5E90044D7E71C606C60D5E741
:10FC70006FF04400D2E70022FFF7B6BF8368002090
:10FC8000C3E90000704710B5002204460121052099
:10FC9000FDF74EFB0520FDF73BFB4FF05023022202
:10FCA000C3F8182503220020C3F80423A368C3E97E
:10FCB000000010BD38B58468054623682BB1616823
:10FCC0001A688B42226008BF62600122627203B927
:10FCD00038BDD3E90121284690472368002BF7D08F
:10FCE00061681A688B42226008BF6260EFE7704764
:10FCF0007047002307B501A88DF80430FEF76EFFAA
:10FD000003B05DF804FB902908B5134639D10A46C3
:10FD100001460020FEF76EFFBDE8084071467246BE
:10FD20007346B7EE000AF7EE000AB7EE001AF7EED8
:10FD3000001AB7EE002AF7EE002AB7EE003AF7EE07
:10FD4000003AB7EE004AF7EE004AB7EE005AF7EE77
:10FD5000005AB7EE006AF7EE006AB7EE007AF7EEE7
:10FD6000007A8EF3008C10B4F1EE10CA4FF6607476
:10FD7000C0F6FF740CEA040CE1EE10CA10BCF446A5
:10FD800074476FF01500C7E7FEE7FDF743BB43B2CA
:10FD9000A9B1002B12DB01215B099B0003F1604339
:10FDA00003F56143D3F8802200F01F0001FA00F050
:10FDB00022EA0002C3F88022D3F880327047002B79
:10FDC000FCDB01225B099B0003F1604303F5614307
:10FDD000D3F8801200F01F0002FA00F00843C3F8C5
:10FDE0008002E9E700F0F9B80146006800F0F5B8D4
:10FDF00008B5FDF721FBBDE80840FDF727BA07B5B8
:10FE0000002101A8FDF702FE03B05DF804FB30B548
:10FE10000B6885B04C689DF808200D89013C009363
:10FE2000498923F01F03234465F3040261F3471259
:10FE300023F01F030F288DF808200393044605D8EC
:10FE40006946FDF79BFC204605B030BD6FF01504F8
:10FE5000F9E70138013910F8013F11F8012F9342F9
:10FE600001D1002BF7D1981A7047431A934210B56D
:10FE700000EB020308D3024601399A420BD011F875
:10FE8000014F02F8014BF8E70A4412F8014D8A428B
:10FE900003F8014DF9D110BDF0B581EA0004A507C2
:10FEA00003460BD0013B0A4491421AD1F0BD002A0F
:10FEB000FCD011F8014B013A03F8014B9C07F6D135
:10FEC0009508AC001E1F0F19B94205D16FF003064B
:10FED000234406FB0522E5E751F804CB46F804CF9E
:10FEE000F2E711F8014B03F8014FDDE7034670B567
:10FEF000C9B29C0710D141EA012444EA04459408A0
:10FF000003EB8406B3420DD16FF0030505FB042417
:10FF10001C44A34209D170BD002AFCD003F8011B88
:10FF2000013AE6E743F8045BECE703F8011BF0E76E
:10FF30004FF0FF3070470B46826892E8030083E879
:10FF400003000020704703689B681B68D3F82401F6
:10FF500018B1D3F88004C3F880047047036882683E
:10FF60009B681B68D3F8100138B1127A00200A7020
:10FF70000122C3F810011A6070474FF0FF3070473C
:10FF80000022036882B09B688DF807101B68C3F8D5
:10FF900020210DF10702C3F844250122C3F84825AA
:10FFA0009A60D3F820110029FBD0DA6002B07047C4
:10FFB00008B5FDF7B5F8FDF733F9BDE80840FEF7E1
:10FFC000D1BE4FF02002EFF3118382F31188BFF30B
:10FFD0006F8FFEE708B5FFF7F4FF70B505460E46D4
:10FFE000FEF77AFB314604462846FFF7F3FF20462A
:10FFF000BDE87040FDF772BBFFF77ABE30B5002454
:020000040001F9
:10000000C0E90232C0E905440161A34202D1C0E95E
:10001000000030BD456901340D6041611144F4E7D1
:100020000023C0E90000C0E902337047437BDB06D0
:1000300003BF8069B0FA80F040090020704738B5EE
:1000400004464FF02003EFF3118583F31188BFF3CB
:100050006F8F01468068FEF777F9637B23F0020318
:10006000637385F31188BFF36F8F0023A36038BDDE
:1000700008B539B9FEF700F920B1BDE808400846D7
:10008000FDF7F2B881F31188BFF36F8F08BD08B593
:10009000024638B9FEF7F0F820B1BDE80840104636
:1000A000FDF7E2B882F31188BFF36F8F08BD4FF000
:1000B0002003EFF3118083F31188BFF36F8FFFF7F5
:1000C000E6BF0368984214BF18460020704750F8F6
:1000D000103C70B50446A0F11805CBB14FF02003D9
:1000E000EFF3118683F31188BFF36F8F294650F821
:1000F000100CFEF729F914F80B3C23F0020304F866
:100100000B3C86F31188BFF36F8F002344F8103C3B
:1001100014F80B3C284623F0140304F80B3CFFF7BB
:1001200085FF20B12846BDE87040FEF75DB970BD7F
:1001300038B54FF02003EFF3118283F31188BFF33A
:100140006F8FFFF7BEFF044682F31188BFF36F8FF6
:10015000C8B14FF02003EFF3118583F31188BFF38B
:100160006F8F01468068FEF7EFF8637B23F0020390
:10017000637385F31188BFF36F8F002304F11800B8
:10018000A36000F032F8204638BD437BDB0603BF96
:100190008069B0FA80F0400900207047036D10B507
:1001A000044603B198472046FFF7EFFF38B12046D9
:1001B000FEF7C8F9637B43F00803637310BD637BEC
:1001C0009B0702D52046FFF73AFFA369002BF1D029
:1001D00004F1180000F009F8ECE703730023427300
:1001E0008173C373C0E90633704710B54FF0200226
:1001F000EFF3118482F31188BFF36F8F03683BB173
:10020000FEF710FB002084F31188BFF36F8F10BD41
:100210006FF01500F7E710B54FF02003EFF31184EE
:1002200083F31188BFF36F8FFEF710FB84F31188FF
:10023000BFF36F8F10BD70B504460E464FF020031C
:10024000EFF3118583F31188BFF36F8FFEF7FEFA8A
:10025000012805DDA04203DD31462046FCF76CFC99
:1002600085F31188BFF36F8F70BD704754C2FF7F55
:1002700001000000000000008BFD000000000000F5
:100280008BFD0000000000008BFD0000000000005E
:100290008BFD0000000000008BFD0000000000004E
:1002A00029CA0000000000008BFD000000000000D3
:1002B0008BFD0000000000008BFD0000000000002E
:1002C0008BFD0000000000008BFD0000000000001E
:1002D0008BFD0000000000008BFD0000000000000E
:1002E0008BFD0000000000008BFD000000000000FE
:1002F0008BFD0000000000008BFD000000000000EE
:100300008BFD0000000000008BFD000000000000DD
:100310008BFD0000000000008BFD000000000000CD
:1003200081CA0000000000008BFD000000000000FA
:100330008BFD0000000000008BFD000000000000AD
:100340008BFD0000000000008BFD0000000000009D
:100350008BFD0000000000008BFD0000000000008D
:100360008BFD0000000000008BFD0000000000007D
:100370008BFD0000000000008BFD0000000000006D
:100380008BFD0000000000008BFD0000000000005D
:100390008BFD0000000000008BFD0000000000004D
:1003A0008BFD0000000000008BFD0000000000003D
:1003B0008BFD0000000000008BFD0000000000002D
:1003C0008BFD0000000000008BFD0000000000001D
:1003D0008BFD0000000000008BFD0000000000000D
:1003E0008BFD0000000000008BFD000000000000FD
:1003F0008BFD0000000000008BFD000000000000ED
:100400008BFD0000000000008BFD000000000000DC
:100410008BFD0000000000008BFD000000000000CC
:100420008BFD0000000000008BFD000000000000BC
:100430008BFD0000000000008BFD000000000000AC
:100440008BFD0000000000008BFD0000000000009C
:100450008BFD0000000000008BFD0000000000008C
:100460008BFD0000000000008BFD0000000000007C
:100470008BFD0000000000008BFD0000B4080100AF
:10048000A5C9000000000000B40801000DCA00006A
:10049000000000008E0801007DFC000048050100FE
:1004A0009808010087FC00003C050100A20801003B
:1004B000C1CA000000000000B408010005D9000016
:1004C0000000000087080100D1DB00006807010080
:1004D000AB0B0100B1FF000000000000B4080100F8
:1004E00029E0000000000000B4080100B5E90000A8
:1004F00000000000DEE61E284CBBCE8F015B000032
:10050000020000000805010000000000780801005A
:1005100006000000E0FF0F0000000020800801003E
:1005200021000000E0FF002077FC000085FB0000B8
:10053000E9FB0000000000006DFB0000000000006F
:1005400000000000000100040000000000000000A6
:100550000401080C1701000017010000170100003A
:10056000070100000701000007010000070100006B
:10057000070100000701000007010000070100005B
:10058000070100000701000007010000070100004B
:10059000070100000701000007010000070100003B
:1005A000070100000701000007010000070100002B
:1005B000070100000701000007010000070100001B
:1005C000070100000701000007010000070100000B
:1005D00007010000650A0100420100006C0A0100E9
:1005E00005010000760A0100150100007F0A0100E4
:1005F00039010000880A010009010000930A010086
:100600000A0000009E0A01000A010000A80A010079
:100610000B010000B20A01000F010000BD0A010039
:1006200010010000C80A010011010000D30A0100F6
:100630000E010000DD0A010021010000E60A0100B0
:1006400022010000EF0A010023010000F80A010066
:1006500024010000010B010018000000090B01003B
:100660002A010000110B01003A010000190B0100E2
:100670002C010000210B01001C0100002A0B0100CD
:100680001D010000330B0100170100003D0B0100AC
:1006900031010000490B01000400000017010000B7
:1006A00017010000170100001701000017010000EA
:1006B00017010000170100001701000007010000EA
:1006C000070100000701000007010000070100000A
:1006D00007010000070100000701000007010000FA
:1006E00007010000070100000701000007010000EA
:1006F00007010000070100000701000007010000DA
:1007000007010000070100000701000007010000C9
:1007100007010000070100000701000000020000BF
:1007200000040000000800000000000089FD000037
:100730008DD100004DD10000F1D100002DD100007D
:10074000F0130020D8130020E81300200000000060
:10075000E01300205DFF000081FF000047FF000064
:1007600059DA000037FF000000800050010000004F
:1007700054140020B4140020C0140020CC14002015
:10078000CC140020F5FFFFFF436F756C64206E6F83
:1007900074206C6F636B20706F7765722073617665
:1007A00065206D7574657800FF8FFFFFFF8FFFFF79
:1007B000FE8FFFFFFE8FFFFFFD8FFFFFFC8FFFFF10
:1007C000FC8FFFFF43616E277420696E6974696155
:1007D0006C697A65206D757465782C20776173205B
:1007E0004E554C4C0D0A000043616E277420756E07
:1007F0006C6F636B206D757465782C207761732046
:100800004E554C4C0D0A00004661696C20746F20F7
:1008100061637175697265206D757465780A000091
:100820004661696C20746F2072656C656173652028
:100830006D757465780A00004661696C20746F20DC
:10084000696E63726561736520504D20636F756ECC
:100850007465720A000000004661696C20746F20A4
:10086000646563726561736520504D20636F756EBA
:100870007465720A00000000464C4153485F300026
:100880005352414D5F3000554152545F3000434C4C
:100890004F434B5F33324B00434C4F434B5F31363A
:1008A0004D007379735F636C6F636B0053656375A1
:1008B00072650909004E6F6E2D5365637572650987
:1008C000004E6F6E2D53656375726500466C6173E3
:1008D0006820726567696F6E0909446F6D61696EA2
:1008E00009095065726D697373696F6E730A00252B
:1008F0003032752030782530357820307825303505
:10090000782009002563004E6F6E2D736563757244
:10091000652063616C6C61626C6520726567696FEC
:100920006E203020706C6163656420696E20666C97
:1009300061736820726567696F6E2025642077692E
:1009400074682073697A652025642E0A00436F75E8
:100950006C64206E6F7420696E697469616C697A69
:10096000652073656375726520736572766963656A
:10097000732028657272202564292E0A0053524183
:100980004D20726567696F6E0909446F6D61696E0C
:1009900009095065726D697373696F6E730A00257A
:1009A0003032752030782530357820307825303554
:1009B0007809005065726970686572616C09094454
:1009C0006F6D61696E09095374617475730A00254E
:1009D00030327520252D32317325730009534B4970
:1009E000500A00094552524F520A00094F4B0A0063
:1009F00053504D3A204E5320696D616765206174F4
:100A000020307825780A0053504D3A204E53204D1F
:100A1000535020617420307825780A0053504D3AA5
:100A2000204E5320726573657420766563746F720F
:100A300020617420307825780A0053504D3A207098
:100A400072657061726520746F206A756D702074B4
:100A50006F204E6F6E2D53656375726520696D61F1
:100A600067652E0A004E52465F5030004E52465F78
:100A7000434C4F434B004E52465F52544331004E5D
:100A800052465F4E564D43004E52465F55415254BA
:100A90004531004E52465F554152544532004E5248
:100AA000465F5457494D32004E52465F5350494DB0
:100AB00033004E52465F54494D455230004E524627
:100AC0005F54494D455231004E52465F54494D45A1
:100AD0005232004E52465F5341414443004E52460B
:100AE0005F50574D30004E52465F50574D31004ECB
:100AF00052465F50574D32004E52465F50574D336D
:100B0000004E52465F574454004E52465F49504390
:100B1000004E52465F564D43004E52465F4650557A
:100B2000004E52465F45475531004E52465F45479D
:100B30005532004E52465F4450504943004E524693
:100B40005F4750494F544531004E52465F5245472A
:100B5000554C41544F5253006D757465785F696E02
:100B600069742063616C6C65642077697468204ED9
:100B7000554C4C20706172616D6574657200436FF5
:100B8000756C64206E6F7420616C6C6F636174654A
:100B9000206D75746578206265666F726520696E78
:100BA000697469616C697A696E670048575F43438D
:100BB0003331305F30002A2A2A2A2A20426F6F748C
:100BC000696E67205A6570687972204F532062758C
:100BD000696C642076322E302E39392D6E63733174
:100BE0002D7263312D31312D6739626539376336A6
:100BF0003333363861202A2A2A2A2A0A006D61698D
:100C00006E0069646C6500004DF80000E01400207F
:100C100001000000F414002001000000081500206D
:100C2000010000001C1500200100000031FF000041
:100C300000C2010000010300000000000090D0038A
:100C40000C1400200C140020441400205014002028
:100C500048140020401400201C1400200000000054
:100C600099ED000001EE0000D9ED00001DEE00003E
:100C7000DDED0000880600207C06002084060020B0
:100C800000000000800600207C040100000000003D
:100C900000000000DC040100000000000000000073
:100CA000E80401000000000000000000B80401009A
:100CB0000000000000000000A00401002805010061
:100CC0000C000020940401002805010018000020F9
:100CD000C404010054070100FC1300208804010033
:100CE0000000000000000000AC0401000000000053
:100CF00000000000D004010000000000000000001F
:100D0000CC140020CC1400200000000000000000E3
:100D10000F000000E0140020E0140020000000009C
:100D2000000000000F000000F4140020F414002064
:100D300000000000000000000F0000000815002067
:100D40000815002000000000000000000F00000057
:100D50001C1500201C1500200000000000000000F1
:100D60000F000000FFFFFFFFFFFFFFFFFFFFFFFF80
:100D7000FFFFFFFFFFFFFFFFFFFFFFFFFFFFFFFF83
:100D80000000000000000000000000000000000063
:100D90000000000000000000000000000000000053
:100DA0000000000000000000000000000000000043
:107FE0007FE97FE9F4F7BEBF7FE97FE9F5F718B8CD
:107FF0007FE97FE9F7F787BE00000000000000007E
:10820000B0E502202D030200B3F80300490102008B
:10821000490102004901020049010200490102002E
:108220004901020049010200490102006DFF0100FD
:108230004901020049010200A9FE0100C9FA01003A
:10824000ED020200ED020200ED020200ED0202006A
:10825000ED020200ED020200ED020200ED0202005A
:10826000ED020200ED020200ED020200ED0202004A
:10827000ED020200ED020200ED020200ED0202003A
:10828000ED020200ED020200ED020200ED0202002A
:10829000ED020200ED020200ED020200ED0202001A
:1082A000ED020200ED020200ED020200ED0202000A
:1082B000A52A02000D090400ED020200ED020200F1
:1082C000ED020200ED020200ED020200ED020200EA
:1082D000ED020200ED020200ED020200ED020200DA
:1082E000ED020200ED0202002F090400ED0202007F
:1082F000ED020200ED020200ED020200ED020200BA
:10830000ED020200ED020200ED020200ED020200A9
:10831000ED020200ED020200ED020200ED02020099
:10832000ED020200ED020200ED020200ED02020089
:10833000ED020200ED020200ED020200ED02020079
:10834000ED0202000000000000000000000000003C
:10835000000000000000000000000000000000001D
:10836000000000000000000000000000000000000D
:1083700000000000000000000000000000000000FD
:1083800000000000000000000000000000000000ED
:1083900000000000000000000000000000000000DD
:1083A00000000000000000000000000000000000CD
:1083B00000000000000000000000000000000000BD
:1083C00000000000000000000000000000000000AD
:1083D000000000000000000000000000000000009D
:1083E000000000000000000000000000000000008D
:1083F000000000000000000000000000000000007D
:10840000DEE61E284CBBCE8F015B00009C2F0300D4
:108410000100000000820100F0F602204D890200F8
:1084200081F0004102E000BF83F0004330B54FEA25
:1084300041044FEA430594EA050F08BF90EA020F92
:108440001FBF54EA000C55EA020C7FEA645C7FEA25
:10845000655C00F0E2804FEA5454D4EB5555B8BF48
:108460006D420CDD2C4480EA020281EA030382EAB9
:10847000000083EA010180EA020281EA0303362D4B
:1084800088BF30BD11F0004F4FEA01314FF4801C1E
:108490004CEA113102D0404261EB410113F0004F30
:1084A0004FEA03334CEA133302D0524263EB4303E7
:1084B00094EA050F00F0A780A4F10104D5F1200E85
:1084C0000DDB02FA0EFC22FA05F2801841F10001E0
:1084D00003FA0EF2801843FA05F359410EE0A5F1B4
:1084E00020050EF1200E012A03FA0EFC28BF4CF0E5
:1084F000020C43FA05F3C01851EBE37101F000459B
:1085000007D54FF0000EDCF1000C7EEB00006EEBA7
:108510000101B1F5801F1BD3B1F5001F0CD3490831
:108520005FEA30004FEA3C0C04F101044FEA445288
:1085300012F5800F80F09A80BCF1004F08BF5FEA0F
:10854000500C50F1000041EB045141EA050130BDEF
:108550005FEA4C0C404141EB010111F4801FA4F192
:108560000104E9D191F0000F04BF01460020B1FAE7
:1085700081F308BF2033A3F10B03B3F120020CDA1F
:108580000C3208DD02F1140CC2F10C0201FA0CF0FD
:1085900021FA02F10CE002F11402D8BFC2F1200C62
:1085A00001FA02F120FA0CFCDCBF41EA0C01904018
:1085B000E41AA2BF01EB0451294330BD6FEA040461
:1085C0001F3C1CDA0C340EDC04F11404C4F120024C
:1085D00020FA04F001FA02F340EA030021FA04F35E
:1085E00045EA030130BDC4F10C04C4F1200220FAB5
:1085F00002F001FA04F340EA0300294630BD21FAF3
:1086000004F0294630BD94F0000F83F4801306BFB8
:1086100081F480110134013D4EE77FEA645C18BFAC
:108620007FEA655C29D094EA050F08BF90EA020F43
:1086300005D054EA000C04BF1946104630BD91EA3B
:10864000030F1EBF0021002030BD5FEA545C05D13E
:108650004000494128BF41F0004130BD14F580047D
:108660003CBF01F5801130BD01F0004545F0FE41F1
:1086700041F470014FF0000030BD7FEA645C1ABF26
:10868000194610467FEA655C1CBF0B46024650EA5D
:10869000013406BF52EA033591EA030F41F4002189
:1086A00030BD00BF90F0000F04BF0021704730B50F
:1086B0004FF4806404F132044FF000054FF00001E4
:1086C00050E700BF90F0000F04BF0021704730B5A5
:1086D0004FF4806404F1320410F0004548BF40427A
:1086E0004FF000013EE700BF42004FEAE2014FEACF
:1086F00031014FEA02701FBF12F07F4393F07F4FAA
:1087000081F06051704732F07F4208BF704793F0AC
:108710007F4F04BF41F40021704730B54FF46074BF
:1087200001F0004521F000411CE700BF50EA0102C2
:1087300008BF704730B54FF000050AE050EA01026B
:1087400008BF704730B511F0004502D5404261EBDB
:1087500041014FF4806404F132045FEA915C3FF41C
:10876000D8AE4FF003025FEADC0C18BF03325FEAB9
:10877000DC0C18BF033202EBDC02C2F1200300FA6A
:1087800003FC20FA02F001FA03FE40EA0E0021FA8F
:1087900002F11444BDE600BF70B54FF0FF0C4CF47D
:1087A000E06C1CEA11541DBF1CEA135594EA0C0F2F
:1087B00095EA0C0F00F0DEF82C4481EA030621EA6A
:1087C0004C5123EA4C5350EA013518BF52EA0335A5
:1087D00041F4801143F4801338D0A0FB02CE4FF057
:1087E0000005E1FB02E506F00042E0FB03E54FF087
:1087F0000006E1FB03569CF0000F18BF4EF0010E7F
:10880000A4F1FF04B6F5007F64F5407404D25FEA7A
:108810004E0E6D4146EB060642EAC62141EA55512D
:108820004FEAC52040EA5E504FEACE2EB4F1FD0C6F
:1088300088BFBCF5E06F1ED8BEF1004F08BF5FEAED
:10884000500E50F1000041EB045170BD06F000469F
:1088500046EA010140EA020081EA0301B4EB5C044C
:10886000C2BFD4EB0C0541EA045170BD41F4801144
:108870004FF0000E013C00F3AB8014F1360FDEBF69
:10888000002001F0004170BDC4F10004203C35DA45
:108890000C341BDC04F11404C4F1200500FA05F3C8
:1088A00020FA04F001FA05F240EA020001F0004269
:1088B00021F0004110EBD37021FA04F642EB0601DF
:1088C0005EEA430E08BF20EAD37070BDC4F10C0409
:1088D000C4F1200500FA04F320FA05F001FA04F2CD
:1088E00040EA020001F0004110EBD37041F10001B9
:1088F0005EEA430E08BF20EAD37070BDC4F12005C4
:1089000000FA05F24EEA020E20FA04F301FA05F22B
:1089100043EA020321FA04F001F0004121FA04F2D3
:1089200020EA020000EBD3705EEA430E08BF20EAA3
:10893000D37070BD94F0000F0FD101F000464000DD
:1089400041EB010111F4801F08BF013CF7D041EA5F
:10895000060195F0000F18BF704703F00046520063
:1089600043EB030313F4801F08BF013DF7D043EA34
:108970000603704794EA0C0F0CEA135518BF95EAEA
:108980000C0F0CD050EA410618BF52EA4306D1D171
:1089900081EA030101F000414FF0000070BD50EA90
:1089A000410606BF1046194652EA430619D094EA1A
:1089B0000C0F02D150EA013613D195EA0C0F05D104
:1089C00052EA03361CBF104619460AD181EA030158
:1089D00001F0004141F0FE4141F470014FF0000010
:1089E00070BD41F0FE4141F4780170BD70B54FF0AB
:1089F000FF0C4CF4E06C1CEA11541DBF1CEA13552B
:108A000094EA0C0F95EA0C0F00F0A7F8A4EB05040C
:108A100081EA030E52EA03354FEA013100F0888003
:108A20004FEA03334FF0805545EA131343EA1263CC
:108A30004FEA022245EA111545EA10654FEA002681
:108A40000EF000419D4208BF964244F1FD0404F53A
:108A5000407402D25B084FEA3202B61A65EB030596
:108A60005B084FEA32024FF480104FF4002CB6EB53
:108A7000020E75EB030E22BFB61A754640EA0C00D3
:108A80005B084FEA3202B6EB020E75EB030E22BF13
:108A9000B61A754640EA5C005B084FEA3202B6EB54
:108AA000020E75EB030E22BFB61A754640EA9C0013
:108AB0005B084FEA3202B6EB020E75EB030E22BFE3
:108AC000B61A754640EADC0055EA060E18D04FEAA1
:108AD000051545EA16754FEA06164FEAC30343EA41
:108AE00052734FEAC2025FEA1C1CC0D111F4801F0E
:108AF0000BD141EA00014FF000004FF0004CB6E707
:108B000011F4801F04BF01430020B4F1FD0C88BFA5
:108B1000BCF5E06F3FF6AFAEB5EB030C04BFB6EBB0
:108B2000020C5FEA500C50F1000041EB045170BDA3
:108B30000EF0004E4EEA113114EB5C04C2BFD4EBD0
:108B40000C0541EA045170BD41F480114FF0000E54
:108B5000013C90E645EA060E8DE60CEA135594EAD0
:108B60000C0F08BF95EA0C0F3FF43BAF94EA0C0FD3
:108B70000AD150EA01347FF434AF95EA0C0F7FF448
:108B800025AF104619462CE795EA0C0F06D152EA9C
:108B900003353FF4FDAE1046194622E750EA410680
:108BA00018BF52EA43067FF4C5AE50EA41047FF491
:108BB0000DAF52EA43057FF4EBAE12E74FF0FF3CF6
:108BC00006E000BF4FF0010C02E000BF4FF0010CC7
:108BD0004DF804CD4FEA410C7FEA6C5C4FEA430C40
:108BE00018BF7FEA6C5C1BD001B050EA410C0CBF8F
:108BF00052EA430C91EA030F02BF90EA020F0020F1
:108C0000704710F1000F91EA030F58BF994208BF57
:108C100090422CBFD8176FEAE37040F00100704714
:108C20004FEA410C7FEA6C5C02D150EA013C07D16B
:108C30004FEA430C7FEA6C5CD6D152EA033CD3D0B6
:108C40005DF8040B704700BF8446104662468C46B0
:108C50001946634600E000BF01B5FFF7B7FF0028E3
:108C600048BF10F1000F01BD4DF808EDFFF7F4FF0C
:108C70000CBF012000205DF808FB00BF4DF808ED97
:108C8000FFF7EAFF34BF012000205DF808FB00BFBA
:108C90004DF808EDFFF7E0FF94BF012000205DF8DC
:108CA00008FB00BF4DF808EDFFF7CEFF94BF012091
:108CB00000205DF808FB00BF4DF808EDFFF7C4FF8A
:108CC00034BF012000205DF808FB00BF4FEA4102DD
:108CD00012F5001215D211D56FF47873B3EB62520E
:108CE00012D94FEAC12343F0004343EA505311F035
:108CF000004F23FA02F018BF404270474FF00000C7
:108D0000704750EA013005D111F0004008BF6FF004
:108D1000004070474FF00000704700BF4A0011D27A
:108D200012F5001211D20DD56FF47873B3EB6252C5
:108D30000ED44FEAC12343F0004343EA505323FAD1
:108D400002F070474FF00000704750EA013002D146
:108D50004FF0FF3070474FF0000070477BB972B999
:108D60000029BEBF00204FF0004106E008BF0028E8
:108D70001CBF6FF000414FF0FF3000F0BBB9ADF108
:108D8000080C6DE904CE002909DB002B1ADB00F08A
:108D90004DF8DDF804E0DDE9022304B070474042FD
:108DA00061EB4101002B1BDB00F040F8DDF804E033
:108DB000DDE9022304B0404261EB4101524263EB22
:108DC00043037047524263EB430300F02FF8DDF892
:108DD00004E0DDE9022304B0404261EB4101704749
:108DE000524263EB430300F021F8DDF804E0DDE9D3
:108DF000022304B0524263EB4303704753B94AB9AC
:108E0000002908BF00281CBF4FF0FF314FF0FF3092
:108E100000F070B9ADF1080C6DE904CE00F006F871
:108E2000DDF804E0DDE9022304B070472DE9F04FDE
:108E3000099E04468946002B40F083808A421546ED
:108E400045D9B2FA82F24AB1C2F1200701FA02F31F
:108E50009540944020FA07F747EA03094FEA154E78
:108E6000230C1FFA85F8B9FBFEFC0EFB1C990CFBCA
:108E700008F143EA094399420AD9EB182CBF0120B3
:108E80000020994202D9002800F01D810CF1FF3C1E
:108E9000591AA3B2B1FBFEF00EFB101100FB08F84B
:108EA00043EA0144A04505D92C1902D2A04500F29D
:108EB0000E810138A4EB080440EA0C4000271EB1E3
:108EC000D4400023C6E900433946BDE8F08F002AAC
:108ED00051D0B2FA82F2002A40F0AF80491B4FEA2B
:108EE000154E1FFA85F80127230CB1FBFEFC0EFB83
:108EF0001C1108FB0CF043EA014398420AD9EB1815
:108F00002CBF01210021984202D9002900F0D7800E
:108F10000CF1FF3C191AA3B2B1FBFEF00EFB1011CD
:108F200008FB00F843EA0144A04505D92C1902D2F8
:108F3000A04500F2C1800138A4EB080440EA0C40CF
:108F4000BDE78B4208D9002E74D00027C6E9000186
:108F500038463946BDE8F08FB3FA83F767B98B42DC
:108F6000C0F0A480824240F2A1803846002EABD0EF
:108F7000C6E90049A8E7FFDEC7F12005BB4002FAB9
:108F800007FC01FA07F4EA4020FA05F8E94000FA84
:108F900007FE1A4348EA04044FEA1248200C1FFA5D
:108FA00082F9B1FBF8FA08FB1A110AFB09FB40EA47
:108FB00001418B450AD951182CBF012300238B4551
:108FC00002D9002B00F088800AF1FF3AA1EB0B01D7
:108FD000A4B2B1FBF8F008FB101100FB09F944EA58
:108FE0000141894504D9511801D289457BD80138FE
:108FF00040EA0A40A1EB0901A0FB0C89494544461F
:109000004B4602D306D1C64504D20138B8EB0C0456
:1090100069EB0203002E5DD0BEEB040261EB03019D
:1090200001FA05F522FA07F3F94000271D43C6E9C6
:10903000005149E73746304646E7C2F120009540E7
:1090400001FA02F721FA00F34FEA154E24FA00F173
:109050001FFA85F894403943B3FBFEF00F0C0EFB6A
:10906000103300FB08FC47EA03439C4507D9EB1883
:109070002CBF012700279C4500D98FB30138A3EBF3
:109080000C0389B2B3FBFEF70EFB173307FB08FC9A
:1090900041EA03418C4504D9691801D28C4525D891
:1090A000013FA1EB0C0147EA00471DE7841A61EB81
:1090B00003030120994659E702382C443CE7ACF100
:1090C000020C2B4426E7ACF1020C2B44E0E60238FC
:1090D0002C44EFE63746F7E6AAF1020A114475E799
:1090E00002382B44CBE70238114481E7023F294480
:1090F000D7E700BF704700BF70B491E87800B2E8CE
