:020000040000FA
:10000000283E02208D280000DD760000BD2800007B
:10001000BD280000BD280000BD280000BD2800004C
:100020000000000000000000000000001D2700008C
:10003000BD28000000000000D52600002576000045
:10004000652800006528000065280000652800007C
:10005000652800006528000065280000652800006C
:10006000652800006528000065280000652800005C
:10007000652800006528000065280000652800004C
:10008000652800006528000065280000652800003C
:10009000652800006528000065280000652800002C
:1000A000652800006528000065280000652800001C
:1000B000652800006528000065280000652800000C
:1000C00065280000652800006528000065280000FC
:1000D00065280000652800006528000065280000EC
:1000E00065280000652800006528000065280000DC
:1000F00065280000652800006528000065280000CC
:1001000065280000652800006528000065280000BB
:1001100065280000652800006528000065280000AB
:10012000652800006528000065280000652800009B
:10013000652800006528000065280000652800008B
:100140006528000053B94AB9002908BF00281CBF20
:100150004FF0FF314FF0FF3000F070B9ADF1080CF7
:100160006DE904CE00F006F8DDF804E0DDE90223D5
:1001700004B070472DE9F04F099E04468946002BD4
:1001800040F083808A42154645D9B2FA82F24AB1DC
:10019000C2F1200701FA02F39540944020FA07F7D4
:1001A00047EA03094FEA154E230C1FFA85F8B9FBFD
:1001B000FEFC0EFB1C990CFB08F143EA0943994233
:1001C0000AD9EB182CBF01200020994202D900283F
:1001D00000F01D810CF1FF3C591AA3B2B1FBFEF0F7
:1001E0000EFB101100FB08F843EA0144A04505D9B5
:1001F0002C1902D2A04500F20E810138A4EB0804AC
:1002000040EA0C4000271EB1D4400023C6E9004359
:100210003946BDE8F08F002A51D0B2FA82F2002AA6
:1002200040F0AF80491B4FEA154E1FFA85F80127B1
:10023000230CB1FBFEFC0EFB1C1108FB0CF043EA87
:10024000014398420AD9EB182CBF012100219842A2
:1002500002D9002900F0D7800CF1FF3C191AA3B293
:10026000B1FBFEF00EFB101108FB00F843EA01445D
:10027000A04505D92C1902D2A04500F2C180013851
:10028000A4EB080440EA0C40BDE78B4208D9002EDD
:1002900074D00027C6E9000138463946BDE8F08F22
:1002A000B3FA83F767B98B42C0F0A480824240F270
:1002B000A1803846002EABD0C6E90049A8E7FFDE92
:1002C000C7F12005BB4002FA07FC01FA07F4EA4037
:1002D00020FA05F8E94000FA07FE1A4348EA040448
:1002E0004FEA1248200C1FFA82F9B1FBF8FA08FB1A
:1002F0001A110AFB09FB40EA01418B450AD9511842
:100300002CBF012300238B4502D9002B00F08880ED
:100310000AF1FF3AA1EB0B01A4B2B1FBF8F008FB24
:10032000101100FB09F944EA0141894504D951182B
:1003300001D289457BD8013840EA0A40A1EB090186
:10034000A0FB0C89494544464B4602D306D1C6451D
:1003500004D20138B8EB0C0469EB0203002E5DD027
:10036000BEEB040261EB030101FA05F522FA07F383
:10037000F94000271D43C6E9005149E7374630469A
:1003800046E7C2F12000954001FA02F721FA00F396
:100390004FEA154E24FA00F11FFA85F894403943CC
:1003A000B3FBFEF00F0C0EFB103300FB08FC47EA1A
:1003B00003439C4507D9EB182CBF012700279C4518
:1003C00000D98FB30138A3EB0C0389B2B3FBFEF75E
:1003D0000EFB173307FB08FC41EA03418C4504D9A7
:1003E000691801D28C4525D8013FA1EB0C0147EAE1
:1003F00000471DE7841A61EB03030120994659E782
:1004000002382C443CE7ACF1020C2B4426E7ACF15B
:10041000020C2B44E0E602382C44EFE63746F7E6C0
:10042000AAF1020A114475E702382B44CBE70238DF
:10043000114481E7023F2944D7E700BF704700BF5E
:1004400030B585B04FF00000032363F302006FF373
:10045000C5003E4B3E4A9B1AC3F3C90363F38F109A
:100460003C4906F09AFE05F0BCFC3B4800F082F8DF
:10047000A8B101A800F0F8FD10B34FF0000001236F
:1004800063F302006FF3C500304B314A9B1AC3F38C
:10049000C90363F38F10314906F07FFEFEE70123A5
:1004A00063F302006FF3C500284B294A9B1AC3F37C
:1004B000C90363F38F10284A294906F06EFEFEE750
:1004C00003254FF0000065F302006FF3C5001F4CD9
:1004D0001F4BE41AC4F3C90464F38F10039A214933
:1004E00006F05BFE4FF0000065F302006FF3C500FD
:1004F00064F38F101C4906F050FE4FF48031002049
:1005000003F088F860B14FF00000012363F30200AC
:100510006FF3C50064F38F10144906F03EFEFEE74A
:1005200001A805F017FC4FF00000012363F302005F
:100530006FF3C500054B064A9B1AC3F3C90363F367
:100540008F100B4906F029FEFEE700BF0085000072
:10055000F8840000788500008C850000BC850000D0
:10056000A0850000DC8500000886000028860000C9
:100570005886000008B5054B1B6813B1034B18687B
:1005800008BD03F00DFB014B1860F7E75002022095
:1005900010B900200860704708B502464FF000000F
:1005A000012363F302006FF3C500074B07495B1A91
:1005B000C3F3C90363F38F100023054906F0EDFD73
:1005C0006FF0150008BD00BF00850000F884000032
:1005D000788600002DE9F0439FB015469946269F86
:1005E000DDF89C80299C01F095F81C4B0122C3F892
:1005F000002501A804F0E8FA14B12A9B002B06DCC0
:100600002B89EE6833446E891E44002513E01A4698
:10061000214601A806F05CF9F2E723463A4629464E
:10062000484606F0A4FE0346A0B92246394601A872
:1006300006F04EF92544B54204D2741B4445ECD96A
:100640004446EAE7289901A804F030FB0023034A56
:10065000C2F8003518461FB0BDE8F0830000845092
:10066000F0B5A7B020292DD80E4607460024174B19
:100670001B68A34221DD01F04DF8154D0123C5F89B
:10068000003509A804F0A0FA124B03EBC40252682B
:10069000126853F8341009A806F01AF901A909A83C
:1006A00004F004FB0023C5F800353246394601A8A2
:1006B00007F07CF818B10134D9E74FF0FF34204639
:1006C00027B0F0BD4FF0FF34F9E700BF9C86000073
:1006D00000008450A08600002DE9F041B6B0174616
:1006E0001D463F9C04943E9C039406AC02943D9CA2
:1006F00001943C9C0094FFF76DFF0646002840F0F3
:100700008180409B23B1202206A9184607F066F895
:10071000002300934FF6FF732A4639462EA805F0B2
:1007200061FB064600286DD1074680464FF0FF3436
:100730001DE04FF0FF341AE04FF0FF3417E04FF0A8
:10074000FF34012713E0BDF8D230202B5ED10EAA72
:100750003599284606F00BFE00285AD120220EA912
:1007600006A807F023F8002855D14FF0010834AB54
:100770000DF1D20235A92EA805F099FB00283FDB28
:1007800037DCBDF8D030102BDDD0012B20D0222B50
:10079000EDD1002CCDDB284B1B68A342CCDDBDF88E
:1007A000D230802B3FD80EAA3599284606F0DFFDBF
:1007B00000283BD1E4B20094BDF8D2300EAA20212B
:1007C00006A800F093F80028B9D04FF0FF34CEE728
:1007D000BDF8D230202B21D80EAA3599284606F034
:1007E000C6FDF0B99DF8D2100EA8FFF739FF0446F8
:1007F000BDE7B8F1000F1CD027B94FF0FF3601E07C
:100800004FF0FF36304636B0BDE8F0814FF0FF368E
:10081000F8E70646F6E74FF0FF36F3E74FF0FF360E
:10082000F0E70646EEE74FF0FF36EBE74FF0FF3616
:10083000E8E74FF0FF36E5E79C86000030B589B069
:100840000546302307AA05F0CEFF002837D12C68D3
:10085000079B1C4401AB04AA2146284605F0EDFF86
:1008600080BB059B072B24D107221E49069806F062
:100870009DFFF0B9029B082B1ED108221A4903984C
:1008800006F094FFC0B907AA2146284605F0BEFF2E
:100890000146D0B92B68079A9818A04218D1412A6E
:1008A00019D11A78042A19D101332B60084609B0EE
:1008B00030BD6FF00201F9E76FF00301F6E74FF08A
:1008C000FF31F3E76FF00101F0E76FF00501EDE7AD
:1008D0006FF00601EAE76FF00701E7E76FF0080144
:1008E000E4E700BFA8860000B0860000F0B593B032
:1008F00007460D4614461E469DF86010154B53F8EA
:100900003120119203EBC1035B681968114411A8EF
:10091000FFF794FF90B9A219214601A805F052FBF8
:1009200078B9202D10D12B4601AA1199384600F034
:100930000DFF034658B9184613B0F0BD4FF0FF3312
:10094000F9E74FF0FF33F6E74FF0FF33F3E76FF0CF
:100950000103F0E7A086000008B51022034906F065
:1009600025FF08B1022008BD0120FCE7BC8600007D
:1009700070B586B00E460024ADF8044003238DF810
:10098000043007E0306806F0F1FC23E0306806F040
:10099000EDFC0134012C1BD8314606AB234413F87F
:1009A000140C01F035FB0546A0B9306881681023AE
:1009B00002AA103906F0DBFC05460028E2D110221D
:1009C000064902A806F0F2FE05460028DED101E045
:1009D0004FF0FF35284606B070BD00BFBC86000052
:1009E00008B581681023054A103906F0DFFC03467C
:1009F00008B9184608BD0123FBE700BFBC8600000C
:100A000030B585B002A9032005F0E0FB00286DD1C8
:100A10006946072005F0DAFB002869D1002407E0C9
:100A20002B79042B28D09DF80A20934224D001343E
:100A3000022C47D804EB44035B002E4AD5189DF8DE
:100A40000810D05C05F02FFB0028F0D09DF80010B6
:100A5000687805F028FB0028E9D0AB78042B03D098
:100A60009DF80B209342E2D1EB78042BD8D09DF86F
:100A700003209342DBD1D3E74FF00000032363F35D
:100A800002006FF3C5001C4B1C4A9B1AC3F3C90339
:100A900063F38F106B79022B07D0032B10D0042B3C
:100AA00001D0174A02E0174A00E0174A174906F03A
:100AB00074FB6879831EDBB2022B15D9FF2013E08B
:100AC000134AF3E74FF00000032363F302006FF3D0
:100AD000C500094B094A9B1AC3F3C90363F38F107E
:100AE0000C4906F05AFB012005B030BDFF20FBE7A2
:100AF000FF20F9E7CC86000000850000F8840000A4
:100B0000F086000004870000E08600000C870000EB
:100B1000E88600001C87000002680F4B9A420ED145
:100B2000C2680389D84382420DD810B4D41801207A
:100B300010B18B68A34204D95DF8044B70470020C4
:100B400070470020F8E7002010B18B68A34200D95D
:100B500070470020704700BF3DB8F39600B587B0DE
:100B600000200490039002904FF480730193074B90
:100B7000009313460A460146FFF7AEFD034618B937
:100B8000184607B05DF804FB0323F9E7B40E022012
:100B90002DE9F04182B005460C461746002005F0CD
:100BA000FEF801A9C0B201F033FA28B14FF0FF35C9
:100BB000284602B0BDE8F0812C2000FB04562146F7
:100BC000284605F0BFFB00B3336913F0100F1CD1AA
:100BD000DDF8048041463046FFF79EFF00BB4CBB6A
:100BE0004FF00000012363F302006FF3C500154BC3
:100BF000154A9B1AC3F3C90363F38F1004BB134A4E
:100C0000134906F0CAFA012501E024B9012501982B
:100C100006F0ACFBCCE70199284605F0A0FCF5E70F
:100C20003B46424631462846FFF798FF05460028D6
:100C3000EDD0D4E701988268002106F0E7FBCFE70A
:100C4000044ADDE700850000F8840000FC8700000E
:100C500004880000F087000030B583B005460C46DC
:100C6000002300930193084605F00CFC30B32A687A
:100C70001F4B9A4216D0EA6A1D4B9A4218D0019B2C
:100C8000009A934200D90093009BA360009A2146EA
:100C9000284600F0ABFC174B1A68002A16DC00202F
:100CA00003B030BD6A460021284605F0F4FAE2E7B9
:100CB00001AA0121284605F0EEFAE0E704F1080157
:100CC000002005F098FAA3680093DFE74FF00000DA
:100CD000022363F302006FF3C500074B07495B1A59
:100CE000C3F3C90363F38F10054906F056FAD6E73C
:100CF0003DB8F396B40F022000850000F884000090
:100D0000C487000038B504460D46FFF7A5FF02462C
:100D1000EB7984F85830033BDBB2012B0CD9EB792B
:100D2000022B13D0042B11D0032B0FD094F8583082
:100D3000FF2B15D0104638BD002005F0B6FC02464A
:100D40000028ECD0FF2384F85830E8E7002005F0B5
:100D500099FC02460028E9D0FF2384F85830E5E7E3
:100D60004FF00000012363F302006FF3C500054B51
:100D7000054A9B1AC3F3C90363F38F10034906F0B6
:100D80000CFAFEE700850000F88400002C870000C4
:100D900038B504460D4605F01EFB68B90022114621
:100DA000204605F02EFBE8B9204600F0D9FA78BBC2
:100DB000012384F8583014E04FF00000022363F35D
:100DC00002006FF3C500474B474A9B1AC3F3C903A0
:100DD00063F38F108022454906F0DFF9012384F880
:100DE000583038BD4FF00000022363F302006FF368
:100DF000C5003C4B3C4A9B1AC3F3C90363F38F10F5
:100E000000223B4906F0C9F9012384F85830E8E78D
:100E1000284605F02DFB2946204605F0FAFBE8B9E7
:100E2000284605F02FFB80F001012A46C9B2204672
:100E300005F0E7FA40BB284605F024FB002839D02E
:100E4000EB79012B43D02A4601212046FFF7A0FE73
:100E5000002843D0052384F85830C2E74FF0000043
:100E6000022363F302006FF3C5001E4B1E4A9B1A58
:100E7000C3F3C90363F38F1000221E4906F08DF9F6
:100E8000012384F85830ACE74FF00000022363F3ED
:100E900002006FF3C500134B134A9B1AC3F3C90337
:100EA00063F38F100022124906F077F9012384F8CA
:100EB000583096E729462046FFF724FF2A460021AE
:100EC000204605F09EFA012384F8583089E7294628
:100ED000204605F0B1FA84F8580082E7EB7984F8EF
:100EE00058307EE700850000F88400003487000059
:100EF000748700009C8700002DE9F84F88469246D1
:100F00001F46DDF828900B9E00250FE023460F4A70
:100F1000E919404606F02BFAA0B923460B4A05EB27
:100F20000901504606F042FA70B92544B54206D28E
:100F3000741BB4F5806FE9D94FF48064E6E70020B4
:100F4000BDE8F88F0120FBE70120F9E7B402022099
:100F5000F0B585B004460E466022002106F062FC22
:100F60003C4B63623C4B236500250CE02946002086
:100F700004F015FF2C2101FB05F120312144C0B202
:100F800001F046F80135012DF0D969462046FFF7FA
:100F9000FFFE94F858308DF80730013B042B33D80E
:100FA000DFE803F00703030329006946204605F044
:100FB0007AFA94F85830FF2B2AD0012B06D06A46D3
:100FC0000021204605F01DFA074690B9002211467F
:100FD0002046FFF7DDFD074660BB10220021684672
:100FE00006F020FC236A5B783371236A5B68B36088
:100FF0003460002529E0002005F057FB0028D8D0F8
:10100000FF2384F85830D4E7FF2384F85830D0E722
:101010004FF00000012363F302006FF3C5000F4B94
:101020000F4A9B1AC3F3C90363F38F100D4906F0EF
:10103000B4F8FEE70327DCE7C5F101032C2202FB2D
:101040000343186A06F092F90135012DF4D93846A8
:1010500005B0F0BDB4060220B40A022000850000ED
:10106000F88400002C87000008B501460148FFF70E
:101070006FFF08BD540202202DE9F04182B088467E
:1010800016461C46536A53F830501A68AD1A013898
:1010900053F83070BF1A2368012B1CD042462946F2
:1010A000089805F058FACDF8048000953B46089A58
:1010B00011463046FFF720FF2146304605F018FA6A
:1010C00023680133236018B10A4A1368013313609F
:1010D00002B0BDE8F0810899304605F040FA22469A
:1010E0000899304605F073FA0999304605F037FA49
:1010F000D4E700BFB40F02202DE9F04383B0884647
:1011000015461C46526A52F830701368FF1A0138AF
:1011100052F83060F61A2A6D52F830101368A1EBBD
:1011200003092379012B05D02379022B1DD003B0AD
:10113000BDE8F083424631460A9805F00CFACDF836
:10114000048000964B460A9A0B992846FFF7D4FE76
:101150002146284605F0CCF9022323710028E3D06C
:10116000114A136801331360DEE7424649460B9883
:1011700005F0F1F9CDF80480CDF800903B460B9ACC
:101180000A992846FFF7B8FE2146284605F0B0F92F
:10119000236801332360012323710028C7D0024A4A
:1011A000136801331360C2E7B40F022070B582B038
:1011B00016461C46002B36D0436A5D686379012BC6
:1011C00011D0022B17D00025002004F0E8FD01A962
:1011D000C0B200F01DFF68B30125019806F0C6F803
:1011E000284602B070BD01BB22681C4B1B689A42A6
:1011F000EAD80025E8E72368012B07D9174A1268C7
:10120000934203D899B900250121DDE7012B01D0D4
:101210000025D9E701B100250129D5D12379022B79
:10122000D2D10021D0E70025CEE70025CCE700256C
:101230002946C9E7202332462946019806F097F847
:10124000054640B9002CC8D03268054B9A42C4D03C
:101250004FF0FF35C1E70125BFE700BF00000220C6
:101260003DB8F3962DE9F04F85B006460D46019244
:101270000146002004F030FF041E62DBD5F85CA0BC
:10128000304604F037FF81464FF0000B01274FF046
:10129000FF3805E0874201D00BF1010B2C460746D1
:1012A000002C13DD651E5FFA8AF101230DF10F0298
:1012B00005FB0191304604F07EFD002843DB012848
:1012C000E8D0B8F1FF3FE9D1A046E7E7BBF1010F55
:1012D0000EDCB8F1FF3F3AD0B8F17F0F1ADC0123E2
:1012E00001994B7108EB03020A600B7100202BE09F
:1012F0004FF00000012363F302006FF3C500154BAC
:10130000154A9B1AC3F3C90363F38F10134905F001
:1013100044FFDEE70223019A5371A8F1800808EB2D
:10132000D8735B1001331360B8F1000F08F00108A7
:10133000B8BFC8F1000808F1010882F80480002055
:1013400002E0072000E0012005B0BDE8F08F00209A
:10135000FAE700BF00850000F8840000C0880000A4
:1013600070B5866A456DAE4202D06B1CB34210D197
:10137000802E21D800231946AB4243D2416ADC00BB
:1013800021444968026D224452688A4227D10133C0
:10139000F2E74FF00000022363F302006FF3C50091
:1013A000284B294A9B1AC3F3C90363F38F102749BB
:1013B00005F0F3FE002024E04FF00000022363F369
:1013C00002006FF3C5001F4B1F4A9B1AC3F3C903EA
:1013D00063F38F101E4905F0E0FE002011E04FF08E
:1013E0000000022363F302006FF3C500154B164A99
:1013F0009B1AC3F3C90363F38F10164905F0CDFEA2
:10140000002070BDAE421AD9426A02EBC3035B688A
:10141000994201D10120F4E74FF00000022363F369
:1014200002006FF3C500074B074A9B1AC3F3C903B9
:1014300063F38F10074905F0B0FE0020E1E70120BB
:10144000DFE700BF00850000F88400002888000066
:101450005C8800008888000010B586B004A90320CD
:1014600004F0B4FE4FF00000032363F302006FF3B7
:10147000C500264B264A9B1AC3F3C90363F38F109A
:101480009DF81030012B2DD0032B29D0214B9DF836
:1014900011209DF812109DF81340029401910092C2
:1014A0001D4A1E4905F079FE9DF81030012B03D12D
:1014B0009DF81230032B17D04FF00000032363F385
:1014C00002006FF3C500114B114A9B1AC3F3C90305
:1014D00063F38F10124905F060FE002006B010BDC6
:1014E000104BD4E7104BD2E74FF0000063F302003B
:1014F0006FF3C500054B064A9B1AC3F3C90363F398
:101500008F100A4905F049FE0220E7E70085000038
:10151000F88400000C890000208900003089000058
:101520008889000018890000108900006C8900007B
:10153000F0B587B04C6804F0FF24244DAC4202D1D2
:101540000C68012C01D007B0F0BD16460C460546CC
:1015500004A9184604F03AFE4FF00000032363F399
:1015600002006FF3C5001A4B1A4A9B1AC3F3C90352
:1015700063F38F109DF81030012B24D0032B20D063
:10158000154B9DF811209DF812109DF813700297CD
:1015900001910092114A124905F0FFFD9DF81030AB
:1015A000032BD0D13146284604F0D9FF304604F051
:1015B00044FEA168304604F059FE3046FFF710FAA9
:1015C000C1E7084BDDE7084BDBE700BF0001000483
:1015D00000850000F88400000C890000B08800003D
:1015E000308900001889000010890000F0B585B02E
:1015F00007460D4600213E4B1960436A5E68314440
:101600003B480368013303609142F8D3284604F055
:1016100039FF70B1F86D04F05AFDBA6A013A00233F
:101620003344984201D9013AFAE7314B1B6893429F
:1016300014D203A9032000F0EBFC02A9072000F05C
:10164000E7FC0723029A29463846FFF771FF6B79BA
:10165000012B17D002236B71012438E04FF00000FA
:10166000022363F302006FF3C500224B224A9B1A48
:10167000C3F3C90363F38F10204905F08EFD0123E6
:10168000EB7132E01A4B1C6800E0013C8CB12A6817
:10169000174B1B689B1A01339C42F6D8029B01939F
:1016A000039B00932B463A4631462046FFF7E4FC65
:1016B000EBE701232B60CDE7029B0193039B009393
:1016C0002B463A4631462046FFF716FD0134084BBB
:1016D0001B68A34203D32B68A342F7D8ECE7039817
:1016E00005F044FE029805F041FE05B0F0BD00BFD4
:1016F0000000022000850000F8840000E08800005F
:1017000008B5034B1B680A460021984708BD00BF77
:101710000400022008B50B4B1B780BB1002008BD5C
:10172000094B0122C3F8002503F0F0FA30B9054B4C
:1017300001221A70044BC3F80005F0E74FF0FF30A8
:10174000EDE700BF1C160220000084502DE9F04197
:10175000ACB007460D4616469846FFF7DBFF094C2E
:101760000123C4F80035CDF800803B4632462946B7
:1017700003A806F059FD0023C4F800352CB0BDE8DD
:10178000F08100BF00008450BFF36F8F72B600235A
:101790000F2B09D803F120010A4A4FF0FF3042F81D
:1017A00021000133DBB2F3E700230F2B09D803F14B
:1017B0006001044A4FF0FF3042F821000133DBB2F0
:1017C000F3E7704700E100E008B50122104B1A6012
:1017D00010494FF0FF33C1F84833C1F8083301F521
:1017E000805104310A600C4AC2F84833C2F8083309
:1017F000A2F550420021C2F80015C2F8083302F5E4
:101800008052C2F80015C2F8083305F07CF808BD14
:101810000440015000400150005001502DE9F04FAC
:1018200089B00546009116461F46DDF848B09DF880
:101830004CA09DF850300193142456EA070317D0AA
:101840004FEAEB795A464B4630463946FEF77AFC6A
:101850001F4B9A5C08AB234403F8182C5A464B469E
:1018600030463946FEF76EFC06460F46013CE4E77B
:10187000142C07D00134159E2644152E08D0153E91
:1018800057460CE0302208AB234403F8182CF2E74B
:101890000026574603E000990198A847013E002E14
:1018A00009DD002FF7D106E008AB2344009913F8B7
:1018B000180CA8470134142CF6D9002E04DD009929
:1018C0000198A847013EF8E709B0BDE8F08F00BFD6
:1018D000FC89000008B50B6801330B60014B1B68E5
:1018E000984708BD08000220014B1860704700BFF0
:1018F0000800022000B583B0002301930B46024686
:1019000001A9034805F064F803B05DF804FB00BFCB
:10191000D51800002DE9F04383B00446084615466B
:10192000238B13F0080F05D103F007060023009363
:10193000019369E0012909D043F02003238385F353
:101940001188BFF36F8F03B0BDE8F08343F010033D
:101950002383F4E7204605F0F4F957E0D4F8149017
:101960004A466946204605F005FA00275AE02369F1
:101970001F680621204605F0BDF94FF0000951E02F
:1019800023695F680421204605F0B4F94FF000098F
:1019900048E023699F680521204605F0ABF94FF028
:1019A00000093FE0002246E0002244E043F0080343
:1019B000238385F31188BFF36F8F002944D1009BE7
:1019C0002BB14B4642466946204605F04CFA17B10A
:1019D00025492046B8474FF02003EFF3118583F3E4
:1019E0001188BFF36F8F238B23F008032383238B8E
:1019F00013F0100F2ED023F0100323830120268B29
:101A000006F0070600289AD00228A3D0002896D016
:101A10000128A3D00328AAD00428B1D00528B8D023
:101A20000027B946238B03F00708B045BAD0A26857
:101A3000002AB9D001221146002AB7D1009A002A03
:101A4000B4D1002FB2D1D2E74A464146204605F034
:101A500059F9B4E713F0200F04D023F020032383B7
:101A60000220CCE70020CAE7916E00004FF0200270
:101A7000EFF3118382F31188BFF36F8F044A0121C2
:101A8000C2F8401583F31188BFF36F8F00207047B1
:101A90000090035030B108B58001034B43F00103BF
:101AA000984708BD704700BF708500002DE9F043DE
:101AB00085B080460F461546114B1B6898478146F6
:101AC000002400E001340F4B0F4A9B1AB4EB231F94
:101AD00013DA0D4800EB041043685B79002BF1D05A
:101AE00003952301084AD3585E68002EEAD000957A
:101AF0003B464A464146B047E4E705B0BDE8F083BF
:101B00000C000220388500002885000008B5044B31
:101B1000044A1A604FF4004000F008FA08BD00BF04
:101B20000C00022093710000054B064A9B1AB1EB92
:101B3000D30F02D252F8310070470020704700BF27
:101B400028850000F884000008B50B4BC31A1B1150
:101B500001334268137143681960436801225A7166
:101B6000064B1B781BB1054B01221A7008BD0448B7
:101B700002F0FCFBF7E700BF288500001D160220DD
:101B8000B801022038B5134BD3E8EF2F511CC3E83E
:101B9000E01F0028F8D1DAB9002405E00422002172
:101BA0002846FFF7D1FF01340B4B0C4A9B1AB4EBCC
:101BB000231F0DDA094D05EB04152B7B002BF2D00A
:101BC0002301064AD3585B69002BE7D09847E5E725
:101BD00038BD00BFB80F02203885000028850000FE
:101BE000104B1B7803B1704710B5FFF7CBFF0024F3
:101BF00000E001340C4B0D4A9B1AB4EB231F0CDAA6
:101C00000A4800EB041043685B79002BF1D02301F4
:101C1000064AD3581B699847EBE7024B01221A701A
:101C200010BD00BF1E160220388500002885000068
:101C30000EB400B582B003AB53F8042B01930146F8
:101C4000044804F0C5FE002002B05DF804EB03B0C8
:101C5000704700BFC3710000F0B585B011F0440FAC
:101C600005D01A4B196831B9002005B0F0BD1849EC
:101C7000FFF7DEFFF9E7174B1D68B2FBF5F5B5FB83
:101C8000F1F4154AA2FB0432D20A4FF4616606FB56
:101C90001246124BA3FB06735B0901FB14544FF46D
:101CA0007A7505FB04F4B4FBF1F707FB114405FB5F
:101CB00004F4B4FBF1F102910197C3EB0314A1000A
:101CC000711A00910649FFF7B3FFCEE7BC0F02205F
:101CD000948A0000C00F0220C5B3A2918988888829
:101CE000A08A000061B108B52AB1064A52F8232043
:101CF00012B9054A00E0044A0449FFF799FF08BDFC
:101D0000704700BF208A0000148A00001C8A00006F
:101D100011F0100F0BD108B511F0200F03D00449BA
:101D2000FFF786FF08BD0349FFF782FFFAE7704718
:101D3000F48C0000C08E00002DE9F04105460F46EE
:101D4000164698460699FFF7E3FF002404E024496D
:101D50002846FFF76DFF01344445F8DB002409E015
:101D60001F492846FFF764FF0BE01E492846FFF78E
:101D70005FFF01340F2C0CDC002C02DD14F0070F88
:101D8000EED0B442F1D23A5D17492846FFF750FF32
:101D9000EFE716492846FFF74BFF002409E01049FA
:101DA0002846FFF745FF0BE011492846FFF740FFA3
:101DB00001340F2C12DC002C02DD14F0070FEED0E2
:101DC000B44206D23A5DA2F120035E2BECD92E225A
:101DD000EAE703492846FFF72BFFE9E7BDE8F08172
:101DE000588A00003C8A0000348A0000408A0000C3
:101DF000448A0000F8B5044616461F4649B9002536
:101E000086B10123079A934013F0100F16D10C4EA0
:101E100009E00C4B079A53F822200B49FFF708FF03
:101E20000546EDE7064E06993846FFF77DFE024669
:101E300031462046FFF7FCFE2844F8BD034EF2E78A
:101E4000488A0000608A0000548A0000508A00001E
:101E500070B584B005461E46C1F3C203C1F38910B4
:101E600011F007040FD1089B32462946104804F0B0
:101E7000AFFD94B9304605F0BEF998B10D4928463A
:101E8000FFF7D6FE0EE00290019300941346012264
:101E90000999284605F0D2F9E5E72246099928462E
:101EA00005F0C0F9284605F0F0F904B070BD00BF98
:101EB000C37100005C8A00002DE9F04784B08046C1
:101EC0001D460C9E0D9C0E9F01F0070AC1F3C20334
:101ED000C1F3891102910193CDF800A013460122AC
:101EE000394605F0ABF981462A460F494046FFF7CF
:101EF0009FFE6CB12546102C28BF102500974B463D
:101F00002A4631464046FFF717FF2E44641BF0E790
:101F100052463946404605F085F9404605F0B5F988
:101F200004B0BDE8F08700BF1C8A0000074B012207
:101F30001A60074B984205D94008044A13685B00B1
:101F40001360F6E7034B1860704700BFC00F022014
:101F500040420F00BC0F022070B506460D4600241B
:101F6000AC4207D2044B1868315D83685B689847C0
:101F70000134F5E7284670BDD80F022008B50348A4
:101F800001F00EFE024B186008BD00BFD48A0000AD
:101F9000D80F022008B5024805F077F908BD00BF48
:101FA000DC8A000000B585B00F20029007980190F0
:101FB000069800900248FFF77FFF05B05DF804FB2C
:101FC000DC8A000000B583B00F20019004980090D7
:101FD0000248FFF73DFF03B05DF804FBDC8A000018
:101FE00010B404460022084B1B68934208DD13011D
:101FF00006490968C818CB5CA34202D00132F2E757
:1020000000205DF8044B7047908B00001000022008
:10201000084B1B683BB110B50C46FFF7E1FF28B138
:102020002060002010BD6FF00C0070476FF00100C1
:10203000F8E700BF1000022000B58BB003AB00939F
:10204000024B05F06CF90BB05DF804FBE372000085
:1020500010B504460A2807D0074B1868E1B2836818
:102060005B689847204610BD034B186883685B681F
:102070000D219847F0E700BFDC0F022010B5044C9B
:10208000204600F0E1FE2046FFF72EFC10BD00BF09
:102090005120000008B5044801F082FD034B186090
:1020A000FFF7ECFF002008BDD48A0000DC0F0220FF
:1020B0000048704730100220034BC01A8010034BB9
:1020C00003FB00F0704700BFF00F0220B76DDBB6D6
:1020D00038B505460C46FFF7EFFF4022014603489E
:1020E00005F045FA01462846A04738BDF400022015
:1020F00030B585B005460C4600230193084B02938A
:102100000391FFF7D9FF402301AA0146054805F0D6
:1021100048FA011E01DB05B030BD2846A047FAE7AA
:10212000ED750000F400022008B510B101280DD0B3
:1021300008BD0021084805F0A0F9836813F0070FD7
:10214000F6D10021044805F000FAF1E70121024828
:1021500005F0FBF9ECE700BFF400022010B54FF0EA
:102160002003EFF3118483F31188BFF36F8F134AB9
:10217000136843F00203136013F0010F08D100232A
:1021800084F31188BFF36F8F9BB905F046FA10BD39
:102190004FF05023D3F80C24D3F80C3412F0010F75
:1021A00001D10023ECE7FFF783FF05F0BBF9012322
:1021B000E6E70021024805F0C8F9E8E740100220F0
:1021C000F400022008B5084BD3E8EF2F22F00201FB
:1021D000C3E8E01F0028F7D112F0010F00D008BDBE
:1021E00005F011FAFBE700BF4010022070B505466C
:1021F00000220121052000F0BFFA052000F09EFA20
:10220000114801F045FB114B984219D105F00EFE23
:102210000024012C12D82146284605F02EF9064646
:102220002146284605F036F9094904F03FFE00280A
:1022300005DB0123B3601C44E4B2EAE7002070BD73
:102240006FF00400FBE700BF292100000000AD0B88
:10225000E88B0000012807D14FF05023D3F81C343D
:1022600003F00303022B64D070B5054605F074FF3C
:1022700020B9304B1B789BB1002300E001231C46A2
:1022800083B14FF02003EFF3118683F31188BFF37E
:102290006F8FA4B94FF050230222C3F808230EE039
:1022A0000123ECE70026F4E70CB3304600F096FA81
:1022B0004FF05023D3F81835DBB2012B1CD04FF070
:1022C0005022D2F8183403F00303D2F8182412F481
:1022D000803F26D10022002AE6D0022B01D0012D1A
:1022E000E2D104B386F31188BFF36F8F70BD212054
:1022F000002102F009F8DBE70F4B1B68002BDED052
:102300000D4B00221A601B684FF050230222C3F8C5
:1023100018250A4B2022C3F88021094B01221A609C
:10232000CDE70122D7E74FF050230222C3F8042360
:10233000DCE77047221602200451005000E100E063
:102340000850005010B504460E4B0121D3E8EF2F82
:10235000C3E8E01F0028F9D11AB1631E012B0CD984
:1023600010BD094805F096F8084900234B60CB6082
:1023700001238B6004F0B6FDEFE72046FFF76AFF0C
:10238000EEE700BF44100220F4000220E00F02201C
:1023900020F07F40014BC3F84005704700500150CA
:1023A000014BD3F84005704700500150024B00220A
:1023B0001A601B68704700BF40510150024B4FF438
:1023C0008032C3F84423704700500150024B4FF451
:1023D0008032C3F80823704700500150024B4FF47D
:1023E0008032C3F80423704700500150014BD3F8EA
:1023F000040570470050015038B5FFF7D7FFFFF7CD
:10240000CFFF054D2C68214605F00EF904442C60E1
:1024100002F084F838BD00BF4810022038B5FFF73D
:10242000E5FF0446FFF7BCFF0546FFF7BFFF204668
:10243000FFF7AEFFFFF7C2FF2146284605F0F4F88C
:10244000012805D0054B4FF40012C3F8802138BD98
:102450000F2005F087FEFFF7A9FFF3E700E100E09A
:1024600038B50F4D0024C5F80845FFF79FFF0D4B09
:102470004FF40012C3F88021FFF7B0FF224601217C
:10248000152000F079F9152000F058F90123064ACB
:1024900013602B600220FFF755FF204638BD00BFB8
:1024A0000050015000E100E00850015038B5B0F193
:1024B000FF3F1ED0441E114B9C4201DC002C1BDD53
:1024C0000E4B9C4200DD0E4CFFF790FF0D4B1D683C
:1024D000294605F0A9F8B0F5000F00D300242044E8
:1024E0000130B0F5000F00D30548284405F0D2F8BC
:1024F00038BD00F50000DDE70024E5E7FEFF7F00C2
:10250000FFFF7F004810022010B54FF02003EFF3CB
:10251000118483F31188BFF36F8FFFF767FF044BBC
:10252000196805F081F884F31188BFF36F8F10BD2F
:102530004810022038B54FF02003EFF3118583F3E4
:102540001188BFF36F8FFFF751FF054B1C682146C1
:1025500005F06AF8204485F31188BFF36F8F38BD0A
:102560004810022008B5024802F080F808BD00BFFC
:10257000008C000038B108B542683AB1006801F03B
:10258000ADFC002008BD6FF4E04070470048F9E75B
:10259000EA8FFFFF08B560B142686AB100684FF08A
:1025A000FF324FF0FF3301F00FFC034630B91846FD
:1025B00008BD6FF4E043FAE7014BF8E7014BF6E79B
:1025C000EA8FFFFFE98FFFFF10B5044668B163682B
:1025D00053B113F0020F0DD02168094801F0CCFB74
:1025E000002323600023636010BD064B5B68064830
:1025F0009847ECE714220021206805F013F9F1E771
:102600004C10022094000220188C000010B50446E3
:1026100058B163680BB9236863B1206805F0A6FC64
:10262000636843F00103636010BD0F4B5B680F48A4
:102630009847EEE74FF0FF324FF0FF3321460C484A
:1026400001F060FB08B923681BB9074B5B680948B8
:10265000984714220021206805F0E4F8636843F0ED
:1026600002036360D9E700BF94000220188C0000C9
:102670004C100220408C000008B54023142204496D
:10268000044805F051FC0449044802F041F808BD33
:10269000681002204C100220708C0000088C000092
:1026A000094A9368986709490968D96708494B68D6
:1026B00043F080534B60002383F31188BFF36F8F87
:1026C0009368D86F704700BFD81502201C8E000099
:1026D00000ED00E00F498A684FF038001044EFF336
:1026E000098C80E8F01F202080F31188BFF36F8FE2
:1026F000094F4FF00066CA698A603E60906F002300
:10270000936780F3118802F1380090E8F01F8CF392
:1027100009887047D815022004ED00E01EF0040F70
:102720000CBFEFF30880EFF30980816911F8021CF8
:102730000229FFD001B504F0CBFF01BD43B2002B4D
:1027400008DB00F01F005B09012202FA00F0024AD8
:1027500042F82300704700BF00E100E04209054B4A
:1027600053F8222000F01F00012303FA00F010406C
:10277000704700BF00E100E0013143B2002B08DBED
:102780004901C9B203F1604303F5614383F80013C3
:10279000704700F00F004901C9B2014B195470474E
:1027A00014ED00E080B504460F4616461D4604F0C1
:1027B00084FF384631462A46044B202583F3098896
:1027C000A04785F31188BFF36F8FFEE7283E0220F4
:1027D000014910220A60704710ED00E072B64940CE
:1027E00081F3118820BF80F3118862B6704700BF63
:1027F00030BFFFF7FDBF00BF08B5174B174A22F0E7
:102800007F029A60BFF34F8FBFF36F8FD3F888209A
:1028100022F47002C3F88820D3F8882042F4A00282
:10282000C3F888200E4A536823F040435360BFF337
:102830004F8FBFF36F8F0023E1EE103AEFF3148355
:1028400023F0040383F3148801F0D4F901F0DEF9D6
:1028500000F022F901F016FA00ED00E0000000009F
:1028600030EF00E001B5EFF30580A0F110004FEA72
:10287000C0000449014409C99847BDE80140024924
:1028800008470000F0820000952A000004F07BFC5D
:10289000202080F3118808484FF40061401880F32D
:1028A0000988EFF314800221084380F31488BFF3F2
:1028B0006F8FFFF7A1FF0000283E0220EFF3088092
:1028C000EFF3098101B5724600F090F801BD00BF39
:1028D00010B514460F4B9A6A9A6A9B6A13F0020F5E
:1028E0000BD00C4B5A6B9B6A13F0800F05D021B1B3
:1028F000084A936A23F080039362064B9A6A9A6AA5
:102900009A6A9A6A42F0FF029A6204F0EDFE207021
:10291000002010BD00ED00E010B51446124B9A6A7D
:102920009A6A9B6A13F4007F0BD00F4B9A6B9B6AD9
:1029300013F4004F05D021B10B4A936A23F40043EE
:102940009362094B9A6A9B6A13F4807F01D1064B0C
:102950009B6A054A936A43F47F43936204F0C4FE82
:102960002070002010BD00BF00ED00E0074B9A6A08
:102970009A6A9A6A9A6A9A6A9A6A9A6A9A6A6FEAE2
:1029800002426FEA12429A620020704700ED00E0B6
:1029900038B500230B70124BDC6A14F002041DD111
:1029A0000546D86A10F0804019D00A4628462833D8
:1029B0001B7843B90B4B1B784BB90B4B1B889BB255
:1029C0004BB920460BE00121FFF782FF07E0012110
:1029D000FFF7A2FF03E0FFF7C9FF00E0002038BDCA
:1029E00000ED00E029ED00E02AED00E070B58AB0CE
:1029F000234B5B68C3F30803002585F31188BFF3FD
:102A00006F8F02F07F45B5F17F4F17D102F00C05B3
:102A1000082D16D012F0080F0DD00C4600250DF130
:102A200027021946204604F061FE06469DF827302D
:102A300053B10AB070BD04460125F0E700252C46CD
:102A4000EDE700252C46EAE72022214601A804F004
:102A5000C5FE4DB1089BC3F308025AB96FEA532370
:102A60006FEA4323089305E0089B23F4FF7323F0E8
:102A70000103089301A9304604F026FED9E700BF00
:102A800000ED00E0024A536943F0100353617047C0
:102A900000ED00E0704700BF002206E002F00F01E9
:102AA000094B0B44202119760132402A0ADC53B22B
:102AB000002BF3DB03F1604303F56143202183F82E
:102AC0000013F1E7704700BFFCEC00E010B50446CE
:102AD00001F024FB114B9B68A3420AD04FF0200366
:102AE000EFF3118083F31188BFF36F8F05F053FA72
:102AF00010BDEFF305832BB1094A536843F08053AF
:102B00005360EBE74FF02003EFF3118083F311885C
:102B1000BFF36F8FFFF7C4FDE0E700BFD8150220B9
:102B200000ED00E000B585B0094B0193094B02931D
:102B30000623ADF80C300121ADF80E1001AB009367
:102B4000054B064A684604F019FE05B05DF804FB23
:102B5000000002200000000000000420000002200D
:102B6000014B024A1A63704790ED00E0AAFF44004F
:102B700010B40B6823F01F020C7A04F01F031A43F1
:102B8000CB6823F01F03640943EA440343F00103C5
:102B900003498860CA600B615DF8044B704700BF51
:102BA00090ED00E010B50F2804D80446FFF7E0FFD1
:102BB000204610BD4FF00004012363F302046FF3BD
:102BC000C504074B074A9B1AC3F3C90363F38F1469
:102BD00002460549204604F0E0FA6FF01504E7E7E5
:102BE00008850000F8840000D08C00002DE9F04F2B
:102BF00087B080468B4601931446002560E0012390
:102C000063F302006FF3C5006B4B6C4A9B1AC3F36E
:102C1000C90363F38F102A46694904F0BEFA6FF0C6
:102C2000150416E06FF0150667E04FF00000012371
:102C300063F302006FF3C5005F4B604A9B1AC3F356
:102C4000C90363F38F1032465E4904F0A6FA6FF0B1
:102C50001504204607B0BDE8F08FBA4566D1F0B242
:102C600004F071FD2BE0584AC2F808C0D36803F0A5
:102C70001F0320F01F001843D06058F80910E0B27D
:102C800004F061FD044610F1160FE2D0013416E0A5
:102C9000013B4D49C1F808C00A6902F01F0223F048
:102CA0001F0313430B6158F80910E0B204F04BFD09
:102CB000044610F1160FCCD0013400E00134013588
:102CC0005D45C6DA4FEA850958F825607768002F18
:102CD000F5D0019B23B1304604F023FD00288ED0AF
:102CE000D6F800A0504604F04DFD064607EB0A005A
:102CF000013804F047FD864294D116F1160F94D0A6
:102D0000631EB34291DBB4462F4B9E60DA6822F01B
:102D10001F029E601F6947F01F0758F809100B68D3
:102D20004868184400F1FF3A934296D093429AD0F3
:102D3000BA45ADD0013B24496646C1F808C00A69CE
:102D400002F01F0223F01F0313430B6158F8091010
:102D5000E0B204F0F8FC044610F1160F3FF479AF2E
:102D60000130194B9E60D9689DF8102061F3040270
:102D70008DF810201B69C3F34203D2B263F34712EC
:102D80008DF8102058F809201168546821440291E8
:102D90001368234423F01F03A7EB0A071F44013FD6
:102DA00027F01F07059702A9C0B2FFF7FBFE0446F4
:102DB00010F1160F82D14CE708850000F88400005E
:102DC000888C0000AC8C000090ED00E010B5034C46
:102DD00001232278FFF70AFF207010BD2016022081
:102DE000034B05225A60BFF34F8FBFF36F8F7047BD
:102DF00090ED00E0BFF35F8F014B00225A607047F7
:102E000090ED00E038B50E4B1D68102D15D8FFF77A
:102E1000F1FFFFF7A5FE0024A54208D9084B596829
:102E200001EB04112046FFF7A3FE0134F4E7054B44
:102E30001D70FFF7D5FF002038BD4FF0FF30FBE7D6
:102E4000F88C000020160220014B1860704700BF6C
:102E50003400022070B443685E68304B1340B3F511
:102E6000801F23D012D9B3F5800F27D016D92C4854
:102E7000834225D0B3F5A00F4DD1032012F0100FDF
:102E800020D112F0200F3DD001241CE0022B0FD0E6
:102E9000062B0FD083B16FF0150031E0214883423B
:102EA00001D10720EAE76FF0150029E00120E5E7EE
:102EB0000420E3E70620E1E70020DFE70220DDE76A
:102EC0000520DBE70324C2F3402312F4807F0CBF0C
:102ED0000125002512F4007F05D012F4006F13D0F5
:102EE00001228A40B26001F01F0143EA450343EA30
:102EF000840343EA002380310B4A42F8213000204A
:102F000070BC70470024DEE712F4806FEBD0012222
:102F10008A40F260E7E76FF01500F1E70600F00085
:102F2000020040000600100000258450F0B4C5687F
:102F30004668E9686A69AB69134321EA0301012223
:102F4000002011E04FF0020C03F01F030F4F8033FD
:102F500057F8234024F4403444EA0C4447F8234013
:102F600021EA02010130520071B10A42FAD0347AEA
:102F700000F01F0343EA44132C69C44014F0010F0E
:102F8000E0D14FF0030CDFE7F0BC70470025845020
:102F900070B4C3684068DA6859699C69214322EAC1
:102FA0000102416809691869484022EA00000123CA
:102FB000002401E001345B0072B11A42FAD004F03F
:102FC0001F01064E803156F8215025F4403546F851
:102FD000215022EA0302EDE770BC704700258450BF
:102FE00070B582B0002301932D4B1C680CB90021F1
:102FF00009E02C48FFF7CCFF0190294B00221A6012
:103000001B68F4E70131072926D801F140039B0032
:103010009AB201238B402448D0F804030342F1D034
:1030200002F1A04303F550431B68002BEAD001F5E1
:10303000A2731D4850F82300C0F30420012303FAB3
:1030400000F0019B0343019302F1A04303F55043B9
:1030500000221A601B68D5E7019E16B9DCB902B0E0
:1030600070BD124B596819B10D4649B10D6807E0A2
:103070000D4605E06DB12B4605B12B6829461D466E
:103080000029EBD08A683240F4D04B680548984755
:10309000F0E72B46F2E70348FFF748FFDFE700BF02
:1030A0007CD100503401022000D00050681502206D
:1030B00030B4174BD3F80453EDB2002300E00133D2
:1030C000072B22D803F5A272114C54F82220C2F328
:1030D00004229142F3D125FA03F212F0010FEED04F
:1030E00001229A40D143D0E8EF4F0C40C0E8E54FB1
:1030F000002DF8D1064903F5A27351F8230020F002
:10310000010041F82300C1F8082330BC704700BF1C
:1031100000D000500023072B42D870B401249C40FB
:10312000D0E8EF5F45EA0406C0E8EC6FBCF1000FA1
:10313000F6D1DD4015F0010F07D00133DBB2072BCC
:10314000ECD96FF0120070BC704703F140008000B2
:1031500080B2154D03F5A27355F8236026F4473667
:1031600026F4407645F8236055F82360090201F4FF
:10317000F851120402F440321143314345F8231050
:1031800000F1A04202F5504200201060126855F88C
:10319000232042F0010245F82320C5F80443D2E77A
:1031A0006FF01200704700BF00D0005070B50D46A0
:1031B000C66843681B7A01F01F0444EA43142146A1
:1031C0002148FFF775FF04F01F02204902F180003B
:1031D00051F8203023F4403341F82030F368EB40BD
:1031E00013F0010F2ED07369EB4013F0010F14D0D0
:1031F000B369EB4013F0010F07D1336923FA05F5EA
:1032000015F0010F07D0012200E0032221460E48ED
:10321000FFF780FF17E00222F8E7336923FA05F58C
:1032200015F0010F0CD103200849803251F82230EB
:1032300023F4403343EA004341F82230002002E007
:103240000220F1E7002070BD841502200025845083
:1032500070B5C46845682E7A01F01F0545EA461529
:10326000B2F5A03F25D0B2F5005F2ED0E56801266B
:103270008E403543E560B2F5A03F2CD06269012550
:103280008D4022EA05026261B3F5C02F28D0A26901
:1032900001258D4022EA0502A261B3F5802F24D0DA
:1032A000236901228A4023EA02032361FFF77EFF9C
:1032B00070BD05F01F0580350E4E56F8255015F0EF
:1032C000010FD0D06FF02200F2E7E56801268E40B2
:1032D00025EA0605CEE7626901258D402A43D2E73B
:1032E000A26901258D402A43D6E7236901228A403D
:1032F0001343DAE70025845008B50B4B1B780BB15C
:10330000002008BD084B01221A70002205210D2063
:10331000FFF732FA0D20FFF711FA044B4FF000428D
:10332000C3F80423ECE700BF2116022000D00050B0
:10333000034BD3F8003413F0010FF9D0704700BFEE
:1033400000900350024B0B6001231360704700BFD5
:103350008815022000487047808D000010B504F0E9
:103360009EFD034C206004F096FD6060002010BDBF
:103370008815022043681A6847F6122399426DD0D7
:1033800010D9B1F5E13F78D040D9B1F5E12F7DD02A
:1033900058D8B1F5613F7CD0424B99424FD14FF0A4
:1033A000806357E0B1F5965F5BD018D8B1F5167F12
:1033B00059D008D9B1F5966F58D0B1F5166F0BD129
:1033C0004FF41D2346E0B1F5967F02D14FF4A033B0
:1033D00040E06FF0150070476FF015007047B1F5D1
:1033E000615F46D007D9B1F5964F44D0B1F5E14FB2
:1033F00009D12D4B2EE0B1F5165F01D12B4B29E001
:103400006FF0150070476FF0150070474DF6C02340
:10341000994235D007D9B1F5614F34D0B1F5963F17
:103420000AD1234B16E0B1F5164F02D14FF41D031C
:1034300010E06FF0150070476FF0150070476FF0E7
:1034400015007047B1F5612F26D01A4B994226D14D
:103450004FF08053C2F82435002070474FF400032A
:10346000F8E7154BF6E74FF41C33F3E74FF49E23D0
:10347000F0E7124BEEE7124BECE74FF0EB73E9E7A6
:103480004FF46503E6E74FF46B03E3E74FF0E863BF
:10349000E0E74FF06C73DDE74FF07063DAE76FF051
:1034A0001500704790D0030000C075000050270041
:1034B00000903A0140420F0000B0130000F03A00C3
:1034C00000A04E00F8B50C46174643681D68C66854
:1034D0000023C5F8003530600B6803F01F0201239C
:1034E0009340314A93600B6803F01F03803303213C
:1034F00042F823106368B3F1FF3F05D003F01F03C8
:103500008033002142F8231022686368C5F80C2537
:10351000C5F81435A368B3F1FF3F06D003F01F03CD
:103520008033214A002142F82310E368B3F1FF3FC2
:103530000DD003F01F03012202FA03F31A4A93602D
:10354000E36803F01F038033032142F82310E2688D
:10355000A368C5F80825C5F81035C168043104F022
:10356000F3FA0346F0B90822C5F800256268B2F103
:10357000FF3F0CD00022C5F81021D5F8102106F12C
:103580001402C5F834250122C5F838252A604FB148
:10359000F2689268C5F844250022C5F84825012242
:1035A000AA60EA601846F8BD0025845030B585B0A1
:1035B00005460A4B6C460FCB84E80F000022012120
:1035C0000820FFF7D9F80820FFF7B8F801222146B4
:1035D0002846FFF777FF05B030BD00BF40850000EB
:1035E00030B585B005466C46094B0FCB84E80F001B
:1035F000002201210920FFF7BFF80920FFF79EF8FC
:10360000012221462846FFF75DFF05B030BD00BF0F
:1036100050850000C0F30E03BBB9C1F30E02BAB966
:10362000B2EBD13F17D230B402EBD033DBB203F5AB
:10363000C0730A4C40F2151544F823500132B2EB26
:10364000D13FF1D3002030BC70476FF015007047B8
:103650006FF0150070470020704700BF0030005029
:10366000034B1B68092B01D00020704701207047D5
:103670003001FF00064B1B68064A1268092B01D077
:1036800000207047012A01D00020704701207047B8
:103690003001FF003401FF00064B1B68064A126828
:1036A000092B01D000207047012A01D0012070476A
:1036B000002070473001FF003401FF00064B1B68FB
:1036C000064A1268092B01D000207047012A01D058
:1036D00000207047012070473001FF003401FF00D7
:1036E000034B1B68092B01D0002070470120704755
:1036F0003001FF00044B1B6AB3F1FF3F01D00020F3
:1037000070470120704700BF0080FF00044BDB6959
:1037100013F0010F01D1002070470120704700BF56
:103720000080FF00014B024A1A60704788000220A7
:103730000090D00308B5FFF793FF30B14FF050234E
:103740000022C3F81421C3F81821FFF793FF30B10A
:103750000123474A1360A2F63822C2F87835FFF7F2
:103760009BFF18B1434B0122C3F87825FFF7A6FF52
:1037700010B1414B0E221A60FFF7B2FF28B13F4B48
:1037800000221A60043301221A600022FF2A15D891
:1037900002F160034FF47F0151F83330B3F1FF3F82
:1037A0000CD002F160034FF47F0151F83310DB00BD
:1037B00003F57F035B680B600132E7E7FFF7A6FFC5
:1037C000B0B9FFF797FF98B92D4BD3F88C2042F48E
:1037D0004062C3F88C20D3F8882042F47002C3F80A
:1037E0008820BFF34F8FBFF36F8FFFF79BFF08BD9C
:1037F000244BD3F80034012BFAD1224B0122C3F819
:103800000425204BD3F80034012BFAD1FFF77EFFBB
:1038100048B11D4AD36923F00103D361194BD3F892
:103820000034012BFAD1FFF765FF58B1164A136A2D
:1038300023F0FF0343F020031362124BD3F800344C
:10384000012BFAD10F4B0022C3F804250D4BD3F8FE
:103850000034012BFAD1BFF34F8F0949CA6802F433
:10386000E0620A4B1343CB60BFF34F8F00BFFDE70D
:10387000384A005000400050E4AE03500C4700505E
:1038800000ED00E0009003500080FF000400FA0506
:10389000054B1B792BB9044B186001221A710348A0
:1038A00070470348704700BFD01502200000AD0BE1
:1038B0000C00AD0B10B1012825D070474FF05022FD
:1038C000D2F8183403F00303D2F8182412F4803F1E
:1038D00011D14FF050230122C3F818250F4B0022BD
:1038E0001A601B684FF050230222C3F804230833E8
:1038F00001221A607047022BEBD14FF050230222B5
:10390000C3F81825EAE7064B00221A601B684FF03F
:1039100050230122C3F804231A6070470451005059
:103920000051005070B5044610B1012812D070BD8E
:103930004FF050230222C3F8082303F582730022BC
:103940001A601B68334B01221A60012C0FD042F21F
:1039500010754BE001234FF05022C2F8083302F5F6
:1039600080720021116012682B4A1360EDE7254632
:1039700042F2107614E04FF05023D3F8185405F0BB
:103980000305D3F8183413F4803F1CD10023002B17
:10399000CDD0012DCBD1012004F044FA013EC6D098
:1039A000002CE8D0012C01D00023F0E74FF0502389
:1039B000D3F80C5405F00105D3F80C3413F4803F10
:1039C00003D10023E3E70123E1E70123DFE74FF021
:1039D0005023D3F8183413F4803F16D10023002B62
:1039E000A5D0012004F01EFA013DA0D0002CEED09D
:1039F000012C01D00023F2E74FF05023D3F80C3410
:103A000013F4803F03D10023E9E70123E7E7012313
:103A1000E5E700BF0C5000500450005008B5194BAA
:103A20001B685BB1174B002018601B684FF05023D8
:103A30000122C3F80823144B1B689847134B1B68DB
:103A4000B3B1124B00221A601B684FF05022D2F81B
:103A5000183403F00303D2F81824012B09D04FF0D7
:103A600050230222C3F80823074B1B680120984704
:103A700008BD4FF050230222C3F818250833012255
:103A80001A60F5E700510050D01502200451005093
:103A9000034B0022C3F88425C3F80425704700BFF8
:103AA00000900350034B0122C3F88425C3F804257A
:103AB000704700BF00900350034B0222C3F88425D7
:103AC000C3F80425704700BF00900350044BD3F89F
:103AD000083413F0010FF9D00160BFF35F8F704716
:103AE0000090035010B5044604F0B9F908B908482D
:103AF00010BDFFF7E1FF4FF0FF332360054BD3F814
:103B0000003413F0010FF9D0FFF7C2FF0248EFE7CE
:103B10000A00AD0B009003500000AD0B70B50646D7
:103B2000114B53F8205000E00835731C0E4A52F830
:103B30002330AB4217D96C682B6820469847002881
:103B4000F2D0002CF0D00949094BE41A2411600985
:103B500004F01F0451F82030012202FA04F41C433F
:103B600041F82040E0E770BD088E000064010220AB
:103B7000F4000220084BC01A0011420900F01F0097
:103B8000064B53F82220012303FA00F002420CBF37
:103B900018460020704700BFF40002206401022094
:103BA00038B50546114C00E01034114B9C4208D04A
:103BB0002046FFF7DFFF0028F6D02368AB42F3D1A1
:103BC00012E00A4C00E01034094B9C420BD0204616
:103BD000FFF7D0FF0028F6D02168284603F0DCFD6F
:103BE0000028F0D100E00024204638BDF400022077
:103BF0006401022008B50348034A121A002103F0A9
:103C000011FE08BDC80102202416022008B506488E
:103C1000064A121A064903F0E1FD064A064907481A
:103C200003F0DCFD08BD00BF00000220C801022037
:103C3000D08F000000000000D08F000000000220A4
:103C400008B50B4B01221A700220FFF767FF094AE3
:103C500009490A4803F040F80320FFF75FFFFCF72B
:103C6000EFFB074A137B23F00103137308BD00BF6A
:103C7000221602204C8A0000208E0000308E0000A8
:103C8000C801022008B5FDF741FF124B83F30888F5
:103C9000114CE02384F822300025E57725766576FF
:103CA000A576636A43F4E0236362FEF7EBFEFEF75A
:103CB0008FFD4FF0FF33A362E3622846FFF72EFF2C
:103CC0000120FFF72BFF2B462A4629460348FEF723
:103CD00069FD00BF2846022000ED00E0413C0000E5
:103CE00010B5064C0020064B9C4206D2204604F03C
:103CF00004F9002801DB1C34F5E710BD680102203F
:103D000068010220F0B583B01F464FF02003EFF3A7
:103D1000118583F31188BFF36F8F436973B10B6013
:103D200043691B684361836901338361002385F321
:103D30001188BFF36F8F184603B0F0BD164656EAE0
:103D4000070304D100230B606FF00B03EFE70C4671
:103D50000246CDE900672946054800F06BFA0346A4
:103D60000028E8D1034A926852692260E3E700BF65
:103D7000D8150220D815022070B504460D464FF024
:103D80002003EFF3118683F31188BFF36F8F04F0E4
:103D9000A8F950B12A680021C167426104F011F905
:103DA0003146084800F0E8F870BD2B6862691A6077
:103DB0002B686361A369013BA36186F31188BFF39C
:103DC0006F8FF1E7D81502202DE9F04F83B04FF047
:103DD0002001EFF3118481F31188BFF36F8FC16865
:103DE000A1B9002954D13B4B9B6893F90E30036174
:103DF0000131C160374B9B68836084F31188BFF346
:103E00006F8F0023184603B0BDE8F08F8668314DF0
:103E1000AD68AE42E5D053EA02010CBF012700278E
:103E2000C7BB9A469346804696F90E90494695F947
:103E30000E0004F087F8814533DC4FF00009CDF81F
:103E400000B0CDF804A042462146234800F0F2F924
:103E500003460028D6D04FF02003EFF3118483F3FC
:103E60001188BFF36F8FD8F8003098451FD0F3B199
:103E7000D8F8101093F90E0004F064F8014640469B
:103E800004F069F8B0B9B9F1000F14D0012712E0BD
:103E90000369ACE784F31188BFF36F8F6FF00F03F2
:103EA000B0E70146404604F056F88146C7E7D8F827
:103EB0001010E4E7012737B984F31188BFF36F8F3F
:103EC0006FF00A039EE72146034800F055F86FF0B3
:103ED0000A0397E7D8150220D815022038B5836861
:103EE00083B31B4A926893422FD10446C368012BC7
:103EF00005D0013BC36004F05CF8002038BD4FF0F2
:103F00002003EFF3118583F31188BFF36F8F0169ED
:103F100004F021F8204604F0E4F8A06058B190F9CC
:103F20000E3023610023C36704F04BF8294609488B
:103F300000F022F8DFE70023E36085F31188BFF388
:103F40006F8FD8E76FF01500D8E74FF0FF30D5E757
:103F5000D8150220D8150220B3F1FF3F08BFB2F1F7
:103F6000FF3F00D1704708B50249183000F042FA0F
:103F700008BD00BFEF7F0000084681B908B5EFF328
:103F800005833BB9084BDA699B689A4202D0FEF779
:103F900087FB03E080F31188BFF36F8F08BD81F3C7
:103FA0001188BFF36F8F7047D81502200A4B8342E8
:103FB00008D04A680B6813604A685A6000230B6097
:103FC0004B607047203B9B688B42F2D14B7B13F0D8
:103FD0001F0FEED0F5E700BFF815022038B50546F3
:103FE0000E4C04F1200003F0E5FFA268537B13F0B0
:103FF000200F02D043F00803537348B15DB9537BDF
:1040000013F01F0F07D183692BB9044BDA6104E069
:10401000024BD868F2E7014BD86138BDD8150220B1
:1040200038B5437B13F01F0F05D183690BB1002313
:1040300002E0012300E0002313B30546154B53F8BB
:10404000204F9C4224D064B12146284603F099FFBA
:10405000B8B934B10F4B5B6A9C4202D02468002C83
:10406000F1D10C4B03F120022A605A6A6A60156094
:104070005D626B7B63F07F036B730020FFF7AEFF25
:1040800038BD63686B602C6063681D606560F0E735
:104090000024D8E7D815022038B50446183004F0BB
:1040A0009CF800234FF02002EFF3118582F3118872
:1040B000BFF36F8F10E0637B43F010036373154B06
:1040C0009868A04214BF00200120FFF787FF85F306
:1040D0001188BFF36F8F012363B994F90D30002B62
:1040E000E9DA21460C48FFF761FF637B03F07F03A9
:1040F0006373E0E7074B9B68A34200D038BD4FF0E5
:104100002003EFF3118083F31188BFF36F8F03F067
:1041100042FFF3E7D8150220F815022070B50546D6
:10412000036E03B1984705F1180004F056F8002318
:104130004FF02002EFF3118682F31188BFF36F8FE7
:104140003AE0012241E029462A48FFF72FFF6B7B26
:1041500003F07F036B733EE013F0020F43D0284659
:1041600003F00BFF2946FFF721FF6B7B23F00203CF
:104170006B730023AB6036E004F1180004F02DF8F7
:10418000204603F0FAFE2146FFF710FF637B23F081
:10419000020363730023A360E3672046FFF740FF39
:1041A00005F130032C6BA34201D0002CE4D186F33F
:1041B0001188BFF36F8F01231A46CBB96B7B13F0C5
:1041C0001F0F02D1A9690029BBD012F0010FC3D083
:1041D00013F0800FB7D1084B9868A84214BF002095
:1041E0000120FFF7FBFE6B7B43F008036B73D7E7FF
:1041F00070BD00BFF8150220D815022010B5044686
:1042000090F90D30002B08DB084B9868A04214BFD2
:1042100000200120FFF7E2FE10BD01460448FFF731
:10422000C5FE637B03F07F036373EDE7D8150220BF
:10423000F815022010B50C461146DDE902230448AA
:10424000806803F02DFF2046FEF72AFA10BD00BF5C
:10425000D81502202DE9F8430446884600234FF084
:104260002002EFF3118682F31188BFF36F8F1F4690
:1042700009E012F0010712D184F80E8086F311884C
:10428000BFF36F8F01231A46002B37D1637B13F0E6
:104290001F0FEED1A369002BEBD10122E9E7194DE5
:1042A00005F1200921464846FFF780FE84F80E807C
:1042B0002D6A4D4520D065B12946204603F061FEA8
:1042C00098B935B10F4B5B6A9D4202D02D68002D25
:1042D000F1D10C4B03F1200222605A6A6260146033
:1042E0005C620120FFF77AFEC8E76B6863602560B7
:1042F0006B681C606C60F4E70025DCE73846BDE8BD
:10430000F88300BFD815022038B5B1F1FF3F08BFD0
:10431000B0F1FF3F1AD003F032FE0446C517690121
:10432000430141EAD0621B1A62EB0502910041EAA7
:10433000937198000A46031945EB0202D00040EA47
:104340005370D900CB0B43EA404038BD034B98680B
:10435000FFF7A2FE4FF0FF30F7E700BFD8150220AD
:10436000014B9868704700BFD815022038B5044645
:104370004FF02003EFF3118583F31188BFF36F8FA4
:1043800003F0AFFE40B10022C26703F01AFE2946D7
:104390000648FFF7F1FD38BDA368E268934203D0F9
:1043A00001221344A360F2E70022FAE7001602207C
:1043B000034B1868984200D070470020FCE700BF0C
:1043C0008C00022030B1044A5268904201D000684B
:1043D00070470020704700BF8C00022008B5044BD6
:1043E0001B680BB1002008BDFEF78EF8FBE700BF8D
:1043F00000160220B3F1FF3F08BFB2F1FF3F00F00B
:1044000087802DE9F84F89468046541C43F100050A
:104410006FF001031E1B4FF0FF3A6AEB0507002EF9
:1044200077F1000311DAC8F8089026462F46012CD0
:1044300075F100031BDB00234FF02002EFF311891D
:1044400082F31188BFF36F8F2EE0FFF7C7FF314B68
:10445000D3E90023161843EBE0773946A31945EB5F
:1044600001016FF00102D41A6AEB0105DBE70126B6
:104470000027E0E7B4EB0A0265EB0B03026143613E
:104480004368C8F80430C8F800004368C3F80080E7
:10449000C0F8048048B3FFF78BFF804530D089F324
:1044A0001188BFF36F8F012383BBFFF797FF33188A
:1044B00047EBE07418462146C8E90401FFF778FF8E
:1044C0000028E7D0D0E90445D8E904ABA2457BEB4E
:1044D0000503CFDBBAEB04026BEB0503C8F8102031
:1044E000C8F81430FFF76EFFEAE70B4BC8F800304E
:1044F0005A68C8F80420C2F80080C3F80480CAE7EC
:1045000003F04CFE0021FDF7D1FFC8E7BDE8F88FAE
:10451000704700BF480202208C0002202DE9F048BD
:104520004FF02003EFF3118583F31188BFF36F8FF2
:10453000294B1860FFF73CFF044658B3D0E90467E5
:10454000254B1B68D917B34271EB070222DB234AC4
:10455000D2E9000110EB060B41EBE67CC2E900BC9E
:104560009B1B1D4A136000220023C4E9042320463C
:1045700003F0FCFD85F31188BFF36F8FA36820461D
:1045800098474FF02003EFF3118583F31188BFF3B1
:104590006F8FCFE744B1104B1968D4E90423561A42
:1045A00063EBE177C4E904670C480B490C68D0E978
:1045B0000023161943EBE477C0E9006700240C6080
:1045C00003F0ECFD2146FDF771FF85F31188BFF381
:1045D0006F8FBDE8F08800BF00160220480202205D
:1045E00010B5064C064B9C4206D2A2686168204674
:1045F00003F011FE1434F5E7002010BD680102201D
:104600006801022010B50A4C23681BB10123002069
:10461000236010BD00F098F80028F7D00138062874
:1046200003D8044B53F8200010BD034810BD00BF51
:10463000041602205C8E0000FE8FFFFFBFF34F8F39
:104640000549064BCA6802F4E0621343CB60BFF32E
:104650004F8F00BFFDE700BF00ED00E00400FA054A
:10466000014B5B68184700BF94000220024BD0E961
:104670000012C3E9001270479400022048B1436859
:104680002BB1BFF35F8F00230360184670470248C9
:1046900070476FF4E0407047EA8FFFFF10B50446A3
:1046A00028B1636813B100232360636010BD024B1F
:1046B00002485B689847F4E794000220788E000077
:1046C00010B5044630B100226368226043F0010354
:1046D000636010BD0148FFF7C3FFF4E7A08E000040
:1046E00080B1436863B10122D0E8EF3FC0E8E12F19
:1046F0000029F9D1012BF7D0BFF35F8F002070475D
:10470000024870476FF4E040704700BFEA8FFFFF38
:1047100070B40B4B0668C268D0E90154C3E9024289
:10472000C3E90065D1E903020E68064BD1E90154E3
:10473000C3E90065C3E902401A6170BC704700BF5D
:10474000A4000220B400022010B500F033F820B11C
:10475000032400F067F8204610BD00F035F890B94A
:1047600000F0B0F890B90F4B1B681B0EF02B08D16E
:104770000D4A0E4B12689A420AD0072400F01CF82A
:10478000E7E70624FAE70424204610BD0024F5E7F5
:10479000012000F097F804460028F7D1044B186078
:1047A000D9E700BF28198450241A84500000E02063
:1047B0000C1A84500020704700207047014B18608D
:1047C000704700BF041A845010B5114800F048F833
:1047D00000B110BD0F4800F043F80028F9D10E4C8D
:1047E000204600F03DF80028F3D10C4B0C481C602B
:1047F00000F036F801460028EBD100F02DF8044611
:1048000008B1204610BD00F03FF82046FAE700BF8F
:10481000EC000220E0000220E8000220F00002206C
:10482000E400022008B5084800F024F8074800F02A
:1048300021F8074800F01EF8064800F01BF8BDE814
:10484000084000F00BB800BFEC000220E00002209E
:10485000E8000220E400022000207047704700BFFB
:1048600008B5034B02681B6810689847002008BD14
:10487000A400022008B5034B02685B6810689847E3
:10488000002008BDA400022070B5094C094D206924
:10489000AB68984718B1084B08485B6898470021F7
:1048A000074AEB6811602069BDE87040184700BFF7
:1048B000B4000220A400022094000220C48E000054
:1048C0001816022070B51A4D1A4E0446B2682869AF
:1048D0009047F0B95CB1184C2368ABB1012B1AD0EA
:1048E000013B23602869F3689847002070BD124C93
:1048F000216839B90120114B114AC3F8000513682A
:10490000002BFCD101312160F36828699847002011
:1049100070BD0C4870BD0A4A1368002BFCD1074AD1
:104920006FF07E40C2F80035FFF748FF2368D7E7F5
:10493000B4000220A40002201816022000008450B7
:1049400010198450E98FFFFF30B10268034B04480F
:104950009A4208BF0020704702487047DD55AABB45
:104960008208F0007108F00038B50D460446B0B179
:10497000A0220021043003F070FC95B108222946E2
:1049800004F1640003F06FFC082205F1200104F13A
:10499000840003F068FC0020034B236038BD03480B
:1049A000FCE70348FAE700BFDD55AABB7108F00039
:1049B0008308F0002DE9F74305460E469946114657
:1049C000FFF7C2FF0446002840F08480002E00F06C
:1049D0008580002900F08480B9F1200F40F08280AA
:1049E00005F14404082205F10408204603F03BFCCD
:1049F00005F1240708223146404603F034FC06F155
:104A000020010822384603F02EFC02A941F8049D3B
:104A10004FF4807003F01BFC002865D14FF48073C5
:104A2000324A0121136093600823314A00F034FBBD
:104A30000121052308462F4A00F02EFB0823424699
:104A400001211C2000F028FB08233A460121032005
:104A500000F022FB224608230121022000F01CFB6B
:104A60000823254A01211A2000F016FB0523234ABA
:104A700001211B2000F010FB0823214A01211420F2
:104A800000F00AFB08231F4A0121152000F004FB57
:104A9000082305F164020121162000F0FDFA082325
:104AA00005F184020121172000F0F6FA0823164AC6
:104AB00001210B2000F0F0FA00F04AFB04460198B7
:104AC00000F0D8FA114B002C18BF1C46A421284630
:104AD00003F0C5FB204603B0BDE8F0830C4CF9E7BA
:104AE0000C4CF7E70C4CF5E7084CEFE790108450BE
:104AF000248F00009C8F0000E48E0000888F00004F
:104B0000488F0000688F0000048F00008408F000C8
:104B10007608F0008008F0008108F000C2690C4BB4
:104B20001A60826943F8042C426943F8082C026930
:104B300043F80C2CC26843F8102C826843F8142CFC
:104B4000426843F8182C026843F81C2C704700BFD9
:104B50005C1684500C4B1B68C3610C4B1B68836153
:104B60000B4B1B6843610B4B1B6803610A4B1B68B3
:104B7000C3600A4B1B688360094B1B684360094B89
:104B80001B680360704700BF5C1684505816845041
:104B900054168450501684504C1684504816845035
:104BA000441684504016845030B10268034B0448C8
:104BB0009A4208BF0020704702487047DD55AABBE3
:104BC0000202F0000002F00038B5044668B1051D8D
:104BD0007021284603F043FB28462022044903F0B5
:104BE0003AFB0020034B236038BD0348FCE700BFBD
:104BF000B08F0000DD55AABB0002F0002DE9F043A4
:104C000085B015466F46274B04460E460FCB87E806
:104C10000F002DB94FF00009484605B0BDE8F083FC
:104C20002046FFF7C1FF81460028F5D1231D0193DF
:104C3000636AA3BB236F8BB1C3F14008A84528BFAB
:104C4000A84604F1300031461844424603F003FB05
:104C5000236F464443442367A5EB0805226F402A8F
:104C600006D104F13001384600F0B4FB002323677D
:104C700005F03F0835F03F0505D031462A46384655
:104C800000F0A8FB2E44B8F1000FC3D042463146D5
:104C900004F1300003F0DFFAC4F87080BCE7DFF8FD
:104CA0000890B9E7608500000C02F0002DE9FF4193
:104CB00004466F46134B0E460FCB87E80F00204685
:104CC000FFF772FF8046B0B9CEB1636A251D01952A
:104CD0003BB90123226F636204F13001384600F0D2
:104CE00079FB2B46043E243453F8042B12BAA3421A
:104CF00046F8042FF8D1404604B0BDE8F081DFF853
:104D00000880F8E7608500000502F000084B1B688A
:104D10001B0EF02B08D1074B1A68074B9A4205D19E
:104D20000020064B1860704705207047062070472A
:104D300028198450241A84500000E0200C1A845052
:104D4000002230B5134640F6FC754900023802F1E6
:104D5000A15404F5823490424FEA840402F1010226
:104D6000CABF236025605B181E2AF0D1034A136076
:104D70000B445360024B034A1A6030BD78108450D4
:104D80008410845020F80F001E4B30B51A4685B0B1
:104D9000196800910099CC07FAD500F1A15000F5EF
:104DA00082308000016813680193019BD807FAD50F
:104DB000154B164C186820231F3090FBF3F0144D50
:104DC0000138002810DA00230130400153B14FF0C0
:104DD0000042A0F12001134204D1013888424FEA79
:104DE0005202F8D105B030BD13680393039BDB0773
:104DF000FAD5431823602B680293029B002BE3D162
:104E00000138DEE7B4108450AC108450E4108450B4
:104E1000DC108450F0B51D6885B001F01F040DB999
:104E20001F2C28D1174D2E462F680197019FFF0791
:104E3000FAD500F1A15000F5823080000068356895
:104E40000395039DED07FAD51F2C00EB611018BFE9
:104E5000C9430D4D18BF01F01F0128600B480068C1
:104E6000029002981CBF00FA01F111604FF000019E
:104E700008BF1060196010684300C00F136005B0D0
:104E8000F0BD00BFB4108450E4108450DC10845096
:104E90000C4B890118603F3020F03F0040305860D3
:104EA00099600948D9601961596199611C3382B0D0
:104EB000196002680192019AD207FAD5196002B00E
:104EC000704700BF90108450B410845038B5A0F1E2
:104ED0002003B3F5426F05462CD88F2826D800F161
:104EE000470300F16604DB064FEA541400D0013496
:104EF00064013F34A409013411B1A1421AD30C4614
:104F00004FF48050E300B0FBF3F0202828BF2020AE
:104F100002B110600122084B21461A60FFF710FF12
:104F200028462146FFF7B4FF002038BD00F11F04DA
:104F30006409DDE70148F8E71C1884502221F000DD
:104F4000464BF0B51D4689B01C680194019CE407EE
:104F5000FAD5434B002413449B001A680B181E2BF0
:104F600088BFC0F11E011F320B1852095343B3F51D
:104F7000806F84BF4FF48061B1FBF2F1274688BF98
:104F8000091ADFF8E4E000F1A150DFF8E0C000F515
:104F90008230A14233DC2B680493049BDB07FAD5F3
:104FA000304B1B68296805910599CF07FAD52E4C1F
:104FB0002E49236000231E46934203F1010040D195
:104FC0001946002620F0010228488A423CD8296868
:104FD00006910699CE07FAD52549096828680790F1
:104FE0000798C007FAD5216000210C461F488B4264
:104FF0002DD100201D499A422CD809B0F0BD2B6854
:105000000293029BDB07FAD503199B001B682E68ED
:105010000396039EF607FAD5CEF80030002393429C
:1050200003F1010306D1164623F00103B34204D86D
:105030000134AEE7CCF80070F1E7CCF8007001362F
:10504000F4E70E600346B7E706600131BDE7046090
:105050000131CCE708600133CDE700BFB4108450C4
:10506000240421147C108450D4108450D81084500F
:105070007810845008B540B1202801464FF007024F
:1050800028BF20210020FFF75BFF0022014B1A60A0
:1050900008BD00BF1C188450F0B5294D85B02C46C2
:1050A0002E680096009EF607FAD500F1A15000F593
:1050B000823080000568206801900198C707FAD502
:1050C0002048214F056002EB8306B24229D1002718
:1050D0005A1C1D4E22F001029A4227D823680293DF
:1050E000029BDE07FAD5194B0B449B001B681F334C
:1050F0005B099A4213D2216803910399C907FAD533
:1051000000211544056008469B1A0F4A8B4210D8AF
:1051100000205A1C0C4922F001029A420CD805B01A
:10512000F0BD52F804CBC7F800C0CEE737600133BA
:10513000D2E710600131E9E708600133EDE700BF15
:10514000B4108450D4108450D810845024042114F6
:105150002DE9F041814BA0B01D68986820331E46B0
:105160001A680192019AD707FAD57D4B7D4A1A60D9
:1051700032680292029AD407FAD57B4A1A607B4AB7
:105180001446116803910399C907FAD5784A116842
:10519000C1F3402137680497049FFF07FAD5754F84
:1051A0001F6027680597059FFF07FAD51768002934
:1051B00000F0CF80B90540F1CC80316806910699A6
:1051C000CF07FAD56C491960216807910799C9077B
:1051D000FAD51168C1F3402137680897089FFF0787
:1051E000FAD5664F1F6027680997099FFF07FAD510
:1051F0001268002900F0AF80910540F1AC80326860
:105200000A920A9AD207FAD5564A1A6032680B9265
:105210000B9AD707FAD55A4A1A6031680C910C9943
:10522000CC07FAD55749196031680D910D99C90716
:10523000FAD55549196031680E910E99CF07FAD504
:105240005249196031680F910F99CC07FAD550492E
:105250001960504B1E46196810911099C907FAD56C
:105260003F4C4D4B236033681193119BDB07FAD5FC
:105270004A4B236033681293129BDF07FAD5484BE1
:1052800023603A4B9846196813911399C907FAD5C8
:10529000324F386033681493149BDB07FAD52260D1
:1052A00033681593159BD807FAD53E4B23603368B6
:1052B0001693169BD907FAD53B4B23603368179397
:1052C000179BDA07FAD5394B236033681893189B7C
:1052D000DB07FAD5364B236033681993199BD8073F
:1052E000FAD5344B236033681A931A9BD907FAD541
:1052F000314B236033681B931B9BDA07FAD52F4B86
:10530000236000F01DFC08BBD8F800301C931C9BE8
:10531000DB07F9D53D6033681D931D9BD907FAD58E
:10532000274B236033681E931E9BDA07FAD5254B63
:105330002360D8F800301F931F9BDB07F9D50C4B77
:105340001B6813F4805F204B08BF184620B0BDE8EF
:10535000F0811E48FAE71E48F8E700BF901084501D
:105360008010845000100251C01F7229B410845064
:1053700088108450C0CF0129C01F0E29C03F0029CA
:1053800040010249003184A800001649400108A1EB
:1053900080440888B0108450C044708880077A41E7
:1053A000C0077E4100006A498006164940006E49E8
:1053B00000020021008220214082202180822421BD
:1053C00040A161A100C861510308F1000108F1008A
:1053D0000208F100324B2DE9F74F8046924699467C
:1053E00044681A68002AFCD12E4B9B461A68002A92
:1053F000FCD14FF0FF30019100F094FC802000F0D0
:1054000097FC01230720284A284DA2F59E722B60A5
:10541000C2F83C011360636A254F264E3B60A36AC5
:1054200020463360D8F8003042F8043CD8F8083001
:1054300098470199D9F80030002BFBD1BAF1000F41
:1054400020D104221C4B1A60D9F80030002BFBD16C
:10545000DBF800A0BAF1000FFAD1D8F80C302046E2
:1054600098473B6863623368A362144BC3F800A09B
:10547000C3F844A1D9F80030002BFBD12B6003B056
:10548000BDE8F08F236A4020012B04BF0B4A136054
:105490000B4B1960C3F804A000F050FCD4E700BF28
:1054A00010198450201C84500019845018188450FE
:1054B000CC178450D0178450C81784508416845059
:1054C000281C8450544B10B5194698B01A680192A4
:1054D000019AD207FAD5514B514A1A600A680292D2
:1054E000029AD407FAD54F4A1A600A680392039ABF
:1054F000D007FAD54C4818600A680492049AD2077B
:10550000FAD54A4A1A600A680592059AD407FAD56C
:10551000474A1A600A680692069AD207FAD5454A9F
:105520001A600A680792079AD407FAD5424A1A60A5
:105530000A680892089AD207FAD5404A1A600A689F
:105540000992099AD407FAD53D4A1A600A680A9264
:105550000A9AD207FAD53B4A1A600A680B920B9A4C
:10556000D407FAD5384A1A600A680C920C9AD20706
:10557000FAD5364A1A600A680D920D9AD407FAD500
:10558000334A1A600A680E920E9AD207FAD5314A47
:105590001A600A680F920F9AD407FAD52E4A1A6039
:1055A0000A681092109AD207FAD52C4A1A601A4B40
:1055B00019461C681194119CE407FAD5174B186022
:1055C000086812901298C407FAD51A600A681392F4
:1055D000139AD007FAD5124A1A600A681492149ADC
:1055E000D207FAD51E4A1A600A681592159AD4078E
:1055F000FAD51C4A1A600A681692169AD007FAD58C
:10560000194A1A600A681792179AD207FAD5174AE8
:105610001A6018B010BD00BFB010845080108450C4
:1056200000936521000431904096659000836121CC
:1056300000C3302100C364900081619000461021B6
:10564000008111210041442100C320290C4610C8CB
:105650000086312100C3602140C128294096652180
:105660000013319040962529594614C84004324908
:10567000494B10B5194694B01A680092009AD207A7
:10568000FAD5464B464A1A600A680192019AD40735
:10569000FAD5444A1A600A680292029AD007FAD5EB
:1056A000414818600A680392039AD207FAD53F4A24
:1056B0001A600A680492049AD407FAD53C4A1A6020
:1056C0000A680592059AD207FAD53A4A1A600A681A
:1056D0000692069AD407FAD5374A1A600A680792E2
:1056E000079AD207FAD5354A1A600A680892089ACA
:1056F000D407FAD5324A1A600A680992099AD20781
:10570000FAD5304A1A600A680A920A9AD407FAD57A
:105710002D4A1A600A680B920B9AD207FAD52B4AC7
:105720001A600A680C920C9AD407FAD5284A1A60B3
:105730000A680D920D9AD207FAD5264A1A600A68AD
:105740000E920E9AD407FAD5234A1A600A680F926D
:105750000F9AD207FAD5214A1A600F4B19461C68D6
:105760001094109CE407FAD50C4B1860086811904F
:105770001198C407FAD51A600A681292129AD007D3
:10578000FAD5174A1A600A681392139AD207FAD503
:10579000144A1A6014B010BDB010845080108450A8
:1057A0008090652100040990409665908080612179
:1057B00080200821802064900081619000461021A3
:1057C000008111210041442180202029024610C877
:1057D00000860921802060214021282940966521EA
:1057E00040962529594614C8504B10B51C4696B012
:1057F0001A680192019AD207FAD54D4B4D4A1A60A8
:1058000022680292029AD207FAD54B4A1A604B4A92
:1058100042EA804022680392039AD207FAD51860C0
:1058200022680492049AD007FAD5454A1A60A2F574
:10583000800242EA814122680592059AD207FAD590
:10584000196022680692069AD007FAD53D4A1A6076
:1058500022680792079AD107FAD53B4A1A60226854
:105860000892089AD207FAD5384A1A602268099233
:10587000099AD007FAD5364A1A6022680A920A9A1B
:10588000D107FAD5334A1A6022680B920B9AD207D5
:10589000FAD5314A1A6022680C920C9AD007FAD5D0
:1058A0002E4A1A6022680D920D9AD107FAD52C4A19
:1058B0001A6022680E920E9AD207FAD5294A1A6007
:1058C00022680F920F9AD007FAD5274A1A602168EA
:1058D00010911099C907FAD51A60144B1A46196825
:1058E00011911199C807FAD5114B20491960116817
:1058F00012911299C907FAD51D49196011681391BF
:105900001399CC07FAD50B491960116814911499B1
:10591000C807FAD517491960116815911599C90773
:10592000FAD5154A1A6016B010BD00BFB0108450E9
:10593000801084504004419000862929D81001C865
:1059400040144190401421294014652100344090B6
:1059500000310C90C0400C90C030202940960D9032
:1059600000416090031645C8008611210041602166
:10597000594644C84014459040142D90264870B5AF
:10598000054688B004680094009CE607FAD5234CCD
:1059900023480460234C44EA83432C680194019C0F
:1059A000E407FAD50360930143EA824242F01044CF
:1059B00044F4C0442B680293029BDE07FAD50460CE
:1059C0002B680393039BDB07FAD5174B03608B010E
:1059D00043EA814141F0104343F4C0432E680496EA
:1059E000049EF607FAD503602B680593059BDE0736
:1059F000FAD5046041F058412B680693069BDC07FA
:105A0000FAD5016042F058422B680793079BDB07E9
:105A1000FAD5026008B070BDB0108450C0210229D0
:105A2000801084508071009880611890354B8EB042
:105A300019461A680092009AD207FAD5324B334AB7
:105A40001A600A680192019AD007FAD5304A1A60A2
:105A50000A680292029AD207FAD52E4A1A600A6898
:105A60000392039AD007FAD52B4A1A600A68049267
:105A7000049AD207FAD5294A1A600A680592059A4B
:105A8000D007FAD5264A1A600A680692069AD20703
:105A9000FAD5244A1A600A680792079AD007FAD5FD
:105AA000214A1A600A680892089AD207FAD51F4A52
:105AB0001A600A680992099AD007FAD51C4A1A6036
:105AC0000A680A920A9AD207FAD51A4A1A6008682E
:105AD0000B900B98C007FAD51A600A680C920C9AC2
