:020000021000EC
:10C20000901203202D6F02008B2C04005D6F020042
:10C210005D6F02005D6F02005D6F02005D6F0200E6
:10C22000000000000000000000000000C16B0200E0
:10C230005D6F020000000000116B020065670200E4
:10C24000ED6E0200ED6E0200ED6E0200ED6E02007A
:10C25000ED6E0200ED6E0200ED6E0200ED6E02006A
:10C26000ED6E0200ED6E0200ED6E0200ED6E02005A
:10C27000ED6E0200ED6E0200ED6E0200ED6E02004A
:10C28000ED6E0200ED6E0200ED6E0200ED6E02003A
:10C29000ED6E0200ED6E0200ED6E0200ED6E02002A
:10C2A000ED6E0200ED6E0200ED6E0200ED6E02001A
:10C2B0004D950200D1400400ED6E0200ED6E0200CB
:10C2C000ED6E0200ED6E0200ED6E0200ED6E0200FA
:10C2D000ED6E0200ED6E0200ED6E0200ED6E0200EA
:10C2E000ED6E0200ED6E0200EF400400ED6E020004
:10C2F000ED6E0200ED6E0200ED6E0200ED6E0200CA
:10C30000ED6E0200ED6E0200ED6E0200ED6E0200B9
:10C31000ED6E0200ED6E0200ED6E0200ED6E0200A9
:10C32000ED6E0200ED6E0200ED6E0200ED6E020099
:10C33000ED6E0200ED6E0200ED6E0200ED6E020089
:10C34000ED6E020000000000000000000000000090
:10C3500000000000000000000000000000000000DD
:10C3600000000000000000000000000000000000CD
:10C3700000000000000000000000000000000000BD
:10C3800000000000000000000000000000000000AD
:10C39000000000000000000000000000000000009D
:10C3A000000000000000000000000000000000008D
:10C3B000000000000000000000000000000000007D
:10C3C000000000000000000000000000000000006D
:10C3D000000000000000000000000000000000005D
:10C3E000000000000000000000000000000000004D
:10C3F000000000000000000000000000000000003D
:10C40000DEE61E284CBBCE8F025B00003C00000025
:10C41000F43D03000100000000C2010000C2010061
:10C42000FFFF02910000000000000000000000007B
:0CC4300000000000000000000000000000
:04C43C00FFFFFFFF00
:10C4400081F0004102E000BF83F0004330B54FEAC5
:10C4500041044FEA430594EA050F08BF90EA020F32
:10C460001FBF54EA000C55EA020C7FEA645C7FEAC5
:10C47000655C00F0E2804FEA5454D4EB5555B8BFE8
:10C480006D420CDD2C4480EA020281EA030382EA59
:10C49000000083EA010180EA020281EA0303362DEB
:10C4A00088BF30BD11F0004F4FEA01314FF4801CBE
:10C4B0004CEA113102D0404261EB410113F0004FD0
:10C4C0004FEA03334CEA133302D0524263EB430387
:10C4D00094EA050F00F0A780A4F10104D5F1200E25
:10C4E0000DDB02FA0EFC22FA05F2801841F1000180
:10C4F00003FA0EF2801843FA05F359410EE0A5F154
:10C5000020050EF1200E012A03FA0EFC28BF4CF084
:10C51000020C43FA05F3C01851EBE37101F000453A
:10C5200007D54FF0000EDCF1000C7EEB00006EEB47
:10C530000101B1F5801F1BD3B1F5001F0CD34908D1
:10C540005FEA30004FEA3C0C04F101044FEA445228
:10C5500012F5800F80F09A80BCF1004F08BF5FEAAF
:10C56000500C50F1000041EB045141EA050130BD8F
:10C570005FEA4C0C404141EB010111F4801FA4F132
:10C580000104E9D191F0000F04BF01460020B1FA87
:10C5900081F308BF2033A3F10B03B3F120020CDABF
:10C5A0000C3208DD02F1140CC2F10C0201FA0CF09D
:10C5B00021FA02F10CE002F11402D8BFC2F1200C02
:10C5C00001FA02F120FA0CFCDCBF41EA0C019040B8
:10C5D000E41AA2BF01EB0451294330BD6FEA040401
:10C5E0001F3C1CDA0C340EDC04F11404C4F12002EC
:10C5F00020FA04F001FA02F340EA030021FA04F3FE
:10C6000045EA030130BDC4F10C04C4F1200220FA54
:10C6100002F001FA04F340EA0300294630BD21FA92
:10C6200004F0294630BD94F0000F83F4801306BF58
:10C6300081F480110134013D4EE77FEA645C18BF4C
:10C640007FEA655C29D094EA050F08BF90EA020FE3
:10C6500005D054EA000C04BF1946104630BD91EADB
:10C66000030F1EBF0021002030BD5FEA545C05D1DE
:10C670004000494128BF41F0004130BD14F580041D
:10C680003CBF01F5801130BD01F0004545F0FE4191
:10C6900041F470014FF0000030BD7FEA645C1ABFC6
:10C6A000194610467FEA655C1CBF0B46024650EAFD
:10C6B000013406BF52EA033591EA030F41F4002129
:10C6C00030BD00BF90F0000F04BF0021704730B5AF
:10C6D0004FF4806404F132044FF000054FF0000184
:10C6E00050E700BF90F0000F04BF0021704730B545
:10C6F0004FF4806404F1320410F0004548BF40421A
:10C700004FF000013EE700BF42004FEAE2014FEA6E
:10C7100031014FEA02701FBF12F07F4393F07F4F49
:10C7200081F06051704732F07F4208BF704793F04C
:10C730007F4F04BF41F40021704730B54FF460745F
:10C7400001F0004521F000411CE700BF50EA010262
:10C7500008BF704730B54FF000050AE050EA01020B
:10C7600008BF704730B511F0004502D5404261EB7B
:10C7700041014FF4806404F132045FEA915C3FF4BC
:10C78000D8AE4FF003025FEADC0C18BF03325FEA59
:10C79000DC0C18BF033202EBDC02C2F1200300FA0A
:10C7A00003FC20FA02F001FA03FE40EA0E0021FA2F
:10C7B00002F11444BDE600BF70B54FF0FF0C4CF41D
:10C7C000E06C1CEA11541DBF1CEA135594EA0C0FCF
:10C7D00095EA0C0F00F0DEF82C4481EA030621EA0A
:10C7E0004C5123EA4C5350EA013518BF52EA033545
:10C7F00041F4801143F4801338D0A0FB02CE4FF0F7
:10C800000005E1FB02E506F00042E0FB03E54FF026
:10C810000006E1FB03569CF0000F18BF4EF0010E1E
:10C82000A4F1FF04B6F5007F64F5407404D25FEA1A
:10C830004E0E6D4146EB060642EAC62141EA5551CD
:10C840004FEAC52040EA5E504FEACE2EB4F1FD0C0F
:10C8500088BFBCF5E06F1ED8BEF1004F08BF5FEA8D
:10C86000500E50F1000041EB045170BD06F000463F
:10C8700046EA010140EA020081EA0301B4EB5C04EC
:10C88000C2BFD4EB0C0541EA045170BD41F48011E4
:10C890004FF0000E013C00F3AB8014F1360FDEBF09
:10C8A000002001F0004170BDC4F10004203C35DAE5
:10C8B0000C341BDC04F11404C4F1200500FA05F368
:10C8C00020FA04F001FA05F240EA020001F0004209
:10C8D00021F0004110EBD37021FA04F642EB06017F
:10C8E0005EEA430E08BF20EAD37070BDC4F10C04A9
:10C8F000C4F1200500FA04F320FA05F001FA04F26D
:10C9000040EA020001F0004110EBD37041F1000158
:10C910005EEA430E08BF20EAD37070BDC4F1200563
:10C9200000FA05F24EEA020E20FA04F301FA05F2CB
:10C9300043EA020321FA04F001F0004121FA04F273
:10C9400020EA020000EBD3705EEA430E08BF20EA43
:10C95000D37070BD94F0000F0FD101F0004640007D
:10C9600041EB010111F4801F08BF013CF7D041EAFF
:10C97000060195F0000F18BF704703F00046520003
:10C9800043EB030313F4801F08BF013DF7D043EAD4
:10C990000603704794EA0C0F0CEA135518BF95EA8A
:10C9A0000C0F0CD050EA410618BF52EA4306D1D111
:10C9B00081EA030101F000414FF0000070BD50EA30
:10C9C000410606BF1046194652EA430619D094EABA
:10C9D0000C0F02D150EA013613D195EA0C0F05D1A4
:10C9E00052EA03361CBF104619460AD181EA0301F8
:10C9F00001F0004141F0FE4141F470014FF00000B0
:10CA000070BD41F0FE4141F4780170BD70B54FF04A
:10CA1000FF0C4CF4E06C1CEA11541DBF1CEA1355CA
:10CA200094EA0C0F95EA0C0F00F0A7F8A4EB0504AC
:10CA300081EA030E52EA03354FEA013100F08880A3
:10CA40004FEA03334FF0805545EA131343EA12636C
:10CA50004FEA022245EA111545EA10654FEA002621
:10CA60000EF000419D4208BF964244F1FD0404F5DA
:10CA7000407402D25B084FEA3202B61A65EB030536
:10CA80005B084FEA32024FF480104FF4002CB6EBF3
:10CA9000020E75EB030E22BFB61A754640EA0C0073
:10CAA0005B084FEA3202B6EB020E75EB030E22BFB3
:10CAB000B61A754640EA5C005B084FEA3202B6EBF4
:10CAC000020E75EB030E22BFB61A754640EA9C00B3
:10CAD0005B084FEA3202B6EB020E75EB030E22BF83
:10CAE000B61A754640EADC0055EA060E18D04FEA41
:10CAF000051545EA16754FEA06164FEAC30343EAE1
:10CB000052734FEAC2025FEA1C1CC0D111F4801FAD
:10CB10000BD141EA00014FF000004FF0004CB6E7A6
:10CB200011F4801F04BF01430020B4F1FD0C88BF45
:10CB3000BCF5E06F3FF6AFAEB5EB030C04BFB6EB50
:10CB4000020C5FEA500C50F1000041EB045170BD43
:10CB50000EF0004E4EEA113114EB5C04C2BFD4EB70
:10CB60000C0541EA045170BD41F480114FF0000EF4
:10CB7000013C90E645EA060E8DE60CEA135594EA70
:10CB80000C0F08BF95EA0C0F3FF43BAF94EA0C0F73
:10CB90000AD150EA01347FF434AF95EA0C0F7FF4E8
:10CBA00025AF104619462CE795EA0C0F06D152EA3C
:10CBB00003353FF4FDAE1046194622E750EA410620
:10CBC00018BF52EA43067FF4C5AE50EA41047FF431
:10CBD0000DAF52EA43057FF4EBAE12E74FF0FF3C96
:10CBE00006E000BF4FF0010C02E000BF4FF0010C67
:10CBF0004DF804CD4FEA410C7FEA6C5C4FEA430CE0
:10CC000018BF7FEA6C5C1BD001B050EA410C0CBF2E
:10CC100052EA430C91EA030F02BF90EA020F002090
:10CC2000704710F1000F91EA030F58BF994208BFF7
:10CC300090422CBFD8176FEAE37040F001007047B4
:10CC40004FEA410C7FEA6C5C02D150EA013C07D10B
:10CC50004FEA430C7FEA6C5CD6D152EA033CD3D056
:10CC60005DF8040B704700BF8446104662468C4650
:10CC70001946634600E000BF01B5FFF7B7FF002883
:10CC800048BF10F1000F01BD4DF808EDFFF7F4FFAC
:10CC90000CBF012000205DF808FB00BF4DF808ED37
:10CCA000FFF7EAFF34BF012000205DF808FB00BF5A
:10CCB0004DF808EDFFF7E0FF94BF012000205DF87C
:10CCC00008FB00BF4DF808EDFFF7CEFF94BF012031
:10CCD00000205DF808FB00BF4DF808EDFFF7C4FF2A
:10CCE00034BF012000205DF808FB00BF4FEA41027D
:10CCF00012F5001215D211D56FF47873B3EB6252AE
:10CD000012D94FEAC12343F0004343EA505311F0D4
:10CD1000004F23FA02F018BF404270474FF0000066
:10CD2000704750EA013005D111F0004008BF6FF0A4
:10CD3000004070474FF00000704700BF4A0011D21A
:10CD400012F5001211D20DD56FF47873B3EB625265
:10CD50000ED44FEAC12343F0004343EA505323FA71
:10CD600002F070474FF00000704750EA013002D1E6
:10CD70004FF0FF3070474FF0000070474FEA41021C
:10CD8000B2F1E04324BFB3F5001CDCF1FE5C0DD929
:10CD900001F0004C4FEAC0024CEA5070B2F1004F73
:10CDA00040EB830008BF20F00100704711F0804F76
:10CDB00021D113F13872BCBF01F00040704741F43B
:10CDC00080114FEA5252C2F11802C2F1200C10FA3F
:10CDD0000CF320FA02F018BF40F001004FEAC12323
:10CDE0004FEAD32303FA0CFC40EA0C0023FA02F3C7
:10CDF0004FEA4303CCE77FEA625307D150EA01339D
:10CE00001EBF4FF0FE4040F44000704701F000406C
:10CE100040F0FE4040F40000704700BF7BB972B99B
:10CE20000029BEBF00204FF0004106E008BF0028E7
:10CE30001CBF6FF000414FF0FF3000F0BBB9ADF107
:10CE4000080C6DE904CE002909DB002B1ADB00F089
:10CE50004DF8DDF804E0DDE9022304B070474042FC
:10CE600061EB4101002B1BDB00F040F8DDF804E032
:10CE7000DDE9022304B0404261EB4101524263EB21
:10CE800043037047524263EB430300F02FF8DDF891
:10CE900004E0DDE9022304B0404261EB4101704748
:10CEA000524263EB430300F021F8DDF804E0DDE9D2
:10CEB000022304B0524263EB4303704753B94AB9AB
:10CEC000002908BF00281CBF4FF0FF314FF0FF3092
:10CED00000F070B9ADF1080C6DE904CE00F006F871
:10CEE000DDF804E0DDE9022304B070472DE9F04FDE
:10CEF000099E04468946002B40F083808A421546ED
:10CF000045D9B2FA82F24AB1C2F1200701FA02F31E
:10CF10009540944020FA07F747EA03094FEA154E77
:10CF2000230C1FFA85F8B9FBFEFC0EFB1C990CFBC9
:10CF300008F143EA094399420AD9EB182CBF0120B2
:10CF40000020994202D9002800F01D810CF1FF3C1D
:10CF5000591AA3B2B1FBFEF00EFB101100FB08F84A
:10CF600043EA0144A04505D92C1902D2A04500F29C
:10CF70000E810138A4EB080440EA0C4000271EB1E2
:10CF8000D4400023C6E900433946BDE8F08F002AAB
:10CF900051D0B2FA82F2002A40F0AF80491B4FEA2A
:10CFA000154E1FFA85F80127230CB1FBFEFC0EFB82
:10CFB0001C1108FB0CF043EA014398420AD9EB1814
:10CFC0002CBF01210021984202D9002900F0D7800E
:10CFD0000CF1FF3C191AA3B2B1FBFEF00EFB1011CD
:10CFE00008FB00F843EA0144A04505D92C1902D2F8
:10CFF000A04500F2C1800138A4EB080440EA0C40CF
:10D00000BDE78B4208D9002E74D00027C6E9000185
:10D0100038463946BDE8F08FB3FA83F767B98B42DB
:10D02000C0F0A480824240F2A1803846002EABD0EE
:10D03000C6E90049A8E7FFDEC7F12005BB4002FAB8
:10D0400007FC01FA07F4EA4020FA05F8E94000FA83
:10D0500007FE1A4348EA04044FEA1248200C1FFA5C
:10D0600082F9B1FBF8FA08FB1A110AFB09FB40EA46
:10D0700001418B450AD951182CBF012300238B4550
:10D0800002D9002B00F088800AF1FF3AA1EB0B01D6
:10D09000A4B2B1FBF8F008FB101100FB09F944EA57
:10D0A0000141894504D9511801D289457BD80138FD
:10D0B00040EA0A40A1EB0901A0FB0C89494544461E
:10D0C0004B4602D306D1C64504D20138B8EB0C0456
:10D0D00069EB0203002E5DD0BEEB040261EB03019D
:10D0E00001FA05F522FA07F3F94000271D43C6E9C6
:10D0F000005149E73746304646E7C2F120009540E7
:10D1000001FA02F721FA00F34FEA154E24FA00F172
:10D110001FFA85F894403943B3FBFEF00F0C0EFB69
:10D12000103300FB08FC47EA03439C4507D9EB1882
:10D130002CBF012700279C4500D98FB30138A3EBF2
:10D140000C0389B2B3FBFEF70EFB173307FB08FC99
:10D1500041EA03418C4504D9691801D28C4525D890
:10D16000013FA1EB0C0147EA00471DE7841A61EB80
:10D1700003030120994659E702382C443CE7ACF1FF
:10D18000020C2B4426E7ACF1020C2B44E0E60238FB
:10D190002C44EFE63746F7E6AAF1020A114475E798
:10D1A00002382B44CBE70238114481E7023F29447F
:10D1B000D7E700BF704700BF4FEA410C7FEA6C5CC5
:10D1C00002D150EA013C0AD14FEA430C7FEA6C5C81
:10D1D00002D152EA033C02D14FF0000070474FF0F9
:10D1E0000100704738B50022002304460D46FFF7C2
:10D1F00055FD28B920462946BDE8384000F00AB858
:10D20000204605F1004100F005F8404261EB410184
:10D2100038BD00BFD0B500220B4B06460F46FFF7C6
:10D22000CBFAFFF78BFD0446FFF74CFA0022074BC1
:10D23000FFF7C2FA02460B4630463946FFF704F9BB
:10D24000FFF77CFD2146D0BD0000F03D0000F0411D
:10D2500010F8012B11F8013B012A28BF9A42F7D0A0
:10D26000D01A7047034613F8012B002AFBD1181A75
:10D2700001387047000000002DE9F041284B294D8E
:10D28000294CA846E41AD5E900231343C4F3C90482
:10D2900018D024F001FBD5E90032C61A61EB020771
:10D2A0001DA3D3E90023B242BB410BDB4FF00000CA
:10D2B00002231E4963F3070064F38F10BDE8F041B9
:10D2C00024F0BDBE03234FF0000063F3070064F3B6
:10D2D0008F10174924F0B3FE164A002307CA09F03D
:10D2E000B1FB024658B101214FF0000061F3070085
:10D2F00064F38F101049BDE8F04124F0A0BE24F083
:10D30000CBFA0323C8E900014FF0000063F30700E4
:10D3100064F38F100949D1E77FEE3600000000006A
:10D3200078680400580E022088680400868404008F
:10D33000B284040098450220C8840400F0840400EC
:10D3400070B596B027F09BFE4FF47A74A0FB04569C
:10D3500004FB0166EA0B524C42EA4642F30BCDE96C
:10D360001423206883680321DB689847014678B15D
:10D3700001234FF000004B4A63F307004A4B4B492F
:10D380009B1ADB0863F38F1024F059FE16B070BDB2
:10D3900006AA206824F09DFA60B101234FF0000036
:10D3A000404A63F30700404B41499B1ADB0863F393
:10D3B0008F10E9E708AA0121206824F08AFA0028E2
:10D3C000EBD10AAA0221206824F083FA0028E4D1D4
:10D3D0000798FFF787F930A3D3E90023FFF716FB7F
:10D3E000044606980D46FFF77DF902460B46204697
:10D3F0002946FFF72BF8CDE90E010998FFF772F9DE
:10D4000025A3D3E90023FFF701FB044608980D4646
:10D41000FFF768F902460B4620462946FFF716F843
:10D42000CDE910010B98FFF75DF91BA3D3E90023A9
:10D43000FFF7ECFA04460A980D46FFF753F9024647
:10D440000B4620462946FFF701F80022194B0446F7
:10D450000D46FFF737FC90B10123CDE912456C462C
:10D460008DF83030144B10AD1E680FCD0FC495E809
:10D47000030084E803000CAB0FCBB04786E7002223
:10D480000E4B20462946FFF713FC08B10223E4E7C0
:10D490000323E2E7AFF300800000000080842E4108
:10D4A00000460220786804002869040021870400EF
:10D4B0003C8704000000144004460220000014C011
:10D4C0002DE9F04F8DB06A4B00AF1A68C7F808D04D
:10D4D0003B60002A5CD0674B674A684C9B1AC3F3D9
:10D4E000C9033B610323664E07F11805FB6054F83E
:10D4F000043B186A198B8368DB6898478046B0B193
:10D50000BB8A23F03F0242F0010262F307033A694B
:10D510009BB262F38F13BB8254F8043CD86924F0A9
:10D52000A1FD434602465749B88A24F088FD54F8C5
:10D53000043C186A198B83682A461B69984754F87B
:10D54000043C814640B32AF03F0242F0010262F3FC
:10D55000070A3A69D86962F38F1A24F083FD4B46B3
:10D5600002464849504624F06AFDFB680835013BF5
:10D57000FB60BCD1444B1B6803B19847434B1B78FD
:10D58000002B6CD13B68186806F0A0FAD7F808D0D9
:10D590003437BD46BDE8F08F03F124084FF0200377
:10D5A000EFF3118283F31188BFF36F8F40467A60E7
:10D5B00021F048F868B95C2332463549354824F0F3
:10D5C00013FB4146344824F00FFB5C21304624F025
:10D5D00025FD404621F054F86868FFF783F822A340
:10D5E000D3E90023FFF712FA804628688946FFF73F
:10D5F00079F802460B4640464946FEF727FF54F8A5
:10D6000004BCCBE9020127F03AFD4FF47A7CA0FB81
:10D610000C890CFB01994FEAD8324FEAD93342EA20
:10D620004942CBE9042354F8043C03F12408404662
:10D6300021F016F868B9842332461849154824F0B9
:10D64000D3FA4146164824F0CFFA8421304624F01C
:10D65000E5FC7B6883F31188BFF36F8F85E71420A7
:10D6600092E700BFAFF300800000000080842E41ED
:10D6700040060220E868040078680400506C04004A
:10D680007B8D0400538D0400284602207FAE0220CB
:10D69000A18D04005B820400B68D0400CE8D0400D1
:10D6A000E58D0400000000002DE9F04305469BB025
:10D6B0000F4616460021302202A827F0D5FD002D86
:10D6C00000F08780002E00F084801B238DF8083046
:10D6D00027F0D5FC4FF47A730024A0FB038903FBE9
:10D6E00001994FEAD8304FF47A72002340EA49405A
:10D6F0002146FFF7E3FB3C4A0244130A110201F4FE
:10D700007F0103F47F430B4343EA026343F0830347
:10D710002A610C93E8683022CDE90044234602A92F
:10D7200025F030F800280FDB214630220EA827F024
:10D730009BFDA9683A46284607F0ACFEA04206DAEF
:10D7400025F0EBFA006840421BB0BDE8F08337D00B
:10D75000E8683022CDE9004423460EA925F045F8BB
:10D760000028EDDB30282ED1149B2A691BBA9A427F
:10D7700002D06FF01500E7E79DF8383003F007039B
:10D78000042BF6D19DF8393003B3189B199A1BBAB4
:10D7900012BA53EA0201ECD0002BB2600CDA134A41
:10D7A0009342E6D90CA1D1E90001C41841F100056A
:10D7B000C6E900450020C7E709A1D1E90001F4E767
:10D7C0006FF07300C0E76FF07900BDE76FF00F00F6
:10D7D000BAE76FF00D00B7E78081557CFFFFFFFFD0
:10D7E0008081557C00000000807EAA837F7EAA8312
:10D7F0002DE9F043054693B00C4609B9002024E01A
:10D8000008680028FAD08B686268191D91420BD80D
:10D810000422B149184427F000FF28B90423EB6023
:10D82000A3680433A36074E0A3686268591D914241
:10D830000ED820680522A949184427F0EEFE38B911
:10D840000120A368E8600533A36013B0BDE8F0834E
:10D85000A3686268191D91420DD820680422A0496E
:10D86000184427F0DAFE30B902230120EB60A368E8
:10D8700068610433E8E7D4E90172BA42BED2206895
:10D88000835C222B04D1214628460BF0B9F8DCE753
:10D890002D2B03D0A3F13006092E50D8002301937D
:10D8A0000028ABD0BF1A02AE9F4202EB03010ED09C
:10D8B000415C39292FD8302905D22D2903D02E29B2
:10D8C00001D02B2903D1F15401333F2BECD112AA03
:10D8D0001344002201A9304603F8402C22F00CFD2D
:10D8E000019F59EC108BB74288D079A3D3E900236C
:10D8F00085ED060B10EE100A4946FFF7E3F970B10B
:10D900006FF000436B610823BE1BA768EB603E44C9
:10D91000A660012099E74529D5D06529D2E70022E4
:10D92000704B40464946FFF7C3F910B14FF0004332
:10D93000E8E740464946FFF7D9F96861E3E75B2B22
:10D9400053D1E368B3F57A7FBFF458AF0133E36096
:10D95000835C5B2B7FF452AF0132A260204626F03D
:10D96000AEFAD4E90123934262D22268D25C5D2AE6
:10D9700009D10026E368013BE3602023C5E9026387
:10D98000A36801334EE74FF000084646013BA36011
:10D99000206926F0C6FA074600B3EEB1C8F80000C9
:10D9A000C0F80480A36820460133A36026F087FAFC
:10D9B00021463846FFF71CFF98B1204626F07FFA33
:10D9C000D4E9012393420CD22268B846D35C2C2BB5
:10D9D000DED05D2B05D1CDE70646E3E7002E3FF410
:10D9E0000DAF30460BF016FC08E77B2B7FF406AF3B
:10D9F000E368B3F57A7FBFF401AF0133E360835C82
:10DA00007B2B7FF4FBAE0132A260204626F057FA52
:10DA1000D4E9012393420BD22268D25C7D2A0AD139
:10DA20000027E368013BE3604023C5E90273A7E7F1
:10DA3000013BA360E2E64FF000084746C146013BC8
:10DA4000A360206926F06DFA0646002839D0B7B3E6
:10DA5000C8F80000C0F80480A36820460133A36022
:10DA600026F02DFA214630460AF0CAFF60B3204660
:10DA700026F025FA3369C6F810903362D4E9012301
:10DA8000934221D22268D25C3A2A1DD10133A3608D
:10DA9000204626F014FA21463046FFF7A9FE98B139
:10DAA000204626F00CFAD4E9012393420CD22268D6
:10DAB000B046D35C2C2BC4D07D2B05D1B1E70746F3
:10DAC000CAE7002F3FF49AAE38468BE7AFF30080E9
:10DAD0000000C0FFFFFFDF4157A204006EA2040058
:10DAE00074A204000000E0C1174BD0B5186857ECD1
:10DAF000106B26F016FA044670B10823C0E90667D9
:10DB0000C36039460EA3D3E900233046FFF7DAF8A5
:10DB100020B16FF0004363612046D0BD00220B4B63
:10DB200030463946FFF7C4F810B14FF00043F2E732
:10DB300030463946FFF7DAF86061EDE7AFF3008071
:10DB40000000C0FFFFFFDF41F00602200000E0C13F
:10DB50002DE9F0412DED028B0E468CB091B90123D9
:10DB60004FF00000B64A63F30700B64BB6499B1A64
:10DB7000DB0863F38F1024F062FA0CB0BDEC028B6B
:10DB8000BDE8F0810024B14F57F8045B2846FFF749
:10DB900069FB31460246284627F03FFD0546A0BBFB
:10DBA000E4B2012C00F02381022C00F0BB814FF085
:10DBB00009080A2107A8CDF8088026F011FE0446BE
:10DBC00038B301234FF000009D4A63F307009D4BDB
:10DBD0009F499B1ADB0863F38F10224624F02FFA2B
:10DBE00001234FF00005964A63F30705954B304635
:10DBF0009B1ADB0863F38F1524F034FA22460346A0
:10DC00009449284624F01BFAB7E70134032CBBD112
:10DC1000B3E7014607AA304626F0DFFD0446002898
:10DC200060D001234FF00000854A63F30700854B65
:10DC300089499B1A2246DB0863F38F1024F0FFF911
:10DC400007A826F0E0FD002CCAD105F0FB03012B4C
:10DC500002D1824820F0D6FA814C2368002B8CD068
:10DC6000804A1178A94207D0157000228DF82850FB
:10DC70008DF8242009A898477B4E03AD0822314631
:10DC8000284627F0C3FA60B195E8030004238DF815
:10DC900024300CAB03E9030086E80300236809A8DD
:10DCA0009847724E05AD08223146284627F0AEFA55
:10DCB00060B195E8030001238DF824300CAB03E933
:10DCC000030086E80300236809A898470023644AF4
:10DCD0001268002A3FF451AF002B3FF44EAF09A861
:10DCE00090474AE701AA012107A826F03AFE044618
:10DCF00068B101234FF00000514A63F30700514B14
:10DD00005B499B1ADB0863F38F10224696E79DF868
:10DD100004505A2D4FD002AB09AA022107A826F0C1
:10DD200037FE074680B101234FF00000444A63F3F9
:10DD30000700444B4F499B1A3A46DB0863F38F10A8
:10DD400024F07DF93C467BE7029B0CAA1344214654
:10DD5000102209A803F80C4C22F0D0FB02AB04906F
:10DD600009AA032107A8CDF8088026F011FE07466E
:10DD700068B101234FF00000314A63F30700314BD3
:10DD80003D499B1ADB0863F38F103A46D8E7029BA4
:10DD90000CAA13442146102209A803F80C4C22F0C7
:10DDA000ADFB05F0FB03012B039009D04FF0FF33CF
:10DDB000CDE9053344E74FF0FF33CDE90333F5E711
:10DDC00005AA012107A80DF0F1FC044600283FF444
:10DDD00037AF01234FF00000194A63F30700194BD6
:10DDE00026499B1ADB0863F38F10224626E7CDE90C
:10DDF0000700042107A826F0F3FC0546002841D0BF
:10DE000001234FF000000E4A63F307000D4B104949
:10DE10009B1ADB0863F38F102A4624F010F90123C4
:10DE20004FF00000064A63F30700064B14499B1AA3
:10DE30002A46DB0863F38F1024F001F99DE600BF4A
:10DE40007868040008690400FCAB0400506F04000B
:10DE50001CAC040019AD040045AC0400304902209C
:10DE60002C490220DBC902204849022050490220E7
:10DE700072AC04009FAC0400CBAC0400ECAC04001A
:10DE8000B5AD0400014607AA304626F0A6FC0546BB
:10DE9000C0B101234FF00000A74A63F30700A74B6E
:10DEA000A7499B1A2A46DB0863F38F1024F0C7F8B2
:10DEB00007A826F0A8FC002DB1D103238DF824304B
:10DEC000012304E705AA214607A826F04AFD0546D6
:10DED00068B101234FF00000974A63F30700974BA6
:10DEE00098499B1ADB0863F38F102A46DEE7059AF0
:10DEF00012B98DF82800DBE7012A02D18DF828201D
:10DF0000D6E701234FF000008B4963F307008B4BEA
:10DF10006FF015055B1ADB0863F38F108A4924F054
:10DF20008EF8C5E70423894DCDE907002A780393CD
:10DF3000013A042A04D8DFE802F02139032139002C
:10DF400001234FF000007C4A63F307007B4B8049BC
:10DF50009B1ADB0863F38F1024F071F86FF07F04D5
:10DF600001234FF00000744A63F30700734B7949B3
:10DF70009B1ADB0863F38F1022465DE79FED768ADC
:10DF8000052107A826F02CFC044690B101234FF090
:10DF90000000694A63F30700684B70499B1ADB086D
:10DFA00063F38F10224624F04AF8D9E79FED6C8A7C
:10DFB000E6E7014607AA304626F00FFC0446A8B162
:10DFC00001234FF000005C4A63F307005B4B654997
:10DFD0009B1A2246DB0863F38F1024F030F807A861
:10DFE00026F011FC002CBBD1022367E703AB05AA86
:10DFF000032107A826F0CCFC044668B101234FF0AA
:10E0000000004D4A63F307004C4B57499B1ADB084D
:10E0100063F38F102246E0E7039B0CAA134403F836
:10E020001C0C0146022205A822F068FAC0B20F2893
:10E0300050D82B78013B042B2CD8DFE803F00329C0
:10E040002B032900494B33F81000002840D0FEF77D
:10E0500049FB37A3D3E90023FEF7AEFBFEF78EFEA4
:10E0600004210A9003AB05AA07A8039126F090FCAF
:10E07000044690B301234FF000002F4A63F30700DA
:10E080002E4B3B499B1ADB0863F38F102246A4E713
:10E09000384BD8E701234FF00000274A63F307000D
:10E0A000264B2B499B1ADB0863F38F1023F0C7FF25
:10E0B0006FF07F0401234FF000001F4A63F3070055
:10E0C0001E4B2D499B1ADB0863F38F10224684E711
:10E0D0002A48C5E76FF01504ECE7039B0CAA13442C
:10E0E00003F81C0C0222014605A822F007FAC2B26E
:10E0F0000F2A10D901234FF000000F4963F30700E6
:10E100000E4B6FF015045B1ADB0863F38F101C498C
:10E1100023F095FF63E70130C0B207EE900AF8EEF6
:10E12000E77A67EE887ACDED0B7A58E7AFF3008097
:10E130007B14AE47E17A2440786804000869040043
:10E1400045AD040070AD040099AD0400DCC90220A7
:10E15000DCAD0400D0AE04000AD7A33F1CAC040021
:10E160000AD723400CAE040038AE04001479040032
:10E1700088AE04003479040064AE04000AD7A340DA
:10E18000B3AE040000000000D0B514460F460646AA
:10E19000FEF7ACFD2060FEF7A5FA02460B463046BE
:10E1A0003946FEF751F904A3D3E90023FEF704FB37
:10E1B000FEF79CFD6060D0BD0000000080842E4111
:10E1C000F8B5102900F2A880DFE801F009203040FE
:10E1D000A6A6A6A6A6A6A6A6A66A92A67F00544CA8
:10E1E00014F0F0F82068FEF77DFA524B0022064644
:10E1F0000F46FEF7E1FA504BC3E90001304607F144
:10E200000041FEF773FD20600020F8BD484C14F07B
:10E21000D9F82068FEF766FA464B002206460F46FC
:10E22000FEF7CAFA444BC3E90201E7E7404C14F099
:10E23000C9F82068FEF756FA3E4B002206460F4604
:10E24000FEF7BAFA3C4BC3E90401D7E714F0BAF879
:10E25000394CC4E90001002121201FF097FF14F080
:10E26000B1F8C4E90201324D002121201FF08EFFD8
:10E2700014F0A8F82868FEF735FA00222D4B064660
:10E280000F46FEF799FAC4E90001C4E90201C4E9A6
:10E290000401304607F10041FEF728FD2860B3E78E
:10E2A00021F080FFFEF71EFA1DA3D3E90023FEF73D
:10E2B000ADFB0022214BFEF7C7F8214B0022FEF7F1
:10E2C000C5F8204BC3E900019EE721F06BFFFEF784
:10E2D00009FA13A3D3E90023FEF798FB0022174B9A
:10E2E000FEF7B2F8184B0022FEF7B0F8174BE9E73B
:10E2F00021F058FFFEF7F6F909A3D3E90023FEF752
:10E3000085FB00220D4BFEF79FF807A3D3E90023FE
:10E31000FEF79CF80E4BD5E76FF0850075E700BF60
:10E320000000C0FFFFFFCF41CDCCCCCCCC8C5840FF
:10E330006C07022000003440403602200000F03F0D
:10E34000000035406839022000004A40583602205B
:10E35000603602200000000051EC100B2C4A21F026
:10E360000043934200B585B027DD2A4A934209DD78
:10E3700010EE102A0B46FEF767F841EC100B05B0C3
:10E380005DF804FB684600F047F800F00300012840
:10E390001FD0022830D028B39DED021B9DED000B4D
:10E3A00000F056FA10EE100A53EC102B03F1004166
:10E3B00041EC100B05B05DF804FB00209FED121B33
:10E3C00000F09EFF51EC100B41EC100B05B05DF816
:10E3D00004FB9DED021B9DED000B00F039FA51ECA2
:10E3E000100BCAE701209DED021B9DED000B00F014
:10E3F00087FF51EC100BC0E701209DED021B9DED46
:10E40000000B00F07DFFCDE70000000000000000E1
:10E41000FB21E93FFFFFEF7F53EC102B2DE9F04F7D
:10E42000994923F000458FB08D4240F38880974989
:10E430001E4604468D4229DC002E194610EE100AB5
:10E4400087A3D3E9002340F3AE81FDF7FDFF904B96
:10E45000804689469D4200F08880012782A3D3E947
:10E460000023FDF7F1FF02460B4640464946C4E94A
:10E470000023FDF7E9FF7CA3D3E90023FDF7E4FFC8
:10E48000C4E9020138460FB0BDE8F08F81498D42E2
:10E4900040F38B8080498D425CDC2F1510EE100A12
:10E4A00010EE108AA7F21647A5EB07594946FEF76A
:10E4B0001DFCFEF717F982468B46404649465246F8
:10E4C0005B46CDE908ABFDF7BFFF0022734BFEF7BB
:10E4D00073F989468046FEF709FC0546FEF702F906
:10E4E00002460B4640464946CDE90A23FDF7ACFFFC
:10E4F00000226A4BFEF760F900220023CDE90C01EF
:10E50000FEF7C2FB002800F04C81002D0CBF012358
:10E510000223634902203A4601912146009008A84F
:10E5200000F0DAFA002E0746ACDA62684742E36888
:10E5300002F1004203F100436260E360A2E70027BA
:10E540000024002580ED000BC0E9024538460FB0DD
:10E55000BDE8F08F10EE100A1946FDF775FF002791
:10E56000C4E90201C4E900018CE741A3D3E9002317
:10E57000FDF76AFF06460F463FA3D3E90023FDF7E8
:10E5800063FF02460B46304639460127C4E90023A3
:10E59000FDF75AFF38A3D3E90023FDF755FFC4E97F
:10E5A000020138460FB0BDE8F08F21F07FF810EE81
:10E5B000100A59EC108B32A3D3E900234946FEF729
:10E5C000FBF80022374BFDF741FFFEF78FFB0746B4
:10E5D000FEF788F822A3D3E90023CDE90401FEF772
:10E5E000EBF802460B4640464946FDF72DFF8246B2
:10E5F0008B461DA3D3E90023DDE90401FEF7DCF817
:10E600001F2FCDE9020151DC02460B465046594608
:10E61000FDF71AFF244B7A1E8046894653F82230B4
:10E62000AB424BD042464B4650465946C4E900895E
:10E63000FDF70AFFDDE90223FDF706FF002EC4E91E
:10E640000201BFF61FAF09F1004501F100437F420F
:10E65000C4E90085C4E9020314E700BFAFF30080FA
:10E6600000004054FB21F93F3163621A61B4D03D90
:10E670000000601A61B4D03D7370032E8A19A33B69
:10E6800083C8C96D305FE43FFB21E93F7BD902407D
:10E69000FB21F93FFB213941FFFFEF7F0000704173
:10E6A000587704000000E03FD8760400DDE902233B
:10E6B00050465946FDF7C8FE804689462D15C9F3D8
:10E6C0000A53EB1A102BADDD57A3D3E90023DDE984
:10E6D0000401FEF771F88046894602460B46504613
:10E6E0005946FDF7B1FE02460B4650465946CDE964
:10E6F0000623FDF7A9FE42464B46FDF7A5FE8046E0
:10E7000089464BA3D3E90023DDE90401FEF754F861
:10E7100042464B46FDF798FE0B460246DDE906AB46
:10E72000CDE9020150465946FDF78EFEC1F30A536A
:10E7300080468946ED1A312D7FF774AF3FA3D3E9A8
:10E740000023DDE90401FEF737F8804689460246DA
:10E750000B46DDE90601FDF777FE02460B468246D1
:10E760008B46DDE90601FDF76FFE42464B46FDF79D
:10E770006BFE8046894633A3D3E90023DDE904011B
:10E78000FEF71AF842464B46FDF75EFE02460B4680
:10E7900050465946CDE90223FDF756FE804689468C
:10E7A00040E70323B5E6FDF751FE234B804689463B
:10E7B0009D4216D04FF0FF3719A3D3E90023FDF790
:10E7C00045FE02460B4640464946C4E90023FDF794
:10E7D0003BFE13A3D3E90023FDF738FEC4E9020191
:10E7E00050E611A3D3E90023FDF730FE0F4606469D
:10E7F0000FA3D3E90023FDF729FE02460B4630465E
:10E8000039464FF0FF37C4E90023FDF71DFE08A38A
:10E81000D3E90023FDF71AFEC4E9020132E600BF86
:10E820003163621A61B4D03D0000601A61B4D03D1A
:10E830007370032E8A19A33BFB21F93F0000002EC1
:10E840008A19A33BC14920259A837B390000000027
:10E850002DE9F04F57EC106B27F00049B9F1795FC3
:10E860002DED028BB0EE418AF0EE618A83B072DA50
:10E8700010EE100A3946FEF739FA002800F0F6804B
:10E8800032463B4630463946FDF796FF04460D4674
:10E890007BA3D3E90023FDF78FFF7BA3D3E90023FC
:10E8A000FDF7D4FD22462B46FDF786FF78A3D3E97A
:10E8B0000023FDF7C9FD22462B46FDF77DFF76A319
:10E8C000D3E90023FDF7C2FD22462B46FDF774FF76
:10E8D00073A3D3E90023FDF7B7FD22462B46FDF7CE
:10E8E0006BFF71A3D3E90023FDF7B0FD22462B4651
:10E8F000FDF762FF82468B460022714B2046294677
:10E90000FDF75AFF5246804689465B462046294617
:10E91000FDF752FF04460D463046394653EC182B9E
:10E92000FDF74AFF02460B4620462946FDF78CFDBF
:10E9300002460B4640464946FDF786FD02460B4619
:10E9400000206049FDF780FD41EC100B03B0BDECE9
:10E95000028BBDE8F08F10EE102A10EE100A3B4635
:10E960003946FDF729FF04460D4645A3D3E90023A8
:10E97000FDF722FF44A3D3E90023FDF767FD2246FC
:10E980002B46FDF719FF42A3D3E90023FDF75CFDF9
:10E9900022462B46FDF710FF3FA3D3E90023FDF7E6
:10E9A00055FD22462B46FDF707FF3DA3D3E9002383
:10E9B000FDF74AFD22462B46FDF7FEFE3AA3D3E9BA
:10E9C0000023FDF743FD2B462246FDF7F5FE3E4BA7
:10E9D00082468B4699458FDD3C4B99453DDC0022B4
:10E9E000A9F500130020374990469946FDF72CFD04
:10E9F000CDE900010022324B20462946FDF7DCFE1E
:10EA000042464B46FDF720FD5246804689465B460E
:10EA100020462946FDF7D0FE04460D4630463946CD
:10EA200053EC182BFDF7C8FE02460B46204629463C
:10EA3000FDF70AFD02460B4640464946FDF704FD38
:10EA400002460B46DDE90001FDF7FEFC41EC100B30
:10EA500003B0BDEC028BBDE8F08F9FED157B4FF04E
:10EA60000008DFF86C908DED007BC3E79FED120B83
:10EA700003B0BDEC028BBDE8F08F00BFAFF30080A8
:10EA8000D43888BEE9FAA8BDC4B1B4BD9EEE213E1B
:10EA9000AD529C804F7E923E9015CB19A001FA3E5C
:10EAA0007751C1166CC1563F4C5555555555A53F2C
:10EAB000000000000000E73F000000000000F03F01
:10EAC0000000E03F0000F03F3233D33F0000E93F59
:10EAD0000000D23F000000002DE9F04F1C46ADF5CC
:10EAE000197D12F1140F0B9104F1FF31089303917A
:10EAF000B14BA299049053F821300593C0F2C18222
:10EB0000D31EAE4981FB0301DB17C3EBA1030793BF
:10EB10000133A3EB8303DB00D318079A0693039B0F
:10EB2000D61A059A12EB030814D408F1010820AF95
:10EB300000240025B044DDF88C92002E20462946A2
:10EB400003DB59F82600FDF7CDFD01364645E7E821
:10EB50000201F2D1059B002B089B4FEAC3030193EE
:10EB600029DB049A20A90DF5E07A02EB030801EBFA
:10EB7000030972AA059B02EBC30B039B002BC0F297
:10EB80009E814D46049C0026002775E90223F4E887
:10EB90000201FDF711FE02460B4630463946FDF7ED
:10EBA00055FC444506460F46EFD109F10809EAE84D
:10EBB0000267DA45E1D10599019A04988B00019129
:10EBC00002440BA89346A3F10802C3180A930CABA6
:10EBD00013440993019A98A9002A01EBC20353E94F
:10EBE000284529DD0DF5E07A0DF130090AEBC20860
:10EBF0000022734B20462946FDF7DEFDFEF776F82E
:10EC0000FDF770FD00226F4B06460F46FDF7D4FD61
:10EC100002460B4620462946FDF716FCFEF766F82D
:10EC2000394649F8040B304678E90223FDF70EFC1B
:10EC30000446D0450D46DBD1DDF8189045EC104B6D
:10EC4000484600F0ADFC00224FF07F5310EE100A52
:10EC500055EC104B2946FDF7AFFD41EC100B00F0D1
:10EC60001BFC0022584B51EC100BFDF7A5FD024692
:10EC70000B4620462946FDF7E7FB0D460446FEF706
:10EC800035F88046FDF72EFD0B4602462946204604
:10EC9000FDF7DAFB4B4606460F46002B40F3968005
:10ECA000019A0CA9C9F11803C9F11705013A51F8E5
:10ECB000221041FA03F000FA03F38044CB1A0CA9A6
:10ECC00043FA05F541F82230002D00F38980002237
:10ECD000002330463946FDF7D7FF002800F0978221
:10ECE0000199059B01F1FF394B4510DC6FF0404362
:10ECF00000220A980B440CA901EB830353F8041972
:10ED0000834242EA0102F9D1002A40F0E280059BE9
:10ED10000CAA013B52F82330002B40F0CB80099A1B
:10ED2000012352F8041901330029FAD001994A1C31
:10ED3000CB1891460293079B6FF0404A0199D31874
:10ED400008989A44014420AB03EBC105A39B03EB55
:10ED50008A0A70AB03EBC20301935AF8040FA8466A
:10ED6000FDF7C0FC0B46039902460029E8E80223A0
:10ED70001FDB049C0026002701E075E90223F4E86C
:10ED80000201FDF719FD02460B4630463946FDF7F4
:10ED90005DFB5C4506460F46EFD1019B09F1010979
:10EDA0004546E3E802670193029B9945D5DD01934F
:10EDB00010E700260027F0E760780400ABAAAA2A33
:10EDC0000000703E000070410000204069D1019BAE
:10EDD0000CAA013B52F82350ED15002D7FF777AFB9
:10EDE000019B08F10108002B40F30F820C9C002CC2
:10EDF0003AD1019B012B09D00CA9012251F8044FF3
:10EE0000531C9CBB1A46019B9342F7D1069B002BD7
:10EE10000EDD012B00F01A81022B09D1019B0CA9F8
:10EE20005A1E0CAB53F82230C3F3150341F82230BD
:10EE3000022D7FF44CAF32463B4600209849FDF747
:10EE400003FB06460F46002C3FF441AF06989FEDAA
:10EE5000900B00F0A5FB3046394653EC102BFDF724
:10EE6000F3FA06460F4632E7012300220CA9C4F14B
:10EE7000807441F822400199994210DD0CA80CAA37
:10EE800052F8232000EB830300EB81006FF07F41F9
:10EE900000E01A688A1A43F8042B8342F9D101244E
:10EEA000B4E700227F4BFDF70DFF002840F0D9802A
:10EEB00005460CE7019B5A1C914602923BE700264F
:10EEC000002709F10809EAE80267DA457FF455AE40
:10EED00071E6069A0CABCDF81C80183A53F829302D
:10EEE0000495069273B9704B019919440B460CA90D
:10EEF00001EB830353F8041909F1FF39183A00298B
:10EF0000F8D0069206989FED620B00F049FBB9F12C
:10EF1000000F55EC104BC0F2DA814FEAC90370AA1A
:10EF200009F101064FF0000A02EB030806930CAB4F
:10EF3000DFF878B108F1080703EB860656F8040DF0
:10EF4000FDF7D0FB22462B46FDF736FC5B465246CA
:10EF500067E9020120462946FDF72EFC0CAB04466A
:10EF60000D469E42EAD148ABC3464FF0000A0393D8
:10EF7000CDE90139DDF81490B9F1000F2BDBDFF892
:10EF800030815D4600240026002743A3D3E90023F7
:10EF900003E0544510DCF8E802230134F5E80201EF
:10EFA000FDF70AFC02460B4630463946FDF74EFA9D
:10EFB000A14506460F46ECDA029AABF1080B019B1D
:10EFC0009245E3E8026701930AF1010306D0B9F123
:10EFD000000F9A46D3DA00260027EDE7A29BDDF862
:10EFE0000890032B2BD8DFE813F0F500E400E400D1
:10EFF000670048AB00240025039303992B46224663
:10F00000D1E90001FDF720FA049B002B40F03E817E
:10F010000B9BB9F1000FC3E900450DDD4AAD01249A
:10F020000134F5E80223FDF711FAA145F8DA049B53
:10F0300013B101F1004319460B9BC3E90201079B81
:10F0400003F007000DF5197DBDE8F08F019B0CA9B9
:10F050005A1E0CAB53F82230C3F3160341F822308A
:10F06000E6E6019B08F101080225002B3FF7BEAE42
:10F0700032463B4600200A49FDF7E6F906460F46B0
:10F0800025E600216FF01703079145E5AFF30080F7
:10F09000000000000000F03F00000040FB21F93FAD
:10F0A0000000F03F0000E03FFEFFFF3F0000703E29
:10F0B000606A040048AB0393B9F1000F40F3198173
:10F0C000039A4FEAC90302EBC9080193D8E900ABE0
:10F0D00078E9026752465B4630463946FDF7B6F995
:10F0E00004460D4602460B4630463946FDF7ACF95C
:10F0F0005B465246AB46FDF7A9F9039BA246434542
:10F10000C8E90201C8E90045E2D1B9F1010F40F3B5
:10F11000F0806FF06042019B03990DF5947A4A44A8
:10F120000B44D20002F1080B0192D3E900678B4433
:10F1300032463B467BE9028940464946FDF786F95F
:10F1400004460D4602460B4640464946FDF77CF90B
:10F1500032463B462646FDF779F9DA452F46CBE99C
:10F160000201CBE90045E3D1019C0020039B002173
:10F17000103403F110051C4474E90223FDF766F90D
:10F18000A542F9D1039C049ED4E90023D4E90245A9
:10F19000002E40F086800B9EC6E90023079BC6E93F
:10F1A000040103F00700C6E902450DF5197DBDE82D
:10F1B000F08F069E0024039F002508363E4420461B
:10F1C000294676E90223FDF741F90446B7420D4688
:10F1D000F5D112E7069C0020039D002108342C4441
:10F1E00074E90223FDF732F9A542F9D1049B13B16A
:10F1F00001F1004319460B9BC3E90001079B03F093
:10F2000007000DF5197DBDE8F08F0024FEE5069C92
:10F21000CDF81C806042049547EC106B00F0C0F9FB
:10F22000002210EE100A344B57EC106B3946FDF7F4
:10F2300049FD08B318340022304B30463946069455
:10F24000FDF7BAFA019DFDF751FD0446FDF74AFAB4
:10F250000022294B05F10109FDF7AEFA0B460246E3
:10F2600039463046FDF7F0F8FDF740FD0CAB43F8AA
:10F27000250043F8294045E630463946019CFDF714
:10F2800035FD0CAAA14642F824003BE6224605F1D2
:10F2900000430B9CB9F1000FC4E900233FF7BEAE59
:10F2A000C7E603F1004701F100430B992646944657
:10F2B00005F10044C1E90403079B03F00700C1E91D
:10F2C00000C7C1E902640DF5197DBDE8F08FA29B6E
:10F2D000032B3FF6B4AE01A252F823F0EDF2010089
:10F2E000F3EF0100F3EF0100B5F001000020002171
:10F2F0007CE70020002145E7000070410000703EDF
:10F300002DE9F04F55EC104B25F000438246B3F148
:10F31000795F2DED028BB0EE418AF0EE618A83B009
:10F3200007DA10EE100A2946FDF7E0FC002800F08D
:10F330008E8022462B4620462946FDF73DFA06469A
:10F340000F4602460B4620462946FDF735FA804611
:10F3500089463046394645A3D3E90023FDF72CFA08
:10F3600044A3D3E90023FDF76FF832463B46FDF78F
:10F3700023FA42A3D3E90023FDF768F832463B465F
:10F38000FDF71AFA3FA3D3E90023FDF75DF83246F3
:10F390003B46FDF711FA3DA3D3E90023FDF756F8EC
:10F3A000CDE90001BAF1000F37D000222E4B51EC0D
:10F3B000180BFDF701FA82468B4640464946DDE9C7
:10F3C0000023FDF7F9F902460B4650465946FDF772
:10F3D0003BF832463B46FDF7EFF953EC182BFDF7AF
:10F3E00033F806460F46404649461DA3D3E900239D
:10F3F000FDF7E2F902460B4630463946FDF726F89E
:10F4000002460B4620462946FDF71EF841EC100B3C
:10F4100003B0BDEC028BBDE8F08F02460B463046D0
:10F420003946FDF7C9F90EA3D3E90023FDF70CF81F
:10F4300042464B46FDF7C0F922462B46FDF706F83B
:10F4400041EC100B03B0BDEC028BBDE8F08F45EC36
:10F45000104B03B0BDEC028BBDE8F08FAFF3008022
:10F46000495555555555C53F0000E03F7CD5CF5A0D
:10F470003AD9E53DEB9C2B8AE6E55A3E7DFEB15735
:10F48000E31DC73ED561C119A0012A3FA6F810119E
:10F490001111813F0000000051EC100BF8B5C1F3D1
:10F4A0000A530C4610EE106AA3F2FF35132D30DC20
:10F4B000002D1EDB384F2F4107EA010303432DD0F7
:10F4C00033A3D3E90023FCF7C1FF00220023FDF79B
:10F4D00003FC48B1002C04DA4FF4801343FA05F51D
:10F4E0002C4424EA070400262346324643EC102B22
:10F4F000F8BD27A3D3E90023FCF7A8FF00220023CF
:10F50000FDF7EAFB0028EFD0002C29DB002634466B
:10F51000EAE7332D05DDB5F5806F19D041EC100B0E
:10F52000F8BDA3F213434FF0FF37DF400742F5D099
:10F5300017A3D3E90023FCF789FF00220023FDF77E
:10F54000CBFB0028D0D0002C13DB26EA0706CBE744
:10F5500010EE102A0B46FCF779FF41EC100BF8BDBA
:10F5600024F000430D4A33430026B34218BF14462B
:10F57000BAE7142D08D00123C5F1340503FA05F5C7
:10F58000AE1928BFE418E0E70134DEE7AFF30080EE
:10F590009C7500883CE4377EFFFF0F000000F0BF41
:10F5A00038B553EC102BC3F30A511C46054681BBFA
:10F5B00023F0004410EE101A214329D03C4C194688
:10F5C00000223C4B10EE100AFDF7F6F8A542024669
:10F5D0000B4616DB0C46C1F30A513639294440F27A
:10F5E000FE70814221DC002945DC11F1350F34DA4F
:10F5F0004CF250318D4218DC002B25A1D1E90001DD
:10F6000040DB23A3D3E90023FDF7D6F841EC100B30
:10F6100038BD40F2FF708142E0D110EE100A194669
:10F62000FCF714FF41EC100B38BD002B1AA1D1E9F7
:10F63000000107DB18A3D3E90023FDF7BDF841EC77
:10F64000100B38BD16A1D1E9000113A3D3E90023A3
:10F65000FDF7B2F841EC100BF3E7174836312040C4
:10F6600040EA0153104600221946144BFDF7A4F856
:10F6700041EC100B38BD1048204040EA015343ECE8
:10F68000102B38BD08A1D1E90001BAE7AFF3008023
:10F6900059F3F8C21F6EA5019C7500883CE4377EC3
:10F6A0009C7500883CE437FE59F3F8C21F6EA581B3
:10F6B000B03CFFFF00005043FFFF0F800000903C74
:10F6C0002DE9F04F1F46A1B000230E4604904FF0E5
:10F6D000000A1C934FF0000B974B17921B681846BB
:10F6E0000593FDF7BFFD04461B961B9A13780D2B5F
:10F6F00032D8092B36D2002B3ED000230C931B9D11
:10F700002B78302B40F0A9806B78582B01D0782BC8
:10F7100067D10C9B1BA9029701931CAB874A0093EE
:10F720001DAB049821F084F910F00704064605D0BB
:10F73000062C2BD1013500231B950C93179B002B16
:10F7400040F072850C9BE3B152460BF1004343EC51
:10F75000102B21B0BDE8F08F2B2B06D02D2B13D012
:10F76000202BCAD101321B92BFE700230C93531CFC
:10F770001B935378002BC2D1179B1B96002B40F094
:10F78000518552465B46E2E70123EFE71C9A3AB106
:10F7900035211EA826F01EFD1C99049826F052FA69
:10F7A000013C042C06D8DFE804F00A0314170A0011
:10F7B000DDE91EAB3107C1D54BF0004BBEE7DDE9FB
:10F7C0001EA31D9A23F4801302F2334243EA025B24
:10F7D000F0E7DFF86CB1EDE76FF0004B4FF0FF3A68
:10F7E000E8E71B9B5A1C1B925B78302BF9D0002B4F
:10F7F000A4D001234FF0000906930A221B9BC846A0
:10F80000CDF81C9009931B980578A5F13003D9B267
:10F81000092924D92246059925F0FFFE78B3002056
:10F820002B46444602460590652B01D0452B12D14C
:10F830001CB9069B03439FD000241B9E731C1B9383
:10F8400073782B2B71D02D2B74D00027A3F13001AE
:10F8500009297BD91B96002598E00023CAE7B8F157
:10F86000080F00F1010008F10108D4BF079902FB5D
:10F8700009391B90DCBF02FB01330793C3E71B9BD5
:10F880001A191B921B5DB8F1000F35D04446059044
:10F89000A3F13002092A12D90122C5E71B9B0130CE
:10F8A0005A1C1B925B78302BF8D0A3F13102082A46
:10F8B00000F2BF84059000201B9A04460992303B59
:10F8C00000F1010212D00599051911442246059153
:10F8D0000A21AA4212D122180134082A04441ADC4F
:10F8E00007990A2202FB0133079300221B9B104653
:10F8F000591C1B915B78CBE74046D4E7082A04DC0F
:10F90000079F4F4307970132E3E7571C102FD8BFDB
:10F9100001FB09F9F7E7102CDCBF0A2202FB0939C9
:10F92000E3E700230122059383E70027B31C1B9321
:10F93000B3788BE70127F9E7FC78040074780400BA
:10F940000000F07F1B9B591C1B915B78302BF9D07A
:10F95000A3F1310108293FF67EAFA3F1300C4FF03F
:10F960000A0E1B9B08931B9B591C1B915B78A3F1F0
:10F970003005092D2ED9089D491B44F61F6508291D
:10F9800002DC6545A8BF654607B16D42002C4BD12E
:10F99000069901437FF4D2AE002A7FF4EDAE4E2BE0
:10F9A00022D01CDC492B7FF4E7AE9A491BA826F035
:10F9B0001EF800283FF4E0AE1B9B1BA89649013BB4
:10F9C0001B9326F014F810B91B9B01331B93DFF82F
:10F9D00060B2B3E60EFB0C3CACF1300CC3E7692B14
:10F9E000E3D06E2B7FF4C8AE8C491BA825F0FFFF37
:10F9F00000283FF4C1AE1B9B1B78282B0ED11EAAFA
:10FA000087491BA826F007F8052807D11F9BDDF8BA
:10FA100078A043F0FF4B4BF4E00B8FE6814801F0F8
:10FA2000C7F95BEC10AB89E6059BB8F1000F08BF86
:10FA3000A046102C0798A5EB03032646A8BF102666
:10FA40000893FCF73FFE092C82468B4613DD764B6C
:10FA500003EBC60353E91223FCF7AEFE82468B4646
:10FA60004846FCF72FFE02460B4650465946FCF727
:10FA7000EDFC82468B460F2C38DC089B002B3FF4B4
:10FA80005DAE24DD162B0BDC674C524604EBC30441
:10FA90005B46D4E90001FCF78FFE82468B464DE6BB
:10FAA000C4F12503089A934220DBC4F10F045E4D94
:10FAB00052465B4605EBC401D1E90001FCF77CFE30
:10FAC000089B1C1B05EBC405D5E90023E3E7089B55
:10FAD00016330BDB059B5046534A59465D1B02EB20
:10FAE000C505D5E90023FCF791FFD6E7A61B089BC7
:10FAF0001E44002E6EDD16F00F030AD04A4952460E
:10FB000001EBC3015B46D1E90001FCF755FE8246DB
:10FB10008B4636F00F064ED0B6F59A7F23DD0024D3
:10FB20000594099407942223049ADFF804B14FF056
:10FB3000000A1360099B002B3FF400AE1C99049847
:10FB400026F080F80799049826F07CF8DDE9040196
:10FB500026F078F80999049826F074F8214604985C
:10FB600026F070F8EAE500233611504659461F4644
:10FB7000DFF8B890012E21DC0BB182468B462B4B6F
:10FB8000ABF1547B524603EBC7075B46D7E9000154
:10FB9000FCF712FE264B0A4682460B4025498B4253
:10FBA000BDD8A1F580118B4286BFDFF88CB04FF035
:10FBB000FF3A02F1547B0023069378E0F20706D562
:10FBC00009EBC703D3E90023FCF7F6FD0123013756
:10FBD0007610CFE7EFD0764216F00F020AD0124B24
:10FBE0005046594603EBC203D3E90023FCF70EFF4E
:10FBF00082468B463611DED01F2E1FDD0024059471
:10FC0000099407942223049A4FF0000A4FF0000B46
:10FC100013608FE72593040040F3040029F30400E8
:10FC20008878040079940400E86A0400C06A04003B
:10FC30000000F07F0000A07CFFFFEF7F16F01003B4
:10FC400050465946AC4F18BF6A2306930023F2076B
:10FC500004D5D7E90023FCF7AFFD0123761007F1A7
:10FC60000807F4D10BB182468B46069BBBB1CBF3A0
:10FC70000A535946C3F16B03002B10DD1F2B40F3D1
:10FC80002681342B4FF0000ADBBF203B4FF0FF32C0
:10FC90004FF05C7B02FA03F3D8BF03EA010B0022AA
:10FCA000002350465946FCF7EFFF0028A6D1079BDA
:10FCB0004246099900932346049826F017F80990C4
:10FCC00000283FF42CAF059B00245D1B089B059486
:10FCD000002BB4BF2B4600230E93089B23EAE3734B
:10FCE0001693099B0498596825F078FF079000281F
:10FCF0003FF419AF099B0C301A6903F10C01023271
:10FD0000920025F091FA1EAA1DA904984BEC10ABA5
:10FD1000CDE90AAB26F0DDF91C9000283FF403AFD3
:10FD20000121049826F070F80590034600283FF45E
:10FD3000FAAE1D9E1E9A002EA9BF0E9B169BF718A9
:10FD4000169DB8BF9D1B069BB8BF0E9FF61A6B4B46
:10FD50001644C2F13602013E9E4280F2BF809B1BD8
:10FD60004FF001081F2BA2EB0302CDBFC6F17F4667
:10FD700008FA03F8002606F57F06C2BF06F57B46A3
:10FD8000E23608FA06F607EB0209069B15444F45D2
:10FD90001D443B46A8BF4B46AB42A8BF2B46002B99
:10FDA000C2BFA9EB0309ED1AFF1A0E9B002B17DD4A
:10FDB0001A46DDE9040121F0BFF8059000283FF460
:10FDC000B2AE01461C9A049826F027F80D90002840
:10FDD0003FF4A9AE1C99049825F034FF0D9B1C93A9
:10FDE000B9F1000F7EDC089B002B08DD169A0799FD
:10FDF000049821F0A1F8079000283FF494AE002D5C
:10FE000008DD2A460799049826F096F807900028FE
:10FE10003FF489AE002F08DD3A46DDE9040126F003
:10FE20008BF8059000283FF47EAE079A1C99049841
:10FE300026F0EFF8044600283FF475AEC368059934
:10FE40000D930023C36026F0CAF800285CDA0D9BEE
:10FE500053EA0A037ED1CBF31303002B7AD12BF0A4
:10FE600000431B0D1B05B3F1D66F73D9636913B93A
:10FE70002369012B6EDD21460122049826F05CF8EF
:10FE80000599044626F0ABF8002863DD06995B4629
:10FE90001B4A00297DD002EA0B01B1F1D66F78DC54
:10FEA000B1F15C7F7FF7AEAE0023164A504659464B
:10FEB000CDE91432DDE91423FCF77EFC0B468246C3
:10FEC0008B46034302BF2223049A136036E64FF0A9
:10FED000FF3202FA03F303EA0A0AE0E600264FF0D3
:10FEE000010850E74A461C99049826F025F81C9012
:10FEF00000287FF478AF16E6986A040002FCFFFF42
:10FF00000000F07F000050395D4660D10D9ACBF3C0
:10FF1000130342B3B84A934228D1069B5046EBB133
:10FF2000B64A4FF0FF312A40B2F1D46F19D8120D02
:10FF3000C2F16B0301FA03F3984217D1B04B9D4213
:10FF400002D101303FF4EFADAC4B4FF0000A2B4033
:10FF500003F5801B069B002BA6D1EFE54FF0FF3386
:10FF6000EAE70B46E8E753EA0A038FD0DEB12E42F8
:10FF7000F0D00D9B5046069A5946BBB125F095FB33
:10FF800002460B46DDE90A01FCF760FA82468B4621
:10FF9000E0E713404FF0FF3AA3F580136FEA135BDD
:10FFA0006FEA0B5BD6E718EA0A0FE1E725F07DFB65
:10FFB00002460B46DDE90A01FCF746FA002200235F
:10FFC00082468B46FCF760FE0028C3D01AE60599EE
:10FFD000204626F0CCF800224FF0804310EE100AA5
:10FFE00057EC106B3946FCF763FE002873D00D9B6D
:10FFF000002B46D04FF00008DFF808920026814F12
:020000022000DC
:100000007E4B2B400F930F9A7F4B9A4240F0AB8070
:10001000A5F1547BDDE90A234BEC10ABCDE91423A9
:1000200020F0D8FF4046494653EC102BFCF7C4FBA8
:1000300052465B46FCF70AFA0B4670498246734A01
:10004000194091425BD90B9B02F15472934203D148
:100050000A9B01333FF467ADDFF8A4B14FF0FF3ADC
:100060001C99049825F0EEFD0799049825F0EAFD07
:10007000DDE9040125F0E6FD2146049825F0E2FDC6
:100080002FE6BAF1000F18D1CBF31303DBB900222E
:100090005C4B30463946FCF701FEC8B9304639465C
:1000A00000225B4BFCF788FB06460F4607F1004336
:1000B00018961993DDE91889A2E7BAF1010F02D168
:1000C000002D3FF49FAD4FF00008DFF8489195E711
:1000D00000264F4FEAE74E4B304639460022FCF7E8
:1000E0006BFB0D9B06460F4633B901F100431090A0
:1000F0001193DDE9108983E7CDE91067F9E703F192
:10010000547B069B002BABD12BF000430F9A1B0DA9
:100110001B059A42A4D130463946FDF763F8FCF737
:100120001DFB02460B4630463946FCF78DF9CBF3F2
:1001300013030D9A064643EA0A030F4613436BD096
:1001400027A3D3E90023FCF7A9FD00287FF4F6AC30
:100150003046394624A3D3E90023FCF7BDFD00282F
:100160003FF47EAFEAE4069B1BB30F9BB3F1D46F61
:100170001FD8304639461EA3D3E90023FCF798FD6B
:1001800090B139463046FCF7D9FD002808BF012060
:10019000FCF798FA0D9B06460F46DBB901F10043C8
:1001A00012901393DDE9128909F1D6630F9AA3EB3C
:1001B00002099DED0A0B20F00DFF4046494653EC25
:1001C000102BFCF7F9FADDE90A23FCF73FF9824628
:1001D0008B4696E7CDE91267E4E700BFAFF30080F6
:1001E0009535A094FFFFDF3F35E5AF350000E03FD8
:1001F0000000C0FFFFFFDF41FFFF0F000000F07FA6
:10020000FFFFEF7F0000F03F0000E07FFFFF9F7CDB
:100210000000E03F0000F0BF0BA3D3E90023FCF790
:100220003DFD9CE700230C931B9B179A1360FFF77F
:1002300089BA652B3FF475AB452B3FF472AB0122B5
:10024000FFF7A6BBAFF300809535A094FFFFCF3F2B
:100250002DE9F04F476A99B0834608910D921493A7
:10026000229E55EC104BCDE9004547B910201FF0F8
:1002700057FACBF824000760C760C0E90177DBF8C4
:100280002430196859B15A680123584693404A608E
:100290008B6025F0D7FCDBF8243000221A602B1E7F
:1002A000B7BF23F00043002301220193A8BF3360AE
:1002B000019CB14BB8BF3260A3431AD142F20F7315
:1002C000149A1360C4F31303009A134300F0478594
:1002D000239B53B9A94B23E0A94B03930833239ADB
:1002E0001360039819B0BDE8F08FA44B0393033358
:1002F000F5E79DED007B0022002351EC170B8DEDFF
:100300000E7BFCF7C1FC074660B10123149A136011
:10031000239B002B00F020859A4B239A1360013B0E
:100320000393DEE7C4F30A5616AA17A958469DEDB3
:100330000E0B25F0CEFE8046002E7DD00F9BA6F240
:10034000FF361597C3F31303DDE90E4543F07F55E0
:1003500045F4401500228C4B20462946FCF774F8E2
:100360007FA3D3E90023FCF727FA7FA3D3E9002377
:10037000FCF76CF804460D463046FCF7B3F97CA355
:10038000D3E90023FCF718FA02460B46204629461B
:10039000FCF75CF804460D46FCF7A8FC00228246F8
:1003A000002320462946FCF779FC48B15046FCF76B
:1003B00099F922462B46FCF767FC08B90AF1FF3A87
:1003C000BAF1160F57D8714B03EBCA03DDE90E01E2
:1003D000D3E90023FCF762FC00284ED00AF1FF3A73
:1003E00000231193169B9E1B731E079349BFC6F1F2
:1003F000010300230693002354BF06930793BAF129
:10040000000F3CDB079BCDF840A05344079300232B
:100410000993089B092B00F28D80052BC5BF043B77
:10042000002401240893089B023B032B00F28D80DB
:10043000DFE803F02F3C3A7EDDE916631E4406F246
:100440003240202811DDC0F14000009B844006F2BC
:10045000124023FA00F02043FCF734F9012304464C
:10046000A1F1F875013E159374E7C0F12000009BDF
:1004700003FA00F0F0E70123B3E71190B2E7069B1F
:10048000A3EB0A030693CAF1000309930023109318
:10049000BFE700230C930D9B002B59DC01239946E9
:1004A0001A4604930D920CE00123F3E700230C930A
:1004B0000D9B534403F1010904934B46012BB8BF34
:1004C00001230022DBF824506A60042202F11400A8
:1004D0006968984240D9584625F080FBDBF8243003
:1004E0002860B9F10E0F1B68039300F2D480002C32
:1004F00000F0D180BAF1000F66DD244A0AF00F0344
:100500004FEA2A1402EBC303E20693ED007B8DED64
:100510000A7B57D51E4B04F00F040326D3E90823AA
:10052000DDE90E01FCF772FACDE90001184D3EE05D
:100530000123BCE7012400230C9408934FF0FF3300
:100540000022049399461223ACE701230C93F5E7AC
:100550000D9B04939946B4E7013152006960B5E7F9
:1005600061436F63A787D23FB3C8608B288AC63FB9
:10057000FB799F501344D33F0000F07F46F3040003
:100580003DF30400B3ED04000000F83FE86A040006
:10059000C06A0400E30708D50136DDE90A01D5E9A0
:1005A0000023FCF709F9CDE90A0164100835002C95
:1005B000F0D1DDE90A23DDE90001FCF727FACDE9F6
:1005C00000011AE00226B1E700F09F80CAF10004A2
:1005D0009E4B9F4D022604F00F02241103EBC20331
:1005E000DDE90E01D3E90023FCF7E6F80023CDE9AD
:1005F0000001002C7ED1002BE1D1119B002B00F0DB
:1006000086800022934BDDE9004520462946FCF711
:1006100045FB00287BD0B9F1000F78D0049B002B5C
:1006200035DD0AF1FF332046002229460A930136C0
:10063000894BFCF7C1F8049CCDE900013046FCF77A
:1006400051F8DDE90023FCF7B7F80022834BFBF7F4
:10065000FDFE0646A1F15077002C5CD10022804BB4
:10066000DDE90001FBF7F0FE32463B46CDE9000133
:10067000FCF732FB002840F08982324607F1004344
:10068000DDE90001FCF70AFB002840F07D82DDE98E
:100690000E34CDE90034179B002BC0F24C81BAF127
:1006A0000E0F00F34881694B03EBCA0393ED007B07
:1006B0000D9B002B8DED047B80F2D680B9F1000FED
:1006C00000F3D28040F05F820022654B4C464E46DC
:1006D00051EC170BFCF770F8DDE90023FCF7F2FA98
:1006E000002840F03882039D31230AF1010A05F801
:1006F000013B34E2E70705D50136D5E90023FCF7D5
:100700005BF801236410083573E7022675E7CDF81E
:1007100028A04C4692E74D4B03EBC40353E902017A
:10072000039B1C440C9B002B46D002460B4600202A
:100730004C49FCF76BF932463B46FBF785FE039DBF
:1007400006460F46DDE90001FCF7D0FA1290FBF7F0
:10075000C9FF02460B46DDE90001FBF775FE129B5F
:100760003246303305F8013B3B46CDE90001FCF74A
:1007700095FA00285FD100203649DDE90023FBF718
:1007800063FE32463B46FCF789FA002840F0B2800F
:10079000A5423FF47CAF00222F4B30463946FCF790
:1007A0000BF8002206460F462B4BDDE90001FCF753
:1007B00003F8CDE90001C5E732463B46FBF7FCFFF5
:1007C0002546039ECDE91201DDE90001FCF78EFA12
:1007D0000746FBF787FF024630370B46DDE900018D
:1007E000FBF732FE06F8017BA6424FF00002CDE98E
:1007F000000125D11B4BDDE91201FBF727FE024664
:100800000B46DDE90001FCF767FA002872D10020F1
:100810001449DDE91223FBF717FE02460B46DDE91A
:100820000001FCF73BFA00283FF431AF15F8013C1A
:100830006A1E302B02D0DDF828A049E01546F5E706
:10084000054BFBF7B9FFCDE90001BDE7E86A0400FD
:10085000C06A04000000F03F0000244000001C407B
:10086000000014400000E03FDDE90067039D3046D2
:100870003946DDE90423FCF7C9F8FCF737FA0446EA
:10088000FBF730FFDDE90423FBF796FF0246304615
:1008900004F130060B463946FBF7D6FD05F8016B2F
:1008A000039E02460B46AE1BB14537D1FBF7CEFD8A
:1008B00006460F46DDE90423FCF70EFAC0B93046C0
:1008C0003946DDE90423FCF7DFF908B1E1070FD46D
:1008D0004146584625F0B6F90023149A2B700AF1C8
:1008E00001031360239B002B3FF4FBAC1D60F8E475
:1008F000CDF828A015F8012C6B1E392A08D1039ACF
:100900009A4209D10A9A039901320A9230220A7056
:100910001A7801321A708EE71D46EBE700229D4BD4
:10092000FBF74AFF0022002306460F46FCF7ACF90E
:1009300000289CD0CCE70C9A002A00F0CB80089AC3
:10094000012A00F3AE80159A002A00F0A68003F277
:100950003343099C069D069A012158461A44069283
:10096000079A1A44079225F04FFA0646002D0CDD2F
:10097000079B002B09DDAB42069AA8BF2B46D21A73
:10098000ED1A0692079AD31A0793099BF3B10C9BB1
:10099000002B00F0A380002C10DD31462246584683
:1009A00020F0CAFA424601460646584625F035FA76
:1009B000074641465846B84625F044F9099B1A1B9C
:1009C00004D04146584620F0B7FA804601215846E7
:1009D00025F01AFA109B0446002B40F381801A463A
:1009E0000146584620F0A8FA089B0446012B7ADD00
:1009F0000027236904EB8303186925F0B5F9C0F1DA
:100A00002000079B184410F01F0000F08B80C0F1FD
:100A10002003042B40F38480C0F11C00069B054496
:100A200003440693079B03440793069B002B05DDB5
:100A300041461A46584625F07FFA8046079B002B10
:100A400005DD21461A46584625F076FA0446119BE4
:100A5000002B69D02146404625F0C1FA002863DA10
:100A6000002341460A22584625F003F90C9B0AF15F
:100A7000FF3A8046002B00F07981002331460A229C
:100A8000584625F0F6F8049B0646002B00F38A80B2
:100A9000089B022B40F386804EE0169BC3F1360381
:100AA00057E7099B09F1FF34A342B7BF099B1C1B01
:100AB0000994E21ABFBF109B00249B181093B9F150
:100AC000000FB3BF069B4B46069DA3EB0905B8BFBD
:100AD000002340E7099C069D0C9E47E7099A70E7B2
:100AE000089B012B18DC009BB3B9019BC3F31303D4
:100AF000A3B9019B23F000473F0D3F0537B1069B8B
:100B0000012701330693079B01330793109B002BAA
:100B10007FF46FAF012074E70027F7E7009FF5E748
:100B200083D018461C3079E7B9F1000F34DC089BFC
:100B3000022B31DDCDF81090049B63B921460522CC
:100B4000584625F096F801460446404625F047FAF7
:100B500000283FF7C8AD0D9B039D6FEA030A0027ED
:100B60002146584625F06EF8002E3FF4B1AE2FB165
:100B7000B74203D03946584625F064F83146584606
:100B800025F060F8A4E600242646E4E7DDF828A076
:100B90002646A8E5000024400C9BCDF81090002BC1
:100BA00000F0EB80002D05DD31462A46584625F041
:100BB000C3F90646002F56D07168584625F00EF846
:100BC0003269054606F10C0102320C30920024F025
:100BD0002BFB01222946584625F0AEF9039B3746E8
:100BE000064603F10109DDE9032313440993009B41
:100BF00003F00103079309F1FF33214640460093B8
:100C000024F0D2FD034604903946404630330A931F
:100C100025F0E5F9324606902146584625F0F9F9C7
:100C2000C26805460A9B02BB0146404625F0D7F93B
:100C30000A9B0246294658460C924D460A9325F0D7
:100C400001F8089B0C9A43EA0201079B0B430A9B9D
:100C50000DD1392B27D0069A002A01DD049B3133B0
:100C6000009A13707CE73046B8E70122E2E7069964
:100C7000002904DB08980143079801431DD1002A8D
:100C8000EEDD414601225846069325F055F92146EE
:100C9000804625F0A4F90028069B02DCE0D1DA07A3
:100CA000DED5392BDAD13923009A137015F8013CBF
:100CB0006A1E392B46D00133D3E7002A03DD392BD6
:100CC000F1D00133CCE7099A09F8013C914521D0D4
:100CD000414600230A22584624F0CBFFB742804603
:100CE0004FF000034FF00A023946584606D124F06F
:100CF000C0FF0746064609F101097CE724F0B9FF69
:100D00003146074600230A22584624F0B2FF064621
:100D1000F1E70027414601225846009325F00CF9DF
:100D20002146804625F05BF90028BFDC02D1009BFC
:100D3000DB07BBD415F8013C6A1E302B7FF410AFE3
:100D40001546F7E7039B934204D10AF1010A3123C8
:100D5000039A86E71546A9E7134BFFF7E1BA239BF1
:100D6000002B7FF4B9AA114BFFF7DABA049B002BD2
:100D700003DC089B022B3FF7DFAE039D2146404674
:100D800024F012FD039A00F13003049905F8013BA9
:100D9000AA1A9142BDDD414600230A22584624F09A
:100DA00068FF8046EAE700BFB2ED04003DF30400AF
:100DB0009FED010B704700BF000000000000F87FAE
:100DC00001234FF0000010B563F30700124C134BE2
:100DD0001349E41AC4F3C90464F38F1021F02FF906
:100DE0000AF0C4FD024648B101214FF0000061F352
:100DF000070064F38F100B4921F021F901234FF014
:100E0000000063F3070064F38F10074921F017F91E
:100E1000BDE8104023F055B98868040078680400E4
:100E200092860400A6860400C286040003234FF0C5
:100E3000000070B563F307001D4C1E4B1E49E41AF9
:100E4000C4F3C90464F38F1021F0F9F81B4B186840
:100E500010BB03234FF0000063F30700184964F34D
:100E60008F10052221F0EBF841F288314FF4004059
:100E700040F2E7340025C0FB01454FF47A720023AD
:100E800020462946FCF71AF8BDE8704002460B469A
:100E90000C480D491DF022BC0368002BD9D0DB683B
:100EA000002BD6D098470028D3D143F69821DDE710
:100EB0008868040078680400917E0400AC45022034
:100EC000AD7E0400800C0220980D022008B5034876
:100ED00020F0DFFC031F5842584108BDA8450220FE
:100EE00070B5044602F014FC0546FFF7EFFF00283A
:100EF0003CD0002002F0AAFA013001D0A54235D042
:100F000061B2002002F044FBA5420FD0184A194BF1
:100F10004FF000009B1A0322C3F3C90362F30700DA
:100F200063F38F1024B1144921F089F8002107E000
:100F3000124921F084F8204602F02AFD41F288315E
:100F40004FF4004040F2E7340025C0FB01454FF468
:100F50007A72002320462946FBF7B0FFBDE87040B7
:100F600002460B46064807491DF0B8BB70BD00BFDE
:100F7000786804008868040085860400E5E70400BA
:100F8000800C0220F80D022010B586B0044618220D
:100F90000021684624F068F9FFF798FFB8B102F025
:100FA000C1FBA0B96A460621204601F091FE024627
:100FB00078B101234FF00000144963F30700144B8C
:100FC0005B1ADB0863F38F10124921F038F806B082
:100FD00010BD114B6946186820F04AFC0446009881
:100FE00024F0E7F8002CF2D001234FF00000084A6B
:100FF00063F30700054B0949D21AD20862F38F1038
:101000002346074A21F01BF8E1E700BF7868040097
:1010100088680400AD850400AC450220CD8504003D
:10102000B379040030B5A1B080220021684624F0D5
:101030001BF9FFF74BFF08B3114B124D1C885B885F
:101040002A68E41AA24219D0802123460E4A684633
:101050001FF0F4F80D4BDA689860013208BF0122E6
:101060000A48DA60C3F804D0FFF78EFF4FF4F0129D
:101070000023074907482C601DF030FB21B030BD2C
:1010800054090220D845022035C80400D817022090
:1010900078170220800C02200148FFF775BF00BFBF
:1010A0000000022010B50AF053FC002140F6CD40AC
:1010B0001DF06CF803234FF000000E4C63F30700A3
:1010C0000D4B0E49E41AC4F3C90464F38F1020F0E9
:1010D000B6FF03234FF0000063F3070064F38F10A3
:1010E000074920F0ACFFBDE810404FF4407001F01C
:1010F00071BC00BF8868040078680400EE830400B7
:101100000484040008B5FFF7E1FE68B903230B4A25
:1011100063F307000A4B0B499B1ADB0863F38F103C
:10112000BDE8084020F08BBF02F0F2FABDE80840AD
:1011300080F00100C0B2FFF7D3BE00BF78680400A2
:1011400088680400C980040007B502AB03E9030006
:10115000019B032B07D1FFF7B9FEC8B103B05DF8BF
:1011600004EB20F0B9BB012B12D19DF800304BB934
:101170004FF4203200230849084803B05DF804EB1F
:101180001DF0ACBA044803B05DF804EB1DF02EBBB3
:1011900003B05DF804FB00BF600E0220800C02204B
:1011A000612810B514D80B4B18800B481DF006FDB4
:1011B0004FF47A73A0FB0301C30B53EA414307D1F9
:1011C000BDE8104000220023044905481DF086BAFE
:1011D00010BD00BF54090220881702207817022092
:1011E000800C0220014600F10803D3E8EF2F42F003
:1011F0000100C3E8EC0FBCF1000FF6D1D30702D415
:10120000014823F06EBE7047800C022010B50378B1
:1012100094B00446042B0AD8DFE803F003233458C3
:101220006B0001795A2904D13948FFF7DBFF14B06C
:1012300010BD01F0FB03012BF9D103234FF0000097
:10124000344A63F30700344B9B1ADB0863F38F10B7
:10125000324A334B012918BF1A46324920F0EFFEBB
:10126000E5E703234FF000002A4A63F307002A4B07
:101270002D499B1ADB0863F38F10D4E9012320F07A
:10128000DEFED4E78068FBF73FFACDE90201606833
:10129000FBF73AFA254ACDE900013C2105A81EF0EA
:1012A000CDFF01383A28C2DC03234FF00004194A6D
:1012B00063F30704184B05A89B1ADB0863F38F142C
:1012C00020F0D0FE1A4902462046C7E703234FF01C
:1012D0000000104A63F307000F4B21799B1ADB08CB
:1012E00063F38F10134A144B012918BF1A46134990
:1012F000B4E703234FF00000064A63F30700064BF0
:101300000F499B1ADB0863F38F10D4E90123B6E77A
:10131000CC4502207868040088680400F08004004E
:10132000098104002C8104004C8104007B810400AD
:101330007FE304001D81040027810400AA810400CA
:10134000B781040084B030B402AC84E80F000B4CC9
:101350009DF8082023789A420DD002AD0FCD0FC41E
:101360000FCD0FC495E8030084E8030030BC0448A7
:1013700004B0FFF737BF30BC04B07047300E022016
:10138000C0450220F0B50C468BB020F085FA2378DA
:101390000A2B25D8DFE813F00B0026003B002400C1
:1013A0005C0024008600DE00ED00FA001701032334
:1013B0004FF000008B4A63F307008B4B8B499B1A5D
:1013C000DB0863F38F1020F03AFE012002F0B4F93D
:1013D000082001F0FFFA20F05FFA854BC3E9000115
:1013E0000BB0F0BD03234FF000007E4A63F307000B
:1013F0007D4B80499B1ADB0863F38F1020F01FFEA2
:10140000002002F099F9082001F0E4FAE8E703234C
:101410004FF00000744C63F30700724B7649E41AF6
:10142000C4F3C90464F38F1020F009FE002002F019
:1014300083F94FF00005032363F3070502F0C6FAB2
:1014400064F38F1502466D49284620F0F8FDC7E782
:1014500003234FF00000634A63F30700624B6849BF
:101460009B1ADB0863F38F1020F0E9FD0023CDE920
:101470000733099394F8423001A8019394F841305E
:10148000029394F84030039394F83F30049394F817
:101490003E30013B0593A38FA3F26C7306930BF0D0
:1014A000C9FB9DE703234FF000004F4D63F3070096
:1014B0004C4B544EED1AC5F3C90565F38F105249D4
:1014C00020F0BDFD94F85B2004F108015423304660
:1014D00023F0B7FE94F85B304C4C86F85330C4E9E7
:1014E000016320F0D9F9E368C4E90401013308BFBE
:1014F0000123E36020F0D0F93D4B4FF47A72D3E939
:101500000046001B61EB06010023FBF787FC064643
:1015100008200F4601F05EFA002002F00DF94FF0AE
:101520000004032363F3070402F050FAC11710F517
:10153000B47241F1000365F38F14921B63EB070350
:101540003349204620F07BFD3248FFF74BFE02F086
:10155000DDFA45E703234FF00000224A63F307005A
:10156000214B2D499B1ADB0863F38F1020F067FD98
:1015700049E703234FF000001A4A63F307001A4BB0
:1015800026499B1ADB0863F38F10EFE703234FF024
:101590000000144A63F30700134B21499B1ADB0830
:1015A00063F38F1020F04BFD54F8080F1D4B61685A
:1015B0004FF4004203C3A0681B49186000231B4876
:1015C0001DF08CF80CE703234FF00000054A63F38D
:1015D0000700054B16499B1ADB0863F38F1020F0B8
:1015E0002EFDFDE678680400886804008F7F040003
:1015F000280E0220A67F0400BD7F0400D47F0400D3
:10160000FE7F04009AA302200E8004000000022046
:101610002A800400DC4502204E800400688004001B
:101620008480040098450220A8170220800C022024
:101630009D80040008B50378032B11D8DFE803F080
:101640000215222F03234FF000001B4A63F307000B
:101650001A4B1B499B1ADB0863F38F1020F0EFFC39
:10166000BDE8084017481CF0CDBD03234FF0000033
:10167000114A63F30700114B13499B1ADB0863F30C
:101680008F10EBE703234FF000000B4A63F30700D2
:101690000A4B0E499B1ADB0863F38F10DEE7032326
:1016A0004FF00000044A63F30700044B08499B1AFB
:1016B000DB0863F38F10D1E77868040088680400C2
:1016C000E17E0400E80B0220FA7E0400117F040092
:1016D000287F0400036837B5584923F07F428A42C7
:1016E00009D190F91000431E5842584103B0BDE89B
:1016F0003040FFF7F5BB52498A4249D18468002C3B
:1017000000F099804FF4247200234E481CF0BEFD77
:10171000054698B101234FF000004B4A63F30700E0
:101720004A4B4B499B1ADB0863F38F104FF45D73F0
:10173000484A03B0BDE8304020F081BC40F68D211E
:10174000204623F08FFF40F68D2290421BD10123CB
:101750004FF000003C4A63F307003C4B3E499B1AA4
:10176000DB0863F38F1040F68C233A4A009340F273
:101770007D3320F064FC394B1D70394803B0BDE85F
:101780003040FFF72FBD2146344823F02AFFF4E70D
:1017900034498A420DD1D0E90201FBF7CFFAC2B237
:1017A000C0F30721C0F3074003B0BDE8304020F08C
:1017B00095B82D4A03F0FF1393421FD142780E2AA9
:1017C00039D0072A08D1D0E90201FBF7B7FA03B0F4
:1017D000BDE8304002F012BB6AB301234FF00000B5
:1017E000194963F30700194B5B1ADB081F4963F3C0
:1017F0008F1003B0BDE8304020F021BC042B1AD17B
:101800004378012B01D11A48B8E70D2B01D11948B3
:10181000B4E70C2B08D1002200231749174803B066
:10182000BDE830401CF05ABF072B04D103B0BDE81F
:10183000304002F06BB903B030BD00BF08000100BA
:101840000A140700300C022078680400886804003D
:10185000C479040082790400E6790400EEA3022032
:10186000E84502200805050008000400147A040079
:10187000C0450220B445022078170220800C0220C7
:1018800030B591B01822002104A823F0EDFC1423F8
:10189000182200210AA88DF8103023F0E5FC374803
:1018A000FBF7E0FC354C90BB01236FF068058DF829
:1018B0000F303248FBF7D6FC9DB39DF80F30304A0D
:1018C000009340F68D212B462C481EF0B7FCCDE945
:1018D00005400AAA0A2104A801F0FAF9024680B3D9
:1018E00001234FF00000274963F30700264B0092C5
:1018F0005B1ADB0863F38F104FF41B73234A2449F0
:1019000020F09DFB23481CF07DFC11B030BD0DF193
:101910000F0340F68D222146204609F0D1F80546F6
:10192000C7E728B91C49154823F053FE0420CEE729
:10193000B0F5FA6FCBD91949104823F04AFE32208E
:10194000C5E7174B0AA918681FF092FF04460A98CA
:1019500023F02FFC002CD5D001234FF00000094AC2
:1019600063F30700084B00949B1ADB0863F38F10A6
:10197000064A40F272230B49C2E700BFEEA30220E1
:10198000038504007868040088680400687904000E
:1019900056850400300C02201E85040023850400B7
:1019A000AC4502208585040010B504460021064898
:1019B0001FF067FF0CB9FFF703FA03F031FABDE837
:1019C0001040002004F0FEBBA845022010B50446DC
:1019D00003F026FA01234FF00000074A63F30700E3
:1019E000064B07499B1ADB0863F38F1020F027FB97
:1019F00021460320FFF7D8FF7868040088680400B8
:101A0000AC800400182210B58CB000210DEB020050
:101A100023F02AFCFFF75AFA28B101F083FE20B127
:101A2000012002F019FA0CB010BD02F015FA684658
:101A300002F0D6F838B3684602F02CF900284DD0F1
:101A4000684602F081F9002861D068461FF08CFFDB
:101A50000028E8D19DED020B0B2001F0AFFD00281E
:101A6000E1D006A9684601F0DDF90028DBD1344B4E
:101A700006A918681FF0FCFE0446069823F099FB9F
:101A8000002CD0D017E09DED020B082001F096FD50
:101A90000028D0D006A9684601F0C4F90028CAD1B0
:101AA000274B06A918681FF0E3FE0446069823F0AA
:101AB00080FB002CBFD001234FF00000214A63F3CC
:101AC0000700214B21499B1ADB0863F38F10224644
:101AD00020F0B5FA20461FF0F2FEA4E79DED020BC0
:101AE000092001F06BFD0028AAD006A9684601F084
:101AF00099F90028A4D1124B06A918681FF0B8FE66
:101B00000446069823F055FB002C99D0D3E79DEDB1
:101B1000020B0A2001F052FD002896D006A9684663
:101B200001F080F9002890D1054B06A918681FF034
:101B30009FFE0446069823F03CFB002C85D0BAE7B4
:101B4000AC4502207868040088680400737F0400B4
:101B500010B586B0FFF7BAF940B301F0E3FD0146D6
:101B600020BB1822684623F07FFB6946104801F02D
:101B7000B3F9D8B90F4B694618681FF079FE0446CF
:101B8000009823F016FB8CB101234FF000000A4AA5
:101B900063F30700094B0A499B1ADB0863F38F10B4
:101BA000224620F04CFA20461FF089FE06B010BDF8
:101BB000300E0220AC4502207868040088680400DA
:101BC000C783040070B592B0FFF780F9002844D0B5
:101BD00001F0A8FD064600283FD131480AF0F4FC88
:101BE000021E3CDA01234FF000002E4963F3070088
:101BF0002D4B5B1ADB0863F38F102C4920F01FFA82
:101C00002B4D06AC0FCD0FC495E80300294B84E89B
:101C100003000CAC182200212046059323F024FB7E
:101C200001230222ADF83C30CDE9003202940622B5
:101C300005AB06A9304601F09BF9024688B10123A5
:101C40004FF00000174963F30700174B5B1ADB08DE
:101C500063F38F10184920F0F2F912B070BD104EE6
:101C6000CEE7164B214618681FF002FE04460C987A
:101C700023F09FFA002CF0D001234FF00000094A16
:101C800063F30700084B0E499B1ADB0863F38F10C0
:101C9000224620F0D4F920461FF011FEDDE700BFF8
:101CA000900E022078680400886804004D7F0400CC
:101CB000D0690400F47E0400AD850400AC45022028
:101CC000737F040030B587B018220021684623F0E6
